{"contracts/Transactions.sol":{"Transactions":{"abi":[{"inputs":[{"internalType":"contract ForsaToken","name":"_tokenContract","type":"address"},{"internalType":"uint256","name":"_price","type":"uint256"}],"stateMutability":"nonpayable","type":"constructor"},{"anonymous":false,"inputs":[{"indexed":true,"internalType":"address","name":"account","type":"address"},{"indexed":false,"internalType":"uint256","name":"amount","type":"uint256"}],"name":"Buy","type":"event"},{"anonymous":false,"inputs":[{"indexed":true,"internalType":"address","name":"admin","type":"address"}],"name":"IcoEnded","type":"event"},{"anonymous":false,"inputs":[{"indexed":true,"internalType":"address","name":"account","type":"address"},{"indexed":true,"internalType":"address","name":"tokenContract","type":"address"},{"indexed":false,"internalType":"uint256","name":"amount","type":"uint256"}],"name":"Sell","type":"event"},{"inputs":[],"name":"admin","outputs":[{"internalType":"address payable","name":"","type":"address"}],"stateMutability":"view","type":"function"},{"inputs":[],"name":"icoState","outputs":[{"internalType":"enum Transactions.IcoState","name":"","type":"uint8"}],"stateMutability":"view","type":"function"},{"inputs":[],"name":"newValue","outputs":[{"internalType":"uint256","name":"","type":"uint256"}],"stateMutability":"view","type":"function"},{"inputs":[],"name":"price","outputs":[{"internalType":"uint256","name":"","type":"uint256"}],"stateMutability":"view","type":"function"},{"inputs":[{"internalType":"uint256","name":"amountOfTokens","type":"uint256"}],"name":"purchase","outputs":[],"stateMutability":"payable","type":"function"},{"inputs":[],"name":"purchased","outputs":[{"internalType":"uint256","name":"","type":"uint256"}],"stateMutability":"view","type":"function"},{"inputs":[{"internalType":"uint256","name":"amountOfTokens","type":"uint256"}],"name":"swap","outputs":[],"stateMutability":"payable","type":"function"},{"inputs":[],"name":"tokenContract","outputs":[{"internalType":"contract ForsaToken","name":"","type":"address"}],"stateMutability":"view","type":"function"},{"inputs":[{"internalType":"address payable","name":"_receiver","type":"address"},{"internalType":"uint256","name":"_amount","type":"uint256"}],"name":"transfer","outputs":[],"stateMutability":"payable","type":"function"},{"inputs":[{"internalType":"uint256","name":"","type":"uint256"}],"name":"transfers","outputs":[{"internalType":"address","name":"sender","type":"address"},{"internalType":"address","name":"receiver","type":"address"},{"internalType":"uint256","name":"amount","type":"uint256"}],"stateMutability":"view","type":"function"},{"stateMutability":"payable","type":"receive"}],"evm":{"bytecode":{"linkReferences":{},"object":"608060405266038d7ea4c680006002556005805460ff19169055348015610024575f80fd5b50604051610c46380380610c4683398101604081905261004391610079565b5f8054336001600160a01b031991821617909155600180549091166001600160a01b0393909316929092179091556002556100b0565b5f806040838503121561008a575f80fd5b82516001600160a01b03811681146100a0575f80fd5b6020939093015192949293505050565b610b89806100bd5f395ff3fe608060405260043610610092575f3560e01c806394b918de1161005757806394b918de14610180578063a035b1fe14610195578063a9059cbb146101aa578063efef39a1146101bd578063f851a440146101d0575f80fd5b806344f387561461009d57806355a373d6146100cc5780637c65452c14610103578063879f9c96146101265780639377d7111461013b575f80fd5b3661009957005b5f80fd5b3480156100a8575f80fd5b506005546100b69060ff1681565b6040516100c39190610a4d565b60405180910390f35b3480156100d7575f80fd5b506001546100eb906001600160a01b031681565b6040516001600160a01b0390911681526020016100c3565b34801561010e575f80fd5b5061011860045481565b6040519081526020016100c3565b348015610131575f80fd5b5061011860035481565b348015610146575f80fd5b5061015a610155366004610a73565b6101ee565b604080516001600160a01b039485168152939092166020840152908201526060016100c3565b61019361018e366004610a73565b61022c565b005b3480156101a0575f80fd5b5061011860025481565b6101936101b8366004610a8a565b6102cd565b6101936101cb366004610a73565b6103b1565b3480156101db575f80fd5b505f546100eb906001600160a01b031681565b600681815481106101fd575f80fd5b5f9182526020909120600390910201805460018201546002909201546001600160a01b03918216935091169083565b5f60055460ff16600181111561024457610244610a39565b1461028d5760405162461bcd60e51b81526020600482015260146024820152735370727a6564617a206e696520616b7479776e6160601b60448201526064015b60405180910390fd5b5f6040518060600160405280336001600160a01b03168152602001838152602001600254846102bc9190610ad3565b905290506102c981610449565b5050565b60408051606081018252338082526001600160a01b038581166020840181905292840185905260015493516323b872dd60e01b815260048101929092526024820192909252604481018490529116906323b872dd906064016020604051808303815f875af1158015610341573d5f803e3d5ffd5b505050506040513d601f19601f820116820180604052508101906103659190610af0565b6102c95760405162461bcd60e51b815260206004820152601860248201527f5472616e7366657220746f6b656e75206e69657564616e7900000000000000006044820152606401610284565b5f60055460ff1660018111156103c9576103c9610a39565b1461040d5760405162461bcd60e51b81526020600482015260146024820152735370727a6564617a206e696520616b7479776e6160601b6044820152606401610284565b5f6040518060600160405280336001600160a01b031681526020018381526020016002548461043c9190610ad3565b905290506102c9816107a8565b5f8160200151116104aa5760405162461bcd60e51b815260206004820152602560248201527f4c69637a626120746f6b656e6f77206d75736920627963207769656b737a612060448201526406e697a20360dc1b6064820152608401610284565b602081015160015482516040516370a0823160e01b81526001600160a01b0391821660048201529116906370a0823190602401602060405180830381865afa1580156104f8573d5f803e3d5ffd5b505050506040513d601f19601f8201168201806040525081019061051c9190610b16565b101561056a5760405162461bcd60e51b815260206004820152601e60248201527f4e69777973746172637a616a6163792062616c616e7320746f6b656e6f7700006044820152606401610284565b80604001514710156105ce5760405162461bcd60e51b815260206004820152602760248201527f4e6965777973746172637a616a61636120696c6f736320457468657275206e61604482015266206b6f6e63696560c81b6064820152608401610284565b600154815160208301516040516323b872dd60e01b81526001600160a01b03928316600482015230602482015260448101919091529116906323b872dd906064016020604051808303815f875af115801561062b573d5f803e3d5ffd5b505050506040513d601f19601f8201168201806040525081019061064f9190610af0565b61069b5760405162461bcd60e51b815260206004820152601960248201527f5472616e7366657220746f6b656e6f77206e69657564616e79000000000000006044820152606401610284565b805160408083015190515f926001600160a01b031691908381818185875af1925050503d805f81146106e8576040519150601f19603f3d011682016040523d82523d5f602084013e6106ed565b606091505b505090508061073e5760405162461bcd60e51b815260206004820152601860248201527f5472616e7366657220457468657275206e69657564616e7900000000000000006044820152606401610284565b816020015160035f8282546107539190610b2d565b909155505060015482516020808501516040519081526001600160a01b0393841693909216917fae98fdb7f4bc601d31354dd8c8ba584bf892418c4df67aba01011867bd88ea27910160405180910390a35050565b5f81602001511161080b5760405162461bcd60e51b815260206004820152602760248201527f4c69637a626120746f6b656e6f77206d75736920627963207769656b737a61206044820152666f64207a65726160c81b6064820152608401610284565b60208101516001546040516370a0823160e01b81523060048201526001600160a01b03909116906370a0823190602401602060405180830381865afa158015610856573d5f803e3d5ffd5b505050506040513d601f19601f8201168201806040525081019061087a9190610b16565b10156108c85760405162461bcd60e51b815260206004820152601f60248201527f4e696520777973746172637a616a61636120696c6f736320746f6b656e6f77006044820152606401610284565b8060400151341461091b5760405162461bcd60e51b815260206004820152601a60248201527f5779736c616e6f206e6965706f7261776e6120776172746f73630000000000006044820152606401610284565b6001548151602083015160405163a9059cbb60e01b81526001600160a01b039283166004820152602481019190915291169063a9059cbb906044016020604051808303815f875af1158015610972573d5f803e3d5ffd5b505050506040513d601f19601f820116820180604052508101906109969190610af0565b6109d75760405162461bcd60e51b81526020600482015260126024820152715472616e73666572206e6965207564616e7960701b6044820152606401610284565b806020015160035f8282546109ec9190610b40565b909155505080516020808301516040519081526001600160a01b03909216917fe3d4187f6ca4248660cc0ac8b8056515bac4a8132be2eca31d6d0cc170722a7e910160405180910390a250565b634e487b7160e01b5f52602160045260245ffd5b6020810160028310610a6d57634e487b7160e01b5f52602160045260245ffd5b91905290565b5f60208284031215610a83575f80fd5b5035919050565b5f8060408385031215610a9b575f80fd5b82356001600160a01b0381168114610ab1575f80fd5b946020939093013593505050565b634e487b7160e01b5f52601160045260245ffd5b8082028115828204841417610aea57610aea610abf565b92915050565b5f60208284031215610b00575f80fd5b81518015158114610b0f575f80fd5b9392505050565b5f60208284031215610b26575f80fd5b5051919050565b81810381811115610aea57610aea610abf565b80820180821115610aea57610aea610abf56fea2646970667358221220a665f70aad0bd1cccbba21cf0ce528e74150eff0a060fa93438f3b128183c2f864736f6c63430008170033","opcodes":"PUSH1 0x80 PUSH1 0x40 MSTORE PUSH7 0x38D7EA4C68000 PUSH1 0x2 SSTORE PUSH1 0x5 DUP1 SLOAD PUSH1 0xFF NOT AND SWAP1 SSTORE CALLVALUE DUP1 ISZERO PUSH2 0x24 JUMPI PUSH0 DUP1 REVERT JUMPDEST POP PUSH1 0x40 MLOAD PUSH2 0xC46 CODESIZE SUB DUP1 PUSH2 0xC46 DUP4 CODECOPY DUP2 ADD PUSH1 0x40 DUP2 SWAP1 MSTORE PUSH2 0x43 SWAP2 PUSH2 0x79 JUMP JUMPDEST PUSH0 DUP1 SLOAD CALLER PUSH1 0x1 PUSH1 0x1 PUSH1 0xA0 SHL SUB NOT SWAP2 DUP3 AND OR SWAP1 SWAP2 SSTORE PUSH1 0x1 DUP1 SLOAD SWAP1 SWAP2 AND PUSH1 0x1 PUSH1 0x1 PUSH1 0xA0 SHL SUB SWAP4 SWAP1 SWAP4 AND SWAP3 SWAP1 SWAP3 OR SWAP1 SWAP2 SSTORE PUSH1 0x2 SSTORE PUSH2 0xB0 JUMP JUMPDEST PUSH0 DUP1 PUSH1 0x40 DUP4 DUP6 SUB SLT ISZERO PUSH2 0x8A JUMPI PUSH0 DUP1 REVERT JUMPDEST DUP3 MLOAD PUSH1 0x1 PUSH1 0x1 PUSH1 0xA0 SHL SUB DUP2 AND DUP2 EQ PUSH2 0xA0 JUMPI PUSH0 DUP1 REVERT JUMPDEST PUSH1 0x20 SWAP4 SWAP1 SWAP4 ADD MLOAD SWAP3 SWAP5 SWAP3 SWAP4 POP POP POP JUMP JUMPDEST PUSH2 0xB89 DUP1 PUSH2 0xBD PUSH0 CODECOPY PUSH0 RETURN INVALID PUSH1 0x80 PUSH1 0x40 MSTORE PUSH1 0x4 CALLDATASIZE LT PUSH2 0x92 JUMPI PUSH0 CALLDATALOAD PUSH1 0xE0 SHR DUP1 PUSH4 0x94B918DE GT PUSH2 0x57 JUMPI DUP1 PUSH4 0x94B918DE EQ PUSH2 0x180 JUMPI DUP1 PUSH4 0xA035B1FE EQ PUSH2 0x195 JUMPI DUP1 PUSH4 0xA9059CBB EQ PUSH2 0x1AA JUMPI DUP1 PUSH4 0xEFEF39A1 EQ PUSH2 0x1BD JUMPI DUP1 PUSH4 0xF851A440 EQ PUSH2 0x1D0 JUMPI PUSH0 DUP1 REVERT JUMPDEST DUP1 PUSH4 0x44F38756 EQ PUSH2 0x9D JUMPI DUP1 PUSH4 0x55A373D6 EQ PUSH2 0xCC JUMPI DUP1 PUSH4 0x7C65452C EQ PUSH2 0x103 JUMPI DUP1 PUSH4 0x879F9C96 EQ PUSH2 0x126 JUMPI DUP1 PUSH4 0x9377D711 EQ PUSH2 0x13B JUMPI PUSH0 DUP1 REVERT JUMPDEST CALLDATASIZE PUSH2 0x99 JUMPI STOP JUMPDEST PUSH0 DUP1 REVERT JUMPDEST CALLVALUE DUP1 ISZERO PUSH2 0xA8 JUMPI PUSH0 DUP1 REVERT JUMPDEST POP PUSH1 0x5 SLOAD PUSH2 0xB6 SWAP1 PUSH1 0xFF AND DUP2 JUMP JUMPDEST PUSH1 0x40 MLOAD PUSH2 0xC3 SWAP2 SWAP1 PUSH2 0xA4D JUMP JUMPDEST PUSH1 0x40 MLOAD DUP1 SWAP2 SUB SWAP1 RETURN JUMPDEST CALLVALUE DUP1 ISZERO PUSH2 0xD7 JUMPI PUSH0 DUP1 REVERT JUMPDEST POP PUSH1 0x1 SLOAD PUSH2 0xEB SWAP1 PUSH1 0x1 PUSH1 0x1 PUSH1 0xA0 SHL SUB AND DUP2 JUMP JUMPDEST PUSH1 0x40 MLOAD PUSH1 0x1 PUSH1 0x1 PUSH1 0xA0 SHL SUB SWAP1 SWAP2 AND DUP2 MSTORE PUSH1 0x20 ADD PUSH2 0xC3 JUMP JUMPDEST CALLVALUE DUP1 ISZERO PUSH2 0x10E JUMPI PUSH0 DUP1 REVERT JUMPDEST POP PUSH2 0x118 PUSH1 0x4 SLOAD DUP2 JUMP JUMPDEST PUSH1 0x40 MLOAD SWAP1 DUP2 MSTORE PUSH1 0x20 ADD PUSH2 0xC3 JUMP JUMPDEST CALLVALUE DUP1 ISZERO PUSH2 0x131 JUMPI PUSH0 DUP1 REVERT JUMPDEST POP PUSH2 0x118 PUSH1 0x3 SLOAD DUP2 JUMP JUMPDEST CALLVALUE DUP1 ISZERO PUSH2 0x146 JUMPI PUSH0 DUP1 REVERT JUMPDEST POP PUSH2 0x15A PUSH2 0x155 CALLDATASIZE PUSH1 0x4 PUSH2 0xA73 JUMP JUMPDEST PUSH2 0x1EE JUMP JUMPDEST PUSH1 0x40 DUP1 MLOAD PUSH1 0x1 PUSH1 0x1 PUSH1 0xA0 SHL SUB SWAP5 DUP6 AND DUP2 MSTORE SWAP4 SWAP1 SWAP3 AND PUSH1 0x20 DUP5 ADD MSTORE SWAP1 DUP3 ADD MSTORE PUSH1 0x60 ADD PUSH2 0xC3 JUMP JUMPDEST PUSH2 0x193 PUSH2 0x18E CALLDATASIZE PUSH1 0x4 PUSH2 0xA73 JUMP JUMPDEST PUSH2 0x22C JUMP JUMPDEST STOP JUMPDEST CALLVALUE DUP1 ISZERO PUSH2 0x1A0 JUMPI PUSH0 DUP1 REVERT JUMPDEST POP PUSH2 0x118 PUSH1 0x2 SLOAD DUP2 JUMP JUMPDEST PUSH2 0x193 PUSH2 0x1B8 CALLDATASIZE PUSH1 0x4 PUSH2 0xA8A JUMP JUMPDEST PUSH2 0x2CD JUMP JUMPDEST PUSH2 0x193 PUSH2 0x1CB CALLDATASIZE PUSH1 0x4 PUSH2 0xA73 JUMP JUMPDEST PUSH2 0x3B1 JUMP JUMPDEST CALLVALUE DUP1 ISZERO PUSH2 0x1DB JUMPI PUSH0 DUP1 REVERT JUMPDEST POP PUSH0 SLOAD PUSH2 0xEB SWAP1 PUSH1 0x1 PUSH1 0x1 PUSH1 0xA0 SHL SUB AND DUP2 JUMP JUMPDEST PUSH1 0x6 DUP2 DUP2 SLOAD DUP2 LT PUSH2 0x1FD JUMPI PUSH0 DUP1 REVERT JUMPDEST PUSH0 SWAP2 DUP3 MSTORE PUSH1 0x20 SWAP1 SWAP2 KECCAK256 PUSH1 0x3 SWAP1 SWAP2 MUL ADD DUP1 SLOAD PUSH1 0x1 DUP3 ADD SLOAD PUSH1 0x2 SWAP1 SWAP3 ADD SLOAD PUSH1 0x1 PUSH1 0x1 PUSH1 0xA0 SHL SUB SWAP2 DUP3 AND SWAP4 POP SWAP2 AND SWAP1 DUP4 JUMP JUMPDEST PUSH0 PUSH1 0x5 SLOAD PUSH1 0xFF AND PUSH1 0x1 DUP2 GT ISZERO PUSH2 0x244 JUMPI PUSH2 0x244 PUSH2 0xA39 JUMP JUMPDEST EQ PUSH2 0x28D JUMPI PUSH1 0x40 MLOAD PUSH3 0x461BCD PUSH1 0xE5 SHL DUP2 MSTORE PUSH1 0x20 PUSH1 0x4 DUP3 ADD MSTORE PUSH1 0x14 PUSH1 0x24 DUP3 ADD MSTORE PUSH20 0x5370727A6564617A206E696520616B7479776E61 PUSH1 0x60 SHL PUSH1 0x44 DUP3 ADD MSTORE PUSH1 0x64 ADD JUMPDEST PUSH1 0x40 MLOAD DUP1 SWAP2 SUB SWAP1 REVERT JUMPDEST PUSH0 PUSH1 0x40 MLOAD DUP1 PUSH1 0x60 ADD PUSH1 0x40 MSTORE DUP1 CALLER PUSH1 0x1 PUSH1 0x1 PUSH1 0xA0 SHL SUB AND DUP2 MSTORE PUSH1 0x20 ADD DUP4 DUP2 MSTORE PUSH1 0x20 ADD PUSH1 0x2 SLOAD DUP5 PUSH2 0x2BC SWAP2 SWAP1 PUSH2 0xAD3 JUMP JUMPDEST SWAP1 MSTORE SWAP1 POP PUSH2 0x2C9 DUP2 PUSH2 0x449 JUMP JUMPDEST POP POP JUMP JUMPDEST PUSH1 0x40 DUP1 MLOAD PUSH1 0x60 DUP2 ADD DUP3 MSTORE CALLER DUP1 DUP3 MSTORE PUSH1 0x1 PUSH1 0x1 PUSH1 0xA0 SHL SUB DUP6 DUP2 AND PUSH1 0x20 DUP5 ADD DUP2 SWAP1 MSTORE SWAP3 DUP5 ADD DUP6 SWAP1 MSTORE PUSH1 0x1 SLOAD SWAP4 MLOAD PUSH4 0x23B872DD PUSH1 0xE0 SHL DUP2 MSTORE PUSH1 0x4 DUP2 ADD SWAP3 SWAP1 SWAP3 MSTORE PUSH1 0x24 DUP3 ADD SWAP3 SWAP1 SWAP3 MSTORE PUSH1 0x44 DUP2 ADD DUP5 SWAP1 MSTORE SWAP2 AND SWAP1 PUSH4 0x23B872DD SWAP1 PUSH1 0x64 ADD PUSH1 0x20 PUSH1 0x40 MLOAD DUP1 DUP4 SUB DUP2 PUSH0 DUP8 GAS CALL ISZERO DUP1 ISZERO PUSH2 0x341 JUMPI RETURNDATASIZE PUSH0 DUP1 RETURNDATACOPY RETURNDATASIZE PUSH0 REVERT JUMPDEST POP POP POP POP PUSH1 0x40 MLOAD RETURNDATASIZE PUSH1 0x1F NOT PUSH1 0x1F DUP3 ADD AND DUP3 ADD DUP1 PUSH1 0x40 MSTORE POP DUP2 ADD SWAP1 PUSH2 0x365 SWAP2 SWAP1 PUSH2 0xAF0 JUMP JUMPDEST PUSH2 0x2C9 JUMPI PUSH1 0x40 MLOAD PUSH3 0x461BCD PUSH1 0xE5 SHL DUP2 MSTORE PUSH1 0x20 PUSH1 0x4 DUP3 ADD MSTORE PUSH1 0x18 PUSH1 0x24 DUP3 ADD MSTORE PUSH32 0x5472616E7366657220746F6B656E75206E69657564616E790000000000000000 PUSH1 0x44 DUP3 ADD MSTORE PUSH1 0x64 ADD PUSH2 0x284 JUMP JUMPDEST PUSH0 PUSH1 0x5 SLOAD PUSH1 0xFF AND PUSH1 0x1 DUP2 GT ISZERO PUSH2 0x3C9 JUMPI PUSH2 0x3C9 PUSH2 0xA39 JUMP JUMPDEST EQ PUSH2 0x40D JUMPI PUSH1 0x40 MLOAD PUSH3 0x461BCD PUSH1 0xE5 SHL DUP2 MSTORE PUSH1 0x20 PUSH1 0x4 DUP3 ADD MSTORE PUSH1 0x14 PUSH1 0x24 DUP3 ADD MSTORE PUSH20 0x5370727A6564617A206E696520616B7479776E61 PUSH1 0x60 SHL PUSH1 0x44 DUP3 ADD MSTORE PUSH1 0x64 ADD PUSH2 0x284 JUMP JUMPDEST PUSH0 PUSH1 0x40 MLOAD DUP1 PUSH1 0x60 ADD PUSH1 0x40 MSTORE DUP1 CALLER PUSH1 0x1 PUSH1 0x1 PUSH1 0xA0 SHL SUB AND DUP2 MSTORE PUSH1 0x20 ADD DUP4 DUP2 MSTORE PUSH1 0x20 ADD PUSH1 0x2 SLOAD DUP5 PUSH2 0x43C SWAP2 SWAP1 PUSH2 0xAD3 JUMP JUMPDEST SWAP1 MSTORE SWAP1 POP PUSH2 0x2C9 DUP2 PUSH2 0x7A8 JUMP JUMPDEST PUSH0 DUP2 PUSH1 0x20 ADD MLOAD GT PUSH2 0x4AA JUMPI PUSH1 0x40 MLOAD PUSH3 0x461BCD PUSH1 0xE5 SHL DUP2 MSTORE PUSH1 0x20 PUSH1 0x4 DUP3 ADD MSTORE PUSH1 0x25 PUSH1 0x24 DUP3 ADD MSTORE PUSH32 0x4C69637A626120746F6B656E6F77206D75736920627963207769656B737A6120 PUSH1 0x44 DUP3 ADD MSTORE PUSH5 0x6E697A203 PUSH1 0xDC SHL PUSH1 0x64 DUP3 ADD MSTORE PUSH1 0x84 ADD PUSH2 0x284 JUMP JUMPDEST PUSH1 0x20 DUP2 ADD MLOAD PUSH1 0x1 SLOAD DUP3 MLOAD PUSH1 0x40 MLOAD PUSH4 0x70A08231 PUSH1 0xE0 SHL DUP2 MSTORE PUSH1 0x1 PUSH1 0x1 PUSH1 0xA0 SHL SUB SWAP2 DUP3 AND PUSH1 0x4 DUP3 ADD MSTORE SWAP2 AND SWAP1 PUSH4 0x70A08231 SWAP1 PUSH1 0x24 ADD PUSH1 0x20 PUSH1 0x40 MLOAD DUP1 DUP4 SUB DUP2 DUP7 GAS STATICCALL ISZERO DUP1 ISZERO PUSH2 0x4F8 JUMPI RETURNDATASIZE PUSH0 DUP1 RETURNDATACOPY RETURNDATASIZE PUSH0 REVERT JUMPDEST POP POP POP POP PUSH1 0x40 MLOAD RETURNDATASIZE PUSH1 0x1F NOT PUSH1 0x1F DUP3 ADD AND DUP3 ADD DUP1 PUSH1 0x40 MSTORE POP DUP2 ADD SWAP1 PUSH2 0x51C SWAP2 SWAP1 PUSH2 0xB16 JUMP JUMPDEST LT ISZERO PUSH2 0x56A JUMPI PUSH1 0x40 MLOAD PUSH3 0x461BCD PUSH1 0xE5 SHL DUP2 MSTORE PUSH1 0x20 PUSH1 0x4 DUP3 ADD MSTORE PUSH1 0x1E PUSH1 0x24 DUP3 ADD MSTORE PUSH32 0x4E69777973746172637A616A6163792062616C616E7320746F6B656E6F770000 PUSH1 0x44 DUP3 ADD MSTORE PUSH1 0x64 ADD PUSH2 0x284 JUMP JUMPDEST DUP1 PUSH1 0x40 ADD MLOAD SELFBALANCE LT ISZERO PUSH2 0x5CE JUMPI PUSH1 0x40 MLOAD PUSH3 0x461BCD PUSH1 0xE5 SHL DUP2 MSTORE PUSH1 0x20 PUSH1 0x4 DUP3 ADD MSTORE PUSH1 0x27 PUSH1 0x24 DUP3 ADD MSTORE PUSH32 0x4E6965777973746172637A616A61636120696C6F736320457468657275206E61 PUSH1 0x44 DUP3 ADD MSTORE PUSH7 0x206B6F6E636965 PUSH1 0xC8 SHL PUSH1 0x64 DUP3 ADD MSTORE PUSH1 0x84 ADD PUSH2 0x284 JUMP JUMPDEST PUSH1 0x1 SLOAD DUP2 MLOAD PUSH1 0x20 DUP4 ADD MLOAD PUSH1 0x40 MLOAD PUSH4 0x23B872DD PUSH1 0xE0 SHL DUP2 MSTORE PUSH1 0x1 PUSH1 0x1 PUSH1 0xA0 SHL SUB SWAP3 DUP4 AND PUSH1 0x4 DUP3 ADD MSTORE ADDRESS PUSH1 0x24 DUP3 ADD MSTORE PUSH1 0x44 DUP2 ADD SWAP2 SWAP1 SWAP2 MSTORE SWAP2 AND SWAP1 PUSH4 0x23B872DD SWAP1 PUSH1 0x64 ADD PUSH1 0x20 PUSH1 0x40 MLOAD DUP1 DUP4 SUB DUP2 PUSH0 DUP8 GAS CALL ISZERO DUP1 ISZERO PUSH2 0x62B JUMPI RETURNDATASIZE PUSH0 DUP1 RETURNDATACOPY RETURNDATASIZE PUSH0 REVERT JUMPDEST POP POP POP POP PUSH1 0x40 MLOAD RETURNDATASIZE PUSH1 0x1F NOT PUSH1 0x1F DUP3 ADD AND DUP3 ADD DUP1 PUSH1 0x40 MSTORE POP DUP2 ADD SWAP1 PUSH2 0x64F SWAP2 SWAP1 PUSH2 0xAF0 JUMP JUMPDEST PUSH2 0x69B JUMPI PUSH1 0x40 MLOAD PUSH3 0x461BCD PUSH1 0xE5 SHL DUP2 MSTORE PUSH1 0x20 PUSH1 0x4 DUP3 ADD MSTORE PUSH1 0x19 PUSH1 0x24 DUP3 ADD MSTORE PUSH32 0x5472616E7366657220746F6B656E6F77206E69657564616E7900000000000000 PUSH1 0x44 DUP3 ADD MSTORE PUSH1 0x64 ADD PUSH2 0x284 JUMP JUMPDEST DUP1 MLOAD PUSH1 0x40 DUP1 DUP4 ADD MLOAD SWAP1 MLOAD PUSH0 SWAP3 PUSH1 0x1 PUSH1 0x1 PUSH1 0xA0 SHL SUB AND SWAP2 SWAP1 DUP4 DUP2 DUP2 DUP2 DUP6 DUP8 GAS CALL SWAP3 POP POP POP RETURNDATASIZE DUP1 PUSH0 DUP2 EQ PUSH2 0x6E8 JUMPI PUSH1 0x40 MLOAD SWAP2 POP PUSH1 0x1F NOT PUSH1 0x3F RETURNDATASIZE ADD AND DUP3 ADD PUSH1 0x40 MSTORE RETURNDATASIZE DUP3 MSTORE RETURNDATASIZE PUSH0 PUSH1 0x20 DUP5 ADD RETURNDATACOPY PUSH2 0x6ED JUMP JUMPDEST PUSH1 0x60 SWAP2 POP JUMPDEST POP POP SWAP1 POP DUP1 PUSH2 0x73E JUMPI PUSH1 0x40 MLOAD PUSH3 0x461BCD PUSH1 0xE5 SHL DUP2 MSTORE PUSH1 0x20 PUSH1 0x4 DUP3 ADD MSTORE PUSH1 0x18 PUSH1 0x24 DUP3 ADD MSTORE PUSH32 0x5472616E7366657220457468657275206E69657564616E790000000000000000 PUSH1 0x44 DUP3 ADD MSTORE PUSH1 0x64 ADD PUSH2 0x284 JUMP JUMPDEST DUP2 PUSH1 0x20 ADD MLOAD PUSH1 0x3 PUSH0 DUP3 DUP3 SLOAD PUSH2 0x753 SWAP2 SWAP1 PUSH2 0xB2D JUMP JUMPDEST SWAP1 SWAP2 SSTORE POP POP PUSH1 0x1 SLOAD DUP3 MLOAD PUSH1 0x20 DUP1 DUP6 ADD MLOAD PUSH1 0x40 MLOAD SWAP1 DUP2 MSTORE PUSH1 0x1 PUSH1 0x1 PUSH1 0xA0 SHL SUB SWAP4 DUP5 AND SWAP4 SWAP1 SWAP3 AND SWAP2 PUSH32 0xAE98FDB7F4BC601D31354DD8C8BA584BF892418C4DF67ABA01011867BD88EA27 SWAP2 ADD PUSH1 0x40 MLOAD DUP1 SWAP2 SUB SWAP1 LOG3 POP POP JUMP JUMPDEST PUSH0 DUP2 PUSH1 0x20 ADD MLOAD GT PUSH2 0x80B JUMPI PUSH1 0x40 MLOAD PUSH3 0x461BCD PUSH1 0xE5 SHL DUP2 MSTORE PUSH1 0x20 PUSH1 0x4 DUP3 ADD MSTORE PUSH1 0x27 PUSH1 0x24 DUP3 ADD MSTORE PUSH32 0x4C69637A626120746F6B656E6F77206D75736920627963207769656B737A6120 PUSH1 0x44 DUP3 ADD MSTORE PUSH7 0x6F64207A657261 PUSH1 0xC8 SHL PUSH1 0x64 DUP3 ADD MSTORE PUSH1 0x84 ADD PUSH2 0x284 JUMP JUMPDEST PUSH1 0x20 DUP2 ADD MLOAD PUSH1 0x1 SLOAD PUSH1 0x40 MLOAD PUSH4 0x70A08231 PUSH1 0xE0 SHL DUP2 MSTORE ADDRESS PUSH1 0x4 DUP3 ADD MSTORE PUSH1 0x1 PUSH1 0x1 PUSH1 0xA0 SHL SUB SWAP1 SWAP2 AND SWAP1 PUSH4 0x70A08231 SWAP1 PUSH1 0x24 ADD PUSH1 0x20 PUSH1 0x40 MLOAD DUP1 DUP4 SUB DUP2 DUP7 GAS STATICCALL ISZERO DUP1 ISZERO PUSH2 0x856 JUMPI RETURNDATASIZE PUSH0 DUP1 RETURNDATACOPY RETURNDATASIZE PUSH0 REVERT JUMPDEST POP POP POP POP PUSH1 0x40 MLOAD RETURNDATASIZE PUSH1 0x1F NOT PUSH1 0x1F DUP3 ADD AND DUP3 ADD DUP1 PUSH1 0x40 MSTORE POP DUP2 ADD SWAP1 PUSH2 0x87A SWAP2 SWAP1 PUSH2 0xB16 JUMP JUMPDEST LT ISZERO PUSH2 0x8C8 JUMPI PUSH1 0x40 MLOAD PUSH3 0x461BCD PUSH1 0xE5 SHL DUP2 MSTORE PUSH1 0x20 PUSH1 0x4 DUP3 ADD MSTORE PUSH1 0x1F PUSH1 0x24 DUP3 ADD MSTORE PUSH32 0x4E696520777973746172637A616A61636120696C6F736320746F6B656E6F7700 PUSH1 0x44 DUP3 ADD MSTORE PUSH1 0x64 ADD PUSH2 0x284 JUMP JUMPDEST DUP1 PUSH1 0x40 ADD MLOAD CALLVALUE EQ PUSH2 0x91B JUMPI PUSH1 0x40 MLOAD PUSH3 0x461BCD PUSH1 0xE5 SHL DUP2 MSTORE PUSH1 0x20 PUSH1 0x4 DUP3 ADD MSTORE PUSH1 0x1A PUSH1 0x24 DUP3 ADD MSTORE PUSH32 0x5779736C616E6F206E6965706F7261776E6120776172746F7363000000000000 PUSH1 0x44 DUP3 ADD MSTORE PUSH1 0x64 ADD PUSH2 0x284 JUMP JUMPDEST PUSH1 0x1 SLOAD DUP2 MLOAD PUSH1 0x20 DUP4 ADD MLOAD PUSH1 0x40 MLOAD PUSH4 0xA9059CBB PUSH1 0xE0 SHL DUP2 MSTORE PUSH1 0x1 PUSH1 0x1 PUSH1 0xA0 SHL SUB SWAP3 DUP4 AND PUSH1 0x4 DUP3 ADD MSTORE PUSH1 0x24 DUP2 ADD SWAP2 SWAP1 SWAP2 MSTORE SWAP2 AND SWAP1 PUSH4 0xA9059CBB SWAP1 PUSH1 0x44 ADD PUSH1 0x20 PUSH1 0x40 MLOAD DUP1 DUP4 SUB DUP2 PUSH0 DUP8 GAS CALL ISZERO DUP1 ISZERO PUSH2 0x972 JUMPI RETURNDATASIZE PUSH0 DUP1 RETURNDATACOPY RETURNDATASIZE PUSH0 REVERT JUMPDEST POP POP POP POP PUSH1 0x40 MLOAD RETURNDATASIZE PUSH1 0x1F NOT PUSH1 0x1F DUP3 ADD AND DUP3 ADD DUP1 PUSH1 0x40 MSTORE POP DUP2 ADD SWAP1 PUSH2 0x996 SWAP2 SWAP1 PUSH2 0xAF0 JUMP JUMPDEST PUSH2 0x9D7 JUMPI PUSH1 0x40 MLOAD PUSH3 0x461BCD PUSH1 0xE5 SHL DUP2 MSTORE PUSH1 0x20 PUSH1 0x4 DUP3 ADD MSTORE PUSH1 0x12 PUSH1 0x24 DUP3 ADD MSTORE PUSH18 0x5472616E73666572206E6965207564616E79 PUSH1 0x70 SHL PUSH1 0x44 DUP3 ADD MSTORE PUSH1 0x64 ADD PUSH2 0x284 JUMP JUMPDEST DUP1 PUSH1 0x20 ADD MLOAD PUSH1 0x3 PUSH0 DUP3 DUP3 SLOAD PUSH2 0x9EC SWAP2 SWAP1 PUSH2 0xB40 JUMP JUMPDEST SWAP1 SWAP2 SSTORE POP POP DUP1 MLOAD PUSH1 0x20 DUP1 DUP4 ADD MLOAD PUSH1 0x40 MLOAD SWAP1 DUP2 MSTORE PUSH1 0x1 PUSH1 0x1 PUSH1 0xA0 SHL SUB SWAP1 SWAP3 AND SWAP2 PUSH32 0xE3D4187F6CA4248660CC0AC8B8056515BAC4A8132BE2ECA31D6D0CC170722A7E SWAP2 ADD PUSH1 0x40 MLOAD DUP1 SWAP2 SUB SWAP1 LOG2 POP JUMP JUMPDEST PUSH4 0x4E487B71 PUSH1 0xE0 SHL PUSH0 MSTORE PUSH1 0x21 PUSH1 0x4 MSTORE PUSH1 0x24 PUSH0 REVERT JUMPDEST PUSH1 0x20 DUP2 ADD PUSH1 0x2 DUP4 LT PUSH2 0xA6D JUMPI PUSH4 0x4E487B71 PUSH1 0xE0 SHL PUSH0 MSTORE PUSH1 0x21 PUSH1 0x4 MSTORE PUSH1 0x24 PUSH0 REVERT JUMPDEST SWAP2 SWAP1 MSTORE SWAP1 JUMP JUMPDEST PUSH0 PUSH1 0x20 DUP3 DUP5 SUB SLT ISZERO PUSH2 0xA83 JUMPI PUSH0 DUP1 REVERT JUMPDEST POP CALLDATALOAD SWAP2 SWAP1 POP JUMP JUMPDEST PUSH0 DUP1 PUSH1 0x40 DUP4 DUP6 SUB SLT ISZERO PUSH2 0xA9B JUMPI PUSH0 DUP1 REVERT JUMPDEST DUP3 CALLDATALOAD PUSH1 0x1 PUSH1 0x1 PUSH1 0xA0 SHL SUB DUP2 AND DUP2 EQ PUSH2 0xAB1 JUMPI PUSH0 DUP1 REVERT JUMPDEST SWAP5 PUSH1 0x20 SWAP4 SWAP1 SWAP4 ADD CALLDATALOAD SWAP4 POP POP POP JUMP JUMPDEST PUSH4 0x4E487B71 PUSH1 0xE0 SHL PUSH0 MSTORE PUSH1 0x11 PUSH1 0x4 MSTORE PUSH1 0x24 PUSH0 REVERT JUMPDEST DUP1 DUP3 MUL DUP2 ISZERO DUP3 DUP3 DIV DUP5 EQ OR PUSH2 0xAEA JUMPI PUSH2 0xAEA PUSH2 0xABF JUMP JUMPDEST SWAP3 SWAP2 POP POP JUMP JUMPDEST PUSH0 PUSH1 0x20 DUP3 DUP5 SUB SLT ISZERO PUSH2 0xB00 JUMPI PUSH0 DUP1 REVERT JUMPDEST DUP2 MLOAD DUP1 ISZERO ISZERO DUP2 EQ PUSH2 0xB0F JUMPI PUSH0 DUP1 REVERT JUMPDEST SWAP4 SWAP3 POP POP POP JUMP JUMPDEST PUSH0 PUSH1 0x20 DUP3 DUP5 SUB SLT ISZERO PUSH2 0xB26 JUMPI PUSH0 DUP1 REVERT JUMPDEST POP MLOAD SWAP2 SWAP1 POP JUMP JUMPDEST DUP2 DUP2 SUB DUP2 DUP2 GT ISZERO PUSH2 0xAEA JUMPI PUSH2 0xAEA PUSH2 0xABF JUMP JUMPDEST DUP1 DUP3 ADD DUP1 DUP3 GT ISZERO PUSH2 0xAEA JUMPI PUSH2 0xAEA PUSH2 0xABF JUMP INVALID LOG2 PUSH5 0x6970667358 0x22 SLT KECCAK256 0xA6 PUSH6 0xF70AAD0BD1CC 0xCB 0xBA 0x21 0xCF 0xC 0xE5 0x28 0xE7 COINBASE POP 0xEF CREATE LOG0 PUSH1 0xFA SWAP4 NUMBER DUP16 EXTCODESIZE SLT DUP2 DUP4 0xC2 0xF8 PUSH5 0x736F6C6343 STOP ADDMOD OR STOP CALLER "},"methodIdentifiers":{"admin()":"f851a440","icoState()":"44f38756","newValue()":"7c65452c","price()":"a035b1fe","purchase(uint256)":"efef39a1","purchased()":"879f9c96","swap(uint256)":"94b918de","tokenContract()":"55a373d6","transfer(address,uint256)":"a9059cbb","transfers(uint256)":"9377d711"}}}}}