{
  "_format": "hh-sol-artifact-1",
  "contractName": "FossaToken",
  "sourceName": "contracts/FossaToken.sol",
  "abi": [
    {
      "inputs": [
        {
          "internalType": "uint256",
          "name": "supply",
          "type": "uint256"
        }
      ],
      "stateMutability": "nonpayable",
      "type": "constructor"
    },
    {
      "anonymous": false,
      "inputs": [
        {
          "indexed": true,
          "internalType": "address",
          "name": "_owner",
          "type": "address"
        },
        {
          "indexed": true,
          "internalType": "address",
          "name": "_spender",
          "type": "address"
        },
        {
          "indexed": false,
          "internalType": "uint256",
          "name": "_value",
          "type": "uint256"
        }
      ],
      "name": "Approval",
      "type": "event"
    },
    {
      "anonymous": false,
      "inputs": [
        {
          "indexed": true,
          "internalType": "address",
          "name": "_from",
          "type": "address"
        },
        {
          "indexed": true,
          "internalType": "address",
          "name": "_to",
          "type": "address"
        },
        {
          "indexed": false,
          "internalType": "uint256",
          "name": "_value",
          "type": "uint256"
        }
      ],
      "name": "Transfer",
      "type": "event"
    },
    {
      "stateMutability": "payable",
      "type": "fallback"
    },
    {
      "inputs": [
        {
          "internalType": "address",
          "name": "",
          "type": "address"
        },
        {
          "internalType": "address",
          "name": "",
          "type": "address"
        }
      ],
      "name": "allowance",
      "outputs": [
        {
          "internalType": "uint256",
          "name": "",
          "type": "uint256"
        }
      ],
      "stateMutability": "view",
      "type": "function"
    },
    {
      "inputs": [
        {
          "internalType": "address",
          "name": "_spender",
          "type": "address"
        },
        {
          "internalType": "uint256",
          "name": "_value",
          "type": "uint256"
        }
      ],
      "name": "approve",
      "outputs": [
        {
          "internalType": "bool",
          "name": "",
          "type": "bool"
        }
      ],
      "stateMutability": "nonpayable",
      "type": "function"
    },
    {
      "inputs": [
        {
          "internalType": "address",
          "name": "",
          "type": "address"
        }
      ],
      "name": "balanceOf",
      "outputs": [
        {
          "internalType": "uint256",
          "name": "",
          "type": "uint256"
        }
      ],
      "stateMutability": "view",
      "type": "function"
    },
    {
      "inputs": [],
      "name": "decimals",
      "outputs": [
        {
          "internalType": "uint8",
          "name": "",
          "type": "uint8"
        }
      ],
      "stateMutability": "view",
      "type": "function"
    },
    {
      "inputs": [
        {
          "internalType": "uint256",
          "name": "_amount",
          "type": "uint256"
        }
      ],
      "name": "mint",
      "outputs": [],
      "stateMutability": "nonpayable",
      "type": "function"
    },
    {
      "inputs": [],
      "name": "name",
      "outputs": [
        {
          "internalType": "string",
          "name": "",
          "type": "string"
        }
      ],
      "stateMutability": "view",
      "type": "function"
    },
    {
      "inputs": [],
      "name": "owner",
      "outputs": [
        {
          "internalType": "address",
          "name": "",
          "type": "address"
        }
      ],
      "stateMutability": "view",
      "type": "function"
    },
    {
      "inputs": [],
      "name": "standard",
      "outputs": [
        {
          "internalType": "string",
          "name": "",
          "type": "string"
        }
      ],
      "stateMutability": "view",
      "type": "function"
    },
    {
      "inputs": [],
      "name": "symbol",
      "outputs": [
        {
          "internalType": "string",
          "name": "",
          "type": "string"
        }
      ],
      "stateMutability": "view",
      "type": "function"
    },
    {
      "inputs": [],
      "name": "totalSupply",
      "outputs": [
        {
          "internalType": "uint256",
          "name": "",
          "type": "uint256"
        }
      ],
      "stateMutability": "view",
      "type": "function"
    },
    {
      "inputs": [
        {
          "internalType": "address",
          "name": "_to",
          "type": "address"
        },
        {
          "internalType": "uint256",
          "name": "_value",
          "type": "uint256"
        }
      ],
      "name": "transfer",
      "outputs": [
        {
          "internalType": "bool",
          "name": "",
          "type": "bool"
        }
      ],
      "stateMutability": "nonpayable",
      "type": "function"
    },
    {
      "inputs": [
        {
          "internalType": "address",
          "name": "_from",
          "type": "address"
        },
        {
          "internalType": "address",
          "name": "_to",
          "type": "address"
        },
        {
          "internalType": "uint256",
          "name": "_value",
          "type": "uint256"
        }
      ],
      "name": "transferFrom",
      "outputs": [
        {
          "internalType": "bool",
          "name": "",
          "type": "bool"
        }
      ],
      "stateMutability": "nonpayable",
      "type": "function"
    },
    {
      "inputs": [
        {
          "internalType": "address",
          "name": "newOwner",
          "type": "address"
        }
      ],
      "name": "transferOwnership",
      "outputs": [],
      "stateMutability": "nonpayable",
      "type": "function"
    },
    {
      "stateMutability": "payable",
      "type": "receive"
    }
  ],
  "bytecode": "0x60c0604052600a6080908152692337b9b9b0aa37b5b2b760b11b60a0525f906200002a908262000188565b50604080518082019091526005815264464f53534160d81b602082015260019062000056908262000188565b5060408051808201909152600f81526e0466f737361546f6b656e2076312e3608c1b60208201526002906200008c908262000188565b5034801562000099575f80fd5b5060405162000e9738038062000e97833981016040819052620000bc9162000254565b600480546001600160a01b031916339081179091555f9081526005602052604090208190556003556200026c565b634e487b7160e01b5f52604160045260245ffd5b600181811c908216806200011357607f821691505b6020821081036200013257634e487b7160e01b5f52602260045260245ffd5b50919050565b601f8211156200018357805f5260205f20601f840160051c810160208510156200015f5750805b601f840160051c820191505b8181101562000180575f81556001016200016b565b50505b505050565b81516001600160401b03811115620001a457620001a4620000ea565b620001bc81620001b58454620000fe565b8462000138565b602080601f831160018114620001f2575f8415620001da5750858301515b5f19600386901b1c1916600185901b1785556200024c565b5f85815260208120601f198616915b82811015620002225788860151825594840194600190910190840162000201565b50858210156200024057878501515f19600388901b60f8161c191681555b505060018460011b0185555b505050505050565b5f6020828403121562000265575f80fd5b5051919050565b610c1d806200027a5f395ff3fe6080604052600436106100bc575f3560e01c806370a0823111610078578063a0712d6811610055578063a0712d681461020f578063a9059cbb1461022e578063dd62ed3e1461024d578063f2fde38b1461028357005b806370a08231146101995780638da5cb5b146101c457806395d89b41146101fb57005b806306fdde03146100c5578063095ea7b3146100ef57806318160ddd1461011e57806323b872dd14610141578063313ce567146101605780635a3b7e421461018557005b366100c357005b005b3480156100d0575f80fd5b506100d96102a2565b6040516100e69190610a00565b60405180910390f35b3480156100fa575f80fd5b5061010e610109366004610a67565b61032d565b60405190151581526020016100e6565b348015610129575f80fd5b5061013360035481565b6040519081526020016100e6565b34801561014c575f80fd5b5061010e61015b366004610a8f565b61046c565b34801561016b575f80fd5b506101735f81565b60405160ff90911681526020016100e6565b348015610190575f80fd5b506100d96106ce565b3480156101a4575f80fd5b506101336101b3366004610ac8565b60056020525f908152604090205481565b3480156101cf575f80fd5b506004546101e3906001600160a01b031681565b6040516001600160a01b0390911681526020016100e6565b348015610206575f80fd5b506100d96106db565b34801561021a575f80fd5b506100c3610229366004610ae8565b6106e8565b348015610239575f80fd5b5061010e610248366004610a67565b6107fc565b348015610258575f80fd5b50610133610267366004610aff565b600660209081525f928352604080842090915290825290205481565b34801561028e575f80fd5b506100c361029d366004610ac8565b61085c565b5f80546102ae90610b30565b80601f01602080910402602001604051908101604052809291908181526020018280546102da90610b30565b80156103255780601f106102fc57610100808354040283529160200191610325565b820191905f5260205f20905b81548152906001019060200180831161030857829003601f168201915b505050505081565b5f6001600160a01b0383166103895760405162461bcd60e51b815260206004820152601760248201527f496e76616c6964207370656e646572206164647265737300000000000000000060448201526064015b60405180910390fd5b335f9081526006602090815260408083206001600160a01b03871684529091529020548210156103dd57335f9081526006602090815260408083206001600160a01b03871684529091529020829055610462565b335f9081526006602090815260408083206001600160a01b038716845290915290205482111561046257335f8181526006602090815260408083206001600160a01b03881680855290835292819020869055518581529192917f8c5be1e5ebec7d5bd14f71427d1e84f3dd0314c0f7b2291e5b200ac8c7c3b925910160405180910390a35b5060015b92915050565b5f8082116104ce5760405162461bcd60e51b815260206004820152602960248201527f5472616e7366657220616d6f756e74206d7573742062652067726561746572206044820152687468616e207a65726f60b81b6064820152608401610380565b6001600160a01b0384165f9081526005602052604090205482111561052c5760405162461bcd60e51b8152602060048201526014602482015273496e73756666696369656e742062616c616e636560601b6044820152606401610380565b6001600160a01b0384165f90815260066020908152604080832033845290915290205482111561059e5760405162461bcd60e51b815260206004820152601b60248201527f416c6c6f77616e6365206973206e6f742062696720656e6f75676800000000006044820152606401610380565b6001600160a01b0383165f908152600560205260409020546105c08382610b7c565b1161060d5760405162461bcd60e51b815260206004820152601f60248201527f4f766572666c6f7720696e2064657374696e6174696f6e2062616c616e6365006044820152606401610380565b6001600160a01b0384165f90815260066020908152604080832033845290915290205461063a8382610b8f565b11156106815760405162461bcd60e51b8152602060048201526016602482015275556e646572666c6f7720696e20616c6c6f77616e636560501b6044820152606401610380565b6001600160a01b0384165f908152600660209081526040808320338452909152812080548492906106b3908490610b8f565b909155506106c490508484846108fe565b5060019392505050565b600280546102ae90610b30565b600180546102ae90610b30565b6004546001600160a01b031633146107125760405162461bcd60e51b815260040161038090610ba2565b5f81116107715760405162461bcd60e51b815260206004820152602760248201527f4d696e74656420616d6f756e74206d7573742062652067726561746572207468604482015266616e207a65726f60c81b6064820152608401610380565b8060035f8282546107829190610b7c565b90915550506004546001600160a01b03165f90815260056020526040812080548392906107b0908490610b7c565b90915550506004546040518281526001600160a01b03909116905f907fddf252ad1be2c89b69c2b068fc378daa952ba7f163c4a11628f55a4df523b3ef9060200160405180910390a350565b335f908152600560205260408120548211156108515760405162461bcd60e51b8152602060048201526014602482015273496e73756666696369656e742062616c616e636560601b6044820152606401610380565b6104623384846108fe565b6004546001600160a01b031633146108865760405162461bcd60e51b815260040161038090610ba2565b6001600160a01b0381166108dc5760405162461bcd60e51b815260206004820152601960248201527f496e76616c6964206e6577206f776e65722061646472657373000000000000006044820152606401610380565b600480546001600160a01b0319166001600160a01b0392909216919091179055565b6001600160a01b0382166109545760405162461bcd60e51b815260206004820152601960248201527f496e76616c696420726563697069656e742061646472657373000000000000006044820152606401610380565b6001600160a01b0383165f908152600560205260408120805483929061097b908490610b8f565b90915550506001600160a01b0382165f90815260056020526040812080548392906109a7908490610b7c565b92505081905550816001600160a01b0316836001600160a01b03167fddf252ad1be2c89b69c2b068fc378daa952ba7f163c4a11628f55a4df523b3ef836040516109f391815260200190565b60405180910390a3505050565b5f602080835283518060208501525f5b81811015610a2c57858101830151858201604001528201610a10565b505f604082860101526040601f19601f8301168501019250505092915050565b80356001600160a01b0381168114610a62575f80fd5b919050565b5f8060408385031215610a78575f80fd5b610a8183610a4c565b946020939093013593505050565b5f805f60608486031215610aa1575f80fd5b610aaa84610a4c565b9250610ab860208501610a4c565b9150604084013590509250925092565b5f60208284031215610ad8575f80fd5b610ae182610a4c565b9392505050565b5f60208284031215610af8575f80fd5b5035919050565b5f8060408385031215610b10575f80fd5b610b1983610a4c565b9150610b2760208401610a4c565b90509250929050565b600181811c90821680610b4457607f821691505b602082108103610b6257634e487b7160e01b5f52602260045260245ffd5b50919050565b634e487b7160e01b5f52601160045260245ffd5b8082018082111561046657610466610b68565b8181038181111561046657610466610b68565b60208082526025908201527f4f6e6c7920746865206f776e65722063616e2063616c6c20746869732066756e60408201526431ba34b7b760d91b60608201526080019056fea2646970667358221220091b79299a15b6ce9e1f7924635badc2e877f6ca4a41ae010bc8ab36ff08692d64736f6c63430008170033",
  "linkReferences": {},
  "deployedLinkReferences": {}
}