{
  "_format": "hh-sol-artifact-1",
  "contractName": "FossaToken",
  "sourceName": "contracts/FossaToken.sol",
  "abi": [
    {
      "inputs": [
        {
          "internalType": "uint256",
          "name": "supply",
          "type": "uint256"
        }
      ],
      "stateMutability": "nonpayable",
      "type": "constructor"
    },
    {
      "anonymous": false,
      "inputs": [
        {
          "indexed": true,
          "internalType": "address",
          "name": "_owner",
          "type": "address"
        },
        {
          "indexed": true,
          "internalType": "address",
          "name": "_spender",
          "type": "address"
        },
        {
          "indexed": false,
          "internalType": "uint256",
          "name": "_value",
          "type": "uint256"
        }
      ],
      "name": "Approval",
      "type": "event"
    },
    {
      "anonymous": false,
      "inputs": [
        {
          "indexed": true,
          "internalType": "address",
          "name": "_from",
          "type": "address"
        },
        {
          "indexed": true,
          "internalType": "address",
          "name": "_to",
          "type": "address"
        },
        {
          "indexed": false,
          "internalType": "uint256",
          "name": "_value",
          "type": "uint256"
        }
      ],
      "name": "Transfer",
      "type": "event"
    },
    {
      "inputs": [
        {
          "internalType": "address",
          "name": "",
          "type": "address"
        },
        {
          "internalType": "address",
          "name": "",
          "type": "address"
        }
      ],
      "name": "allowance",
      "outputs": [
        {
          "internalType": "uint256",
          "name": "",
          "type": "uint256"
        }
      ],
      "stateMutability": "view",
      "type": "function"
    },
    {
      "inputs": [
        {
          "internalType": "address",
          "name": "_spender",
          "type": "address"
        },
        {
          "internalType": "uint256",
          "name": "_value",
          "type": "uint256"
        }
      ],
      "name": "approve",
      "outputs": [
        {
          "internalType": "bool",
          "name": "",
          "type": "bool"
        }
      ],
      "stateMutability": "nonpayable",
      "type": "function"
    },
    {
      "inputs": [
        {
          "internalType": "address",
          "name": "",
          "type": "address"
        }
      ],
      "name": "balanceOf",
      "outputs": [
        {
          "internalType": "uint256",
          "name": "",
          "type": "uint256"
        }
      ],
      "stateMutability": "view",
      "type": "function"
    },
    {
      "inputs": [],
      "name": "decimals",
      "outputs": [
        {
          "internalType": "uint8",
          "name": "",
          "type": "uint8"
        }
      ],
      "stateMutability": "view",
      "type": "function"
    },
    {
      "inputs": [],
      "name": "name",
      "outputs": [
        {
          "internalType": "string",
          "name": "",
          "type": "string"
        }
      ],
      "stateMutability": "view",
      "type": "function"
    },
    {
      "inputs": [],
      "name": "owner",
      "outputs": [
        {
          "internalType": "address",
          "name": "",
          "type": "address"
        }
      ],
      "stateMutability": "view",
      "type": "function"
    },
    {
      "inputs": [],
      "name": "symbol",
      "outputs": [
        {
          "internalType": "string",
          "name": "",
          "type": "string"
        }
      ],
      "stateMutability": "view",
      "type": "function"
    },
    {
      "inputs": [],
      "name": "totalSupply",
      "outputs": [
        {
          "internalType": "uint256",
          "name": "",
          "type": "uint256"
        }
      ],
      "stateMutability": "view",
      "type": "function"
    },
    {
      "inputs": [
        {
          "internalType": "address",
          "name": "_to",
          "type": "address"
        },
        {
          "internalType": "uint256",
          "name": "_value",
          "type": "uint256"
        }
      ],
      "name": "transfer",
      "outputs": [
        {
          "internalType": "bool",
          "name": "",
          "type": "bool"
        }
      ],
      "stateMutability": "nonpayable",
      "type": "function"
    },
    {
      "inputs": [
        {
          "internalType": "address",
          "name": "_from",
          "type": "address"
        },
        {
          "internalType": "address",
          "name": "_to",
          "type": "address"
        },
        {
          "internalType": "uint256",
          "name": "_value",
          "type": "uint256"
        }
      ],
      "name": "transferFrom",
      "outputs": [
        {
          "internalType": "bool",
          "name": "",
          "type": "bool"
        }
      ],
      "stateMutability": "nonpayable",
      "type": "function"
    },
    {
      "stateMutability": "payable",
      "type": "receive"
    }
  ],
  "bytecode": "0x60c0604052600a6080908152692337b9b9b0aa37b5b2b760b11b60a0526001906200002b90826200014f565b50604080518082019091526005815264464f53534160d81b60208201526002906200005790826200014f565b5034801562000064575f80fd5b5060405162000c1538038062000c1583398101604081905262000087916200021b565b5f80546001600160a01b031916339081178255815260046020526040902081905560035562000233565b634e487b7160e01b5f52604160045260245ffd5b600181811c90821680620000da57607f821691505b602082108103620000f957634e487b7160e01b5f52602260045260245ffd5b50919050565b601f8211156200014a57805f5260205f20601f840160051c81016020851015620001265750805b601f840160051c820191505b8181101562000147575f815560010162000132565b50505b505050565b81516001600160401b038111156200016b576200016b620000b1565b62000183816200017c8454620000c5565b84620000ff565b602080601f831160018114620001b9575f8415620001a15750858301515b5f19600386901b1c1916600185901b17855562000213565b5f85815260208120601f198616915b82811015620001e957888601518255948401946001909101908401620001c8565b50858210156200020757878501515f19600388901b60f8161c191681555b505060018460011b0185555b505050505050565b5f602082840312156200022c575f80fd5b5051919050565b6109d480620002415f395ff3fe608060405260043610610092575f3560e01c806370a082311161005757806370a082311461015d5780638da5cb5b1461018857806395d89b41146101be578063a9059cbb146101d2578063dd62ed3e146101f1575f80fd5b806306fdde031461009d578063095ea7b3146100c757806318160ddd146100f657806323b872dd14610119578063313ce56714610138575f80fd5b3661009957005b5f80fd5b3480156100a8575f80fd5b506100b1610227565b6040516100be9190610813565b60405180910390f35b3480156100d2575f80fd5b506100e66100e136600461087a565b6102b3565b60405190151581526020016100be565b348015610101575f80fd5b5061010b60035481565b6040519081526020016100be565b348015610124575f80fd5b506100e66101333660046108a2565b6103f2565b348015610143575f80fd5b5061014b5f81565b60405160ff90911681526020016100be565b348015610168575f80fd5b5061010b6101773660046108db565b60046020525f908152604090205481565b348015610193575f80fd5b505f546101a6906001600160a01b031681565b6040516001600160a01b0390911681526020016100be565b3480156101c9575f80fd5b506100b161069f565b3480156101dd575f80fd5b506100e66101ec36600461087a565b6106ac565b3480156101fc575f80fd5b5061010b61020b3660046108fb565b600560209081525f928352604080842090915290825290205481565b600180546102349061092c565b80601f01602080910402602001604051908101604052809291908181526020018280546102609061092c565b80156102ab5780601f10610282576101008083540402835291602001916102ab565b820191905f5260205f20905b81548152906001019060200180831161028e57829003601f168201915b505050505081565b5f6001600160a01b03831661030f5760405162461bcd60e51b815260206004820152601e60248201527f4e6965776c61736369777920616472657320777973796c616a616365676f000060448201526064015b60405180910390fd5b335f9081526005602090815260408083206001600160a01b038716845290915290205482101561036357335f9081526005602090815260408083206001600160a01b038716845290915290208290556103e8565b335f9081526005602090815260408083206001600160a01b03871684529091529020548211156103e857335f8181526005602090815260408083206001600160a01b03881680855290835292819020869055518581529192917f8c5be1e5ebec7d5bd14f71427d1e84f3dd0314c0f7b2291e5b200ac8c7c3b925910160405180910390a35b5060015b92915050565b5f8082116104555760405162461bcd60e51b815260206004820152602a60248201527f576172746f7363207472616e7366657275206d75736920627963207769656b736044820152697a61206f64207a65726160b01b6064820152608401610306565b6001600160a01b0384165f908152600460205260409020548211156104bc5760405162461bcd60e51b815260206004820152601c60248201527f4e69777973746172637a616a6163792062616c616e73206b6f6e7461000000006044820152606401610306565b6001600160a01b0384165f9081526005602090815260408083203384529091529020548211156105425760405162461bcd60e51b815260206004820152602b60248201527f446f7a776f6c6f6e6120696c6f7363206e6965206a657374207779737461726360448201526a7a616a61636f2064757a6160a81b6064820152608401610306565b6001600160a01b0383165f908152600460205260409020546105648382610978565b116105d75760405162461bcd60e51b815260206004820152603b60248201527f5370726177647a6120637a7920776172746f7363206d6f7a65207a6f7374616360448201527f20646f64616e6120646f206b6f6e746120646f63656c6f7765676f00000000006064820152608401610306565b6001600160a01b0384165f908152600560209081526040808320338452909152902054610604838261098b565b11156106525760405162461bcd60e51b815260206004820152601c60248201527f446f7a776f6c6f6e6120696c6f7363206a657374207a61206d616c61000000006044820152606401610306565b6001600160a01b0384165f9081526005602090815260408083203384529091528120805484929061068490849061098b565b909155506106959050848484610711565b5060019392505050565b600280546102349061092c565b335f9081526004602052604081205482111561070a5760405162461bcd60e51b815260206004820152601d60248201527f4e6965777973746172637a616a6163792062616c616e73206b6f6e74610000006044820152606401610306565b6103e83384845b6001600160a01b0382166107675760405162461bcd60e51b815260206004820152601a60248201527f4e6965776c617363697779206164726573206f6462696f7263790000000000006044820152606401610306565b6001600160a01b0383165f908152600460205260408120805483929061078e90849061098b565b90915550506001600160a01b0382165f90815260046020526040812080548392906107ba908490610978565b92505081905550816001600160a01b0316836001600160a01b03167fddf252ad1be2c89b69c2b068fc378daa952ba7f163c4a11628f55a4df523b3ef8360405161080691815260200190565b60405180910390a3505050565b5f602080835283518060208501525f5b8181101561083f57858101830151858201604001528201610823565b505f604082860101526040601f19601f8301168501019250505092915050565b80356001600160a01b0381168114610875575f80fd5b919050565b5f806040838503121561088b575f80fd5b6108948361085f565b946020939093013593505050565b5f805f606084860312156108b4575f80fd5b6108bd8461085f565b92506108cb6020850161085f565b9150604084013590509250925092565b5f602082840312156108eb575f80fd5b6108f48261085f565b9392505050565b5f806040838503121561090c575f80fd5b6109158361085f565b91506109236020840161085f565b90509250929050565b600181811c9082168061094057607f821691505b60208210810361095e57634e487b7160e01b5f52602260045260245ffd5b50919050565b634e487b7160e01b5f52601160045260245ffd5b808201808211156103ec576103ec610964565b818103818111156103ec576103ec61096456fea2646970667358221220eee1072bba3eec2a1bc49f81b24379995893c176d0a86d6d427168b3681f460d64736f6c63430008170033",
  "linkReferences": {},
  "deployedLinkReferences": {}
}