{
  "_format": "hh-sol-artifact-1",
  "contractName": "FossaToken",
  "sourceName": "contracts/FossaToken.sol",
  "abi": [
    {
      "inputs": [
        {
          "internalType": "uint256",
          "name": "supply",
          "type": "uint256"
        }
      ],
      "stateMutability": "nonpayable",
      "type": "constructor"
    },
    {
      "anonymous": false,
      "inputs": [
        {
          "indexed": true,
          "internalType": "address",
          "name": "_owner",
          "type": "address"
        },
        {
          "indexed": true,
          "internalType": "address",
          "name": "_spender",
          "type": "address"
        },
        {
          "indexed": false,
          "internalType": "uint256",
          "name": "_value",
          "type": "uint256"
        }
      ],
      "name": "Approval",
      "type": "event"
    },
    {
      "anonymous": false,
      "inputs": [
        {
          "indexed": true,
          "internalType": "address",
          "name": "_from",
          "type": "address"
        },
        {
          "indexed": true,
          "internalType": "address",
          "name": "_to",
          "type": "address"
        },
        {
          "indexed": false,
          "internalType": "uint256",
          "name": "_value",
          "type": "uint256"
        }
      ],
      "name": "Transfer",
      "type": "event"
    },
    {
      "stateMutability": "payable",
      "type": "fallback"
    },
    {
      "inputs": [
        {
          "internalType": "address",
          "name": "",
          "type": "address"
        },
        {
          "internalType": "address",
          "name": "",
          "type": "address"
        }
      ],
      "name": "allowance",
      "outputs": [
        {
          "internalType": "uint256",
          "name": "",
          "type": "uint256"
        }
      ],
      "stateMutability": "view",
      "type": "function"
    },
    {
      "inputs": [
        {
          "internalType": "address",
          "name": "_spender",
          "type": "address"
        },
        {
          "internalType": "uint256",
          "name": "_value",
          "type": "uint256"
        }
      ],
      "name": "approve",
      "outputs": [
        {
          "internalType": "bool",
          "name": "",
          "type": "bool"
        }
      ],
      "stateMutability": "nonpayable",
      "type": "function"
    },
    {
      "inputs": [
        {
          "internalType": "address",
          "name": "",
          "type": "address"
        }
      ],
      "name": "balanceOf",
      "outputs": [
        {
          "internalType": "uint256",
          "name": "",
          "type": "uint256"
        }
      ],
      "stateMutability": "view",
      "type": "function"
    },
    {
      "inputs": [],
      "name": "decimals",
      "outputs": [
        {
          "internalType": "uint8",
          "name": "",
          "type": "uint8"
        }
      ],
      "stateMutability": "view",
      "type": "function"
    },
    {
      "inputs": [],
      "name": "name",
      "outputs": [
        {
          "internalType": "string",
          "name": "",
          "type": "string"
        }
      ],
      "stateMutability": "view",
      "type": "function"
    },
    {
      "inputs": [],
      "name": "owner",
      "outputs": [
        {
          "internalType": "address",
          "name": "",
          "type": "address"
        }
      ],
      "stateMutability": "view",
      "type": "function"
    },
    {
      "inputs": [],
      "name": "symbol",
      "outputs": [
        {
          "internalType": "string",
          "name": "",
          "type": "string"
        }
      ],
      "stateMutability": "view",
      "type": "function"
    },
    {
      "inputs": [],
      "name": "totalSupply",
      "outputs": [
        {
          "internalType": "uint256",
          "name": "",
          "type": "uint256"
        }
      ],
      "stateMutability": "view",
      "type": "function"
    },
    {
      "inputs": [
        {
          "internalType": "address",
          "name": "_to",
          "type": "address"
        },
        {
          "internalType": "uint256",
          "name": "_value",
          "type": "uint256"
        }
      ],
      "name": "transfer",
      "outputs": [
        {
          "internalType": "bool",
          "name": "",
          "type": "bool"
        }
      ],
      "stateMutability": "nonpayable",
      "type": "function"
    },
    {
      "inputs": [
        {
          "internalType": "address",
          "name": "_from",
          "type": "address"
        },
        {
          "internalType": "address",
          "name": "_to",
          "type": "address"
        },
        {
          "internalType": "uint256",
          "name": "_value",
          "type": "uint256"
        }
      ],
      "name": "transferFrom",
      "outputs": [
        {
          "internalType": "bool",
          "name": "",
          "type": "bool"
        }
      ],
      "stateMutability": "nonpayable",
      "type": "function"
    },
    {
      "inputs": [
        {
          "internalType": "address",
          "name": "newOwner",
          "type": "address"
        }
      ],
      "name": "transferOwnership",
      "outputs": [],
      "stateMutability": "nonpayable",
      "type": "function"
    },
    {
      "stateMutability": "payable",
      "type": "receive"
    }
  ],
  "bytecode": "0x60c0604052600a6080908152692337b9b9b0aa37b5b2b760b11b60a0526001906200002b90826200014f565b50604080518082019091526005815264464f53534160d81b60208201526002906200005790826200014f565b5034801562000064575f80fd5b5060405162000d0438038062000d0483398101604081905262000087916200021b565b5f80546001600160a01b031916339081178255815260046020526040902081905560035562000233565b634e487b7160e01b5f52604160045260245ffd5b600181811c90821680620000da57607f821691505b602082108103620000f957634e487b7160e01b5f52602260045260245ffd5b50919050565b601f8211156200014a57805f5260205f20601f840160051c81016020851015620001265750805b601f840160051c820191505b8181101562000147575f815560010162000132565b50505b505050565b81516001600160401b038111156200016b576200016b620000b1565b62000183816200017c8454620000c5565b84620000ff565b602080601f831160018114620001b9575f8415620001a15750858301515b5f19600386901b1c1916600185901b17855562000213565b5f85815260208120601f198616915b82811015620001e957888601518255948401946001909101908401620001c8565b50858210156200020757878501515f19600388901b60f8161c191681555b505060018460011b0185555b505050505050565b5f602082840312156200022c575f80fd5b5051919050565b610ac380620002415f395ff3fe608060405260043610610099575f3560e01c806370a082311161006057806370a08231146101625780638da5cb5b1461018d57806395d89b41146101c3578063a9059cbb146101d7578063dd62ed3e146101f6578063f2fde38b1461022c57005b806306fdde03146100a2578063095ea7b3146100cc57806318160ddd146100fb57806323b872dd1461011e578063313ce5671461013d57005b366100a057005b005b3480156100ad575f80fd5b506100b661024b565b6040516100c39190610902565b60405180910390f35b3480156100d7575f80fd5b506100eb6100e6366004610969565b6102d7565b60405190151581526020016100c3565b348015610106575f80fd5b5061011060035481565b6040519081526020016100c3565b348015610129575f80fd5b506100eb610138366004610991565b610416565b348015610148575f80fd5b506101505f81565b60405160ff90911681526020016100c3565b34801561016d575f80fd5b5061011061017c3660046109ca565b60046020525f908152604090205481565b348015610198575f80fd5b505f546101ab906001600160a01b031681565b6040516001600160a01b0390911681526020016100c3565b3480156101ce575f80fd5b506100b66106c3565b3480156101e2575f80fd5b506100eb6101f1366004610969565b6106d0565b348015610201575f80fd5b506101106102103660046109ea565b600560209081525f928352604080842090915290825290205481565b348015610237575f80fd5b506100a06102463660046109ca565b610739565b6001805461025890610a1b565b80601f016020809104026020016040519081016040528092919081815260200182805461028490610a1b565b80156102cf5780601f106102a6576101008083540402835291602001916102cf565b820191905f5260205f20905b8154815290600101906020018083116102b257829003601f168201915b505050505081565b5f6001600160a01b0383166103335760405162461bcd60e51b815260206004820152601e60248201527f4e6965776c61736369777920616472657320777973796c616a616365676f000060448201526064015b60405180910390fd5b335f9081526005602090815260408083206001600160a01b038716845290915290205482101561038757335f9081526005602090815260408083206001600160a01b0387168452909152902082905561040c565b335f9081526005602090815260408083206001600160a01b038716845290915290205482111561040c57335f8181526005602090815260408083206001600160a01b03881680855290835292819020869055518581529192917f8c5be1e5ebec7d5bd14f71427d1e84f3dd0314c0f7b2291e5b200ac8c7c3b925910160405180910390a35b5060015b92915050565b5f8082116104795760405162461bcd60e51b815260206004820152602a60248201527f576172746f7363207472616e7366657275206d75736920627963207769656b736044820152697a61206f64207a65726160b01b606482015260840161032a565b6001600160a01b0384165f908152600460205260409020548211156104e05760405162461bcd60e51b815260206004820152601c60248201527f4e69777973746172637a616a6163792062616c616e73206b6f6e746100000000604482015260640161032a565b6001600160a01b0384165f9081526005602090815260408083203384529091529020548211156105665760405162461bcd60e51b815260206004820152602b60248201527f446f7a776f6c6f6e6120696c6f7363206e6965206a657374207779737461726360448201526a7a616a61636f2064757a6160a81b606482015260840161032a565b6001600160a01b0383165f908152600460205260409020546105888382610a67565b116105fb5760405162461bcd60e51b815260206004820152603b60248201527f5370726177647a6120637a7920776172746f7363206d6f7a65207a6f7374616360448201527f20646f64616e6120646f206b6f6e746120646f63656c6f7765676f0000000000606482015260840161032a565b6001600160a01b0384165f9081526005602090815260408083203384529091529020546106288382610a7a565b11156106765760405162461bcd60e51b815260206004820152601c60248201527f446f7a776f6c6f6e6120696c6f7363206a657374207a61206d616c6100000000604482015260640161032a565b6001600160a01b0384165f908152600560209081526040808320338452909152812080548492906106a8908490610a7a565b909155506106b99050848484610800565b5060019392505050565b6002805461025890610a1b565b335f9081526004602052604081205482111561072e5760405162461bcd60e51b815260206004820152601d60248201527f4e6965777973746172637a616a6163792062616c616e73206b6f6e7461000000604482015260640161032a565b61040c338484610800565b5f546001600160a01b031633146107925760405162461bcd60e51b815260206004820152601d60248201527f54796c6b6f20776c617363696369656c206d6f7a65207779776f6c6163000000604482015260640161032a565b6001600160a01b0381166107df5760405162461bcd60e51b815260206004820152601460248201527302734b2b83930bbb4b23637bbbc9030b23932b9960651b604482015260640161032a565b5f80546001600160a01b0319166001600160a01b0392909216919091179055565b6001600160a01b0382166108565760405162461bcd60e51b815260206004820152601a60248201527f4e6965776c617363697779206164726573206f6462696f726379000000000000604482015260640161032a565b6001600160a01b0383165f908152600460205260408120805483929061087d908490610a7a565b90915550506001600160a01b0382165f90815260046020526040812080548392906108a9908490610a67565b92505081905550816001600160a01b0316836001600160a01b03167fddf252ad1be2c89b69c2b068fc378daa952ba7f163c4a11628f55a4df523b3ef836040516108f591815260200190565b60405180910390a3505050565b5f602080835283518060208501525f5b8181101561092e57858101830151858201604001528201610912565b505f604082860101526040601f19601f8301168501019250505092915050565b80356001600160a01b0381168114610964575f80fd5b919050565b5f806040838503121561097a575f80fd5b6109838361094e565b946020939093013593505050565b5f805f606084860312156109a3575f80fd5b6109ac8461094e565b92506109ba6020850161094e565b9150604084013590509250925092565b5f602082840312156109da575f80fd5b6109e38261094e565b9392505050565b5f80604083850312156109fb575f80fd5b610a048361094e565b9150610a126020840161094e565b90509250929050565b600181811c90821680610a2f57607f821691505b602082108103610a4d57634e487b7160e01b5f52602260045260245ffd5b50919050565b634e487b7160e01b5f52601160045260245ffd5b8082018082111561041057610410610a53565b8181038181111561041057610410610a5356fea2646970667358221220de2b2f5c7de59ed09d54973f57db618c55d647e8282dac97276e6a919b24546a64736f6c63430008170033",
  "linkReferences": {},
  "deployedLinkReferences": {}
}