{
  "_format": "hh-sol-artifact-1",
  "contractName": "Transfers",
  "sourceName": "contracts/Transfers.sol",
  "abi": [
    {
      "inputs": [
        {
          "internalType": "contract FossaToken",
          "name": "_tokenContract",
          "type": "address"
        }
      ],
      "stateMutability": "nonpayable",
      "type": "constructor"
    },
    {
      "stateMutability": "payable",
      "type": "fallback"
    },
    {
      "inputs": [],
      "name": "getAllTransactions",
      "outputs": [
        {
          "components": [
            {
              "internalType": "address",
              "name": "sender",
              "type": "address"
            },
            {
              "internalType": "address",
              "name": "reciver",
              "type": "address"
            },
            {
              "internalType": "uint256",
              "name": "amount",
              "type": "uint256"
            }
          ],
          "internalType": "struct Transfers.TransferStruct[]",
          "name": "",
          "type": "tuple[]"
        }
      ],
      "stateMutability": "view",
      "type": "function"
    },
    {
      "inputs": [],
      "name": "getTransactionsCount",
      "outputs": [
        {
          "internalType": "uint256",
          "name": "",
          "type": "uint256"
        }
      ],
      "stateMutability": "view",
      "type": "function"
    },
    {
      "inputs": [
        {
          "internalType": "address payable",
          "name": "reciver",
          "type": "address"
        },
        {
          "internalType": "uint256",
          "name": "amount",
          "type": "uint256"
        }
      ],
      "name": "sendTransaction",
      "outputs": [],
      "stateMutability": "payable",
      "type": "function"
    },
    {
      "inputs": [],
      "name": "tokenContract",
      "outputs": [
        {
          "internalType": "contract FossaToken",
          "name": "",
          "type": "address"
        }
      ],
      "stateMutability": "view",
      "type": "function"
    },
    {
      "stateMutability": "payable",
      "type": "receive"
    }
  ],
  "bytecode": "0x608060405234801561000f575f80fd5b506040516104a33803806104a383398101604081905261002e91610053565b600180546001600160a01b0319166001600160a01b0392909216919091179055610080565b5f60208284031215610063575f80fd5b81516001600160a01b0381168114610079575f80fd5b9392505050565b6104168061008d5f395ff3fe60806040526004361061003f575f3560e01c806327506f531461004857806355a373d614610072578063578cb8f9146100a9578063d709deb7146100c557005b3661004657005b005b348015610053575f80fd5b5061005c6100d8565b60405161006991906102fc565b60405180910390f35b34801561007d575f80fd5b50600154610091906001600160a01b031681565b6040516001600160a01b039091168152602001610069565b3480156100b4575f80fd5b505f54604051908152602001610069565b6100466100d3366004610360565b61015d565b60606002805480602002602001604051908101604052809291908181526020015f905b82821015610154575f848152602090819020604080516060810182526003860290920180546001600160a01b039081168452600180830154909116848601526002909101549183019190915290835290920191016100fb565b50505050905090565b60015f8082825461016e9190610395565b909155505060408051606081018252338082526001600160a01b038581166020840181815284860187815260028054600180820183555f92909252965160039097027f405787fa12a823e0f2b7631cc41b3ba8828b3321ca811111fa75cd3aa3bb5ace810180549887166001600160a01b0319998a1617905592517f405787fa12a823e0f2b7631cc41b3ba8828b3321ca811111fa75cd3aa3bb5acf840180549187169190981617909655517f405787fa12a823e0f2b7631cc41b3ba8828b3321ca811111fa75cd3aa3bb5ad090910155925493516323b872dd60e01b815260048101929092526024820192909252604481018490529116906323b872dd906064016020604051808303815f875af115801561028c573d5f803e3d5ffd5b505050506040513d601f19601f820116820180604052508101906102b091906103ba565b6102f85760405162461bcd60e51b8152602060048201526015602482015274151bdad95b881d1c985b9cd9995c8819985a5b1959605a1b604482015260640160405180910390fd5b5050565b602080825282518282018190525f919060409081850190868401855b8281101561035357815180516001600160a01b0390811686528782015116878601528501518585015260609093019290850190600101610318565b5091979650505050505050565b5f8060408385031215610371575f80fd5b82356001600160a01b0381168114610387575f80fd5b946020939093013593505050565b808201808211156103b457634e487b7160e01b5f52601160045260245ffd5b92915050565b5f602082840312156103ca575f80fd5b815180151581146103d9575f80fd5b939250505056fea26469706673582212201767481dae2ed3217474dfe918fb64d249cf1b5c7438b7fcf08e3392d42e3dbf64736f6c63430008170033",
  "linkReferences": {},
  "deployedLinkReferences": {}
}