{
  "_format": "hh-sol-artifact-1",
  "contractName": "Transactions",
  "sourceName": "contracts/Transactions.sol",
  "abi": [
    {
      "inputs": [
        {
          "internalType": "contract FossaToken",
          "name": "_tokenContract",
          "type": "address"
        },
        {
          "internalType": "uint256",
          "name": "_price",
          "type": "uint256"
        }
      ],
      "stateMutability": "nonpayable",
      "type": "constructor"
    },
    {
      "anonymous": false,
      "inputs": [
        {
          "indexed": true,
          "internalType": "address",
          "name": "account",
          "type": "address"
        },
        {
          "indexed": false,
          "internalType": "uint256",
          "name": "amount",
          "type": "uint256"
        }
      ],
      "name": "Buy",
      "type": "event"
    },
    {
      "anonymous": false,
      "inputs": [],
      "name": "IcoEnded",
      "type": "event"
    },
    {
      "anonymous": false,
      "inputs": [
        {
          "indexed": true,
          "internalType": "address",
          "name": "account",
          "type": "address"
        },
        {
          "indexed": true,
          "internalType": "address",
          "name": "tokenContract",
          "type": "address"
        },
        {
          "indexed": false,
          "internalType": "uint256",
          "name": "amount",
          "type": "uint256"
        }
      ],
      "name": "Sell",
      "type": "event"
    },
    {
      "stateMutability": "payable",
      "type": "fallback"
    },
    {
      "inputs": [],
      "name": "admin",
      "outputs": [
        {
          "internalType": "address payable",
          "name": "",
          "type": "address"
        }
      ],
      "stateMutability": "view",
      "type": "function"
    },
    {
      "inputs": [],
      "name": "icoState",
      "outputs": [
        {
          "internalType": "enum Transactions.IcoState",
          "name": "",
          "type": "uint8"
        }
      ],
      "stateMutability": "view",
      "type": "function"
    },
    {
      "inputs": [],
      "name": "newValue",
      "outputs": [
        {
          "internalType": "uint256",
          "name": "",
          "type": "uint256"
        }
      ],
      "stateMutability": "view",
      "type": "function"
    },
    {
      "inputs": [],
      "name": "price",
      "outputs": [
        {
          "internalType": "uint256",
          "name": "",
          "type": "uint256"
        }
      ],
      "stateMutability": "view",
      "type": "function"
    },
    {
      "inputs": [
        {
          "internalType": "uint256",
          "name": "amountOfTokens",
          "type": "uint256"
        }
      ],
      "name": "purchase",
      "outputs": [],
      "stateMutability": "payable",
      "type": "function"
    },
    {
      "inputs": [],
      "name": "purchased",
      "outputs": [
        {
          "internalType": "uint256",
          "name": "",
          "type": "uint256"
        }
      ],
      "stateMutability": "view",
      "type": "function"
    },
    {
      "inputs": [
        {
          "internalType": "uint256",
          "name": "amountOfTokens",
          "type": "uint256"
        }
      ],
      "name": "swap",
      "outputs": [],
      "stateMutability": "payable",
      "type": "function"
    },
    {
      "inputs": [],
      "name": "tokenContract",
      "outputs": [
        {
          "internalType": "contract FossaToken",
          "name": "",
          "type": "address"
        }
      ],
      "stateMutability": "view",
      "type": "function"
    },
    {
      "inputs": [
        {
          "internalType": "address payable",
          "name": "_receiver",
          "type": "address"
        },
        {
          "internalType": "uint256",
          "name": "_amount",
          "type": "uint256"
        }
      ],
      "name": "transfer",
      "outputs": [],
      "stateMutability": "payable",
      "type": "function"
    },
    {
      "inputs": [
        {
          "internalType": "uint256",
          "name": "",
          "type": "uint256"
        }
      ],
      "name": "transfers",
      "outputs": [
        {
          "internalType": "address",
          "name": "sender",
          "type": "address"
        },
        {
          "internalType": "address",
          "name": "receiver",
          "type": "address"
        },
        {
          "internalType": "uint256",
          "name": "amount",
          "type": "uint256"
        }
      ],
      "stateMutability": "view",
      "type": "function"
    },
    {
      "stateMutability": "payable",
      "type": "receive"
    }
  ],
  "bytecode": "0x608060405266038d7ea4c680006002556005805460ff19169055348015610024575f80fd5b50604051610c3e380380610c3e83398101604081905261004391610079565b5f8054336001600160a01b031991821617909155600180549091166001600160a01b0393909316929092179091556002556100b0565b5f806040838503121561008a575f80fd5b82516001600160a01b03811681146100a0575f80fd5b6020939093015192949293505050565b610b81806100bd5f395ff3fe60806040526004361061008e575f3560e01c806394b918de1161005557806394b918de1461017a578063a035b1fe1461018d578063a9059cbb146101a2578063efef39a1146101b5578063f851a440146101c857005b806344f387561461009757806355a373d6146100c65780637c65452c146100fd578063879f9c96146101205780639377d7111461013557005b3661009557005b005b3480156100a2575f80fd5b506005546100b09060ff1681565b6040516100bd9190610a45565b60405180910390f35b3480156100d1575f80fd5b506001546100e5906001600160a01b031681565b6040516001600160a01b0390911681526020016100bd565b348015610108575f80fd5b5061011260045481565b6040519081526020016100bd565b34801561012b575f80fd5b5061011260035481565b348015610140575f80fd5b5061015461014f366004610a6b565b6101e6565b604080516001600160a01b039485168152939092166020840152908201526060016100bd565b610095610188366004610a6b565b610224565b348015610198575f80fd5b5061011260025481565b6100956101b0366004610a82565b6102c5565b6100956101c3366004610a6b565b6103a9565b3480156101d3575f80fd5b505f546100e5906001600160a01b031681565b600681815481106101f5575f80fd5b5f9182526020909120600390910201805460018201546002909201546001600160a01b03918216935091169083565b5f60055460ff16600181111561023c5761023c610a31565b146102855760405162461bcd60e51b81526020600482015260146024820152735370727a6564617a206e696520616b7479776e6160601b60448201526064015b60405180910390fd5b5f6040518060600160405280336001600160a01b03168152602001838152602001600254846102b49190610acb565b905290506102c181610441565b5050565b60408051606081018252338082526001600160a01b038581166020840181905292840185905260015493516323b872dd60e01b815260048101929092526024820192909252604481018490529116906323b872dd906064016020604051808303815f875af1158015610339573d5f803e3d5ffd5b505050506040513d601f19601f8201168201806040525081019061035d9190610ae8565b6102c15760405162461bcd60e51b815260206004820152601860248201527f5472616e7366657220746f6b656e75206e69657564616e790000000000000000604482015260640161027c565b5f60055460ff1660018111156103c1576103c1610a31565b146104055760405162461bcd60e51b81526020600482015260146024820152735370727a6564617a206e696520616b7479776e6160601b604482015260640161027c565b5f6040518060600160405280336001600160a01b03168152602001838152602001600254846104349190610acb565b905290506102c1816107a0565b5f8160200151116104a25760405162461bcd60e51b815260206004820152602560248201527f4c69637a626120746f6b656e6f77206d75736920627963207769656b737a612060448201526406e697a20360dc1b606482015260840161027c565b602081015160015482516040516370a0823160e01b81526001600160a01b0391821660048201529116906370a0823190602401602060405180830381865afa1580156104f0573d5f803e3d5ffd5b505050506040513d601f19601f820116820180604052508101906105149190610b0e565b10156105625760405162461bcd60e51b815260206004820152601e60248201527f4e69777973746172637a616a6163792062616c616e7320746f6b656e6f770000604482015260640161027c565b80604001514710156105c65760405162461bcd60e51b815260206004820152602760248201527f4e6965777973746172637a616a61636120696c6f736320457468657275206e61604482015266206b6f6e63696560c81b606482015260840161027c565b600154815160208301516040516323b872dd60e01b81526001600160a01b03928316600482015230602482015260448101919091529116906323b872dd906064016020604051808303815f875af1158015610623573d5f803e3d5ffd5b505050506040513d601f19601f820116820180604052508101906106479190610ae8565b6106935760405162461bcd60e51b815260206004820152601960248201527f5472616e7366657220746f6b656e6f77206e69657564616e7900000000000000604482015260640161027c565b805160408083015190515f926001600160a01b031691908381818185875af1925050503d805f81146106e0576040519150601f19603f3d011682016040523d82523d5f602084013e6106e5565b606091505b50509050806107365760405162461bcd60e51b815260206004820152601860248201527f5472616e7366657220457468657275206e69657564616e790000000000000000604482015260640161027c565b816020015160035f82825461074b9190610b25565b909155505060015482516020808501516040519081526001600160a01b0393841693909216917fae98fdb7f4bc601d31354dd8c8ba584bf892418c4df67aba01011867bd88ea27910160405180910390a35050565b5f8160200151116108035760405162461bcd60e51b815260206004820152602760248201527f4c69637a626120746f6b656e6f77206d75736920627963207769656b737a61206044820152666f64207a65726160c81b606482015260840161027c565b60208101516001546040516370a0823160e01b81523060048201526001600160a01b03909116906370a0823190602401602060405180830381865afa15801561084e573d5f803e3d5ffd5b505050506040513d601f19601f820116820180604052508101906108729190610b0e565b10156108c05760405162461bcd60e51b815260206004820152601f60248201527f4e696520777973746172637a616a61636120696c6f736320746f6b656e6f7700604482015260640161027c565b806040015134146109135760405162461bcd60e51b815260206004820152601a60248201527f5779736c616e6f206e6965706f7261776e6120776172746f7363000000000000604482015260640161027c565b6001548151602083015160405163a9059cbb60e01b81526001600160a01b039283166004820152602481019190915291169063a9059cbb906044016020604051808303815f875af115801561096a573d5f803e3d5ffd5b505050506040513d601f19601f8201168201806040525081019061098e9190610ae8565b6109cf5760405162461bcd60e51b81526020600482015260126024820152715472616e73666572206e6965207564616e7960701b604482015260640161027c565b806020015160035f8282546109e49190610b38565b909155505080516020808301516040519081526001600160a01b03909216917fe3d4187f6ca4248660cc0ac8b8056515bac4a8132be2eca31d6d0cc170722a7e910160405180910390a250565b634e487b7160e01b5f52602160045260245ffd5b6020810160028310610a6557634e487b7160e01b5f52602160045260245ffd5b91905290565b5f60208284031215610a7b575f80fd5b5035919050565b5f8060408385031215610a93575f80fd5b82356001600160a01b0381168114610aa9575f80fd5b946020939093013593505050565b634e487b7160e01b5f52601160045260245ffd5b8082028115828204841417610ae257610ae2610ab7565b92915050565b5f60208284031215610af8575f80fd5b81518015158114610b07575f80fd5b9392505050565b5f60208284031215610b1e575f80fd5b5051919050565b81810381811115610ae257610ae2610ab7565b80820180821115610ae257610ae2610ab756fea2646970667358221220d99dba56758a943d7e8e7ed4b6becf79929064c83191c39d00e0d990ede72fb764736f6c63430008170033",
  "linkReferences": {},
  "deployedLinkReferences": {}
}