{
  "_format": "hh-sol-artifact-1",
  "contractName": "Transactions",
  "sourceName": "contracts/Transactions.sol",
  "abi": [
    {
      "inputs": [
        {
          "internalType": "contract FossaToken",
          "name": "_tokenContract",
          "type": "address"
        },
        {
          "internalType": "uint256",
          "name": "_price",
          "type": "uint256"
        }
      ],
      "stateMutability": "nonpayable",
      "type": "constructor"
    },
    {
      "anonymous": false,
      "inputs": [
        {
          "indexed": true,
          "internalType": "address",
          "name": "account",
          "type": "address"
        },
        {
          "indexed": false,
          "internalType": "uint256",
          "name": "amount",
          "type": "uint256"
        }
      ],
      "name": "Buy",
      "type": "event"
    },
    {
      "anonymous": false,
      "inputs": [],
      "name": "SaleEnded",
      "type": "event"
    },
    {
      "anonymous": false,
      "inputs": [
        {
          "indexed": true,
          "internalType": "address",
          "name": "account",
          "type": "address"
        },
        {
          "indexed": true,
          "internalType": "address",
          "name": "tokenContract",
          "type": "address"
        },
        {
          "indexed": false,
          "internalType": "uint256",
          "name": "amount",
          "type": "uint256"
        }
      ],
      "name": "Sell",
      "type": "event"
    },
    {
      "stateMutability": "payable",
      "type": "fallback"
    },
    {
      "inputs": [],
      "name": "admin",
      "outputs": [
        {
          "internalType": "address payable",
          "name": "",
          "type": "address"
        }
      ],
      "stateMutability": "view",
      "type": "function"
    },
    {
      "inputs": [],
      "name": "end",
      "outputs": [],
      "stateMutability": "nonpayable",
      "type": "function"
    },
    {
      "inputs": [],
      "name": "getAllTransactions",
      "outputs": [
        {
          "components": [
            {
              "internalType": "address",
              "name": "sender",
              "type": "address"
            },
            {
              "internalType": "address",
              "name": "receiver",
              "type": "address"
            },
            {
              "internalType": "uint256",
              "name": "amount",
              "type": "uint256"
            }
          ],
          "internalType": "struct Transactions.TransferStruct[]",
          "name": "",
          "type": "tuple[]"
        }
      ],
      "stateMutability": "view",
      "type": "function"
    },
    {
      "inputs": [],
      "name": "getTransactionsCount",
      "outputs": [
        {
          "internalType": "uint256",
          "name": "",
          "type": "uint256"
        }
      ],
      "stateMutability": "view",
      "type": "function"
    },
    {
      "inputs": [],
      "name": "newValue",
      "outputs": [
        {
          "internalType": "uint256",
          "name": "",
          "type": "uint256"
        }
      ],
      "stateMutability": "view",
      "type": "function"
    },
    {
      "inputs": [],
      "name": "price",
      "outputs": [
        {
          "internalType": "uint256",
          "name": "",
          "type": "uint256"
        }
      ],
      "stateMutability": "view",
      "type": "function"
    },
    {
      "inputs": [
        {
          "internalType": "uint256",
          "name": "amountOfTokens",
          "type": "uint256"
        }
      ],
      "name": "purchase",
      "outputs": [],
      "stateMutability": "payable",
      "type": "function"
    },
    {
      "inputs": [],
      "name": "purchased",
      "outputs": [
        {
          "internalType": "uint256",
          "name": "",
          "type": "uint256"
        }
      ],
      "stateMutability": "view",
      "type": "function"
    },
    {
      "inputs": [],
      "name": "saleState",
      "outputs": [
        {
          "internalType": "enum Transactions.SaleState",
          "name": "",
          "type": "uint8"
        }
      ],
      "stateMutability": "view",
      "type": "function"
    },
    {
      "inputs": [
        {
          "internalType": "uint256",
          "name": "amountOfTokens",
          "type": "uint256"
        }
      ],
      "name": "swap",
      "outputs": [],
      "stateMutability": "payable",
      "type": "function"
    },
    {
      "inputs": [],
      "name": "toggleSaleStatus",
      "outputs": [],
      "stateMutability": "nonpayable",
      "type": "function"
    },
    {
      "inputs": [],
      "name": "tokenContract",
      "outputs": [
        {
          "internalType": "contract FossaToken",
          "name": "",
          "type": "address"
        }
      ],
      "stateMutability": "view",
      "type": "function"
    },
    {
      "inputs": [
        {
          "internalType": "address payable",
          "name": "_receiver",
          "type": "address"
        },
        {
          "internalType": "uint256",
          "name": "_amount",
          "type": "uint256"
        }
      ],
      "name": "transfer",
      "outputs": [],
      "stateMutability": "payable",
      "type": "function"
    },
    {
      "inputs": [
        {
          "internalType": "uint256",
          "name": "",
          "type": "uint256"
        }
      ],
      "name": "transfers",
      "outputs": [
        {
          "internalType": "address",
          "name": "sender",
          "type": "address"
        },
        {
          "internalType": "address",
          "name": "receiver",
          "type": "address"
        },
        {
          "internalType": "uint256",
          "name": "amount",
          "type": "uint256"
        }
      ],
      "stateMutability": "view",
      "type": "function"
    },
    {
      "inputs": [],
      "name": "transfersCounter",
      "outputs": [
        {
          "internalType": "uint256",
          "name": "",
          "type": "uint256"
        }
      ],
      "stateMutability": "view",
      "type": "function"
    },
    {
      "stateMutability": "payable",
      "type": "receive"
    }
  ],
  "bytecode": "0x608060405266038d7ea4c680006003556006805460ff19169055348015610024575f80fd5b506040516111fa3803806111fa83398101604081905261004391610079565b5f8054336001600160a01b031991821617909155600180549091166001600160a01b0393909316929092179091556003556100b0565b5f806040838503121561008a575f80fd5b82516001600160a01b03811681146100a0575f80fd5b6020939093015192949293505050565b61113d806100bd5f395ff3fe6080604052600436106100df575f3560e01c8063879f9c9611610083578063a9059cbb11610055578063a9059cbb1461024d578063efbe1c1c14610260578063efef39a114610274578063f851a4401461028757005b8063879f9c96146101cb5780639377d711146101e057806394b918de14610225578063a035b1fe1461023857005b806355a373d6116100bc57806355a373d614610145578063578cb8f91461017c578063603f4d52146101905780637c65452c146101b657005b8063049c5c49146100e85780631d58593a146100fc57806327506f531461012457005b366100e657005b005b3480156100f3575f80fd5b506100e66102a5565b348015610107575f80fd5b5061011160025481565b6040519081526020015b60405180910390f35b34801561012f575f80fd5b50610138610365565b60405161011b9190610f15565b348015610150575f80fd5b50600154610164906001600160a01b031681565b6040516001600160a01b03909116815260200161011b565b348015610187575f80fd5b50600254610111565b34801561019b575f80fd5b506006546101a99060ff1681565b60405161011b9190610f8d565b3480156101c1575f80fd5b5061011160055481565b3480156101d6575f80fd5b5061011160045481565b3480156101eb575f80fd5b506101ff6101fa366004610fb3565b6103ea565b604080516001600160a01b0394851681529390921660208401529082015260600161011b565b6100e6610233366004610fb3565b610428565b348015610243575f80fd5b5061011160035481565b6100e661025b366004610fca565b6104c6565b34801561026b575f80fd5b506100e6610636565b6100e6610282366004610fb3565b6107e6565b348015610292575f80fd5b505f54610164906001600160a01b031681565b5f546001600160a01b031633146102d75760405162461bcd60e51b81526004016102ce90610fff565b60405180910390fd5b5f60065460ff1660018111156102ef576102ef610f79565b146102fa575f6102fd565b60015b6006805460ff19166001838181111561031857610318610f79565b02179055505f60065460ff16600181111561033557610335610f79565b03610363576040517f0bd8a3eb532e5fbcd3f5b00335f0fb42fdc11969e9af0fab7c9e71a36ae0d31a905f90a15b565b60606007805480602002602001604051908101604052809291908181526020015f905b828210156103e1575f848152602090819020604080516060810182526003860290920180546001600160a01b03908116845260018083015490911684860152600290910154918301919091529083529092019101610388565b50505050905090565b600781815481106103f9575f80fd5b5f9182526020909120600390910201805460018201546002909201546001600160a01b03918216935091169083565b5f60065460ff16600181111561044057610440610f79565b146104865760405162461bcd60e51b81526020600482015260166024820152755468652073616c65206973206e6f742061637469766560501b60448201526064016102ce565b5f6040518060600160405280336001600160a01b03168152602001838152602001600354846104b59190611058565b905290506104c281610880565b5050565b600160025f8282546104d89190611075565b909155505060408051606081018252338082526001600160a01b038581166020840181815284860187815260078054600180820183555f92909252965160039097027fa66cc928b5edb82af9bd49922954155ab7b0942694bea4ce44661d9a8736c688810180549887166001600160a01b0319998a1617905592517fa66cc928b5edb82af9bd49922954155ab7b0942694bea4ce44661d9a8736c689840180549187169190981617909655517fa66cc928b5edb82af9bd49922954155ab7b0942694bea4ce44661d9a8736c68a90910155925493516323b872dd60e01b815260048101929092526024820192909252604481018490529116906323b872dd906064016020604051808303815f875af11580156105f6573d5f803e3d5ffd5b505050506040513d601f19601f8201168201806040525081019061061a9190611088565b6104c25760405162461bcd60e51b81526004016102ce906110ae565b5f546001600160a01b0316331461065f5760405162461bcd60e51b81526004016102ce90610fff565b5f60065460ff16600181111561067757610677610f79565b146106c45760405162461bcd60e51b815260206004820152601960248201527f5468652073616c6520697320616c726561647920656e6465640000000000000060448201526064016102ce565b6001545f546040516370a0823160e01b81523060048201526001600160a01b039283169263a9059cbb92169083906370a0823190602401602060405180830381865afa158015610716573d5f803e3d5ffd5b505050506040513d601f19601f8201168201806040525081019061073a91906110dd565b6040516001600160e01b031960e085901b1681526001600160a01b03909216600483015260248201526044016020604051808303815f875af1158015610782573d5f803e3d5ffd5b505050506040513d601f19601f820116820180604052508101906107a69190611088565b506107af610b93565b6006805460ff191660011790556040517f0bd8a3eb532e5fbcd3f5b00335f0fb42fdc11969e9af0fab7c9e71a36ae0d31a905f90a1565b5f60065460ff1660018111156107fe576107fe610f79565b146108445760405162461bcd60e51b81526020600482015260166024820152755468652073616c65206973206e6f742061637469766560501b60448201526064016102ce565b5f6040518060600160405280336001600160a01b03168152602001838152602001600354846108739190611058565b905290506104c281610caf565b5f8160200151116108ca5760405162461bcd60e51b8152602060048201526014602482015273125b9d985b1a59081d1bdad95b88185b5bdd5b9d60621b60448201526064016102ce565b602081015160015482516040516370a0823160e01b81526001600160a01b0391821660048201529116906370a0823190602401602060405180830381865afa158015610918573d5f803e3d5ffd5b505050506040513d601f19601f8201168201806040525081019061093c91906110dd565b101561098a5760405162461bcd60e51b815260206004820152601a60248201527f496e73756666696369656e7420746f6b656e2062616c616e636500000000000060448201526064016102ce565b80604001514710156109f15760405162461bcd60e51b815260206004820152602a60248201527f496e73756666696369656e742045746865722062616c616e636520696e207468604482015269194818dbdb9d1c9858dd60b21b60648201526084016102ce565b600154815160208301516040516323b872dd60e01b81526001600160a01b03928316600482015230602482015260448101919091529116906323b872dd906064016020604051808303815f875af1158015610a4e573d5f803e3d5ffd5b505050506040513d601f19601f82011682018060405250810190610a729190611088565b610a8e5760405162461bcd60e51b81526004016102ce906110ae565b805160408083015190515f926001600160a01b031691908381818185875af1925050503d805f8114610adb576040519150601f19603f3d011682016040523d82523d5f602084013e610ae0565b606091505b5050905080610b295760405162461bcd60e51b8152602060048201526015602482015274115d1a195c881d1c985b9cd9995c8819985a5b1959605a1b60448201526064016102ce565b816020015160045f828254610b3e91906110f4565b909155505060015482516020808501516040519081526001600160a01b0393841693909216917fae98fdb7f4bc601d31354dd8c8ba584bf892418c4df67aba01011867bd88ea27910160405180910390a35050565b5f546001600160a01b03163314610bbc5760405162461bcd60e51b81526004016102ce90610fff565b6001546040516370a0823160e01b81523060048201526001600160a01b03909116906370a0823190602401602060405180830381865afa158015610c02573d5f803e3d5ffd5b505050506040513d601f19601f82011682018060405250810190610c2691906110dd565b471015610c755760405162461bcd60e51b815260206004820152601a60248201527f496e73756666696369656e7420546f6b656e2062616c616e636500000000000060448201526064016102ce565b5f80546040516001600160a01b03909116914780156108fc02929091818181858888f19350505050158015610cac573d5f803e3d5ffd5b50565b5f816020015111610d155760405162461bcd60e51b815260206004820152602a60248201527f4e756d626572206f6620746f6b656e73206d7573742062652067726561746572604482015269207468616e207a65726f60b01b60648201526084016102ce565b60208101516001546040516370a0823160e01b81523060048201526001600160a01b03909116906370a0823190602401602060405180830381865afa158015610d60573d5f803e3d5ffd5b505050506040513d601f19601f82011682018060405250810190610d8491906110dd565b1015610dd25760405162461bcd60e51b815260206004820152601b60248201527f4e6f7420656e6f75676820746f6b656e7320617661696c61626c65000000000060448201526064016102ce565b80604001513414610e1c5760405162461bcd60e51b8152602060048201526014602482015273125b98dbdc9c9958dd081d985b1d59481cd95b9d60621b60448201526064016102ce565b6001548151602083015160405163a9059cbb60e01b81526001600160a01b039283166004820152602481019190915291169063a9059cbb906044016020604051808303815f875af1158015610e73573d5f803e3d5ffd5b505050506040513d601f19601f82011682018060405250810190610e979190611088565b610eb35760405162461bcd60e51b81526004016102ce906110ae565b806020015160045f828254610ec89190611075565b909155505080516020808301516040519081526001600160a01b03909216917fe3d4187f6ca4248660cc0ac8b8056515bac4a8132be2eca31d6d0cc170722a7e910160405180910390a250565b602080825282518282018190525f919060409081850190868401855b82811015610f6c57815180516001600160a01b0390811686528782015116878601528501518585015260609093019290850190600101610f31565b5091979650505050505050565b634e487b7160e01b5f52602160045260245ffd5b6020810160028310610fad57634e487b7160e01b5f52602160045260245ffd5b91905290565b5f60208284031215610fc3575f80fd5b5035919050565b5f8060408385031215610fdb575f80fd5b82356001600160a01b0381168114610ff1575f80fd5b946020939093013593505050565b60208082526025908201527f4f6e6c79207468652061646d696e2063616e2063616c6c20746869732066756e60408201526431ba34b7b760d91b606082015260800190565b634e487b7160e01b5f52601160045260245ffd5b808202811582820484141761106f5761106f611044565b92915050565b8082018082111561106f5761106f611044565b5f60208284031215611098575f80fd5b815180151581146110a7575f80fd5b9392505050565b602080825260159082015274151bdad95b881d1c985b9cd9995c8819985a5b1959605a1b604082015260600190565b5f602082840312156110ed575f80fd5b5051919050565b8181038181111561106f5761106f61104456fea2646970667358221220f7ecb7974f80d2afb82fabb00222badd7604395e76516c6be654420beb94e23564736f6c63430008170033",
  "linkReferences": {},
  "deployedLinkReferences": {}
}