{
  "_format": "hh-sol-artifact-1",
  "contractName": "Transactions",
  "sourceName": "contracts/Transactions.sol",
  "abi": [
    {
      "inputs": [
        {
          "internalType": "contract FossaToken",
          "name": "_tokenContract",
          "type": "address"
        },
        {
          "internalType": "uint256",
          "name": "_tokenPrice",
          "type": "uint256"
        }
      ],
      "stateMutability": "nonpayable",
      "type": "constructor"
    },
    {
      "anonymous": false,
      "inputs": [
        {
          "indexed": true,
          "internalType": "address",
          "name": "buyer",
          "type": "address"
        },
        {
          "indexed": false,
          "internalType": "uint256",
          "name": "amount",
          "type": "uint256"
        }
      ],
      "name": "Buy",
      "type": "event"
    },
    {
      "anonymous": false,
      "inputs": [],
      "name": "SaleEnded",
      "type": "event"
    },
    {
      "anonymous": false,
      "inputs": [
        {
          "indexed": true,
          "internalType": "address",
          "name": "account",
          "type": "address"
        },
        {
          "indexed": true,
          "internalType": "address",
          "name": "tokenContract",
          "type": "address"
        },
        {
          "indexed": false,
          "internalType": "uint256",
          "name": "amount",
          "type": "uint256"
        }
      ],
      "name": "Sold",
      "type": "event"
    },
    {
      "inputs": [],
      "name": "admin",
      "outputs": [
        {
          "internalType": "address payable",
          "name": "",
          "type": "address"
        }
      ],
      "stateMutability": "view",
      "type": "function"
    },
    {
      "inputs": [
        {
          "internalType": "uint256",
          "name": "_numberOfTokens",
          "type": "uint256"
        }
      ],
      "name": "buyTokens",
      "outputs": [],
      "stateMutability": "payable",
      "type": "function"
    },
    {
      "inputs": [],
      "name": "endSale",
      "outputs": [],
      "stateMutability": "nonpayable",
      "type": "function"
    },
    {
      "inputs": [],
      "name": "saleState",
      "outputs": [
        {
          "internalType": "enum Transactions.SaleState",
          "name": "",
          "type": "uint8"
        }
      ],
      "stateMutability": "view",
      "type": "function"
    },
    {
      "inputs": [
        {
          "internalType": "uint256",
          "name": "_amount",
          "type": "uint256"
        }
      ],
      "name": "sellTokens",
      "outputs": [],
      "stateMutability": "payable",
      "type": "function"
    },
    {
      "inputs": [],
      "name": "toggleSaleStatus",
      "outputs": [],
      "stateMutability": "nonpayable",
      "type": "function"
    },
    {
      "inputs": [],
      "name": "tokenContract",
      "outputs": [
        {
          "internalType": "contract FossaToken",
          "name": "",
          "type": "address"
        }
      ],
      "stateMutability": "view",
      "type": "function"
    },
    {
      "inputs": [],
      "name": "tokenPrice",
      "outputs": [
        {
          "internalType": "uint256",
          "name": "",
          "type": "uint256"
        }
      ],
      "stateMutability": "view",
      "type": "function"
    },
    {
      "inputs": [],
      "name": "tokensSold",
      "outputs": [
        {
          "internalType": "uint256",
          "name": "",
          "type": "uint256"
        }
      ],
      "stateMutability": "view",
      "type": "function"
    },
    {
      "inputs": [],
      "name": "tokensValue",
      "outputs": [
        {
          "internalType": "uint256",
          "name": "",
          "type": "uint256"
        }
      ],
      "stateMutability": "view",
      "type": "function"
    },
    {
      "inputs": [
        {
          "internalType": "uint256",
          "name": "_amount",
          "type": "uint256"
        }
      ],
      "name": "withdrawEther",
      "outputs": [],
      "stateMutability": "nonpayable",
      "type": "function"
    },
    {
      "stateMutability": "payable",
      "type": "receive"
    }
  ],
  "bytecode": "0x608060405266038d7ea4c680006002556005805460ff19169055348015610024575f80fd5b50604051610d2e380380610d2e83398101604081905261004391610079565b5f8054336001600160a01b031991821617909155600180549091166001600160a01b0393909316929092179091556002556100b0565b5f806040838503121561008a575f80fd5b82516001600160a01b03811681146100a0575f80fd5b6020939093015192949293505050565b610c71806100bd5f395ff3fe60806040526004361061009d575f3560e01c8063518ab2a811610062578063518ab2a81461012c57806355a373d614610141578063603f4d52146101785780636c11bcd31461019e5780637ff9b596146101b1578063f851a440146101c6575f80fd5b8063049c5c49146100a85780631e56e1f4146100be5780633610724e146100e6578063380d831b146100f95780633bed33ce1461010d575f80fd5b366100a457005b5f80fd5b3480156100b3575f80fd5b506100bc6101e4565b005b3480156100c9575f80fd5b506100d360045481565b6040519081526020015b60405180910390f35b6100bc6100f4366004610b11565b6102a4565b348015610104575f80fd5b506100bc610576565b348015610118575f80fd5b506100bc610127366004610b11565b6107a1565b348015610137575f80fd5b506100d360035481565b34801561014c575f80fd5b50600154610160906001600160a01b031681565b6040516001600160a01b0390911681526020016100dd565b348015610183575f80fd5b506005546101919060ff1681565b6040516100dd9190610b3c565b6100bc6101ac366004610b11565b610854565b3480156101bc575f80fd5b506100d360025481565b3480156101d1575f80fd5b505f54610160906001600160a01b031681565b5f546001600160a01b031633146102165760405162461bcd60e51b815260040161020d90610b62565b60405180910390fd5b5f60055460ff16600181111561022e5761022e610b28565b14610239575f61023c565b60015b6005805460ff19166001838181111561025757610257610b28565b02179055505f60055460ff16600181111561027457610274610b28565b036102a2576040517f0bd8a3eb532e5fbcd3f5b00335f0fb42fdc11969e9af0fab7c9e71a36ae0d31a905f90a15b565b5f60055460ff1660018111156102bc576102bc610b28565b146103025760405162461bcd60e51b81526020600482015260166024820152755468652073616c65206973206e6f742061637469766560501b604482015260640161020d565b60025461030f9082610bbb565b600455806103725760405162461bcd60e51b815260206004820152602a60248201527f4e756d626572206f6620746f6b656e73206d7573742062652067726561746572604482015269207468616e207a65726f60b01b606482015260840161020d565b6001546040516370a0823160e01b815230600482015282916001600160a01b0316906370a0823190602401602060405180830381865afa1580156103b8573d5f803e3d5ffd5b505050506040513d601f19601f820116820180604052508101906103dc9190610bd8565b101561042a5760405162461bcd60e51b815260206004820152601b60248201527f4e6f7420656e6f75676820746f6b656e7320617661696c61626c650000000000604482015260640161020d565b60045434146104725760405162461bcd60e51b8152602060048201526014602482015273125b98dbdc9c9958dd081d985b1d59481cd95b9d60621b604482015260640161020d565b60015460405163a9059cbb60e01b8152336004820152602481018390526001600160a01b039091169063a9059cbb906044016020604051808303815f875af11580156104c0573d5f803e3d5ffd5b505050506040513d601f19601f820116820180604052508101906104e49190610bef565b6105285760405162461bcd60e51b8152602060048201526015602482015274151bdad95b881d1c985b9cd9995c8819985a5b1959605a1b604482015260640161020d565b8060035f8282546105399190610c15565b909155505060405181815233907fe3d4187f6ca4248660cc0ac8b8056515bac4a8132be2eca31d6d0cc170722a7e9060200160405180910390a250565b5f546001600160a01b0316331461059f5760405162461bcd60e51b815260040161020d90610b62565b5f60055460ff1660018111156105b7576105b7610b28565b146106045760405162461bcd60e51b815260206004820152601960248201527f5468652073616c6520697320616c726561647920656e64656400000000000000604482015260640161020d565b6001545f546040516370a0823160e01b81523060048201526001600160a01b039283169263a9059cbb92169083906370a0823190602401602060405180830381865afa158015610656573d5f803e3d5ffd5b505050506040513d601f19601f8201168201806040525081019061067a9190610bd8565b6040516001600160e01b031960e085901b1681526001600160a01b03909216600483015260248201526044016020604051808303815f875af11580156106c2573d5f803e3d5ffd5b505050506040513d601f19601f820116820180604052508101906106e69190610bef565b6107325760405162461bcd60e51b815260206004820152601e60248201527f546f6b656e207472616e7366657220746f2061646d696e206661696c65640000604482015260640161020d565b5f80546040516001600160a01b03909116914780156108fc02929091818181858888f19350505050158015610769573d5f803e3d5ffd5b506005805460ff191660011790556040517f0bd8a3eb532e5fbcd3f5b00335f0fb42fdc11969e9af0fab7c9e71a36ae0d31a905f90a1565b5f546001600160a01b031633146107ca5760405162461bcd60e51b815260040161020d90610b62565b8047101561081a5760405162461bcd60e51b815260206004820152601a60248201527f496e73756666696369656e742045746865722062616c616e6365000000000000604482015260640161020d565b5f80546040516001600160a01b039091169183156108fc02918491818181858888f19350505050158015610850573d5f803e3d5ffd5b5050565b5f60055460ff16600181111561086c5761086c610b28565b146108b25760405162461bcd60e51b81526020600482015260166024820152755468652073616c65206973206e6f742061637469766560501b604482015260640161020d565b6001546040516370a0823160e01b815233600482015282916001600160a01b0316906370a0823190602401602060405180830381865afa1580156108f8573d5f803e3d5ffd5b505050506040513d601f19601f8201168201806040525081019061091c9190610bd8565b101561096a5760405162461bcd60e51b815260206004820152601a60248201527f496e73756666696369656e7420746f6b656e2062616c616e6365000000000000604482015260640161020d565b804710156109ba5760405162461bcd60e51b815260206004820152601a60248201527f496e73756666696369656e742045746865722062616c616e6365000000000000604482015260640161020d565b6001546040516323b872dd60e01b8152336004820152306024820152604481018390526001600160a01b03909116906323b872dd906064016020604051808303815f875af1158015610a0e573d5f803e3d5ffd5b505050506040513d601f19601f82011682018060405250810190610a329190610bef565b610a765760405162461bcd60e51b8152602060048201526015602482015274151bdad95b881d1c985b9cd9995c8819985a5b1959605a1b604482015260640161020d565b5f60025482610a859190610bbb565b604051909150339082156108fc029083905f818181858888f19350505050158015610ab2573d5f803e3d5ffd5b508160035f828254610ac49190610c28565b90915550506001546040518381526001600160a01b039091169033907ff3ecb4dab83f41da3035ff9cb3a2ef0c3027ebb89ae4e4b822d7c109e869a2fc9060200160405180910390a35050565b5f60208284031215610b21575f80fd5b5035919050565b634e487b7160e01b5f52602160045260245ffd5b6020810160028310610b5c57634e487b7160e01b5f52602160045260245ffd5b91905290565b60208082526025908201527f4f6e6c79207468652061646d696e2063616e2063616c6c20746869732066756e60408201526431ba34b7b760d91b606082015260800190565b634e487b7160e01b5f52601160045260245ffd5b8082028115828204841417610bd257610bd2610ba7565b92915050565b5f60208284031215610be8575f80fd5b5051919050565b5f60208284031215610bff575f80fd5b81518015158114610c0e575f80fd5b9392505050565b80820180821115610bd257610bd2610ba7565b81810381811115610bd257610bd2610ba756fea2646970667358221220611a1abc01d9f7ec6d527deb2d18ec3551f0ea248e3ccab64dd9e408b89e9c3964736f6c63430008170033",
  "linkReferences": {},
  "deployedLinkReferences": {}
}