{
  "_format": "hh-sol-artifact-1",
  "contractName": "FossaToken",
  "sourceName": "contracts/FossaToken.sol",
  "abi": [
    {
      "inputs": [
        {
          "internalType": "uint256",
          "name": "supply",
          "type": "uint256"
        }
      ],
      "stateMutability": "nonpayable",
      "type": "constructor"
    },
    {
      "anonymous": false,
      "inputs": [
        {
          "indexed": true,
          "internalType": "address",
          "name": "_owner",
          "type": "address"
        },
        {
          "indexed": true,
          "internalType": "address",
          "name": "_spender",
          "type": "address"
        },
        {
          "indexed": false,
          "internalType": "uint256",
          "name": "_value",
          "type": "uint256"
        }
      ],
      "name": "Approval",
      "type": "event"
    },
    {
      "anonymous": false,
      "inputs": [
        {
          "indexed": true,
          "internalType": "address",
          "name": "_from",
          "type": "address"
        },
        {
          "indexed": true,
          "internalType": "address",
          "name": "_to",
          "type": "address"
        },
        {
          "indexed": false,
          "internalType": "uint256",
          "name": "_value",
          "type": "uint256"
        }
      ],
      "name": "Transfer",
      "type": "event"
    },
    {
      "stateMutability": "payable",
      "type": "fallback"
    },
    {
      "inputs": [
        {
          "internalType": "address",
          "name": "",
          "type": "address"
        },
        {
          "internalType": "address",
          "name": "",
          "type": "address"
        }
      ],
      "name": "allowance",
      "outputs": [
        {
          "internalType": "uint256",
          "name": "",
          "type": "uint256"
        }
      ],
      "stateMutability": "view",
      "type": "function"
    },
    {
      "inputs": [
        {
          "internalType": "address",
          "name": "_spender",
          "type": "address"
        },
        {
          "internalType": "uint256",
          "name": "_value",
          "type": "uint256"
        }
      ],
      "name": "approve",
      "outputs": [
        {
          "internalType": "bool",
          "name": "",
          "type": "bool"
        }
      ],
      "stateMutability": "nonpayable",
      "type": "function"
    },
    {
      "inputs": [
        {
          "internalType": "address",
          "name": "",
          "type": "address"
        }
      ],
      "name": "balanceOf",
      "outputs": [
        {
          "internalType": "uint256",
          "name": "",
          "type": "uint256"
        }
      ],
      "stateMutability": "view",
      "type": "function"
    },
    {
      "inputs": [],
      "name": "decimals",
      "outputs": [
        {
          "internalType": "uint8",
          "name": "",
          "type": "uint8"
        }
      ],
      "stateMutability": "view",
      "type": "function"
    },
    {
      "inputs": [
        {
          "internalType": "uint256",
          "name": "_amount",
          "type": "uint256"
        }
      ],
      "name": "mint",
      "outputs": [],
      "stateMutability": "nonpayable",
      "type": "function"
    },
    {
      "inputs": [],
      "name": "name",
      "outputs": [
        {
          "internalType": "string",
          "name": "",
          "type": "string"
        }
      ],
      "stateMutability": "view",
      "type": "function"
    },
    {
      "inputs": [],
      "name": "owner",
      "outputs": [
        {
          "internalType": "address",
          "name": "",
          "type": "address"
        }
      ],
      "stateMutability": "view",
      "type": "function"
    },
    {
      "inputs": [],
      "name": "symbol",
      "outputs": [
        {
          "internalType": "string",
          "name": "",
          "type": "string"
        }
      ],
      "stateMutability": "view",
      "type": "function"
    },
    {
      "inputs": [],
      "name": "totalSupply",
      "outputs": [
        {
          "internalType": "uint256",
          "name": "",
          "type": "uint256"
        }
      ],
      "stateMutability": "view",
      "type": "function"
    },
    {
      "inputs": [
        {
          "internalType": "address",
          "name": "_to",
          "type": "address"
        },
        {
          "internalType": "uint256",
          "name": "_value",
          "type": "uint256"
        }
      ],
      "name": "transfer",
      "outputs": [
        {
          "internalType": "bool",
          "name": "",
          "type": "bool"
        }
      ],
      "stateMutability": "nonpayable",
      "type": "function"
    },
    {
      "inputs": [
        {
          "internalType": "address",
          "name": "_from",
          "type": "address"
        },
        {
          "internalType": "address",
          "name": "_to",
          "type": "address"
        },
        {
          "internalType": "uint256",
          "name": "_value",
          "type": "uint256"
        }
      ],
      "name": "transferFrom",
      "outputs": [
        {
          "internalType": "bool",
          "name": "",
          "type": "bool"
        }
      ],
      "stateMutability": "nonpayable",
      "type": "function"
    },
    {
      "inputs": [
        {
          "internalType": "address",
          "name": "newOwner",
          "type": "address"
        }
      ],
      "name": "transferOwnership",
      "outputs": [],
      "stateMutability": "nonpayable",
      "type": "function"
    },
    {
      "stateMutability": "payable",
      "type": "receive"
    }
  ],
  "bytecode": "0x60c0604052600a6080908152692337b9b9b0aa37b5b2b760b11b60a0526001906200002b90826200014f565b50604080518082019091526005815264464f53534160d81b60208201526002906200005790826200014f565b5034801562000064575f80fd5b5060405162000e1f38038062000e1f83398101604081905262000087916200021b565b5f80546001600160a01b031916339081178255815260046020526040902081905560035562000233565b634e487b7160e01b5f52604160045260245ffd5b600181811c90821680620000da57607f821691505b602082108103620000f957634e487b7160e01b5f52602260045260245ffd5b50919050565b601f8211156200014a57805f5260205f20601f840160051c81016020851015620001265750805b601f840160051c820191505b8181101562000147575f815560010162000132565b50505b505050565b81516001600160401b038111156200016b576200016b620000b1565b62000183816200017c8454620000c5565b84620000ff565b602080601f831160018114620001b9575f8415620001a15750858301515b5f19600386901b1c1916600185901b17855562000213565b5f85815260208120601f198616915b82811015620001e957888601518255948401946001909101908401620001c8565b50858210156200020757878501515f19600388901b60f8161c191681555b505060018460011b0185555b505050505050565b5f602082840312156200022c575f80fd5b5051919050565b610bde80620002415f395ff3fe6080604052600436106100a4575f3560e01c80638da5cb5b116100605780638da5cb5b1461019857806395d89b41146101ce578063a0712d68146101e2578063a9059cbb14610201578063dd62ed3e14610220578063f2fde38b1461025657005b806306fdde03146100ad578063095ea7b3146100d757806318160ddd1461010657806323b872dd14610129578063313ce5671461014857806370a082311461016d57005b366100ab57005b005b3480156100b8575f80fd5b506100c1610275565b6040516100ce91906109c1565b60405180910390f35b3480156100e2575f80fd5b506100f66100f1366004610a28565b610301565b60405190151581526020016100ce565b348015610111575f80fd5b5061011b60035481565b6040519081526020016100ce565b348015610134575f80fd5b506100f6610143366004610a50565b610440565b348015610153575f80fd5b5061015b5f81565b60405160ff90911681526020016100ce565b348015610178575f80fd5b5061011b610187366004610a89565b60046020525f908152604090205481565b3480156101a3575f80fd5b505f546101b6906001600160a01b031681565b6040516001600160a01b0390911681526020016100ce565b3480156101d9575f80fd5b506100c16106a2565b3480156101ed575f80fd5b506100ab6101fc366004610aa9565b6106af565b34801561020c575f80fd5b506100f661021b366004610a28565b6107bf565b34801561022b575f80fd5b5061011b61023a366004610ac0565b600560209081525f928352604080842090915290825290205481565b348015610261575f80fd5b506100ab610270366004610a89565b61081f565b6001805461028290610af1565b80601f01602080910402602001604051908101604052809291908181526020018280546102ae90610af1565b80156102f95780601f106102d0576101008083540402835291602001916102f9565b820191905f5260205f20905b8154815290600101906020018083116102dc57829003601f168201915b505050505081565b5f6001600160a01b03831661035d5760405162461bcd60e51b815260206004820152601760248201527f496e76616c6964207370656e646572206164647265737300000000000000000060448201526064015b60405180910390fd5b335f9081526005602090815260408083206001600160a01b03871684529091529020548210156103b157335f9081526005602090815260408083206001600160a01b03871684529091529020829055610436565b335f9081526005602090815260408083206001600160a01b038716845290915290205482111561043657335f8181526005602090815260408083206001600160a01b03881680855290835292819020869055518581529192917f8c5be1e5ebec7d5bd14f71427d1e84f3dd0314c0f7b2291e5b200ac8c7c3b925910160405180910390a35b5060015b92915050565b5f8082116104a25760405162461bcd60e51b815260206004820152602960248201527f5472616e7366657220616d6f756e74206d7573742062652067726561746572206044820152687468616e207a65726f60b81b6064820152608401610354565b6001600160a01b0384165f908152600460205260409020548211156105005760405162461bcd60e51b8152602060048201526014602482015273496e73756666696369656e742062616c616e636560601b6044820152606401610354565b6001600160a01b0384165f9081526005602090815260408083203384529091529020548211156105725760405162461bcd60e51b815260206004820152601b60248201527f416c6c6f77616e6365206973206e6f742062696720656e6f75676800000000006044820152606401610354565b6001600160a01b0383165f908152600460205260409020546105948382610b3d565b116105e15760405162461bcd60e51b815260206004820152601f60248201527f4f766572666c6f7720696e2064657374696e6174696f6e2062616c616e6365006044820152606401610354565b6001600160a01b0384165f90815260056020908152604080832033845290915290205461060e8382610b50565b11156106555760405162461bcd60e51b8152602060048201526016602482015275556e646572666c6f7720696e20616c6c6f77616e636560501b6044820152606401610354565b6001600160a01b0384165f90815260056020908152604080832033845290915281208054849290610687908490610b50565b9091555061069890508484846108bf565b5060019392505050565b6002805461028290610af1565b5f546001600160a01b031633146106d85760405162461bcd60e51b815260040161035490610b63565b5f81116107375760405162461bcd60e51b815260206004820152602760248201527f4d696e74656420616d6f756e74206d7573742062652067726561746572207468604482015266616e207a65726f60c81b6064820152608401610354565b8060035f8282546107489190610b3d565b90915550505f80546001600160a01b031681526004602052604081208054839290610774908490610b3d565b90915550505f80546040518381526001600160a01b0390911691907fddf252ad1be2c89b69c2b068fc378daa952ba7f163c4a11628f55a4df523b3ef9060200160405180910390a350565b335f908152600460205260408120548211156108145760405162461bcd60e51b8152602060048201526014602482015273496e73756666696369656e742062616c616e636560601b6044820152606401610354565b6104363384846108bf565b5f546001600160a01b031633146108485760405162461bcd60e51b815260040161035490610b63565b6001600160a01b03811661089e5760405162461bcd60e51b815260206004820152601960248201527f496e76616c6964206e6577206f776e65722061646472657373000000000000006044820152606401610354565b5f80546001600160a01b0319166001600160a01b0392909216919091179055565b6001600160a01b0382166109155760405162461bcd60e51b815260206004820152601960248201527f496e76616c696420726563697069656e742061646472657373000000000000006044820152606401610354565b6001600160a01b0383165f908152600460205260408120805483929061093c908490610b50565b90915550506001600160a01b0382165f9081526004602052604081208054839290610968908490610b3d565b92505081905550816001600160a01b0316836001600160a01b03167fddf252ad1be2c89b69c2b068fc378daa952ba7f163c4a11628f55a4df523b3ef836040516109b491815260200190565b60405180910390a3505050565b5f602080835283518060208501525f5b818110156109ed578581018301518582016040015282016109d1565b505f604082860101526040601f19601f8301168501019250505092915050565b80356001600160a01b0381168114610a23575f80fd5b919050565b5f8060408385031215610a39575f80fd5b610a4283610a0d565b946020939093013593505050565b5f805f60608486031215610a62575f80fd5b610a6b84610a0d565b9250610a7960208501610a0d565b9150604084013590509250925092565b5f60208284031215610a99575f80fd5b610aa282610a0d565b9392505050565b5f60208284031215610ab9575f80fd5b5035919050565b5f8060408385031215610ad1575f80fd5b610ada83610a0d565b9150610ae860208401610a0d565b90509250929050565b600181811c90821680610b0557607f821691505b602082108103610b2357634e487b7160e01b5f52602260045260245ffd5b50919050565b634e487b7160e01b5f52601160045260245ffd5b8082018082111561043a5761043a610b29565b8181038181111561043a5761043a610b29565b60208082526025908201527f4f6e6c7920746865206f776e65722063616e2063616c6c20746869732066756e60408201526431ba34b7b760d91b60608201526080019056fea2646970667358221220570684da14510195ab7582319f2eb5246ea9f8c07b81635dceb53218d53b5a9064736f6c63430008170033",
  "linkReferences": {},
  "deployedLinkReferences": {}
}