{
  "_format": "hh-sol-artifact-1",
  "contractName": "FossaToken",
  "sourceName": "contracts/FossaToken.sol",
  "abi": [
    {
      "inputs": [
        {
          "internalType": "uint256",
          "name": "_initialSupply",
          "type": "uint256"
        }
      ],
      "stateMutability": "nonpayable",
      "type": "constructor"
    },
    {
      "anonymous": false,
      "inputs": [
        {
          "indexed": true,
          "internalType": "address",
          "name": "_owner",
          "type": "address"
        },
        {
          "indexed": true,
          "internalType": "address",
          "name": "_spender",
          "type": "address"
        },
        {
          "indexed": false,
          "internalType": "uint256",
          "name": "_value",
          "type": "uint256"
        }
      ],
      "name": "Approval",
      "type": "event"
    },
    {
      "anonymous": false,
      "inputs": [
        {
          "indexed": true,
          "internalType": "address",
          "name": "_from",
          "type": "address"
        },
        {
          "indexed": true,
          "internalType": "address",
          "name": "_to",
          "type": "address"
        },
        {
          "indexed": false,
          "internalType": "uint256",
          "name": "_value",
          "type": "uint256"
        }
      ],
      "name": "Transfer",
      "type": "event"
    },
    {
      "inputs": [
        {
          "internalType": "address",
          "name": "",
          "type": "address"
        },
        {
          "internalType": "address",
          "name": "",
          "type": "address"
        }
      ],
      "name": "allowance",
      "outputs": [
        {
          "internalType": "uint256",
          "name": "",
          "type": "uint256"
        }
      ],
      "stateMutability": "view",
      "type": "function"
    },
    {
      "inputs": [
        {
          "internalType": "address",
          "name": "_spender",
          "type": "address"
        },
        {
          "internalType": "uint256",
          "name": "_value",
          "type": "uint256"
        }
      ],
      "name": "approve",
      "outputs": [
        {
          "internalType": "bool",
          "name": "",
          "type": "bool"
        }
      ],
      "stateMutability": "nonpayable",
      "type": "function"
    },
    {
      "inputs": [
        {
          "internalType": "address",
          "name": "",
          "type": "address"
        }
      ],
      "name": "balanceOf",
      "outputs": [
        {
          "internalType": "uint256",
          "name": "",
          "type": "uint256"
        }
      ],
      "stateMutability": "view",
      "type": "function"
    },
    {
      "inputs": [],
      "name": "decimals",
      "outputs": [
        {
          "internalType": "uint8",
          "name": "",
          "type": "uint8"
        }
      ],
      "stateMutability": "view",
      "type": "function"
    },
    {
      "inputs": [
        {
          "internalType": "address",
          "name": "to",
          "type": "address"
        },
        {
          "internalType": "uint256",
          "name": "amount",
          "type": "uint256"
        }
      ],
      "name": "mint",
      "outputs": [],
      "stateMutability": "nonpayable",
      "type": "function"
    },
    {
      "inputs": [],
      "name": "name",
      "outputs": [
        {
          "internalType": "string",
          "name": "",
          "type": "string"
        }
      ],
      "stateMutability": "view",
      "type": "function"
    },
    {
      "inputs": [],
      "name": "owner",
      "outputs": [
        {
          "internalType": "address",
          "name": "",
          "type": "address"
        }
      ],
      "stateMutability": "view",
      "type": "function"
    },
    {
      "inputs": [],
      "name": "standard",
      "outputs": [
        {
          "internalType": "string",
          "name": "",
          "type": "string"
        }
      ],
      "stateMutability": "view",
      "type": "function"
    },
    {
      "inputs": [],
      "name": "symbol",
      "outputs": [
        {
          "internalType": "string",
          "name": "",
          "type": "string"
        }
      ],
      "stateMutability": "view",
      "type": "function"
    },
    {
      "inputs": [],
      "name": "totalSupply",
      "outputs": [
        {
          "internalType": "uint256",
          "name": "",
          "type": "uint256"
        }
      ],
      "stateMutability": "view",
      "type": "function"
    },
    {
      "inputs": [
        {
          "internalType": "address",
          "name": "_to",
          "type": "address"
        },
        {
          "internalType": "uint256",
          "name": "_value",
          "type": "uint256"
        }
      ],
      "name": "transfer",
      "outputs": [
        {
          "internalType": "bool",
          "name": "",
          "type": "bool"
        }
      ],
      "stateMutability": "nonpayable",
      "type": "function"
    },
    {
      "inputs": [
        {
          "internalType": "address",
          "name": "_from",
          "type": "address"
        },
        {
          "internalType": "address",
          "name": "_to",
          "type": "address"
        },
        {
          "internalType": "uint256",
          "name": "_value",
          "type": "uint256"
        }
      ],
      "name": "transferFrom",
      "outputs": [
        {
          "internalType": "bool",
          "name": "",
          "type": "bool"
        }
      ],
      "stateMutability": "nonpayable",
      "type": "function"
    }
  ],
  "bytecode": "0x60c0604052600a6080908152692337b9b9b0aa37b5b2b760b11b60a0525f906200002a90826200018a565b50604080518082019091526005815264464f53534160d81b60208201526001906200005690826200018a565b5060408051808201909152600f81526e0466f737361546f6b656e2076312e3608c1b60208201526002906200008c90826200018a565b5034801562000099575f80fd5b5060405162000b0338038062000b03833981016040819052620000bc9162000256565b335f818152600560205260409020829055600391909155600480546001600160a01b03191690911790556200026e565b634e487b7160e01b5f52604160045260245ffd5b600181811c908216806200011557607f821691505b6020821081036200013457634e487b7160e01b5f52602260045260245ffd5b50919050565b601f8211156200018557805f5260205f20601f840160051c81016020851015620001615750805b601f840160051c820191505b8181101562000182575f81556001016200016d565b50505b505050565b81516001600160401b03811115620001a657620001a6620000ec565b620001be81620001b7845462000100565b846200013a565b602080601f831160018114620001f4575f8415620001dc5750858301515b5f19600386901b1c1916600185901b1785556200024e565b5f85815260208120601f198616915b82811015620002245788860151825594840194600190910190840162000203565b50858210156200024257878501515f19600388901b60f8161c191681555b505060018460011b0185555b505050505050565b5f6020828403121562000267575f80fd5b5051919050565b610887806200027c5f395ff3fe608060405234801561000f575f80fd5b50600436106100b1575f3560e01c80635a3b7e421161006e5780635a3b7e421461014e57806370a08231146101565780638da5cb5b1461017557806395d89b41146101a0578063a9059cbb146101a8578063dd62ed3e146101bb575f80fd5b806306fdde03146100b5578063095ea7b3146100d357806318160ddd146100f657806323b872dd1461010d578063313ce5671461012057806340c10f1914610139575b5f80fd5b6100bd6101e5565b6040516100ca91906106c6565b60405180910390f35b6100e66100e136600461072d565b610270565b60405190151581526020016100ca565b6100ff60035481565b6040519081526020016100ca565b6100e661011b366004610755565b610331565b6101275f81565b60405160ff90911681526020016100ca565b61014c61014736600461072d565b6104ae565b005b6100bd6105cb565b6100ff61016436600461078e565b60056020525f908152604090205481565b600454610188906001600160a01b031681565b6040516001600160a01b0390911681526020016100ca565b6100bd6105d8565b6100e66101b636600461072d565b6105e5565b6100ff6101c93660046107ae565b600660209081525f928352604080842090915290825290205481565b5f80546101f1906107df565b80601f016020809104026020016040519081016040528092919081815260200182805461021d906107df565b80156102685780601f1061023f57610100808354040283529160200191610268565b820191905f5260205f20905b81548152906001019060200180831161024b57829003601f168201915b505050505081565b5f6001600160a01b0383166102cc5760405162461bcd60e51b815260206004820152601760248201527f496e76616c6964207370656e646572206164647265737300000000000000000060448201526064015b60405180910390fd5b335f8181526006602090815260408083206001600160a01b03881680855290835292819020869055518581529192917f8c5be1e5ebec7d5bd14f71427d1e84f3dd0314c0f7b2291e5b200ac8c7c3b92591015b60405180910390a35060015b92915050565b6001600160a01b0383165f90815260056020526040812054821115610354575f80fd5b6001600160a01b0384165f9081526006602090815260408083203384529091529020548211156103c65760405162461bcd60e51b815260206004820152601b60248201527f416c6c6f77616e6365206973206e6f742062696720656e6f756768000000000060448201526064016102c3565b6001600160a01b0384165f90815260056020526040812080548492906103ed90849061082b565b90915550506001600160a01b0383165f908152600560205260408120805484929061041990849061083e565b90915550506001600160a01b0384165f9081526006602090815260408083203384529091528120805484929061045090849061082b565b92505081905550826001600160a01b0316846001600160a01b03167fddf252ad1be2c89b69c2b068fc378daa952ba7f163c4a11628f55a4df523b3ef8460405161049c91815260200190565b60405180910390a35060019392505050565b6004546001600160a01b031633146104fe5760405162461bcd60e51b815260206004820152601360248201527213db9b1e481bdddb995c8818d85b881b5a5b9d606a1b60448201526064016102c3565b5f811161055b5760405162461bcd60e51b815260206004820152602560248201527f4d696e7420616d6f756e74206d7573742062652067726561746572207468616e604482015264207a65726f60d81b60648201526084016102c3565b6001600160a01b0382165f908152600560205260408120805483929061058290849061083e565b90915550506040518181526001600160a01b038316905f907fddf252ad1be2c89b69c2b068fc378daa952ba7f163c4a11628f55a4df523b3ef9060200160405180910390a35050565b600280546101f1906107df565b600180546101f1906107df565b335f9081526005602052604081205482111561063a5760405162461bcd60e51b8152602060048201526014602482015273496e73756666696369656e742062616c616e636560601b60448201526064016102c3565b335f908152600560205260408120805484929061065890849061082b565b90915550506001600160a01b0383165f908152600560205260408120805484929061068490849061083e565b90915550506040518281526001600160a01b0384169033907fddf252ad1be2c89b69c2b068fc378daa952ba7f163c4a11628f55a4df523b3ef9060200161031f565b5f602080835283518060208501525f5b818110156106f2578581018301518582016040015282016106d6565b505f604082860101526040601f19601f8301168501019250505092915050565b80356001600160a01b0381168114610728575f80fd5b919050565b5f806040838503121561073e575f80fd5b61074783610712565b946020939093013593505050565b5f805f60608486031215610767575f80fd5b61077084610712565b925061077e60208501610712565b9150604084013590509250925092565b5f6020828403121561079e575f80fd5b6107a782610712565b9392505050565b5f80604083850312156107bf575f80fd5b6107c883610712565b91506107d660208401610712565b90509250929050565b600181811c908216806107f357607f821691505b60208210810361081157634e487b7160e01b5f52602260045260245ffd5b50919050565b634e487b7160e01b5f52601160045260245ffd5b8181038181111561032b5761032b610817565b8082018082111561032b5761032b61081756fea2646970667358221220cc0b01d3c843393ef9f2fc93a6e7fab09b44732b5e24216b77fe890b95ccda0564736f6c63430008170033",
  "linkReferences": {},
  "deployedLinkReferences": {}
}