{
  "_format": "hh-sol-artifact-1",
  "contractName": "Transactions",
  "sourceName": "contracts/Transactions.sol",
  "abi": [
    {
      "inputs": [
        {
          "internalType": "contract FossaToken",
          "name": "_tokenContract",
          "type": "address"
        },
        {
          "internalType": "uint256",
          "name": "_price",
          "type": "uint256"
        }
      ],
      "stateMutability": "nonpayable",
      "type": "constructor"
    },
    {
      "anonymous": false,
      "inputs": [
        {
          "indexed": true,
          "internalType": "address",
          "name": "account",
          "type": "address"
        },
        {
          "indexed": false,
          "internalType": "uint256",
          "name": "amount",
          "type": "uint256"
        }
      ],
      "name": "Buy",
      "type": "event"
    },
    {
      "anonymous": false,
      "inputs": [],
      "name": "IcoEnded",
      "type": "event"
    },
    {
      "anonymous": false,
      "inputs": [
        {
          "indexed": true,
          "internalType": "address",
          "name": "account",
          "type": "address"
        },
        {
          "indexed": true,
          "internalType": "address",
          "name": "tokenContract",
          "type": "address"
        },
        {
          "indexed": false,
          "internalType": "uint256",
          "name": "amount",
          "type": "uint256"
        }
      ],
      "name": "Sell",
      "type": "event"
    },
    {
      "stateMutability": "payable",
      "type": "fallback"
    },
    {
      "inputs": [],
      "name": "admin",
      "outputs": [
        {
          "internalType": "address payable",
          "name": "",
          "type": "address"
        }
      ],
      "stateMutability": "view",
      "type": "function"
    },
    {
      "inputs": [],
      "name": "end",
      "outputs": [],
      "stateMutability": "nonpayable",
      "type": "function"
    },
    {
      "inputs": [],
      "name": "getTransactionsCount",
      "outputs": [
        {
          "internalType": "uint256",
          "name": "",
          "type": "uint256"
        }
      ],
      "stateMutability": "view",
      "type": "function"
    },
    {
      "inputs": [],
      "name": "icoState",
      "outputs": [
        {
          "internalType": "enum Transactions.IcoState",
          "name": "",
          "type": "uint8"
        }
      ],
      "stateMutability": "view",
      "type": "function"
    },
    {
      "inputs": [],
      "name": "newValue",
      "outputs": [
        {
          "internalType": "uint256",
          "name": "",
          "type": "uint256"
        }
      ],
      "stateMutability": "view",
      "type": "function"
    },
    {
      "inputs": [],
      "name": "price",
      "outputs": [
        {
          "internalType": "uint256",
          "name": "",
          "type": "uint256"
        }
      ],
      "stateMutability": "view",
      "type": "function"
    },
    {
      "inputs": [
        {
          "internalType": "uint256",
          "name": "amountOfTokens",
          "type": "uint256"
        }
      ],
      "name": "purchase",
      "outputs": [],
      "stateMutability": "payable",
      "type": "function"
    },
    {
      "inputs": [],
      "name": "purchased",
      "outputs": [
        {
          "internalType": "uint256",
          "name": "",
          "type": "uint256"
        }
      ],
      "stateMutability": "view",
      "type": "function"
    },
    {
      "inputs": [
        {
          "internalType": "uint256",
          "name": "amountOfTokens",
          "type": "uint256"
        }
      ],
      "name": "swap",
      "outputs": [],
      "stateMutability": "payable",
      "type": "function"
    },
    {
      "inputs": [],
      "name": "tokenContract",
      "outputs": [
        {
          "internalType": "contract FossaToken",
          "name": "",
          "type": "address"
        }
      ],
      "stateMutability": "view",
      "type": "function"
    },
    {
      "inputs": [
        {
          "internalType": "address payable",
          "name": "_receiver",
          "type": "address"
        },
        {
          "internalType": "uint256",
          "name": "_amount",
          "type": "uint256"
        }
      ],
      "name": "transfer",
      "outputs": [],
      "stateMutability": "payable",
      "type": "function"
    },
    {
      "inputs": [
        {
          "internalType": "uint256",
          "name": "",
          "type": "uint256"
        }
      ],
      "name": "transfers",
      "outputs": [
        {
          "internalType": "address",
          "name": "sender",
          "type": "address"
        },
        {
          "internalType": "address",
          "name": "receiver",
          "type": "address"
        },
        {
          "internalType": "uint256",
          "name": "amount",
          "type": "uint256"
        }
      ],
      "stateMutability": "view",
      "type": "function"
    },
    {
      "inputs": [],
      "name": "transfersCounter",
      "outputs": [
        {
          "internalType": "uint256",
          "name": "",
          "type": "uint256"
        }
      ],
      "stateMutability": "view",
      "type": "function"
    },
    {
      "stateMutability": "payable",
      "type": "receive"
    }
  ],
  "bytecode": "0x608060405266038d7ea4c680006003556006805460ff19169055348015610024575f80fd5b50604051610d99380380610d9983398101604081905261004391610079565b5f8054336001600160a01b031991821617909155600180549091166001600160a01b0393909316929092179091556003556100b0565b5f806040838503121561008a575f80fd5b82516001600160a01b03811681146100a0575f80fd5b6020939093015192949293505050565b610cdc806100bd5f395ff3fe6080604052600436106100bc575f3560e01c80639377d71111610078578063a9059cbb11610055578063a9059cbb146101f5578063efbe1c1c14610208578063efef39a11461021c578063f851a4401461022f57005b80639377d7111461018857806394b918de146101cd578063a035b1fe146101e057005b80631d58593a146100c557806344f38756146100ed57806355a373d614610113578063578cb8f91461014a5780637c65452c1461015e578063879f9c961461017357005b366100c357005b005b3480156100d0575f80fd5b506100da60025481565b6040519081526020015b60405180910390f35b3480156100f8575f80fd5b506006546101069060ff1681565b6040516100e49190610ba0565b34801561011e575f80fd5b50600154610132906001600160a01b031681565b6040516001600160a01b0390911681526020016100e4565b348015610155575f80fd5b506002546100da565b348015610169575f80fd5b506100da60055481565b34801561017e575f80fd5b506100da60045481565b348015610193575f80fd5b506101a76101a2366004610bc6565b61024d565b604080516001600160a01b039485168152939092166020840152908201526060016100e4565b6100c36101db366004610bc6565b61028b565b3480156101eb575f80fd5b506100da60035481565b6100c3610203366004610bdd565b61032c565b348015610213575f80fd5b506100c36104cc565b6100c361022a366004610bc6565b610504565b34801561023a575f80fd5b505f54610132906001600160a01b031681565b6007818154811061025c575f80fd5b5f9182526020909120600390910201805460018201546002909201546001600160a01b03918216935091169083565b5f60065460ff1660018111156102a3576102a3610b8c565b146102ec5760405162461bcd60e51b81526020600482015260146024820152735370727a6564617a206e696520616b7479776e6160601b60448201526064015b60405180910390fd5b5f6040518060600160405280336001600160a01b031681526020018381526020016003548461031b9190610c26565b905290506103288161059c565b5050565b600160025f82825461033e9190610c43565b909155505060408051606081018252338082526001600160a01b038581166020840181815284860187815260078054600180820183555f92909252965160039097027fa66cc928b5edb82af9bd49922954155ab7b0942694bea4ce44661d9a8736c688810180549887166001600160a01b0319998a1617905592517fa66cc928b5edb82af9bd49922954155ab7b0942694bea4ce44661d9a8736c689840180549187169190981617909655517fa66cc928b5edb82af9bd49922954155ab7b0942694bea4ce44661d9a8736c68a90910155925493516323b872dd60e01b815260048101929092526024820192909252604481018490529116906323b872dd906064016020604051808303815f875af115801561045c573d5f803e3d5ffd5b505050506040513d601f19601f820116820180604052508101906104809190610c56565b6103285760405162461bcd60e51b815260206004820152601860248201527f5472616e7366657220746f6b656e75206e69657564616e79000000000000000060448201526064016102e3565b5f60065460ff1660018111156104e4576104e4610b8c565b036104f8576006805460ff19166001179055565b6006805460ff19169055565b5f60065460ff16600181111561051c5761051c610b8c565b146105605760405162461bcd60e51b81526020600482015260146024820152735370727a6564617a206e696520616b7479776e6160601b60448201526064016102e3565b5f6040518060600160405280336001600160a01b031681526020018381526020016003548461058f9190610c26565b90529050610328816108fb565b5f8160200151116105fd5760405162461bcd60e51b815260206004820152602560248201527f4c69637a626120746f6b656e6f77206d75736920627963207769656b737a612060448201526406e697a20360dc1b60648201526084016102e3565b602081015160015482516040516370a0823160e01b81526001600160a01b0391821660048201529116906370a0823190602401602060405180830381865afa15801561064b573d5f803e3d5ffd5b505050506040513d601f19601f8201168201806040525081019061066f9190610c7c565b10156106bd5760405162461bcd60e51b815260206004820152601e60248201527f4e69777973746172637a616a6163792062616c616e7320746f6b656e6f77000060448201526064016102e3565b80604001514710156107215760405162461bcd60e51b815260206004820152602760248201527f4e6965777973746172637a616a61636120696c6f736320457468657275206e61604482015266206b6f6e63696560c81b60648201526084016102e3565b600154815160208301516040516323b872dd60e01b81526001600160a01b03928316600482015230602482015260448101919091529116906323b872dd906064016020604051808303815f875af115801561077e573d5f803e3d5ffd5b505050506040513d601f19601f820116820180604052508101906107a29190610c56565b6107ee5760405162461bcd60e51b815260206004820152601960248201527f5472616e7366657220746f6b656e6f77206e69657564616e790000000000000060448201526064016102e3565b805160408083015190515f926001600160a01b031691908381818185875af1925050503d805f811461083b576040519150601f19603f3d011682016040523d82523d5f602084013e610840565b606091505b50509050806108915760405162461bcd60e51b815260206004820152601860248201527f5472616e7366657220457468657275206e69657564616e79000000000000000060448201526064016102e3565b816020015160045f8282546108a69190610c93565b909155505060015482516020808501516040519081526001600160a01b0393841693909216917fae98fdb7f4bc601d31354dd8c8ba584bf892418c4df67aba01011867bd88ea27910160405180910390a35050565b5f81602001511161095e5760405162461bcd60e51b815260206004820152602760248201527f4c69637a626120746f6b656e6f77206d75736920627963207769656b737a61206044820152666f64207a65726160c81b60648201526084016102e3565b60208101516001546040516370a0823160e01b81523060048201526001600160a01b03909116906370a0823190602401602060405180830381865afa1580156109a9573d5f803e3d5ffd5b505050506040513d601f19601f820116820180604052508101906109cd9190610c7c565b1015610a1b5760405162461bcd60e51b815260206004820152601f60248201527f4e696520777973746172637a616a61636120696c6f736320746f6b656e6f770060448201526064016102e3565b80604001513414610a6e5760405162461bcd60e51b815260206004820152601a60248201527f5779736c616e6f206e6965706f7261776e6120776172746f736300000000000060448201526064016102e3565b6001548151602083015160405163a9059cbb60e01b81526001600160a01b039283166004820152602481019190915291169063a9059cbb906044016020604051808303815f875af1158015610ac5573d5f803e3d5ffd5b505050506040513d601f19601f82011682018060405250810190610ae99190610c56565b610b2a5760405162461bcd60e51b81526020600482015260126024820152715472616e73666572206e6965207564616e7960701b60448201526064016102e3565b806020015160045f828254610b3f9190610c43565b909155505080516020808301516040519081526001600160a01b03909216917fe3d4187f6ca4248660cc0ac8b8056515bac4a8132be2eca31d6d0cc170722a7e910160405180910390a250565b634e487b7160e01b5f52602160045260245ffd5b6020810160028310610bc057634e487b7160e01b5f52602160045260245ffd5b91905290565b5f60208284031215610bd6575f80fd5b5035919050565b5f8060408385031215610bee575f80fd5b82356001600160a01b0381168114610c04575f80fd5b946020939093013593505050565b634e487b7160e01b5f52601160045260245ffd5b8082028115828204841417610c3d57610c3d610c12565b92915050565b80820180821115610c3d57610c3d610c12565b5f60208284031215610c66575f80fd5b81518015158114610c75575f80fd5b9392505050565b5f60208284031215610c8c575f80fd5b5051919050565b81810381811115610c3d57610c3d610c1256fea264697066735822122085e803bb81a18991ce65a7413f592ff08d1a302b9d840159784dd829a081d98264736f6c63430008170033",
  "linkReferences": {},
  "deployedLinkReferences": {}
}