{
  "_format": "hh-sol-artifact-1",
  "contractName": "Transfers",
  "sourceName": "contracts/Transfers.sol",
  "abi": [
    {
      "inputs": [
        {
          "internalType": "contract FossaToken",
          "name": "_tokenContract",
          "type": "address"
        }
      ],
      "stateMutability": "nonpayable",
      "type": "constructor"
    },
    {
      "stateMutability": "payable",
      "type": "fallback"
    },
    {
      "inputs": [],
      "name": "getAllTransactions",
      "outputs": [
        {
          "components": [
            {
              "internalType": "address",
              "name": "sender",
              "type": "address"
            },
            {
              "internalType": "address",
              "name": "receiver",
              "type": "address"
            },
            {
              "internalType": "uint256",
              "name": "amount",
              "type": "uint256"
            }
          ],
          "internalType": "struct Transfers.TransferStruct[]",
          "name": "",
          "type": "tuple[]"
        }
      ],
      "stateMutability": "view",
      "type": "function"
    },
    {
      "inputs": [],
      "name": "getTransactionsCount",
      "outputs": [
        {
          "internalType": "uint256",
          "name": "",
          "type": "uint256"
        }
      ],
      "stateMutability": "view",
      "type": "function"
    },
    {
      "inputs": [],
      "name": "tokenContract",
      "outputs": [
        {
          "internalType": "contract FossaToken",
          "name": "",
          "type": "address"
        }
      ],
      "stateMutability": "view",
      "type": "function"
    },
    {
      "inputs": [
        {
          "internalType": "address payable",
          "name": "_receiver",
          "type": "address"
        },
        {
          "internalType": "uint256",
          "name": "_amount",
          "type": "uint256"
        }
      ],
      "name": "transfer",
      "outputs": [],
      "stateMutability": "payable",
      "type": "function"
    },
    {
      "inputs": [
        {
          "internalType": "uint256",
          "name": "",
          "type": "uint256"
        }
      ],
      "name": "transfers",
      "outputs": [
        {
          "internalType": "address",
          "name": "sender",
          "type": "address"
        },
        {
          "internalType": "address",
          "name": "receiver",
          "type": "address"
        },
        {
          "internalType": "uint256",
          "name": "amount",
          "type": "uint256"
        }
      ],
      "stateMutability": "view",
      "type": "function"
    },
    {
      "inputs": [],
      "name": "transfersCounter",
      "outputs": [
        {
          "internalType": "uint256",
          "name": "",
          "type": "uint256"
        }
      ],
      "stateMutability": "view",
      "type": "function"
    },
    {
      "stateMutability": "payable",
      "type": "receive"
    }
  ],
  "bytecode": "0x608060405234801561000f575f80fd5b5060405161056838038061056883398101604081905261002e91610053565b600180546001600160a01b0319166001600160a01b0392909216919091179055610080565b5f60208284031215610063575f80fd5b81516001600160a01b0381168114610079575f80fd5b9392505050565b6104db8061008d5f395ff3fe608060405260043610610055575f3560e01c80631d58593a1461005e57806327506f531461008557806355a373d6146100a6578063578cb8f9146100dd5780639377d711146100f0578063a9059cbb1461013557005b3661005c57005b005b348015610069575f80fd5b506100725f5481565b6040519081526020015b60405180910390f35b348015610090575f80fd5b50610099610148565b60405161007c91906103aa565b3480156100b1575f80fd5b506001546100c5906001600160a01b031681565b6040516001600160a01b03909116815260200161007c565b3480156100e8575f80fd5b505f54610072565b3480156100fb575f80fd5b5061010f61010a36600461040e565b6101cd565b604080516001600160a01b0394851681529390921660208401529082015260600161007c565b61005c610143366004610425565b61020b565b60606002805480602002602001604051908101604052809291908181526020015f905b828210156101c4575f848152602090819020604080516060810182526003860290920180546001600160a01b0390811684526001808301549091168486015260029091015491830191909152908352909201910161016b565b50505050905090565b600281815481106101dc575f80fd5b5f9182526020909120600390910201805460018201546002909201546001600160a01b03918216935091169083565b60015f8082825461021c919061045a565b909155505060408051606081018252338082526001600160a01b038581166020840181815284860187815260028054600180820183555f92909252965160039097027f405787fa12a823e0f2b7631cc41b3ba8828b3321ca811111fa75cd3aa3bb5ace810180549887166001600160a01b0319998a1617905592517f405787fa12a823e0f2b7631cc41b3ba8828b3321ca811111fa75cd3aa3bb5acf840180549187169190981617909655517f405787fa12a823e0f2b7631cc41b3ba8828b3321ca811111fa75cd3aa3bb5ad090910155925493516323b872dd60e01b815260048101929092526024820192909252604481018490529116906323b872dd906064016020604051808303815f875af115801561033a573d5f803e3d5ffd5b505050506040513d601f19601f8201168201806040525081019061035e919061047f565b6103a65760405162461bcd60e51b8152602060048201526015602482015274151bdad95b881d1c985b9cd9995c8819985a5b1959605a1b604482015260640160405180910390fd5b5050565b602080825282518282018190525f919060409081850190868401855b8281101561040157815180516001600160a01b03908116865287820151168786015285015185850152606090930192908501906001016103c6565b5091979650505050505050565b5f6020828403121561041e575f80fd5b5035919050565b5f8060408385031215610436575f80fd5b82356001600160a01b038116811461044c575f80fd5b946020939093013593505050565b8082018082111561047957634e487b7160e01b5f52601160045260245ffd5b92915050565b5f6020828403121561048f575f80fd5b8151801515811461049e575f80fd5b939250505056fea2646970667358221220db41cf408fda1bc1346cdacef3aaed7ca39f9c8c3f583da6a4bf7b6e8b15471a64736f6c63430008170033",
  "linkReferences": {},
  "deployedLinkReferences": {}
}