{
  "_format": "hh-sol-artifact-1",
  "contractName": "Transactions",
  "sourceName": "contracts/Transactions.sol",
  "abi": [
    {
      "inputs": [
        {
          "internalType": "contract FossaToken",
          "name": "_tokenContract",
          "type": "address"
        },
        {
          "internalType": "uint256",
          "name": "_price",
          "type": "uint256"
        }
      ],
      "stateMutability": "nonpayable",
      "type": "constructor"
    },
    {
      "anonymous": false,
      "inputs": [
        {
          "indexed": true,
          "internalType": "address",
          "name": "buyer",
          "type": "address"
        },
        {
          "indexed": false,
          "internalType": "uint256",
          "name": "amount",
          "type": "uint256"
        }
      ],
      "name": "Buy",
      "type": "event"
    },
    {
      "anonymous": false,
      "inputs": [],
      "name": "SaleEnded",
      "type": "event"
    },
    {
      "anonymous": false,
      "inputs": [
        {
          "indexed": true,
          "internalType": "address",
          "name": "account",
          "type": "address"
        },
        {
          "indexed": true,
          "internalType": "address",
          "name": "tokenContract",
          "type": "address"
        },
        {
          "indexed": false,
          "internalType": "uint256",
          "name": "amount",
          "type": "uint256"
        }
      ],
      "name": "Sell",
      "type": "event"
    },
    {
      "inputs": [],
      "name": "admin",
      "outputs": [
        {
          "internalType": "address payable",
          "name": "",
          "type": "address"
        }
      ],
      "stateMutability": "view",
      "type": "function"
    },
    {
      "inputs": [],
      "name": "end",
      "outputs": [],
      "stateMutability": "nonpayable",
      "type": "function"
    },
    {
      "inputs": [],
      "name": "newValue",
      "outputs": [
        {
          "internalType": "uint256",
          "name": "",
          "type": "uint256"
        }
      ],
      "stateMutability": "view",
      "type": "function"
    },
    {
      "inputs": [],
      "name": "price",
      "outputs": [
        {
          "internalType": "uint256",
          "name": "",
          "type": "uint256"
        }
      ],
      "stateMutability": "view",
      "type": "function"
    },
    {
      "inputs": [
        {
          "internalType": "uint256",
          "name": "amountOfTokens",
          "type": "uint256"
        }
      ],
      "name": "purchase",
      "outputs": [],
      "stateMutability": "payable",
      "type": "function"
    },
    {
      "inputs": [],
      "name": "purchased",
      "outputs": [
        {
          "internalType": "uint256",
          "name": "",
          "type": "uint256"
        }
      ],
      "stateMutability": "view",
      "type": "function"
    },
    {
      "inputs": [],
      "name": "saleState",
      "outputs": [
        {
          "internalType": "enum Transactions.SaleState",
          "name": "",
          "type": "uint8"
        }
      ],
      "stateMutability": "view",
      "type": "function"
    },
    {
      "inputs": [
        {
          "internalType": "uint256",
          "name": "amountOfTokens",
          "type": "uint256"
        }
      ],
      "name": "swap",
      "outputs": [],
      "stateMutability": "payable",
      "type": "function"
    },
    {
      "inputs": [],
      "name": "toggleSaleStatus",
      "outputs": [],
      "stateMutability": "nonpayable",
      "type": "function"
    },
    {
      "inputs": [],
      "name": "tokenContract",
      "outputs": [
        {
          "internalType": "contract FossaToken",
          "name": "",
          "type": "address"
        }
      ],
      "stateMutability": "view",
      "type": "function"
    },
    {
      "inputs": [
        {
          "internalType": "uint256",
          "name": "amountOfTokens",
          "type": "uint256"
        }
      ],
      "name": "withdrawEther",
      "outputs": [],
      "stateMutability": "nonpayable",
      "type": "function"
    },
    {
      "stateMutability": "payable",
      "type": "receive"
    }
  ],
  "bytecode": "0x608060405266038d7ea4c680006002556005805460ff19169055348015610024575f80fd5b50604051610df4380380610df483398101604081905261004391610079565b5f8054336001600160a01b031991821617909155600180549091166001600160a01b0393909316929092179091556002556100b0565b5f806040838503121561008a575f80fd5b82516001600160a01b03811681146100a0575f80fd5b6020939093015192949293505050565b610d37806100bd5f395ff3fe60806040526004361061009d575f3560e01c8063879f9c9611610062578063879f9c961461016257806394b918de14610177578063a035b1fe1461018a578063efbe1c1c1461019f578063efef39a1146101b3578063f851a440146101c6575f80fd5b8063049c5c49146100a85780633bed33ce146100be57806355a373d6146100dd578063603f4d52146101195780637c65452c1461013f575f80fd5b366100a457005b5f80fd5b3480156100b3575f80fd5b506100bc6101e4565b005b3480156100c9575f80fd5b506100bc6100d8366004610bd7565b6102a4565b3480156100e8575f80fd5b506001546100fc906001600160a01b031681565b6040516001600160a01b0390911681526020015b60405180910390f35b348015610124575f80fd5b506005546101329060ff1681565b6040516101109190610c02565b34801561014a575f80fd5b5061015460045481565b604051908152602001610110565b34801561016d575f80fd5b5061015460035481565b6100bc610185366004610bd7565b610357565b348015610195575f80fd5b5061015460025481565b3480156101aa575f80fd5b506100bc6106d2565b6100bc6101c1366004610bd7565b6108fd565b3480156101d1575f80fd5b505f546100fc906001600160a01b031681565b5f546001600160a01b031633146102165760405162461bcd60e51b815260040161020d90610c28565b60405180910390fd5b5f60055460ff16600181111561022e5761022e610bee565b14610239575f61023c565b60015b6005805460ff19166001838181111561025757610257610bee565b02179055505f60055460ff16600181111561027457610274610bee565b036102a2576040517f0bd8a3eb532e5fbcd3f5b00335f0fb42fdc11969e9af0fab7c9e71a36ae0d31a905f90a15b565b5f546001600160a01b031633146102cd5760405162461bcd60e51b815260040161020d90610c28565b8047101561031d5760405162461bcd60e51b815260206004820152601a60248201527f496e73756666696369656e742045746865722062616c616e6365000000000000604482015260640161020d565b5f80546040516001600160a01b039091169183156108fc02918491818181858888f19350505050158015610353573d5f803e3d5ffd5b5050565b5f60055460ff16600181111561036f5761036f610bee565b146103b55760405162461bcd60e51b81526020600482015260166024820152755468652073616c65206973206e6f742061637469766560501b604482015260640161020d565b5f81116103fb5760405162461bcd60e51b8152602060048201526014602482015273125b9d985b1a59081d1bdad95b88185b5bdd5b9d60621b604482015260640161020d565b5f6002548261040a9190610c81565b6001546040516370a0823160e01b815233600482015291925083916001600160a01b03909116906370a0823190602401602060405180830381865afa158015610455573d5f803e3d5ffd5b505050506040513d601f19601f820116820180604052508101906104799190610c9e565b10156104c75760405162461bcd60e51b815260206004820152601a60248201527f496e73756666696369656e7420746f6b656e2062616c616e6365000000000000604482015260640161020d565b8047101561052a5760405162461bcd60e51b815260206004820152602a60248201527f496e73756666696369656e742045746865722062616c616e636520696e207468604482015269194818dbdb9d1c9858dd60b21b606482015260840161020d565b6001546040516323b872dd60e01b8152336004820152306024820152604481018490526001600160a01b03909116906323b872dd906064016020604051808303815f875af115801561057e573d5f803e3d5ffd5b505050506040513d601f19601f820116820180604052508101906105a29190610cb5565b6105e65760405162461bcd60e51b8152602060048201526015602482015274151bdad95b881d1c985b9cd9995c8819985a5b1959605a1b604482015260640161020d565b6040515f90339083908381818185875af1925050503d805f8114610625576040519150601f19603f3d011682016040523d82523d5f602084013e61062a565b606091505b50509050806106735760405162461bcd60e51b8152602060048201526015602482015274115d1a195c881d1c985b9cd9995c8819985a5b1959605a1b604482015260640161020d565b8260035f8282546106849190610cdb565b90915550506001546040518481526001600160a01b039091169033907fae98fdb7f4bc601d31354dd8c8ba584bf892418c4df67aba01011867bd88ea279060200160405180910390a3505050565b5f546001600160a01b031633146106fb5760405162461bcd60e51b815260040161020d90610c28565b5f60055460ff16600181111561071357610713610bee565b146107605760405162461bcd60e51b815260206004820152601960248201527f5468652073616c6520697320616c726561647920656e64656400000000000000604482015260640161020d565b6001545f546040516370a0823160e01b81523060048201526001600160a01b039283169263a9059cbb92169083906370a0823190602401602060405180830381865afa1580156107b2573d5f803e3d5ffd5b505050506040513d601f19601f820116820180604052508101906107d69190610c9e565b6040516001600160e01b031960e085901b1681526001600160a01b03909216600483015260248201526044016020604051808303815f875af115801561081e573d5f803e3d5ffd5b505050506040513d601f19601f820116820180604052508101906108429190610cb5565b61088e5760405162461bcd60e51b815260206004820152601e60248201527f546f6b656e207472616e7366657220746f2061646d696e206661696c65640000604482015260640161020d565b5f80546040516001600160a01b03909116914780156108fc02929091818181858888f193505050501580156108c5573d5f803e3d5ffd5b506005805460ff191660011790556040517f0bd8a3eb532e5fbcd3f5b00335f0fb42fdc11969e9af0fab7c9e71a36ae0d31a905f90a1565b5f60055460ff16600181111561091557610915610bee565b1461095b5760405162461bcd60e51b81526020600482015260166024820152755468652073616c65206973206e6f742061637469766560501b604482015260640161020d565b5f81116109bd5760405162461bcd60e51b815260206004820152602a60248201527f4e756d626572206f6620746f6b656e73206d7573742062652067726561746572604482015269207468616e207a65726f60b01b606482015260840161020d565b6002546109ca9082610c81565b60049081556001546040516370a0823160e01b8152309281019290925282916001600160a01b03909116906370a0823190602401602060405180830381865afa158015610a19573d5f803e3d5ffd5b505050506040513d601f19601f82011682018060405250810190610a3d9190610c9e565b1015610a8b5760405162461bcd60e51b815260206004820152601b60248201527f4e6f7420656e6f75676820746f6b656e7320617661696c61626c650000000000604482015260640161020d565b6004543414610ad35760405162461bcd60e51b8152602060048201526014602482015273125b98dbdc9c9958dd081d985b1d59481cd95b9d60621b604482015260640161020d565b60015460405163a9059cbb60e01b8152336004820152602481018390526001600160a01b039091169063a9059cbb906044016020604051808303815f875af1158015610b21573d5f803e3d5ffd5b505050506040513d601f19601f82011682018060405250810190610b459190610cb5565b610b895760405162461bcd60e51b8152602060048201526015602482015274151bdad95b881d1c985b9cd9995c8819985a5b1959605a1b604482015260640161020d565b8060035f828254610b9a9190610cee565b909155505060405181815233907fe3d4187f6ca4248660cc0ac8b8056515bac4a8132be2eca31d6d0cc170722a7e9060200160405180910390a250565b5f60208284031215610be7575f80fd5b5035919050565b634e487b7160e01b5f52602160045260245ffd5b6020810160028310610c2257634e487b7160e01b5f52602160045260245ffd5b91905290565b60208082526025908201527f4f6e6c79207468652061646d696e2063616e2063616c6c20746869732066756e60408201526431ba34b7b760d91b606082015260800190565b634e487b7160e01b5f52601160045260245ffd5b8082028115828204841417610c9857610c98610c6d565b92915050565b5f60208284031215610cae575f80fd5b5051919050565b5f60208284031215610cc5575f80fd5b81518015158114610cd4575f80fd5b9392505050565b81810381811115610c9857610c98610c6d565b80820180821115610c9857610c98610c6d56fea264697066735822122065068663d8d6aab0d2d4160e0cadee0de62b2410c61b1b71a5751c658ab4a12264736f6c63430008170033",
  "linkReferences": {},
  "deployedLinkReferences": {}
}