{
  "_format": "hh-sol-artifact-1",
  "contractName": "Transactions",
  "sourceName": "contracts/Transactions.sol",
  "abi": [
    {
      "inputs": [
        {
          "internalType": "contract ForsaToken",
          "name": "_tokenContract",
          "type": "address"
        },
        {
          "internalType": "uint256",
          "name": "_price",
          "type": "uint256"
        }
      ],
      "stateMutability": "nonpayable",
      "type": "constructor"
    },
    {
      "anonymous": false,
      "inputs": [
        {
          "indexed": true,
          "internalType": "address",
          "name": "account",
          "type": "address"
        },
        {
          "indexed": false,
          "internalType": "uint256",
          "name": "amount",
          "type": "uint256"
        }
      ],
      "name": "Buy",
      "type": "event"
    },
    {
      "anonymous": false,
      "inputs": [
        {
          "indexed": true,
          "internalType": "address",
          "name": "admin",
          "type": "address"
        }
      ],
      "name": "IcoEnded",
      "type": "event"
    },
    {
      "anonymous": false,
      "inputs": [
        {
          "indexed": true,
          "internalType": "address",
          "name": "account",
          "type": "address"
        },
        {
          "indexed": true,
          "internalType": "address",
          "name": "tokenContract",
          "type": "address"
        },
        {
          "indexed": false,
          "internalType": "uint256",
          "name": "amount",
          "type": "uint256"
        }
      ],
      "name": "Sell",
      "type": "event"
    },
    {
      "inputs": [],
      "name": "admin",
      "outputs": [
        {
          "internalType": "address payable",
          "name": "",
          "type": "address"
        }
      ],
      "stateMutability": "view",
      "type": "function"
    },
    {
      "inputs": [],
      "name": "icoState",
      "outputs": [
        {
          "internalType": "enum Transactions.IcoState",
          "name": "",
          "type": "uint8"
        }
      ],
      "stateMutability": "view",
      "type": "function"
    },
    {
      "inputs": [],
      "name": "newValue",
      "outputs": [
        {
          "internalType": "uint256",
          "name": "",
          "type": "uint256"
        }
      ],
      "stateMutability": "view",
      "type": "function"
    },
    {
      "inputs": [],
      "name": "price",
      "outputs": [
        {
          "internalType": "uint256",
          "name": "",
          "type": "uint256"
        }
      ],
      "stateMutability": "view",
      "type": "function"
    },
    {
      "inputs": [
        {
          "internalType": "uint256",
          "name": "amountOfTokens",
          "type": "uint256"
        }
      ],
      "name": "purchase",
      "outputs": [],
      "stateMutability": "payable",
      "type": "function"
    },
    {
      "inputs": [],
      "name": "purchased",
      "outputs": [
        {
          "internalType": "uint256",
          "name": "",
          "type": "uint256"
        }
      ],
      "stateMutability": "view",
      "type": "function"
    },
    {
      "inputs": [
        {
          "internalType": "uint256",
          "name": "amountOfTokens",
          "type": "uint256"
        }
      ],
      "name": "swap",
      "outputs": [],
      "stateMutability": "payable",
      "type": "function"
    },
    {
      "inputs": [],
      "name": "tokenContract",
      "outputs": [
        {
          "internalType": "contract ForsaToken",
          "name": "",
          "type": "address"
        }
      ],
      "stateMutability": "view",
      "type": "function"
    },
    {
      "inputs": [
        {
          "internalType": "address payable",
          "name": "_receiver",
          "type": "address"
        },
        {
          "internalType": "uint256",
          "name": "_amount",
          "type": "uint256"
        }
      ],
      "name": "transfer",
      "outputs": [],
      "stateMutability": "payable",
      "type": "function"
    },
    {
      "inputs": [
        {
          "internalType": "uint256",
          "name": "",
          "type": "uint256"
        }
      ],
      "name": "transfers",
      "outputs": [
        {
          "internalType": "address",
          "name": "sender",
          "type": "address"
        },
        {
          "internalType": "address",
          "name": "receiver",
          "type": "address"
        },
        {
          "internalType": "uint256",
          "name": "amount",
          "type": "uint256"
        }
      ],
      "stateMutability": "view",
      "type": "function"
    },
    {
      "stateMutability": "payable",
      "type": "receive"
    }
  ],
  "bytecode": "0x608060405266038d7ea4c680006002556005805460ff19169055348015610024575f80fd5b50604051610c46380380610c4683398101604081905261004391610079565b5f8054336001600160a01b031991821617909155600180549091166001600160a01b0393909316929092179091556002556100b0565b5f806040838503121561008a575f80fd5b82516001600160a01b03811681146100a0575f80fd5b6020939093015192949293505050565b610b89806100bd5f395ff3fe608060405260043610610092575f3560e01c806394b918de1161005757806394b918de14610180578063a035b1fe14610195578063a9059cbb146101aa578063efef39a1146101bd578063f851a440146101d0575f80fd5b806344f387561461009d57806355a373d6146100cc5780637c65452c14610103578063879f9c96146101265780639377d7111461013b575f80fd5b3661009957005b5f80fd5b3480156100a8575f80fd5b506005546100b69060ff1681565b6040516100c39190610a4d565b60405180910390f35b3480156100d7575f80fd5b506001546100eb906001600160a01b031681565b6040516001600160a01b0390911681526020016100c3565b34801561010e575f80fd5b5061011860045481565b6040519081526020016100c3565b348015610131575f80fd5b5061011860035481565b348015610146575f80fd5b5061015a610155366004610a73565b6101ee565b604080516001600160a01b039485168152939092166020840152908201526060016100c3565b61019361018e366004610a73565b61022c565b005b3480156101a0575f80fd5b5061011860025481565b6101936101b8366004610a8a565b6102cd565b6101936101cb366004610a73565b6103b1565b3480156101db575f80fd5b505f546100eb906001600160a01b031681565b600681815481106101fd575f80fd5b5f9182526020909120600390910201805460018201546002909201546001600160a01b03918216935091169083565b5f60055460ff16600181111561024457610244610a39565b1461028d5760405162461bcd60e51b81526020600482015260146024820152735370727a6564617a206e696520616b7479776e6160601b60448201526064015b60405180910390fd5b5f6040518060600160405280336001600160a01b03168152602001838152602001600254846102bc9190610ad3565b905290506102c981610449565b5050565b60408051606081018252338082526001600160a01b038581166020840181905292840185905260015493516323b872dd60e01b815260048101929092526024820192909252604481018490529116906323b872dd906064016020604051808303815f875af1158015610341573d5f803e3d5ffd5b505050506040513d601f19601f820116820180604052508101906103659190610af0565b6102c95760405162461bcd60e51b815260206004820152601860248201527f5472616e7366657220746f6b656e75206e69657564616e7900000000000000006044820152606401610284565b5f60055460ff1660018111156103c9576103c9610a39565b1461040d5760405162461bcd60e51b81526020600482015260146024820152735370727a6564617a206e696520616b7479776e6160601b6044820152606401610284565b5f6040518060600160405280336001600160a01b031681526020018381526020016002548461043c9190610ad3565b905290506102c9816107a8565b5f8160200151116104aa5760405162461bcd60e51b815260206004820152602560248201527f4c69637a626120746f6b656e6f77206d75736920627963207769656b737a612060448201526406e697a20360dc1b6064820152608401610284565b602081015160015482516040516370a0823160e01b81526001600160a01b0391821660048201529116906370a0823190602401602060405180830381865afa1580156104f8573d5f803e3d5ffd5b505050506040513d601f19601f8201168201806040525081019061051c9190610b16565b101561056a5760405162461bcd60e51b815260206004820152601e60248201527f4e69777973746172637a616a6163792062616c616e7320746f6b656e6f7700006044820152606401610284565b80604001514710156105ce5760405162461bcd60e51b815260206004820152602760248201527f4e6965777973746172637a616a61636120696c6f736320457468657275206e61604482015266206b6f6e63696560c81b6064820152608401610284565b600154815160208301516040516323b872dd60e01b81526001600160a01b03928316600482015230602482015260448101919091529116906323b872dd906064016020604051808303815f875af115801561062b573d5f803e3d5ffd5b505050506040513d601f19601f8201168201806040525081019061064f9190610af0565b61069b5760405162461bcd60e51b815260206004820152601960248201527f5472616e7366657220746f6b656e6f77206e69657564616e79000000000000006044820152606401610284565b805160408083015190515f926001600160a01b031691908381818185875af1925050503d805f81146106e8576040519150601f19603f3d011682016040523d82523d5f602084013e6106ed565b606091505b505090508061073e5760405162461bcd60e51b815260206004820152601860248201527f5472616e7366657220457468657275206e69657564616e7900000000000000006044820152606401610284565b816020015160035f8282546107539190610b2d565b909155505060015482516020808501516040519081526001600160a01b0393841693909216917fae98fdb7f4bc601d31354dd8c8ba584bf892418c4df67aba01011867bd88ea27910160405180910390a35050565b5f81602001511161080b5760405162461bcd60e51b815260206004820152602760248201527f4c69637a626120746f6b656e6f77206d75736920627963207769656b737a61206044820152666f64207a65726160c81b6064820152608401610284565b60208101516001546040516370a0823160e01b81523060048201526001600160a01b03909116906370a0823190602401602060405180830381865afa158015610856573d5f803e3d5ffd5b505050506040513d601f19601f8201168201806040525081019061087a9190610b16565b10156108c85760405162461bcd60e51b815260206004820152601f60248201527f4e696520777973746172637a616a61636120696c6f736320746f6b656e6f77006044820152606401610284565b8060400151341461091b5760405162461bcd60e51b815260206004820152601a60248201527f5779736c616e6f206e6965706f7261776e6120776172746f73630000000000006044820152606401610284565b6001548151602083015160405163a9059cbb60e01b81526001600160a01b039283166004820152602481019190915291169063a9059cbb906044016020604051808303815f875af1158015610972573d5f803e3d5ffd5b505050506040513d601f19601f820116820180604052508101906109969190610af0565b6109d75760405162461bcd60e51b81526020600482015260126024820152715472616e73666572206e6965207564616e7960701b6044820152606401610284565b806020015160035f8282546109ec9190610b40565b909155505080516020808301516040519081526001600160a01b03909216917fe3d4187f6ca4248660cc0ac8b8056515bac4a8132be2eca31d6d0cc170722a7e910160405180910390a250565b634e487b7160e01b5f52602160045260245ffd5b6020810160028310610a6d57634e487b7160e01b5f52602160045260245ffd5b91905290565b5f60208284031215610a83575f80fd5b5035919050565b5f8060408385031215610a9b575f80fd5b82356001600160a01b0381168114610ab1575f80fd5b946020939093013593505050565b634e487b7160e01b5f52601160045260245ffd5b8082028115828204841417610aea57610aea610abf565b92915050565b5f60208284031215610b00575f80fd5b81518015158114610b0f575f80fd5b9392505050565b5f60208284031215610b26575f80fd5b5051919050565b81810381811115610aea57610aea610abf565b80820180821115610aea57610aea610abf56fea2646970667358221220a665f70aad0bd1cccbba21cf0ce528e74150eff0a060fa93438f3b128183c2f864736f6c63430008170033",
  "linkReferences": {},
  "deployedLinkReferences": {}
}