{
  "_format": "hh-sol-artifact-1",
  "contractName": "Transactions",
  "sourceName": "contracts/Transactions.sol",
  "abi": [
    {
      "inputs": [
        {
          "internalType": "contract FossaToken",
          "name": "_tokenContract",
          "type": "address"
        },
        {
          "internalType": "uint256",
          "name": "_price",
          "type": "uint256"
        }
      ],
      "stateMutability": "nonpayable",
      "type": "constructor"
    },
    {
      "anonymous": false,
      "inputs": [
        {
          "indexed": true,
          "internalType": "address",
          "name": "account",
          "type": "address"
        },
        {
          "indexed": false,
          "internalType": "uint256",
          "name": "amount",
          "type": "uint256"
        }
      ],
      "name": "Buy",
      "type": "event"
    },
    {
      "anonymous": false,
      "inputs": [],
      "name": "SaleEnded",
      "type": "event"
    },
    {
      "anonymous": false,
      "inputs": [
        {
          "indexed": true,
          "internalType": "address",
          "name": "account",
          "type": "address"
        },
        {
          "indexed": true,
          "internalType": "address",
          "name": "tokenContract",
          "type": "address"
        },
        {
          "indexed": false,
          "internalType": "uint256",
          "name": "amount",
          "type": "uint256"
        }
      ],
      "name": "Sell",
      "type": "event"
    },
    {
      "stateMutability": "payable",
      "type": "fallback"
    },
    {
      "inputs": [],
      "name": "admin",
      "outputs": [
        {
          "internalType": "address payable",
          "name": "",
          "type": "address"
        }
      ],
      "stateMutability": "view",
      "type": "function"
    },
    {
      "inputs": [],
      "name": "end",
      "outputs": [],
      "stateMutability": "nonpayable",
      "type": "function"
    },
    {
      "inputs": [],
      "name": "getAllTransactions",
      "outputs": [
        {
          "components": [
            {
              "internalType": "address",
              "name": "sender",
              "type": "address"
            },
            {
              "internalType": "address",
              "name": "receiver",
              "type": "address"
            },
            {
              "internalType": "uint256",
              "name": "amount",
              "type": "uint256"
            }
          ],
          "internalType": "struct Transactions.TransferStruct[]",
          "name": "",
          "type": "tuple[]"
        }
      ],
      "stateMutability": "view",
      "type": "function"
    },
    {
      "inputs": [],
      "name": "getTransactionsCount",
      "outputs": [
        {
          "internalType": "uint256",
          "name": "",
          "type": "uint256"
        }
      ],
      "stateMutability": "view",
      "type": "function"
    },
    {
      "inputs": [],
      "name": "newValue",
      "outputs": [
        {
          "internalType": "uint256",
          "name": "",
          "type": "uint256"
        }
      ],
      "stateMutability": "view",
      "type": "function"
    },
    {
      "inputs": [],
      "name": "price",
      "outputs": [
        {
          "internalType": "uint256",
          "name": "",
          "type": "uint256"
        }
      ],
      "stateMutability": "view",
      "type": "function"
    },
    {
      "inputs": [
        {
          "internalType": "uint256",
          "name": "amountOfTokens",
          "type": "uint256"
        }
      ],
      "name": "purchase",
      "outputs": [],
      "stateMutability": "payable",
      "type": "function"
    },
    {
      "inputs": [],
      "name": "purchased",
      "outputs": [
        {
          "internalType": "uint256",
          "name": "",
          "type": "uint256"
        }
      ],
      "stateMutability": "view",
      "type": "function"
    },
    {
      "inputs": [],
      "name": "saleState",
      "outputs": [
        {
          "internalType": "enum Transactions.SaleState",
          "name": "",
          "type": "uint8"
        }
      ],
      "stateMutability": "view",
      "type": "function"
    },
    {
      "inputs": [
        {
          "internalType": "uint256",
          "name": "amountOfTokens",
          "type": "uint256"
        }
      ],
      "name": "swap",
      "outputs": [],
      "stateMutability": "payable",
      "type": "function"
    },
    {
      "inputs": [],
      "name": "toggleSaleStatus",
      "outputs": [],
      "stateMutability": "nonpayable",
      "type": "function"
    },
    {
      "inputs": [],
      "name": "tokenContract",
      "outputs": [
        {
          "internalType": "contract FossaToken",
          "name": "",
          "type": "address"
        }
      ],
      "stateMutability": "view",
      "type": "function"
    },
    {
      "inputs": [
        {
          "internalType": "address payable",
          "name": "_receiver",
          "type": "address"
        },
        {
          "internalType": "uint256",
          "name": "_amount",
          "type": "uint256"
        }
      ],
      "name": "transfer",
      "outputs": [],
      "stateMutability": "payable",
      "type": "function"
    },
    {
      "inputs": [
        {
          "internalType": "uint256",
          "name": "",
          "type": "uint256"
        }
      ],
      "name": "transfers",
      "outputs": [
        {
          "internalType": "address",
          "name": "sender",
          "type": "address"
        },
        {
          "internalType": "address",
          "name": "receiver",
          "type": "address"
        },
        {
          "internalType": "uint256",
          "name": "amount",
          "type": "uint256"
        }
      ],
      "stateMutability": "view",
      "type": "function"
    },
    {
      "inputs": [],
      "name": "transfersCounter",
      "outputs": [
        {
          "internalType": "uint256",
          "name": "",
          "type": "uint256"
        }
      ],
      "stateMutability": "view",
      "type": "function"
    },
    {
      "inputs": [
        {
          "internalType": "uint256",
          "name": "amountOfTokens",
          "type": "uint256"
        }
      ],
      "name": "withdrawEther",
      "outputs": [],
      "stateMutability": "nonpayable",
      "type": "function"
    },
    {
      "stateMutability": "payable",
      "type": "receive"
    }
  ],
  "bytecode": "0x608060405266038d7ea4c680006003556006805460ff19169055348015610024575f80fd5b5060405161123238038061123283398101604081905261004391610079565b5f8054336001600160a01b031991821617909155600180549091166001600160a01b0393909316929092179091556003556100b0565b5f806040838503121561008a575f80fd5b82516001600160a01b03811681146100a0575f80fd5b6020939093015192949293505050565b611175806100bd5f395ff3fe6080604052600436106100ea575f3560e01c8063879f9c9611610083578063a9059cbb11610055578063a9059cbb14610277578063efbe1c1c1461028a578063efef39a11461029e578063f851a440146102b157005b8063879f9c96146101f55780639377d7111461020a57806394b918de1461024f578063a035b1fe1461026257005b806355a373d6116100bc57806355a373d61461016f578063578cb8f9146101a6578063603f4d52146101ba5780637c65452c146101e057005b8063049c5c49146100f35780631d58593a1461010757806327506f531461012f5780633bed33ce1461015057005b366100f157005b005b3480156100fe575f80fd5b506100f16102cf565b348015610112575f80fd5b5061011c60025481565b6040519081526020015b60405180910390f35b34801561013a575f80fd5b5061014361038f565b6040516101269190610f4d565b34801561015b575f80fd5b506100f161016a366004610fb1565b610414565b34801561017a575f80fd5b5060015461018e906001600160a01b031681565b6040516001600160a01b039091168152602001610126565b3480156101b1575f80fd5b5060025461011c565b3480156101c5575f80fd5b506006546101d39060ff1681565b6040516101269190610fdc565b3480156101eb575f80fd5b5061011c60055481565b348015610200575f80fd5b5061011c60045481565b348015610215575f80fd5b50610229610224366004610fb1565b6104c7565b604080516001600160a01b03948516815293909216602084015290820152606001610126565b6100f161025d366004610fb1565b610505565b34801561026d575f80fd5b5061011c60035481565b6100f1610285366004611002565b61059f565b348015610295575f80fd5b506100f161070f565b6100f16102ac366004610fb1565b61093a565b3480156102bc575f80fd5b505f5461018e906001600160a01b031681565b5f546001600160a01b031633146103015760405162461bcd60e51b81526004016102f890611037565b60405180910390fd5b5f60065460ff16600181111561031957610319610fc8565b14610324575f610327565b60015b6006805460ff19166001838181111561034257610342610fc8565b02179055505f60065460ff16600181111561035f5761035f610fc8565b0361038d576040517f0bd8a3eb532e5fbcd3f5b00335f0fb42fdc11969e9af0fab7c9e71a36ae0d31a905f90a15b565b60606007805480602002602001604051908101604052809291908181526020015f905b8282101561040b575f848152602090819020604080516060810182526003860290920180546001600160a01b039081168452600180830154909116848601526002909101549183019190915290835290920191016103b2565b50505050905090565b5f546001600160a01b0316331461043d5760405162461bcd60e51b81526004016102f890611037565b8047101561048d5760405162461bcd60e51b815260206004820152601a60248201527f496e73756666696369656e742045746865722062616c616e636500000000000060448201526064016102f8565b5f80546040516001600160a01b039091169183156108fc02918491818181858888f193505050501580156104c3573d5f803e3d5ffd5b5050565b600781815481106104d6575f80fd5b5f9182526020909120600390910201805460018201546002909201546001600160a01b03918216935091169083565b5f60065460ff16600181111561051d5761051d610fc8565b146105635760405162461bcd60e51b81526020600482015260166024820152755468652073616c65206973206e6f742061637469766560501b60448201526064016102f8565b5f6040518060600160405280336001600160a01b03168152602001838152602001600354846105929190611090565b905290506104c3816109d4565b600160025f8282546105b191906110ad565b909155505060408051606081018252338082526001600160a01b038581166020840181815284860187815260078054600180820183555f92909252965160039097027fa66cc928b5edb82af9bd49922954155ab7b0942694bea4ce44661d9a8736c688810180549887166001600160a01b0319998a1617905592517fa66cc928b5edb82af9bd49922954155ab7b0942694bea4ce44661d9a8736c689840180549187169190981617909655517fa66cc928b5edb82af9bd49922954155ab7b0942694bea4ce44661d9a8736c68a90910155925493516323b872dd60e01b815260048101929092526024820192909252604481018490529116906323b872dd906064016020604051808303815f875af11580156106cf573d5f803e3d5ffd5b505050506040513d601f19601f820116820180604052508101906106f391906110c0565b6104c35760405162461bcd60e51b81526004016102f8906110e6565b5f546001600160a01b031633146107385760405162461bcd60e51b81526004016102f890611037565b5f60065460ff16600181111561075057610750610fc8565b1461079d5760405162461bcd60e51b815260206004820152601960248201527f5468652073616c6520697320616c726561647920656e6465640000000000000060448201526064016102f8565b6001545f546040516370a0823160e01b81523060048201526001600160a01b039283169263a9059cbb92169083906370a0823190602401602060405180830381865afa1580156107ef573d5f803e3d5ffd5b505050506040513d601f19601f820116820180604052508101906108139190611115565b6040516001600160e01b031960e085901b1681526001600160a01b03909216600483015260248201526044016020604051808303815f875af115801561085b573d5f803e3d5ffd5b505050506040513d601f19601f8201168201806040525081019061087f91906110c0565b6108cb5760405162461bcd60e51b815260206004820152601e60248201527f546f6b656e207472616e7366657220746f2061646d696e206661696c6564000060448201526064016102f8565b5f80546040516001600160a01b03909116914780156108fc02929091818181858888f19350505050158015610902573d5f803e3d5ffd5b506006805460ff191660011790556040517f0bd8a3eb532e5fbcd3f5b00335f0fb42fdc11969e9af0fab7c9e71a36ae0d31a905f90a1565b5f60065460ff16600181111561095257610952610fc8565b146109985760405162461bcd60e51b81526020600482015260166024820152755468652073616c65206973206e6f742061637469766560501b60448201526064016102f8565b5f6040518060600160405280336001600160a01b03168152602001838152602001600354846109c79190611090565b905290506104c381610ce7565b5f816020015111610a1e5760405162461bcd60e51b8152602060048201526014602482015273125b9d985b1a59081d1bdad95b88185b5bdd5b9d60621b60448201526064016102f8565b602081015160015482516040516370a0823160e01b81526001600160a01b0391821660048201529116906370a0823190602401602060405180830381865afa158015610a6c573d5f803e3d5ffd5b505050506040513d601f19601f82011682018060405250810190610a909190611115565b1015610ade5760405162461bcd60e51b815260206004820152601a60248201527f496e73756666696369656e7420746f6b656e2062616c616e636500000000000060448201526064016102f8565b8060400151471015610b455760405162461bcd60e51b815260206004820152602a60248201527f496e73756666696369656e742045746865722062616c616e636520696e207468604482015269194818dbdb9d1c9858dd60b21b60648201526084016102f8565b600154815160208301516040516323b872dd60e01b81526001600160a01b03928316600482015230602482015260448101919091529116906323b872dd906064016020604051808303815f875af1158015610ba2573d5f803e3d5ffd5b505050506040513d601f19601f82011682018060405250810190610bc691906110c0565b610be25760405162461bcd60e51b81526004016102f8906110e6565b805160408083015190515f926001600160a01b031691908381818185875af1925050503d805f8114610c2f576040519150601f19603f3d011682016040523d82523d5f602084013e610c34565b606091505b5050905080610c7d5760405162461bcd60e51b8152602060048201526015602482015274115d1a195c881d1c985b9cd9995c8819985a5b1959605a1b60448201526064016102f8565b816020015160045f828254610c92919061112c565b909155505060015482516020808501516040519081526001600160a01b0393841693909216917fae98fdb7f4bc601d31354dd8c8ba584bf892418c4df67aba01011867bd88ea27910160405180910390a35050565b5f816020015111610d4d5760405162461bcd60e51b815260206004820152602a60248201527f4e756d626572206f6620746f6b656e73206d7573742062652067726561746572604482015269207468616e207a65726f60b01b60648201526084016102f8565b60208101516001546040516370a0823160e01b81523060048201526001600160a01b03909116906370a0823190602401602060405180830381865afa158015610d98573d5f803e3d5ffd5b505050506040513d601f19601f82011682018060405250810190610dbc9190611115565b1015610e0a5760405162461bcd60e51b815260206004820152601b60248201527f4e6f7420656e6f75676820746f6b656e7320617661696c61626c65000000000060448201526064016102f8565b80604001513414610e545760405162461bcd60e51b8152602060048201526014602482015273125b98dbdc9c9958dd081d985b1d59481cd95b9d60621b60448201526064016102f8565b6001548151602083015160405163a9059cbb60e01b81526001600160a01b039283166004820152602481019190915291169063a9059cbb906044016020604051808303815f875af1158015610eab573d5f803e3d5ffd5b505050506040513d601f19601f82011682018060405250810190610ecf91906110c0565b610eeb5760405162461bcd60e51b81526004016102f8906110e6565b806020015160045f828254610f0091906110ad565b909155505080516020808301516040519081526001600160a01b03909216917fe3d4187f6ca4248660cc0ac8b8056515bac4a8132be2eca31d6d0cc170722a7e910160405180910390a250565b602080825282518282018190525f919060409081850190868401855b82811015610fa457815180516001600160a01b0390811686528782015116878601528501518585015260609093019290850190600101610f69565b5091979650505050505050565b5f60208284031215610fc1575f80fd5b5035919050565b634e487b7160e01b5f52602160045260245ffd5b6020810160028310610ffc57634e487b7160e01b5f52602160045260245ffd5b91905290565b5f8060408385031215611013575f80fd5b82356001600160a01b0381168114611029575f80fd5b946020939093013593505050565b60208082526025908201527f4f6e6c79207468652061646d696e2063616e2063616c6c20746869732066756e60408201526431ba34b7b760d91b606082015260800190565b634e487b7160e01b5f52601160045260245ffd5b80820281158282048414176110a7576110a761107c565b92915050565b808201808211156110a7576110a761107c565b5f602082840312156110d0575f80fd5b815180151581146110df575f80fd5b9392505050565b602080825260159082015274151bdad95b881d1c985b9cd9995c8819985a5b1959605a1b604082015260600190565b5f60208284031215611125575f80fd5b5051919050565b818103818111156110a7576110a761107c56fea264697066735822122021f9b09e8025e65bf78381fc04dc18476f09e9fd8215934d88797250e12f996f64736f6c63430008170033",
  "linkReferences": {},
  "deployedLinkReferences": {}
}