{
  "_format": "hh-sol-artifact-1",
  "contractName": "AirDrop",
  "sourceName": "contracts/AirDrop.sol",
  "abi": [
    {
      "inputs": [
        {
          "internalType": "contract FossaToken",
          "name": "_tokenContract",
          "type": "address"
        },
        {
          "internalType": "bytes32",
          "name": "_root",
          "type": "bytes32"
        },
        {
          "internalType": "uint256",
          "name": "_rewardAmount",
          "type": "uint256"
        }
      ],
      "stateMutability": "nonpayable",
      "type": "constructor"
    },
    {
      "anonymous": false,
      "inputs": [
        {
          "indexed": true,
          "internalType": "address",
          "name": "recipient",
          "type": "address"
        },
        {
          "indexed": false,
          "internalType": "uint256",
          "name": "amount",
          "type": "uint256"
        }
      ],
      "name": "Claimed",
      "type": "event"
    },
    {
      "anonymous": false,
      "inputs": [
        {
          "indexed": false,
          "internalType": "bytes32",
          "name": "root",
          "type": "bytes32"
        }
      ],
      "name": "checkRoot",
      "type": "event"
    },
    {
      "inputs": [
        {
          "internalType": "bytes32[]",
          "name": "proof",
          "type": "bytes32[]"
        },
        {
          "internalType": "address",
          "name": "recipient",
          "type": "address"
        }
      ],
      "name": "claim",
      "outputs": [],
      "stateMutability": "nonpayable",
      "type": "function"
    },
    {
      "inputs": [
        {
          "internalType": "address",
          "name": "",
          "type": "address"
        }
      ],
      "name": "claimed",
      "outputs": [
        {
          "internalType": "bool",
          "name": "",
          "type": "bool"
        }
      ],
      "stateMutability": "view",
      "type": "function"
    },
    {
      "inputs": [],
      "name": "rewardAmount",
      "outputs": [
        {
          "internalType": "uint256",
          "name": "",
          "type": "uint256"
        }
      ],
      "stateMutability": "view",
      "type": "function"
    },
    {
      "inputs": [],
      "name": "root",
      "outputs": [
        {
          "internalType": "bytes32",
          "name": "",
          "type": "bytes32"
        }
      ],
      "stateMutability": "view",
      "type": "function"
    },
    {
      "inputs": [],
      "name": "tokenContract",
      "outputs": [
        {
          "internalType": "contract FossaToken",
          "name": "",
          "type": "address"
        }
      ],
      "stateMutability": "view",
      "type": "function"
    }
  ],
  "bytecode": "0x60e060405234801562000010575f80fd5b5060405162000d6738038062000d6783398181016040528101906200003691906200016b565b8273ffffffffffffffffffffffffffffffffffffffff1660808173ffffffffffffffffffffffffffffffffffffffff16815250508160a081815250508060c08181525050505050620001c4565b5f80fd5b5f73ffffffffffffffffffffffffffffffffffffffff82169050919050565b5f620000b28262000087565b9050919050565b5f620000c582620000a6565b9050919050565b620000d781620000b9565b8114620000e2575f80fd5b50565b5f81519050620000f581620000cc565b92915050565b5f819050919050565b6200010f81620000fb565b81146200011a575f80fd5b50565b5f815190506200012d8162000104565b92915050565b5f819050919050565b620001478162000133565b811462000152575f80fd5b50565b5f8151905062000165816200013c565b92915050565b5f805f6060848603121562000185576200018462000083565b5b5f6200019486828701620000e5565b9350506020620001a7868287016200011d565b9250506040620001ba8682870162000155565b9150509250925092565b60805160a05160c051610b4e620002195f395f818161017f01528181610353015281816103f6015261047101525f8181610146015281816102b0015261044d01525f818161010101526103160152610b4e5ff3fe608060405234801561000f575f80fd5b5060043610610055575f3560e01c806355a373d61461005957806388b4f2d314610077578063c884ef8314610093578063ebf0c717146100c3578063f7b2a7be146100e1575b5f80fd5b6100616100ff565b60405161006e9190610696565b60405180910390f35b610091600480360381019061008c919061087e565b610123565b005b6100ad60048036038101906100a891906108d8565b61042f565b6040516100ba919061091d565b60405180910390f35b6100cb61044b565b6040516100d89190610945565b60405180910390f35b6100e961046f565b6040516100f69190610976565b60405180910390f35b7f000000000000000000000000000000000000000000000000000000000000000081565b7f06c8442bd1033e36d318f7918d109254465868f31270fc5ecf8b5c79c7192c747f00000000000000000000000000000000000000000000000000000000000000006040516101729190610945565b60405180910390a16101a37f0000000000000000000000000000000000000000000000000000000000000000610493565b5f808273ffffffffffffffffffffffffffffffffffffffff1673ffffffffffffffffffffffffffffffffffffffff1681526020019081526020015f205f9054906101000a900460ff161561022c576040517f08c379a0000000000000000000000000000000000000000000000000000000008152600401610223906109e9565b60405180910390fd5b60015f808373ffffffffffffffffffffffffffffffffffffffff1673ffffffffffffffffffffffffffffffffffffffff1681526020019081526020015f205f6101000a81548160ff0219169083151502179055505f816040516020016102929190610a16565b6040516020818303038152906040528051906020012090506102d5837f00000000000000000000000000000000000000000000000000000000000000008361052c565b610314576040517f08c379a000000000000000000000000000000000000000000000000000000000815260040161030b90610a79565b60405180910390fd5b7f000000000000000000000000000000000000000000000000000000000000000073ffffffffffffffffffffffffffffffffffffffff166340c10f19837f00000000000000000000000000000000000000000000000000000000000000006040518363ffffffff1660e01b815260040161038f929190610a97565b5f604051808303815f87803b1580156103a6575f80fd5b505af11580156103b8573d5f803e3d5ffd5b505050508173ffffffffffffffffffffffffffffffffffffffff167fd8138f8a3f377c5259ca548e70e4c2de94f129f5a11036a15b69513cba2b426a7f00000000000000000000000000000000000000000000000000000000000000006040516104229190610976565b60405180910390a2505050565b5f602052805f5260405f205f915054906101000a900460ff1681565b7f000000000000000000000000000000000000000000000000000000000000000081565b7f000000000000000000000000000000000000000000000000000000000000000081565b610529816040516024016104a79190610976565b6040516020818303038152906040527ff82c50f1000000000000000000000000000000000000000000000000000000007bffffffffffffffffffffffffffffffffffffffffffffffffffffffff19166020820180517bffffffffffffffffffffffffffffffffffffffffffffffffffffffff8381831617835250505050610542565b50565b5f82610538858461055c565b1490509392505050565b610559816105516105aa6105c9565b63ffffffff16565b50565b5f808290505f5b845181101561059f576105908286838151811061058357610582610abe565b5b60200260200101516105d4565b91508080600101915050610563565b508091505092915050565b5f6a636f6e736f6c652e6c6f6790505f80835160208501845afa505050565b610612819050919050565b5f8183106105eb576105e682846105fe565b6105f6565b6105f583836105fe565b5b905092915050565b5f825f528160205260405f20905092915050565b61061a610aeb565b565b5f73ffffffffffffffffffffffffffffffffffffffff82169050919050565b5f819050919050565b5f61065e6106596106548461061c565b61063b565b61061c565b9050919050565b5f61066f82610644565b9050919050565b5f61068082610665565b9050919050565b61069081610676565b82525050565b5f6020820190506106a95f830184610687565b92915050565b5f604051905090565b5f80fd5b5f80fd5b5f80fd5b5f601f19601f8301169050919050565b7f4e487b71000000000000000000000000000000000000000000000000000000005f52604160045260245ffd5b61070a826106c4565b810181811067ffffffffffffffff82111715610729576107286106d4565b5b80604052505050565b5f61073b6106af565b90506107478282610701565b919050565b5f67ffffffffffffffff821115610766576107656106d4565b5b602082029050602081019050919050565b5f80fd5b5f819050919050565b61078d8161077b565b8114610797575f80fd5b50565b5f813590506107a881610784565b92915050565b5f6107c06107bb8461074c565b610732565b905080838252602082019050602084028301858111156107e3576107e2610777565b5b835b8181101561080c57806107f8888261079a565b8452602084019350506020810190506107e5565b5050509392505050565b5f82601f83011261082a576108296106c0565b5b813561083a8482602086016107ae565b91505092915050565b5f61084d8261061c565b9050919050565b61085d81610843565b8114610867575f80fd5b50565b5f8135905061087881610854565b92915050565b5f8060408385031215610894576108936106b8565b5b5f83013567ffffffffffffffff8111156108b1576108b06106bc565b5b6108bd85828601610816565b92505060206108ce8582860161086a565b9150509250929050565b5f602082840312156108ed576108ec6106b8565b5b5f6108fa8482850161086a565b91505092915050565b5f8115159050919050565b61091781610903565b82525050565b5f6020820190506109305f83018461090e565b92915050565b61093f8161077b565b82525050565b5f6020820190506109585f830184610936565b92915050565b5f819050919050565b6109708161095e565b82525050565b5f6020820190506109895f830184610967565b92915050565b5f82825260208201905092915050565b7f416c726561647920636c61696d65642041697244726f700000000000000000005f82015250565b5f6109d360178361098f565b91506109de8261099f565b602082019050919050565b5f6020820190508181035f830152610a00816109c7565b9050919050565b610a1081610843565b82525050565b5f602082019050610a295f830184610a07565b92915050565b7f496e76616c6964204d65726b6c652070726f6f660000000000000000000000005f82015250565b5f610a6360148361098f565b9150610a6e82610a2f565b602082019050919050565b5f6020820190508181035f830152610a9081610a57565b9050919050565b5f604082019050610aaa5f830185610a07565b610ab76020830184610967565b9392505050565b7f4e487b71000000000000000000000000000000000000000000000000000000005f52603260045260245ffd5b7f4e487b71000000000000000000000000000000000000000000000000000000005f52605160045260245ffdfea26469706673582212202858f25da521898f43fa977feb5241a2f60e3432638142a031f54b89dccb0c8464736f6c63430008160033",
  "linkReferences": {},
  "deployedLinkReferences": {}
}