{
  "_format": "hh-sol-artifact-1",
  "contractName": "AirDrop",
  "sourceName": "contracts/AirDrop.sol",
  "abi": [
    {
      "inputs": [
        {
          "internalType": "contract DappToken",
          "name": "_tokenContract",
          "type": "address"
        },
        {
          "internalType": "bytes32",
          "name": "_root",
          "type": "bytes32"
        },
        {
          "internalType": "uint256",
          "name": "_rewardAmount",
          "type": "uint256"
        }
      ],
      "stateMutability": "nonpayable",
      "type": "constructor"
    },
    {
      "inputs": [
        {
          "internalType": "bytes32[]",
          "name": "proof",
          "type": "bytes32[]"
        },
        {
          "internalType": "address",
          "name": "addr",
          "type": "address"
        }
      ],
      "name": "claim",
      "outputs": [],
      "stateMutability": "nonpayable",
      "type": "function"
    },
    {
      "inputs": [],
      "name": "rewardAmount",
      "outputs": [
        {
          "internalType": "uint256",
          "name": "",
          "type": "uint256"
        }
      ],
      "stateMutability": "view",
      "type": "function"
    },
    {
      "inputs": [],
      "name": "root",
      "outputs": [
        {
          "internalType": "bytes32",
          "name": "",
          "type": "bytes32"
        }
      ],
      "stateMutability": "view",
      "type": "function"
    },
    {
      "inputs": [],
      "name": "tokenContract",
      "outputs": [
        {
          "internalType": "contract DappToken",
          "name": "",
          "type": "address"
        }
      ],
      "stateMutability": "view",
      "type": "function"
    }
  ],
  "bytecode": "0x60a060405234801562000010575f80fd5b5060405162000a3438038062000a34833981810160405281019062000036919062000175565b825f806101000a81548173ffffffffffffffffffffffffffffffffffffffff021916908373ffffffffffffffffffffffffffffffffffffffff160217905550816080818152505080600181905550505050620001ce565b5f80fd5b5f73ffffffffffffffffffffffffffffffffffffffff82169050919050565b5f620000bc8262000091565b9050919050565b5f620000cf82620000b0565b9050919050565b620000e181620000c3565b8114620000ec575f80fd5b50565b5f81519050620000ff81620000d6565b92915050565b5f819050919050565b620001198162000105565b811462000124575f80fd5b50565b5f8151905062000137816200010e565b92915050565b5f819050919050565b62000151816200013d565b81146200015c575f80fd5b50565b5f815190506200016f8162000146565b92915050565b5f805f606084860312156200018f576200018e6200008d565b5b5f6200019e86828701620000ef565b9350506020620001b18682870162000127565b9250506040620001c4868287016200015f565b9150509250925092565b608051610846620001ee5f395f81816101fa01526102ee01526108465ff3fe608060405234801561000f575f80fd5b506004361061004a575f3560e01c806355a373d61461004e57806388b4f2d31461006c578063ebf0c71714610088578063f7b2a7be146100a6575b5f80fd5b6100566100c4565b6040516100639190610432565b60405180910390f35b6100866004803603810190610081919061061a565b6100e7565b005b6100906102ec565b60405161009d9190610683565b60405180910390f35b6100ae610310565b6040516100bb91906106b4565b60405180910390f35b5f8054906101000a900473ffffffffffffffffffffffffffffffffffffffff1681565b60025f8273ffffffffffffffffffffffffffffffffffffffff1673ffffffffffffffffffffffffffffffffffffffff1681526020019081526020015f205f9054906101000a900460ff1615610171576040517f08c379a000000000000000000000000000000000000000000000000000000000815260040161016890610727565b60405180910390fd5b600160025f8373ffffffffffffffffffffffffffffffffffffffff1673ffffffffffffffffffffffffffffffffffffffff1681526020019081526020015f205f6101000a81548160ff0219169083151502179055505f816001546040516020016101dc929190610754565b60405160208183030381529060405280519060200120905061021f837f000000000000000000000000000000000000000000000000000000000000000083610316565b61025e576040517f08c379a0000000000000000000000000000000000000000000000000000000008152600401610255906107c5565b60405180910390fd5b5f8054906101000a900473ffffffffffffffffffffffffffffffffffffffff1673ffffffffffffffffffffffffffffffffffffffff166340c10f19836001546040518363ffffffff1660e01b81526004016102ba929190610754565b5f604051808303815f87803b1580156102d1575f80fd5b505af11580156102e3573d5f803e3d5ffd5b50505050505050565b7f000000000000000000000000000000000000000000000000000000000000000081565b60015481565b5f82610322858461032c565b1490509392505050565b5f808290505f5b845181101561036f5761036082868381518110610353576103526107e3565b5b602002602001015161037a565b91508080600101915050610333565b508091505092915050565b5f8183106103915761038c82846103a4565b61039c565b61039b83836103a4565b5b905092915050565b5f825f528160205260405f20905092915050565b5f73ffffffffffffffffffffffffffffffffffffffff82169050919050565b5f819050919050565b5f6103fa6103f56103f0846103b8565b6103d7565b6103b8565b9050919050565b5f61040b826103e0565b9050919050565b5f61041c82610401565b9050919050565b61042c81610412565b82525050565b5f6020820190506104455f830184610423565b92915050565b5f604051905090565b5f80fd5b5f80fd5b5f80fd5b5f601f19601f8301169050919050565b7f4e487b71000000000000000000000000000000000000000000000000000000005f52604160045260245ffd5b6104a682610460565b810181811067ffffffffffffffff821117156104c5576104c4610470565b5b80604052505050565b5f6104d761044b565b90506104e3828261049d565b919050565b5f67ffffffffffffffff82111561050257610501610470565b5b602082029050602081019050919050565b5f80fd5b5f819050919050565b61052981610517565b8114610533575f80fd5b50565b5f8135905061054481610520565b92915050565b5f61055c610557846104e8565b6104ce565b9050808382526020820190506020840283018581111561057f5761057e610513565b5b835b818110156105a857806105948882610536565b845260208401935050602081019050610581565b5050509392505050565b5f82601f8301126105c6576105c561045c565b5b81356105d684826020860161054a565b91505092915050565b5f6105e9826103b8565b9050919050565b6105f9816105df565b8114610603575f80fd5b50565b5f81359050610614816105f0565b92915050565b5f80604083850312156106305761062f610454565b5b5f83013567ffffffffffffffff81111561064d5761064c610458565b5b610659858286016105b2565b925050602061066a85828601610606565b9150509250929050565b61067d81610517565b82525050565b5f6020820190506106965f830184610674565b92915050565b5f819050919050565b6106ae8161069c565b82525050565b5f6020820190506106c75f8301846106a5565b92915050565b5f82825260208201905092915050565b7f416c726561647920636c61696d65642041697244726f700000000000000000005f82015250565b5f6107116017836106cd565b915061071c826106dd565b602082019050919050565b5f6020820190508181035f83015261073e81610705565b9050919050565b61074e816105df565b82525050565b5f6040820190506107675f830185610745565b61077460208301846106a5565b9392505050565b7f496e76616c6964204d65726b6c652070726f6f660000000000000000000000005f82015250565b5f6107af6014836106cd565b91506107ba8261077b565b602082019050919050565b5f6020820190508181035f8301526107dc816107a3565b9050919050565b7f4e487b71000000000000000000000000000000000000000000000000000000005f52603260045260245ffdfea264697066735822122093f720156fdd37f482e09bab4b693de33c171b5e685db77e1d8eb2dba6c7a6d964736f6c63430008160033",
  "linkReferences": {},
  "deployedLinkReferences": {}
}