{
  "_format": "hh-sol-artifact-1",
  "contractName": "DappTokenSale",
  "sourceName": "contracts/DappTokenSale.sol",
  "abi": [
    {
      "inputs": [
        {
          "internalType": "contract DappToken",
          "name": "_tokenContract",
          "type": "address"
        },
        {
          "internalType": "uint256",
          "name": "_tokenPrice",
          "type": "uint256"
        }
      ],
      "stateMutability": "nonpayable",
      "type": "constructor"
    },
    {
      "anonymous": false,
      "inputs": [
        {
          "indexed": false,
          "internalType": "address",
          "name": "_buyer",
          "type": "address"
        },
        {
          "indexed": false,
          "internalType": "uint256",
          "name": "_amount",
          "type": "uint256"
        }
      ],
      "name": "Sell",
      "type": "event"
    },
    {
      "anonymous": false,
      "inputs": [
        {
          "indexed": false,
          "internalType": "address",
          "name": "account",
          "type": "address"
        },
        {
          "indexed": false,
          "internalType": "address",
          "name": "tokenContract",
          "type": "address"
        },
        {
          "indexed": false,
          "internalType": "uint256",
          "name": "amount",
          "type": "uint256"
        },
        {
          "indexed": false,
          "internalType": "uint256",
          "name": "rate",
          "type": "uint256"
        }
      ],
      "name": "Sold",
      "type": "event"
    },
    {
      "stateMutability": "payable",
      "type": "fallback"
    },
    {
      "inputs": [],
      "name": "admin",
      "outputs": [
        {
          "internalType": "address payable",
          "name": "",
          "type": "address"
        }
      ],
      "stateMutability": "view",
      "type": "function"
    },
    {
      "inputs": [
        {
          "internalType": "uint256",
          "name": "_numberOfTokens",
          "type": "uint256"
        }
      ],
      "name": "buyTokens",
      "outputs": [],
      "stateMutability": "payable",
      "type": "function"
    },
    {
      "inputs": [],
      "name": "endSale",
      "outputs": [],
      "stateMutability": "payable",
      "type": "function"
    },
    {
      "inputs": [],
      "name": "rate",
      "outputs": [
        {
          "internalType": "uint256",
          "name": "",
          "type": "uint256"
        }
      ],
      "stateMutability": "view",
      "type": "function"
    },
    {
      "inputs": [
        {
          "internalType": "uint256",
          "name": "_amount",
          "type": "uint256"
        }
      ],
      "name": "sellTokens",
      "outputs": [],
      "stateMutability": "payable",
      "type": "function"
    },
    {
      "inputs": [],
      "name": "tokenContract",
      "outputs": [
        {
          "internalType": "contract DappToken",
          "name": "",
          "type": "address"
        }
      ],
      "stateMutability": "view",
      "type": "function"
    },
    {
      "inputs": [],
      "name": "tokenPrice",
      "outputs": [
        {
          "internalType": "uint256",
          "name": "",
          "type": "uint256"
        }
      ],
      "stateMutability": "view",
      "type": "function"
    },
    {
      "inputs": [],
      "name": "tokensSold",
      "outputs": [
        {
          "internalType": "uint256",
          "name": "",
          "type": "uint256"
        }
      ],
      "stateMutability": "view",
      "type": "function"
    },
    {
      "stateMutability": "payable",
      "type": "receive"
    }
  ],
  "bytecode": "0x608060405266038d7ea4c68000600255600160045534801562000020575f80fd5b50604051620011ea380380620011ea833981810160405281019062000046919062000184565b335f806101000a81548173ffffffffffffffffffffffffffffffffffffffff021916908373ffffffffffffffffffffffffffffffffffffffff1602179055508160015f6101000a81548173ffffffffffffffffffffffffffffffffffffffff021916908373ffffffffffffffffffffffffffffffffffffffff160217905550806002819055505050620001c9565b5f80fd5b5f73ffffffffffffffffffffffffffffffffffffffff82169050919050565b5f6200010382620000d8565b9050919050565b5f6200011682620000f7565b9050919050565b62000128816200010a565b811462000133575f80fd5b50565b5f8151905062000146816200011d565b92915050565b5f819050919050565b62000160816200014c565b81146200016b575f80fd5b50565b5f815190506200017e8162000155565b92915050565b5f80604083850312156200019d576200019c620000d4565b5b5f620001ac8582860162000136565b9250506020620001bf858286016200016e565b9150509250929050565b61101380620001d75f395ff3fe60806040526004361061007e575f3560e01c806355a373d61161004d57806355a373d6146101015780636c11bcd31461012b5780637ff9b59614610147578063f851a4401461017157610085565b80632c4e722e146100875780633610724e146100b1578063380d831b146100cd578063518ab2a8146100d757610085565b3661008557005b005b348015610092575f80fd5b5061009b61019b565b6040516100a891906109fb565b60405180910390f35b6100cb60048036038101906100c69190610a42565b6101a1565b005b6100d561049b565b005b3480156100e2575f80fd5b506100eb61071f565b6040516100f891906109fb565b60405180910390f35b34801561010c575f80fd5b50610115610725565b6040516101229190610ae7565b60405180910390f35b61014560048036038101906101409190610a42565b61074a565b005b348015610152575f80fd5b5061015b6108d3565b60405161016891906109fb565b60405180910390f35b34801561017c575f80fd5b506101856108d9565b6040516101929190610b20565b60405180910390f35b60045481565b600254816101af9190610b66565b34146101f0576040517f08c379a00000000000000000000000000000000000000000000000000000000081526004016101e790610c01565b60405180910390fd5b61029160015f9054906101000a900473ffffffffffffffffffffffffffffffffffffffff1673ffffffffffffffffffffffffffffffffffffffff166370a08231306040518263ffffffff1660e01b815260040161024d9190610c3f565b602060405180830381865afa158015610268573d5f803e3d5ffd5b505050506040513d601f19601f8201168201806040525081019061028c9190610c6c565b6108fc565b8060015f9054906101000a900473ffffffffffffffffffffffffffffffffffffffff1673ffffffffffffffffffffffffffffffffffffffff166370a08231306040518263ffffffff1660e01b81526004016102ec9190610c3f565b602060405180830381865afa158015610307573d5f803e3d5ffd5b505050506040513d601f19601f8201168201806040525081019061032b9190610c6c565b101561036c576040517f08c379a000000000000000000000000000000000000000000000000000000000815260040161036390610ce1565b60405180910390fd5b60015f9054906101000a900473ffffffffffffffffffffffffffffffffffffffff1673ffffffffffffffffffffffffffffffffffffffff1663a9059cbb33836040518363ffffffff1660e01b81526004016103c8929190610cff565b6020604051808303815f875af11580156103e4573d5f803e3d5ffd5b505050506040513d601f19601f820116820180604052508101906104089190610d5b565b610447576040517f08c379a000000000000000000000000000000000000000000000000000000000815260040161043e90610dd0565b60405180910390fd5b8060035f8282546104589190610dee565b925050819055507f5e5e995ce3133561afceaa51a9a154d5db228cd7525d34df5185582c18d3df093382604051610490929190610cff565b60405180910390a150565b5f8054906101000a900473ffffffffffffffffffffffffffffffffffffffff1673ffffffffffffffffffffffffffffffffffffffff163373ffffffffffffffffffffffffffffffffffffffff1614610528576040517f08c379a000000000000000000000000000000000000000000000000000000000815260040161051f90610e6b565b60405180910390fd5b60015f9054906101000a900473ffffffffffffffffffffffffffffffffffffffff1673ffffffffffffffffffffffffffffffffffffffff1663a9059cbb5f8054906101000a900473ffffffffffffffffffffffffffffffffffffffff1660015f9054906101000a900473ffffffffffffffffffffffffffffffffffffffff1673ffffffffffffffffffffffffffffffffffffffff166370a08231306040518263ffffffff1660e01b81526004016105df9190610c3f565b602060405180830381865afa1580156105fa573d5f803e3d5ffd5b505050506040513d601f19601f8201168201806040525081019061061e9190610c6c565b6040518363ffffffff1660e01b815260040161063b929190610ea9565b6020604051808303815f875af1158015610657573d5f803e3d5ffd5b505050506040513d601f19601f8201168201806040525081019061067b9190610d5b565b6106ba576040517f08c379a00000000000000000000000000000000000000000000000000000000081526004016106b190610f1a565b60405180910390fd5b5f8054906101000a900473ffffffffffffffffffffffffffffffffffffffff1673ffffffffffffffffffffffffffffffffffffffff166108fc4790811502906040515f60405180830381858888f1935050505015801561071c573d5f803e3d5ffd5b50565b60035481565b60015f9054906101000a900473ffffffffffffffffffffffffffffffffffffffff1681565b5f81905060015f9054906101000a900473ffffffffffffffffffffffffffffffffffffffff1673ffffffffffffffffffffffffffffffffffffffff166323b872dd3330856040518463ffffffff1660e01b81526004016107ac93929190610f38565b6020604051808303815f875af11580156107c8573d5f803e3d5ffd5b505050506040513d601f19601f820116820180604052508101906107ec9190610d5b565b61082b576040517f08c379a000000000000000000000000000000000000000000000000000000000815260040161082290610dd0565b60405180910390fd5b3373ffffffffffffffffffffffffffffffffffffffff166108fc8290811502906040515f60405180830381858888f1935050505015801561086e573d5f803e3d5ffd5b507f16dd16959a056953a63cf14bf427881e762e54f03d86b864efea8238dd3b822f3360015f9054906101000a900473ffffffffffffffffffffffffffffffffffffffff16846004546040516108c79493929190610f6d565b60405180910390a15050565b60025481565b5f8054906101000a900473ffffffffffffffffffffffffffffffffffffffff1681565b6109928160405160240161091091906109fb565b6040516020818303038152906040527ff82c50f1000000000000000000000000000000000000000000000000000000007bffffffffffffffffffffffffffffffffffffffffffffffffffffffff19166020820180517bffffffffffffffffffffffffffffffffffffffffffffffffffffffff8381831617835250505050610995565b50565b6109ac816109a46109af6109ce565b63ffffffff16565b50565b5f6a636f6e736f6c652e6c6f6790505f80835160208501845afa505050565b6109d9819050919050565b6109e1610fb0565b565b5f819050919050565b6109f5816109e3565b82525050565b5f602082019050610a0e5f8301846109ec565b92915050565b5f80fd5b610a21816109e3565b8114610a2b575f80fd5b50565b5f81359050610a3c81610a18565b92915050565b5f60208284031215610a5757610a56610a14565b5b5f610a6484828501610a2e565b91505092915050565b5f73ffffffffffffffffffffffffffffffffffffffff82169050919050565b5f819050919050565b5f610aaf610aaa610aa584610a6d565b610a8c565b610a6d565b9050919050565b5f610ac082610a95565b9050919050565b5f610ad182610ab6565b9050919050565b610ae181610ac7565b82525050565b5f602082019050610afa5f830184610ad8565b92915050565b5f610b0a82610a6d565b9050919050565b610b1a81610b00565b82525050565b5f602082019050610b335f830184610b11565b92915050565b7f4e487b71000000000000000000000000000000000000000000000000000000005f52601160045260245ffd5b5f610b70826109e3565b9150610b7b836109e3565b9250828202610b89816109e3565b91508282048414831517610ba057610b9f610b39565b5b5092915050565b5f82825260208201905092915050565b7f496e636f72726563742076616c75652073656e740000000000000000000000005f82015250565b5f610beb601483610ba7565b9150610bf682610bb7565b602082019050919050565b5f6020820190508181035f830152610c1881610bdf565b9050919050565b5f610c2982610a6d565b9050919050565b610c3981610c1f565b82525050565b5f602082019050610c525f830184610c30565b92915050565b5f81519050610c6681610a18565b92915050565b5f60208284031215610c8157610c80610a14565b5b5f610c8e84828501610c58565b91505092915050565b7f4e6f7420656e6f75676820746f6b656e7320617661696c61626c6500000000005f82015250565b5f610ccb601b83610ba7565b9150610cd682610c97565b602082019050919050565b5f6020820190508181035f830152610cf881610cbf565b9050919050565b5f604082019050610d125f830185610c30565b610d1f60208301846109ec565b9392505050565b5f8115159050919050565b610d3a81610d26565b8114610d44575f80fd5b50565b5f81519050610d5581610d31565b92915050565b5f60208284031215610d7057610d6f610a14565b5b5f610d7d84828501610d47565b91505092915050565b7f546f6b656e207472616e73666572206661696c656400000000000000000000005f82015250565b5f610dba601583610ba7565b9150610dc582610d86565b602082019050919050565b5f6020820190508181035f830152610de781610dae565b9050919050565b5f610df8826109e3565b9150610e03836109e3565b9250828201905080821115610e1b57610e1a610b39565b5b92915050565b7f4f6e6c79207468652061646d696e2063616e20656e64207468652073616c65005f82015250565b5f610e55601f83610ba7565b9150610e6082610e21565b602082019050919050565b5f6020820190508181035f830152610e8281610e49565b9050919050565b5f610e9382610ab6565b9050919050565b610ea381610e89565b82525050565b5f604082019050610ebc5f830185610e9a565b610ec960208301846109ec565b9392505050565b7f546f6b656e207472616e7366657220746f2061646d696e206661696c656400005f82015250565b5f610f04601e83610ba7565b9150610f0f82610ed0565b602082019050919050565b5f6020820190508181035f830152610f3181610ef8565b9050919050565b5f606082019050610f4b5f830186610c30565b610f586020830185610c30565b610f6560408301846109ec565b949350505050565b5f608082019050610f805f830187610c30565b610f8d6020830186610c30565b610f9a60408301856109ec565b610fa760608301846109ec565b95945050505050565b7f4e487b71000000000000000000000000000000000000000000000000000000005f52605160045260245ffdfea2646970667358221220dc03ebc8af74875f6f013e08528fc94dc01fc3a75b4c04c7d6863ccad9bf9bf664736f6c63430008160033",
  "linkReferences": {},
  "deployedLinkReferences": {}
}