{
  "_format": "hh-sol-artifact-1",
  "contractName": "DappTokenSale",
  "sourceName": "contracts/DappTokenSale.sol",
  "abi": [
    {
      "inputs": [
        {
          "internalType": "contract DappToken",
          "name": "_tokenContract",
          "type": "address"
        },
        {
          "internalType": "uint256",
          "name": "_tokenPrice",
          "type": "uint256"
        }
      ],
      "stateMutability": "nonpayable",
      "type": "constructor"
    },
    {
      "anonymous": false,
      "inputs": [
        {
          "indexed": false,
          "internalType": "address",
          "name": "_buyer",
          "type": "address"
        },
        {
          "indexed": false,
          "internalType": "uint256",
          "name": "_amount",
          "type": "uint256"
        }
      ],
      "name": "Sell",
      "type": "event"
    },
    {
      "anonymous": false,
      "inputs": [
        {
          "indexed": false,
          "internalType": "address",
          "name": "account",
          "type": "address"
        },
        {
          "indexed": false,
          "internalType": "address",
          "name": "tokenContract",
          "type": "address"
        },
        {
          "indexed": false,
          "internalType": "uint256",
          "name": "amount",
          "type": "uint256"
        },
        {
          "indexed": false,
          "internalType": "uint256",
          "name": "rate",
          "type": "uint256"
        }
      ],
      "name": "Sold",
      "type": "event"
    },
    {
      "stateMutability": "payable",
      "type": "fallback"
    },
    {
      "inputs": [],
      "name": "admin",
      "outputs": [
        {
          "internalType": "address payable",
          "name": "",
          "type": "address"
        }
      ],
      "stateMutability": "view",
      "type": "function"
    },
    {
      "inputs": [
        {
          "internalType": "uint256",
          "name": "_numberOfTokens",
          "type": "uint256"
        }
      ],
      "name": "buyTokens",
      "outputs": [],
      "stateMutability": "payable",
      "type": "function"
    },
    {
      "inputs": [],
      "name": "endSale",
      "outputs": [],
      "stateMutability": "payable",
      "type": "function"
    },
    {
      "inputs": [],
      "name": "rate",
      "outputs": [
        {
          "internalType": "uint256",
          "name": "",
          "type": "uint256"
        }
      ],
      "stateMutability": "view",
      "type": "function"
    },
    {
      "inputs": [
        {
          "internalType": "uint256",
          "name": "_amount",
          "type": "uint256"
        }
      ],
      "name": "sellTokens",
      "outputs": [],
      "stateMutability": "payable",
      "type": "function"
    },
    {
      "inputs": [],
      "name": "tokenContract",
      "outputs": [
        {
          "internalType": "contract DappToken",
          "name": "",
          "type": "address"
        }
      ],
      "stateMutability": "view",
      "type": "function"
    },
    {
      "inputs": [],
      "name": "tokenPrice",
      "outputs": [
        {
          "internalType": "uint256",
          "name": "",
          "type": "uint256"
        }
      ],
      "stateMutability": "view",
      "type": "function"
    },
    {
      "inputs": [],
      "name": "tokensSold",
      "outputs": [
        {
          "internalType": "uint256",
          "name": "",
          "type": "uint256"
        }
      ],
      "stateMutability": "view",
      "type": "function"
    },
    {
      "stateMutability": "payable",
      "type": "receive"
    }
  ],
  "bytecode": "0x608060405266038d7ea4c68000600255600160045534801562000020575f80fd5b506040516200134638038062001346833981810160405281019062000046919062000184565b335f806101000a81548173ffffffffffffffffffffffffffffffffffffffff021916908373ffffffffffffffffffffffffffffffffffffffff1602179055508160015f6101000a81548173ffffffffffffffffffffffffffffffffffffffff021916908373ffffffffffffffffffffffffffffffffffffffff160217905550806002819055505050620001c9565b5f80fd5b5f73ffffffffffffffffffffffffffffffffffffffff82169050919050565b5f6200010382620000d8565b9050919050565b5f6200011682620000f7565b9050919050565b62000128816200010a565b811462000133575f80fd5b50565b5f8151905062000146816200011d565b92915050565b5f819050919050565b62000160816200014c565b81146200016b575f80fd5b50565b5f815190506200017e8162000155565b92915050565b5f80604083850312156200019d576200019c620000d4565b5b5f620001ac8582860162000136565b9250506020620001bf858286016200016e565b9150509250929050565b61116f80620001d75f395ff3fe60806040526004361061007e575f3560e01c806355a373d61161004d57806355a373d6146101015780636c11bcd31461012b5780637ff9b59614610147578063f851a4401461017157610085565b80632c4e722e146100875780633610724e146100b1578063380d831b146100cd578063518ab2a8146100d757610085565b3661008557005b005b348015610092575f80fd5b5061009b61019b565b6040516100a89190610aef565b60405180910390f35b6100cb60048036038101906100c69190610b36565b6101a1565b005b6100d561049b565b005b3480156100e2575f80fd5b506100eb61071f565b6040516100f89190610aef565b60405180910390f35b34801561010c575f80fd5b50610115610725565b6040516101229190610bdb565b60405180910390f35b61014560048036038101906101409190610b36565b61074a565b005b348015610152575f80fd5b5061015b6109c7565b6040516101689190610aef565b60405180910390f35b34801561017c575f80fd5b506101856109cd565b6040516101929190610c14565b60405180910390f35b60045481565b600254816101af9190610c5a565b34146101f0576040517f08c379a00000000000000000000000000000000000000000000000000000000081526004016101e790610cf5565b60405180910390fd5b61029160015f9054906101000a900473ffffffffffffffffffffffffffffffffffffffff1673ffffffffffffffffffffffffffffffffffffffff166370a08231306040518263ffffffff1660e01b815260040161024d9190610d33565b602060405180830381865afa158015610268573d5f803e3d5ffd5b505050506040513d601f19601f8201168201806040525081019061028c9190610d60565b6109f0565b8060015f9054906101000a900473ffffffffffffffffffffffffffffffffffffffff1673ffffffffffffffffffffffffffffffffffffffff166370a08231306040518263ffffffff1660e01b81526004016102ec9190610d33565b602060405180830381865afa158015610307573d5f803e3d5ffd5b505050506040513d601f19601f8201168201806040525081019061032b9190610d60565b101561036c576040517f08c379a000000000000000000000000000000000000000000000000000000000815260040161036390610dd5565b60405180910390fd5b60015f9054906101000a900473ffffffffffffffffffffffffffffffffffffffff1673ffffffffffffffffffffffffffffffffffffffff1663a9059cbb33836040518363ffffffff1660e01b81526004016103c8929190610df3565b6020604051808303815f875af11580156103e4573d5f803e3d5ffd5b505050506040513d601f19601f820116820180604052508101906104089190610e4f565b610447576040517f08c379a000000000000000000000000000000000000000000000000000000000815260040161043e90610ec4565b60405180910390fd5b8060035f8282546104589190610ee2565b925050819055507f5e5e995ce3133561afceaa51a9a154d5db228cd7525d34df5185582c18d3df093382604051610490929190610df3565b60405180910390a150565b5f8054906101000a900473ffffffffffffffffffffffffffffffffffffffff1673ffffffffffffffffffffffffffffffffffffffff163373ffffffffffffffffffffffffffffffffffffffff1614610528576040517f08c379a000000000000000000000000000000000000000000000000000000000815260040161051f90610f5f565b60405180910390fd5b60015f9054906101000a900473ffffffffffffffffffffffffffffffffffffffff1673ffffffffffffffffffffffffffffffffffffffff1663a9059cbb5f8054906101000a900473ffffffffffffffffffffffffffffffffffffffff1660015f9054906101000a900473ffffffffffffffffffffffffffffffffffffffff1673ffffffffffffffffffffffffffffffffffffffff166370a08231306040518263ffffffff1660e01b81526004016105df9190610d33565b602060405180830381865afa1580156105fa573d5f803e3d5ffd5b505050506040513d601f19601f8201168201806040525081019061061e9190610d60565b6040518363ffffffff1660e01b815260040161063b929190610f9d565b6020604051808303815f875af1158015610657573d5f803e3d5ffd5b505050506040513d601f19601f8201168201806040525081019061067b9190610e4f565b6106ba576040517f08c379a00000000000000000000000000000000000000000000000000000000081526004016106b19061100e565b60405180910390fd5b5f8054906101000a900473ffffffffffffffffffffffffffffffffffffffff1673ffffffffffffffffffffffffffffffffffffffff166108fc4790811502906040515f60405180830381858888f1935050505015801561071c573d5f803e3d5ffd5b50565b60035481565b60015f9054906101000a900473ffffffffffffffffffffffffffffffffffffffff1681565b8060015f9054906101000a900473ffffffffffffffffffffffffffffffffffffffff1673ffffffffffffffffffffffffffffffffffffffff166370a08231336040518263ffffffff1660e01b81526004016107a59190610d33565b602060405180830381865afa1580156107c0573d5f803e3d5ffd5b505050506040513d601f19601f820116820180604052508101906107e49190610d60565b10156107ee575f80fd5b5f600254826107fd9190610c5a565b905081471015610842576040517f08c379a000000000000000000000000000000000000000000000000000000000815260040161083990611076565b60405180910390fd5b60015f9054906101000a900473ffffffffffffffffffffffffffffffffffffffff1673ffffffffffffffffffffffffffffffffffffffff166323b872dd3330856040518463ffffffff1660e01b81526004016108a093929190611094565b6020604051808303815f875af11580156108bc573d5f803e3d5ffd5b505050506040513d601f19601f820116820180604052508101906108e09190610e4f565b61091f576040517f08c379a000000000000000000000000000000000000000000000000000000000815260040161091690610ec4565b60405180910390fd5b3373ffffffffffffffffffffffffffffffffffffffff166108fc8290811502906040515f60405180830381858888f19350505050158015610962573d5f803e3d5ffd5b507f16dd16959a056953a63cf14bf427881e762e54f03d86b864efea8238dd3b822f3360015f9054906101000a900473ffffffffffffffffffffffffffffffffffffffff16846004546040516109bb94939291906110c9565b60405180910390a15050565b60025481565b5f8054906101000a900473ffffffffffffffffffffffffffffffffffffffff1681565b610a8681604051602401610a049190610aef565b6040516020818303038152906040527ff82c50f1000000000000000000000000000000000000000000000000000000007bffffffffffffffffffffffffffffffffffffffffffffffffffffffff19166020820180517bffffffffffffffffffffffffffffffffffffffffffffffffffffffff8381831617835250505050610a89565b50565b610aa081610a98610aa3610ac2565b63ffffffff16565b50565b5f6a636f6e736f6c652e6c6f6790505f80835160208501845afa505050565b610acd819050919050565b610ad561110c565b565b5f819050919050565b610ae981610ad7565b82525050565b5f602082019050610b025f830184610ae0565b92915050565b5f80fd5b610b1581610ad7565b8114610b1f575f80fd5b50565b5f81359050610b3081610b0c565b92915050565b5f60208284031215610b4b57610b4a610b08565b5b5f610b5884828501610b22565b91505092915050565b5f73ffffffffffffffffffffffffffffffffffffffff82169050919050565b5f819050919050565b5f610ba3610b9e610b9984610b61565b610b80565b610b61565b9050919050565b5f610bb482610b89565b9050919050565b5f610bc582610baa565b9050919050565b610bd581610bbb565b82525050565b5f602082019050610bee5f830184610bcc565b92915050565b5f610bfe82610b61565b9050919050565b610c0e81610bf4565b82525050565b5f602082019050610c275f830184610c05565b92915050565b7f4e487b71000000000000000000000000000000000000000000000000000000005f52601160045260245ffd5b5f610c6482610ad7565b9150610c6f83610ad7565b9250828202610c7d81610ad7565b91508282048414831517610c9457610c93610c2d565b5b5092915050565b5f82825260208201905092915050565b7f496e636f72726563742076616c75652073656e740000000000000000000000005f82015250565b5f610cdf601483610c9b565b9150610cea82610cab565b602082019050919050565b5f6020820190508181035f830152610d0c81610cd3565b9050919050565b5f610d1d82610b61565b9050919050565b610d2d81610d13565b82525050565b5f602082019050610d465f830184610d24565b92915050565b5f81519050610d5a81610b0c565b92915050565b5f60208284031215610d7557610d74610b08565b5b5f610d8284828501610d4c565b91505092915050565b7f4e6f7420656e6f75676820746f6b656e7320617661696c61626c6500000000005f82015250565b5f610dbf601b83610c9b565b9150610dca82610d8b565b602082019050919050565b5f6020820190508181035f830152610dec81610db3565b9050919050565b5f604082019050610e065f830185610d24565b610e136020830184610ae0565b9392505050565b5f8115159050919050565b610e2e81610e1a565b8114610e38575f80fd5b50565b5f81519050610e4981610e25565b92915050565b5f60208284031215610e6457610e63610b08565b5b5f610e7184828501610e3b565b91505092915050565b7f546f6b656e207472616e73666572206661696c656400000000000000000000005f82015250565b5f610eae601583610c9b565b9150610eb982610e7a565b602082019050919050565b5f6020820190508181035f830152610edb81610ea2565b9050919050565b5f610eec82610ad7565b9150610ef783610ad7565b9250828201905080821115610f0f57610f0e610c2d565b5b92915050565b7f4f6e6c79207468652061646d696e2063616e20656e64207468652073616c65005f82015250565b5f610f49601f83610c9b565b9150610f5482610f15565b602082019050919050565b5f6020820190508181035f830152610f7681610f3d565b9050919050565b5f610f8782610baa565b9050919050565b610f9781610f7d565b82525050565b5f604082019050610fb05f830185610f8e565b610fbd6020830184610ae0565b9392505050565b7f546f6b656e207472616e7366657220746f2061646d696e206661696c656400005f82015250565b5f610ff8601e83610c9b565b915061100382610fc4565b602082019050919050565b5f6020820190508181035f83015261102581610fec565b9050919050565b7f5377617020686173206e6f7420656e6f756768742065746800000000000000005f82015250565b5f611060601883610c9b565b915061106b8261102c565b602082019050919050565b5f6020820190508181035f83015261108d81611054565b9050919050565b5f6060820190506110a75f830186610d24565b6110b46020830185610d24565b6110c16040830184610ae0565b949350505050565b5f6080820190506110dc5f830187610d24565b6110e96020830186610d24565b6110f66040830185610ae0565b6111036060830184610ae0565b95945050505050565b7f4e487b71000000000000000000000000000000000000000000000000000000005f52605160045260245ffdfea264697066735822122052950b4e6a5040f2fa38349eef35ce76a0e374926aa4f1af1b37dba0edfaf68c64736f6c63430008160033",
  "linkReferences": {},
  "deployedLinkReferences": {}
}