{
  "_format": "hh-sol-artifact-1",
  "contractName": "DappToken",
  "sourceName": "contracts/DappToken.sol",
  "abi": [
    {
      "inputs": [
        {
          "internalType": "uint256",
          "name": "_initialSupply",
          "type": "uint256"
        }
      ],
      "stateMutability": "nonpayable",
      "type": "constructor"
    },
    {
      "anonymous": false,
      "inputs": [
        {
          "indexed": true,
          "internalType": "address",
          "name": "_owner",
          "type": "address"
        },
        {
          "indexed": true,
          "internalType": "address",
          "name": "_spender",
          "type": "address"
        },
        {
          "indexed": false,
          "internalType": "uint256",
          "name": "_value",
          "type": "uint256"
        }
      ],
      "name": "Approval",
      "type": "event"
    },
    {
      "anonymous": false,
      "inputs": [
        {
          "indexed": true,
          "internalType": "address",
          "name": "_from",
          "type": "address"
        },
        {
          "indexed": true,
          "internalType": "address",
          "name": "_to",
          "type": "address"
        },
        {
          "indexed": false,
          "internalType": "uint256",
          "name": "_value",
          "type": "uint256"
        }
      ],
      "name": "Transfer",
      "type": "event"
    },
    {
      "inputs": [
        {
          "internalType": "address",
          "name": "",
          "type": "address"
        },
        {
          "internalType": "address",
          "name": "",
          "type": "address"
        }
      ],
      "name": "allowance",
      "outputs": [
        {
          "internalType": "uint256",
          "name": "",
          "type": "uint256"
        }
      ],
      "stateMutability": "view",
      "type": "function"
    },
    {
      "inputs": [
        {
          "internalType": "address",
          "name": "_spender",
          "type": "address"
        },
        {
          "internalType": "uint256",
          "name": "_value",
          "type": "uint256"
        }
      ],
      "name": "approve",
      "outputs": [
        {
          "internalType": "bool",
          "name": "",
          "type": "bool"
        }
      ],
      "stateMutability": "nonpayable",
      "type": "function"
    },
    {
      "inputs": [
        {
          "internalType": "address",
          "name": "",
          "type": "address"
        }
      ],
      "name": "balanceOf",
      "outputs": [
        {
          "internalType": "uint256",
          "name": "",
          "type": "uint256"
        }
      ],
      "stateMutability": "view",
      "type": "function"
    },
    {
      "inputs": [],
      "name": "decimals",
      "outputs": [
        {
          "internalType": "uint8",
          "name": "",
          "type": "uint8"
        }
      ],
      "stateMutability": "view",
      "type": "function"
    },
    {
      "inputs": [],
      "name": "name",
      "outputs": [
        {
          "internalType": "string",
          "name": "",
          "type": "string"
        }
      ],
      "stateMutability": "view",
      "type": "function"
    },
    {
      "inputs": [],
      "name": "owner",
      "outputs": [
        {
          "internalType": "address",
          "name": "",
          "type": "address"
        }
      ],
      "stateMutability": "view",
      "type": "function"
    },
    {
      "inputs": [],
      "name": "standard",
      "outputs": [
        {
          "internalType": "string",
          "name": "",
          "type": "string"
        }
      ],
      "stateMutability": "view",
      "type": "function"
    },
    {
      "inputs": [],
      "name": "symbol",
      "outputs": [
        {
          "internalType": "string",
          "name": "",
          "type": "string"
        }
      ],
      "stateMutability": "view",
      "type": "function"
    },
    {
      "inputs": [],
      "name": "totalSupply",
      "outputs": [
        {
          "internalType": "uint256",
          "name": "",
          "type": "uint256"
        }
      ],
      "stateMutability": "view",
      "type": "function"
    },
    {
      "inputs": [
        {
          "internalType": "address",
          "name": "_to",
          "type": "address"
        },
        {
          "internalType": "uint256",
          "name": "_value",
          "type": "uint256"
        }
      ],
      "name": "transfer",
      "outputs": [
        {
          "internalType": "bool",
          "name": "",
          "type": "bool"
        }
      ],
      "stateMutability": "nonpayable",
      "type": "function"
    },
    {
      "inputs": [
        {
          "internalType": "address",
          "name": "_from",
          "type": "address"
        },
        {
          "internalType": "address",
          "name": "_to",
          "type": "address"
        },
        {
          "internalType": "uint256",
          "name": "_value",
          "type": "uint256"
        }
      ],
      "name": "transferFrom",
      "outputs": [
        {
          "internalType": "bool",
          "name": "",
          "type": "bool"
        }
      ],
      "stateMutability": "nonpayable",
      "type": "function"
    }
  ],
  "bytecode": "0x60806040526040518060400160405280600981526020017f44417070546f6b656e00000000000000000000000000000000000000000000008152505f9081620000499190620003c5565b506040518060400160405280600481526020017f444150500000000000000000000000000000000000000000000000000000000081525060019081620000909190620003c5565b506040518060400160405280600f81526020017f4441707020546f6b656e2076312e30000000000000000000000000000000000081525060029081620000d79190620003c5565b50620f4240600355348015620000eb575f80fd5b50604051620012dd380380620012dd8339818101604052810190620001119190620004dc565b8060055f3373ffffffffffffffffffffffffffffffffffffffff1673ffffffffffffffffffffffffffffffffffffffff1681526020019081526020015f208190555080600381905550506200050c565b5f81519050919050565b7f4e487b71000000000000000000000000000000000000000000000000000000005f52604160045260245ffd5b7f4e487b71000000000000000000000000000000000000000000000000000000005f52602260045260245ffd5b5f6002820490506001821680620001dd57607f821691505b602082108103620001f357620001f262000198565b5b50919050565b5f819050815f5260205f209050919050565b5f6020601f8301049050919050565b5f82821b905092915050565b5f60088302620002577fffffffffffffffffffffffffffffffffffffffffffffffffffffffffffffffff826200021a565b6200026386836200021a565b95508019841693508086168417925050509392505050565b5f819050919050565b5f819050919050565b5f620002ad620002a7620002a1846200027b565b62000284565b6200027b565b9050919050565b5f819050919050565b620002c8836200028d565b620002e0620002d782620002b4565b84845462000226565b825550505050565b5f90565b620002f6620002e8565b62000303818484620002bd565b505050565b5b818110156200032a576200031e5f82620002ec565b60018101905062000309565b5050565b601f82111562000379576200034381620001f9565b6200034e846200020b565b810160208510156200035e578190505b620003766200036d856200020b565b83018262000308565b50505b505050565b5f82821c905092915050565b5f6200039b5f19846008026200037e565b1980831691505092915050565b5f620003b583836200038a565b9150826002028217905092915050565b620003d08262000161565b67ffffffffffffffff811115620003ec57620003eb6200016b565b5b620003f88254620001c5565b620004058282856200032e565b5f60209050601f8311600181146200043b575f841562000426578287015190505b620004328582620003a8565b865550620004a1565b601f1984166200044b86620001f9565b5f5b8281101562000474578489015182556001820191506020850194506020810190506200044d565b8683101562000494578489015162000490601f8916826200038a565b8355505b6001600288020188555050505b505050505050565b5f80fd5b620004b8816200027b565b8114620004c3575f80fd5b50565b5f81519050620004d681620004ad565b92915050565b5f60208284031215620004f457620004f3620004a9565b5b5f6200050384828501620004c6565b91505092915050565b610dc3806200051a5f395ff3fe608060405234801561000f575f80fd5b50600436106100a7575f3560e01c80635a3b7e421161006f5780635a3b7e421461016557806370a08231146101835780638da5cb5b146101b357806395d89b41146101d1578063a9059cbb146101ef578063dd62ed3e1461021f576100a7565b806306fdde03146100ab578063095ea7b3146100c957806318160ddd146100f957806323b872dd14610117578063313ce56714610147575b5f80fd5b6100b361024f565b6040516100c091906109d6565b60405180910390f35b6100e360048036038101906100de9190610a87565b6102da565b6040516100f09190610adf565b60405180910390f35b6101016103c7565b60405161010e9190610b07565b60405180910390f35b610131600480360381019061012c9190610b20565b6103cd565b60405161013e9190610adf565b60405180910390f35b61014f61063f565b60405161015c9190610b8b565b60405180910390f35b61016d610644565b60405161017a91906109d6565b60405180910390f35b61019d60048036038101906101989190610ba4565b6106d0565b6040516101aa9190610b07565b60405180910390f35b6101bb6106e5565b6040516101c89190610bde565b60405180910390f35b6101d961070a565b6040516101e691906109d6565b60405180910390f35b61020960048036038101906102049190610a87565b610796565b6040516102169190610adf565b60405180910390f35b61023960048036038101906102349190610bf7565b61092c565b6040516102469190610b07565b60405180910390f35b5f805461025b90610c62565b80601f016020809104026020016040519081016040528092919081815260200182805461028790610c62565b80156102d25780601f106102a9576101008083540402835291602001916102d2565b820191905f5260205f20905b8154815290600101906020018083116102b557829003601f168201915b505050505081565b5f8160065f3373ffffffffffffffffffffffffffffffffffffffff1673ffffffffffffffffffffffffffffffffffffffff1681526020019081526020015f205f8573ffffffffffffffffffffffffffffffffffffffff1673ffffffffffffffffffffffffffffffffffffffff1681526020019081526020015f20819055508273ffffffffffffffffffffffffffffffffffffffff163373ffffffffffffffffffffffffffffffffffffffff167f8c5be1e5ebec7d5bd14f71427d1e84f3dd0314c0f7b2291e5b200ac8c7c3b925846040516103b59190610b07565b60405180910390a36001905092915050565b60035481565b5f60055f8573ffffffffffffffffffffffffffffffffffffffff1673ffffffffffffffffffffffffffffffffffffffff1681526020019081526020015f2054821115610417575f80fd5b60065f8573ffffffffffffffffffffffffffffffffffffffff1673ffffffffffffffffffffffffffffffffffffffff1681526020019081526020015f205f3373ffffffffffffffffffffffffffffffffffffffff1673ffffffffffffffffffffffffffffffffffffffff1681526020019081526020015f205482111561049b575f80fd5b8160055f8673ffffffffffffffffffffffffffffffffffffffff1673ffffffffffffffffffffffffffffffffffffffff1681526020019081526020015f205f8282546104e79190610cbf565b925050819055508160055f8573ffffffffffffffffffffffffffffffffffffffff1673ffffffffffffffffffffffffffffffffffffffff1681526020019081526020015f205f82825461053a9190610cf2565b925050819055508160065f8673ffffffffffffffffffffffffffffffffffffffff1673ffffffffffffffffffffffffffffffffffffffff1681526020019081526020015f205f3373ffffffffffffffffffffffffffffffffffffffff1673ffffffffffffffffffffffffffffffffffffffff1681526020019081526020015f205f8282546105c89190610cbf565b925050819055508273ffffffffffffffffffffffffffffffffffffffff168473ffffffffffffffffffffffffffffffffffffffff167fddf252ad1be2c89b69c2b068fc378daa952ba7f163c4a11628f55a4df523b3ef8460405161062c9190610b07565b60405180910390a3600190509392505050565b601281565b6002805461065190610c62565b80601f016020809104026020016040519081016040528092919081815260200182805461067d90610c62565b80156106c85780601f1061069f576101008083540402835291602001916106c8565b820191905f5260205f20905b8154815290600101906020018083116106ab57829003601f168201915b505050505081565b6005602052805f5260405f205f915090505481565b60045f9054906101000a900473ffffffffffffffffffffffffffffffffffffffff1681565b6001805461071790610c62565b80601f016020809104026020016040519081016040528092919081815260200182805461074390610c62565b801561078e5780601f106107655761010080835404028352916020019161078e565b820191905f5260205f20905b81548152906001019060200180831161077157829003601f168201915b505050505081565b5f8160055f3373ffffffffffffffffffffffffffffffffffffffff1673ffffffffffffffffffffffffffffffffffffffff1681526020019081526020015f20541015610817576040517f08c379a000000000000000000000000000000000000000000000000000000000815260040161080e90610d6f565b60405180910390fd5b8160055f3373ffffffffffffffffffffffffffffffffffffffff1673ffffffffffffffffffffffffffffffffffffffff1681526020019081526020015f205f8282546108639190610cbf565b925050819055508160055f8573ffffffffffffffffffffffffffffffffffffffff1673ffffffffffffffffffffffffffffffffffffffff1681526020019081526020015f205f8282546108b69190610cf2565b925050819055508273ffffffffffffffffffffffffffffffffffffffff163373ffffffffffffffffffffffffffffffffffffffff167fddf252ad1be2c89b69c2b068fc378daa952ba7f163c4a11628f55a4df523b3ef8460405161091a9190610b07565b60405180910390a36001905092915050565b6006602052815f5260405f20602052805f5260405f205f91509150505481565b5f81519050919050565b5f82825260208201905092915050565b5f5b83811015610983578082015181840152602081019050610968565b5f8484015250505050565b5f601f19601f8301169050919050565b5f6109a88261094c565b6109b28185610956565b93506109c2818560208601610966565b6109cb8161098e565b840191505092915050565b5f6020820190508181035f8301526109ee818461099e565b905092915050565b5f80fd5b5f73ffffffffffffffffffffffffffffffffffffffff82169050919050565b5f610a23826109fa565b9050919050565b610a3381610a19565b8114610a3d575f80fd5b50565b5f81359050610a4e81610a2a565b92915050565b5f819050919050565b610a6681610a54565b8114610a70575f80fd5b50565b5f81359050610a8181610a5d565b92915050565b5f8060408385031215610a9d57610a9c6109f6565b5b5f610aaa85828601610a40565b9250506020610abb85828601610a73565b9150509250929050565b5f8115159050919050565b610ad981610ac5565b82525050565b5f602082019050610af25f830184610ad0565b92915050565b610b0181610a54565b82525050565b5f602082019050610b1a5f830184610af8565b92915050565b5f805f60608486031215610b3757610b366109f6565b5b5f610b4486828701610a40565b9350506020610b5586828701610a40565b9250506040610b6686828701610a73565b9150509250925092565b5f60ff82169050919050565b610b8581610b70565b82525050565b5f602082019050610b9e5f830184610b7c565b92915050565b5f60208284031215610bb957610bb86109f6565b5b5f610bc684828501610a40565b91505092915050565b610bd881610a19565b82525050565b5f602082019050610bf15f830184610bcf565b92915050565b5f8060408385031215610c0d57610c0c6109f6565b5b5f610c1a85828601610a40565b9250506020610c2b85828601610a40565b9150509250929050565b7f4e487b71000000000000000000000000000000000000000000000000000000005f52602260045260245ffd5b5f6002820490506001821680610c7957607f821691505b602082108103610c8c57610c8b610c35565b5b50919050565b7f4e487b71000000000000000000000000000000000000000000000000000000005f52601160045260245ffd5b5f610cc982610a54565b9150610cd483610a54565b9250828203905081811115610cec57610ceb610c92565b5b92915050565b5f610cfc82610a54565b9150610d0783610a54565b9250828201905080821115610d1f57610d1e610c92565b5b92915050565b7f496e73756666696369656e742062616c616e63650000000000000000000000005f82015250565b5f610d59601483610956565b9150610d6482610d25565b602082019050919050565b5f6020820190508181035f830152610d8681610d4d565b905091905056fea2646970667358221220bb1adcb2e4776f699e372e1559ff1f32f806781ca59135f72ea750a32f80ebc664736f6c63430008150033",
  "linkReferences": {},
  "deployedLinkReferences": {}
}