{
  "_format": "hh-sol-artifact-1",
  "contractName": "DappTokenSale",
  "sourceName": "contracts/DappTokenSale.sol",
  "abi": [
    {
      "inputs": [
        {
          "internalType": "contract DappToken",
          "name": "_tokenContract",
          "type": "address"
        },
        {
          "internalType": "uint256",
          "name": "_tokenPrice",
          "type": "uint256"
        }
      ],
      "stateMutability": "nonpayable",
      "type": "constructor"
    },
    {
      "anonymous": false,
      "inputs": [
        {
          "indexed": false,
          "internalType": "address",
          "name": "_buyer",
          "type": "address"
        },
        {
          "indexed": false,
          "internalType": "uint256",
          "name": "_amount",
          "type": "uint256"
        }
      ],
      "name": "Sell",
      "type": "event"
    },
    {
      "anonymous": false,
      "inputs": [
        {
          "indexed": false,
          "internalType": "address",
          "name": "account",
          "type": "address"
        },
        {
          "indexed": false,
          "internalType": "address",
          "name": "tokenContract",
          "type": "address"
        },
        {
          "indexed": false,
          "internalType": "uint256",
          "name": "amount",
          "type": "uint256"
        },
        {
          "indexed": false,
          "internalType": "uint256",
          "name": "tokenPrice",
          "type": "uint256"
        }
      ],
      "name": "TokensPurchased",
      "type": "event"
    },
    {
      "stateMutability": "payable",
      "type": "fallback"
    },
    {
      "inputs": [],
      "name": "admin",
      "outputs": [
        {
          "internalType": "address payable",
          "name": "",
          "type": "address"
        }
      ],
      "stateMutability": "view",
      "type": "function"
    },
    {
      "inputs": [
        {
          "internalType": "uint256",
          "name": "_numberOfTokens",
          "type": "uint256"
        }
      ],
      "name": "buyTokens",
      "outputs": [],
      "stateMutability": "payable",
      "type": "function"
    },
    {
      "inputs": [],
      "name": "endSale",
      "outputs": [],
      "stateMutability": "payable",
      "type": "function"
    },
    {
      "inputs": [],
      "name": "tokenContract",
      "outputs": [
        {
          "internalType": "contract DappToken",
          "name": "",
          "type": "address"
        }
      ],
      "stateMutability": "view",
      "type": "function"
    },
    {
      "inputs": [],
      "name": "tokenPrice",
      "outputs": [
        {
          "internalType": "uint256",
          "name": "",
          "type": "uint256"
        }
      ],
      "stateMutability": "view",
      "type": "function"
    },
    {
      "inputs": [],
      "name": "tokensSold",
      "outputs": [
        {
          "internalType": "uint256",
          "name": "",
          "type": "uint256"
        }
      ],
      "stateMutability": "view",
      "type": "function"
    },
    {
      "stateMutability": "payable",
      "type": "receive"
    }
  ],
  "bytecode": "0x608060405266038d7ea4c680006002553480156200001b575f80fd5b5060405162000f7238038062000f7283398181016040528101906200004191906200017f565b335f806101000a81548173ffffffffffffffffffffffffffffffffffffffff021916908373ffffffffffffffffffffffffffffffffffffffff1602179055508160015f6101000a81548173ffffffffffffffffffffffffffffffffffffffff021916908373ffffffffffffffffffffffffffffffffffffffff160217905550806002819055505050620001c4565b5f80fd5b5f73ffffffffffffffffffffffffffffffffffffffff82169050919050565b5f620000fe82620000d3565b9050919050565b5f6200011182620000f2565b9050919050565b620001238162000105565b81146200012e575f80fd5b50565b5f81519050620001418162000118565b92915050565b5f819050919050565b6200015b8162000147565b811462000166575f80fd5b50565b5f81519050620001798162000150565b92915050565b5f8060408385031215620001985762000197620000cf565b5b5f620001a78582860162000131565b9250506020620001ba8582860162000169565b9150509250929050565b610da080620001d25f395ff3fe608060405260043610610058575f3560e01c80633610724e14610061578063380d831b1461007d578063518ab2a81461008757806355a373d6146100b15780637ff9b596146100db578063f851a440146101055761005f565b3661005f57005b005b61007b6004803603810190610076919061081f565b61012f565b005b610085610429565b005b348015610092575f80fd5b5061009b6106ad565b6040516100a89190610859565b60405180910390f35b3480156100bc575f80fd5b506100c56106b3565b6040516100d291906108ec565b60405180910390f35b3480156100e6575f80fd5b506100ef6106d8565b6040516100fc9190610859565b60405180910390f35b348015610110575f80fd5b506101196106de565b6040516101269190610925565b60405180910390f35b6002548161013d919061096b565b341461017e576040517f08c379a000000000000000000000000000000000000000000000000000000000815260040161017590610a06565b60405180910390fd5b61021f60015f9054906101000a900473ffffffffffffffffffffffffffffffffffffffff1673ffffffffffffffffffffffffffffffffffffffff166370a08231306040518263ffffffff1660e01b81526004016101db9190610a44565b602060405180830381865afa1580156101f6573d5f803e3d5ffd5b505050506040513d601f19601f8201168201806040525081019061021a9190610a71565b610701565b8060015f9054906101000a900473ffffffffffffffffffffffffffffffffffffffff1673ffffffffffffffffffffffffffffffffffffffff166370a08231306040518263ffffffff1660e01b815260040161027a9190610a44565b602060405180830381865afa158015610295573d5f803e3d5ffd5b505050506040513d601f19601f820116820180604052508101906102b99190610a71565b10156102fa576040517f08c379a00000000000000000000000000000000000000000000000000000000081526004016102f190610ae6565b60405180910390fd5b60015f9054906101000a900473ffffffffffffffffffffffffffffffffffffffff1673ffffffffffffffffffffffffffffffffffffffff1663a9059cbb33836040518363ffffffff1660e01b8152600401610356929190610b04565b6020604051808303815f875af1158015610372573d5f803e3d5ffd5b505050506040513d601f19601f820116820180604052508101906103969190610b60565b6103d5576040517f08c379a00000000000000000000000000000000000000000000000000000000081526004016103cc90610bd5565b60405180910390fd5b8060035f8282546103e69190610bf3565b925050819055507f5e5e995ce3133561afceaa51a9a154d5db228cd7525d34df5185582c18d3df09338260405161041e929190610b04565b60405180910390a150565b5f8054906101000a900473ffffffffffffffffffffffffffffffffffffffff1673ffffffffffffffffffffffffffffffffffffffff163373ffffffffffffffffffffffffffffffffffffffff16146104b6576040517f08c379a00000000000000000000000000000000000000000000000000000000081526004016104ad90610c70565b60405180910390fd5b60015f9054906101000a900473ffffffffffffffffffffffffffffffffffffffff1673ffffffffffffffffffffffffffffffffffffffff1663a9059cbb5f8054906101000a900473ffffffffffffffffffffffffffffffffffffffff1660015f9054906101000a900473ffffffffffffffffffffffffffffffffffffffff1673ffffffffffffffffffffffffffffffffffffffff166370a08231306040518263ffffffff1660e01b815260040161056d9190610a44565b602060405180830381865afa158015610588573d5f803e3d5ffd5b505050506040513d601f19601f820116820180604052508101906105ac9190610a71565b6040518363ffffffff1660e01b81526004016105c9929190610cae565b6020604051808303815f875af11580156105e5573d5f803e3d5ffd5b505050506040513d601f19601f820116820180604052508101906106099190610b60565b610648576040517f08c379a000000000000000000000000000000000000000000000000000000000815260040161063f90610d1f565b60405180910390fd5b5f8054906101000a900473ffffffffffffffffffffffffffffffffffffffff1673ffffffffffffffffffffffffffffffffffffffff166108fc4790811502906040515f60405180830381858888f193505050501580156106aa573d5f803e3d5ffd5b50565b60035481565b60015f9054906101000a900473ffffffffffffffffffffffffffffffffffffffff1681565b60025481565b5f8054906101000a900473ffffffffffffffffffffffffffffffffffffffff1681565b610797816040516024016107159190610859565b6040516020818303038152906040527ff82c50f1000000000000000000000000000000000000000000000000000000007bffffffffffffffffffffffffffffffffffffffffffffffffffffffff19166020820180517bffffffffffffffffffffffffffffffffffffffffffffffffffffffff838183161783525050505061079a565b50565b6107b1816107a96107b46107d3565b63ffffffff16565b50565b5f6a636f6e736f6c652e6c6f6790505f80835160208501845afa505050565b6107de819050919050565b6107e6610d3d565b565b5f80fd5b5f819050919050565b6107fe816107ec565b8114610808575f80fd5b50565b5f81359050610819816107f5565b92915050565b5f60208284031215610834576108336107e8565b5b5f6108418482850161080b565b91505092915050565b610853816107ec565b82525050565b5f60208201905061086c5f83018461084a565b92915050565b5f73ffffffffffffffffffffffffffffffffffffffff82169050919050565b5f819050919050565b5f6108b46108af6108aa84610872565b610891565b610872565b9050919050565b5f6108c58261089a565b9050919050565b5f6108d6826108bb565b9050919050565b6108e6816108cc565b82525050565b5f6020820190506108ff5f8301846108dd565b92915050565b5f61090f82610872565b9050919050565b61091f81610905565b82525050565b5f6020820190506109385f830184610916565b92915050565b7f4e487b71000000000000000000000000000000000000000000000000000000005f52601160045260245ffd5b5f610975826107ec565b9150610980836107ec565b925082820261098e816107ec565b915082820484148315176109a5576109a461093e565b5b5092915050565b5f82825260208201905092915050565b7f496e636f72726563742076616c75652073656e740000000000000000000000005f82015250565b5f6109f06014836109ac565b91506109fb826109bc565b602082019050919050565b5f6020820190508181035f830152610a1d816109e4565b9050919050565b5f610a2e82610872565b9050919050565b610a3e81610a24565b82525050565b5f602082019050610a575f830184610a35565b92915050565b5f81519050610a6b816107f5565b92915050565b5f60208284031215610a8657610a856107e8565b5b5f610a9384828501610a5d565b91505092915050565b7f4e6f7420656e6f75676820746f6b656e7320617661696c61626c6500000000005f82015250565b5f610ad0601b836109ac565b9150610adb82610a9c565b602082019050919050565b5f6020820190508181035f830152610afd81610ac4565b9050919050565b5f604082019050610b175f830185610a35565b610b24602083018461084a565b9392505050565b5f8115159050919050565b610b3f81610b2b565b8114610b49575f80fd5b50565b5f81519050610b5a81610b36565b92915050565b5f60208284031215610b7557610b746107e8565b5b5f610b8284828501610b4c565b91505092915050565b7f546f6b656e207472616e73666572206661696c656400000000000000000000005f82015250565b5f610bbf6015836109ac565b9150610bca82610b8b565b602082019050919050565b5f6020820190508181035f830152610bec81610bb3565b9050919050565b5f610bfd826107ec565b9150610c08836107ec565b9250828201905080821115610c2057610c1f61093e565b5b92915050565b7f4f6e6c79207468652061646d696e2063616e20656e64207468652073616c65005f82015250565b5f610c5a601f836109ac565b9150610c6582610c26565b602082019050919050565b5f6020820190508181035f830152610c8781610c4e565b9050919050565b5f610c98826108bb565b9050919050565b610ca881610c8e565b82525050565b5f604082019050610cc15f830185610c9f565b610cce602083018461084a565b9392505050565b7f546f6b656e207472616e7366657220746f2061646d696e206661696c656400005f82015250565b5f610d09601e836109ac565b9150610d1482610cd5565b602082019050919050565b5f6020820190508181035f830152610d3681610cfd565b9050919050565b7f4e487b71000000000000000000000000000000000000000000000000000000005f52605160045260245ffdfea26469706673582212206984c5b8100f437fb97b38ee59d7cd7e692809f146af5598ea26b91b046d899664736f6c63430008150033",
  "linkReferences": {},
  "deployedLinkReferences": {}
}