{
  "_format": "hh-sol-artifact-1",
  "contractName": "DappToken",
  "sourceName": "contracts/DappToken.sol",
  "abi": [
    {
      "inputs": [
        {
          "internalType": "uint256",
          "name": "_initialSupply",
          "type": "uint256"
        }
      ],
      "stateMutability": "nonpayable",
      "type": "constructor"
    },
    {
      "anonymous": false,
      "inputs": [
        {
          "indexed": true,
          "internalType": "address",
          "name": "_owner",
          "type": "address"
        },
        {
          "indexed": true,
          "internalType": "address",
          "name": "_spender",
          "type": "address"
        },
        {
          "indexed": false,
          "internalType": "uint256",
          "name": "_value",
          "type": "uint256"
        }
      ],
      "name": "Approval",
      "type": "event"
    },
    {
      "anonymous": false,
      "inputs": [
        {
          "indexed": true,
          "internalType": "address",
          "name": "_from",
          "type": "address"
        },
        {
          "indexed": true,
          "internalType": "address",
          "name": "_to",
          "type": "address"
        },
        {
          "indexed": false,
          "internalType": "uint256",
          "name": "value",
          "type": "uint256"
        }
      ],
      "name": "Transfer",
      "type": "event"
    },
    {
      "inputs": [
        {
          "internalType": "address",
          "name": "",
          "type": "address"
        },
        {
          "internalType": "address",
          "name": "",
          "type": "address"
        }
      ],
      "name": "allowance",
      "outputs": [
        {
          "internalType": "uint256",
          "name": "",
          "type": "uint256"
        }
      ],
      "stateMutability": "view",
      "type": "function"
    },
    {
      "inputs": [
        {
          "internalType": "address",
          "name": "_spender",
          "type": "address"
        },
        {
          "internalType": "uint256",
          "name": "_value",
          "type": "uint256"
        }
      ],
      "name": "approve",
      "outputs": [
        {
          "internalType": "bool",
          "name": "",
          "type": "bool"
        }
      ],
      "stateMutability": "nonpayable",
      "type": "function"
    },
    {
      "inputs": [
        {
          "internalType": "address",
          "name": "",
          "type": "address"
        }
      ],
      "name": "balanceOf",
      "outputs": [
        {
          "internalType": "uint256",
          "name": "",
          "type": "uint256"
        }
      ],
      "stateMutability": "view",
      "type": "function"
    },
    {
      "inputs": [],
      "name": "decimals",
      "outputs": [
        {
          "internalType": "uint8",
          "name": "",
          "type": "uint8"
        }
      ],
      "stateMutability": "view",
      "type": "function"
    },
    {
      "inputs": [
        {
          "internalType": "address",
          "name": "to",
          "type": "address"
        },
        {
          "internalType": "uint256",
          "name": "amount",
          "type": "uint256"
        }
      ],
      "name": "mint",
      "outputs": [],
      "stateMutability": "nonpayable",
      "type": "function"
    },
    {
      "inputs": [],
      "name": "name",
      "outputs": [
        {
          "internalType": "string",
          "name": "",
          "type": "string"
        }
      ],
      "stateMutability": "view",
      "type": "function"
    },
    {
      "inputs": [],
      "name": "owner",
      "outputs": [
        {
          "internalType": "address",
          "name": "",
          "type": "address"
        }
      ],
      "stateMutability": "view",
      "type": "function"
    },
    {
      "inputs": [],
      "name": "standard",
      "outputs": [
        {
          "internalType": "string",
          "name": "",
          "type": "string"
        }
      ],
      "stateMutability": "view",
      "type": "function"
    },
    {
      "inputs": [],
      "name": "symbol",
      "outputs": [
        {
          "internalType": "string",
          "name": "",
          "type": "string"
        }
      ],
      "stateMutability": "view",
      "type": "function"
    },
    {
      "inputs": [],
      "name": "totalSupply",
      "outputs": [
        {
          "internalType": "uint256",
          "name": "",
          "type": "uint256"
        }
      ],
      "stateMutability": "view",
      "type": "function"
    },
    {
      "inputs": [
        {
          "internalType": "address",
          "name": "_to",
          "type": "address"
        },
        {
          "internalType": "uint256",
          "name": "_value",
          "type": "uint256"
        }
      ],
      "name": "transfer",
      "outputs": [
        {
          "internalType": "bool",
          "name": "",
          "type": "bool"
        }
      ],
      "stateMutability": "nonpayable",
      "type": "function"
    },
    {
      "inputs": [
        {
          "internalType": "address",
          "name": "_from",
          "type": "address"
        },
        {
          "internalType": "address",
          "name": "_to",
          "type": "address"
        },
        {
          "internalType": "uint256",
          "name": "_value",
          "type": "uint256"
        }
      ],
      "name": "transferFrom",
      "outputs": [
        {
          "internalType": "bool",
          "name": "",
          "type": "bool"
        }
      ],
      "stateMutability": "nonpayable",
      "type": "function"
    }
  ],
  "bytecode": "0x60806040526040518060400160405280600a81526020017f466f737361546f6b656e000000000000000000000000000000000000000000008152505f908162000049919062000404565b506040518060400160405280600581526020017f464f5353410000000000000000000000000000000000000000000000000000008152506001908162000090919062000404565b506040518060400160405280601081526020017f466f73736120546f6b656e2076312e300000000000000000000000000000000081525060029081620000d7919062000404565b506103e8600355348015620000ea575f80fd5b50604051620018573803806200185783398181016040528101906200011091906200051b565b8060055f3373ffffffffffffffffffffffffffffffffffffffff1673ffffffffffffffffffffffffffffffffffffffff1681526020019081526020015f2081905550806003819055503360045f6101000a81548173ffffffffffffffffffffffffffffffffffffffff021916908373ffffffffffffffffffffffffffffffffffffffff160217905550506200054b565b5f81519050919050565b7f4e487b71000000000000000000000000000000000000000000000000000000005f52604160045260245ffd5b7f4e487b71000000000000000000000000000000000000000000000000000000005f52602260045260245ffd5b5f60028204905060018216806200021c57607f821691505b602082108103620002325762000231620001d7565b5b50919050565b5f819050815f5260205f209050919050565b5f6020601f8301049050919050565b5f82821b905092915050565b5f60088302620002967fffffffffffffffffffffffffffffffffffffffffffffffffffffffffffffffff8262000259565b620002a2868362000259565b95508019841693508086168417925050509392505050565b5f819050919050565b5f819050919050565b5f620002ec620002e6620002e084620002ba565b620002c3565b620002ba565b9050919050565b5f819050919050565b6200030783620002cc565b6200031f6200031682620002f3565b84845462000265565b825550505050565b5f90565b6200033562000327565b62000342818484620002fc565b505050565b5b8181101562000369576200035d5f826200032b565b60018101905062000348565b5050565b601f821115620003b857620003828162000238565b6200038d846200024a565b810160208510156200039d578190505b620003b5620003ac856200024a565b83018262000347565b50505b505050565b5f82821c905092915050565b5f620003da5f1984600802620003bd565b1980831691505092915050565b5f620003f48383620003c9565b9150826002028217905092915050565b6200040f82620001a0565b67ffffffffffffffff8111156200042b576200042a620001aa565b5b62000437825462000204565b620004448282856200036d565b5f60209050601f8311600181146200047a575f841562000465578287015190505b620004718582620003e7565b865550620004e0565b601f1984166200048a8662000238565b5f5b82811015620004b3578489015182556001820191506020850194506020810190506200048c565b86831015620004d35784890151620004cf601f891682620003c9565b8355505b6001600288020188555050505b505050505050565b5f80fd5b620004f781620002ba565b811462000502575f80fd5b50565b5f815190506200051581620004ec565b92915050565b5f60208284031215620005335762000532620004e8565b5b5f620005428482850162000505565b91505092915050565b6112fe80620005595f395ff3fe608060405234801561000f575f80fd5b50600436106100b2575f3560e01c80635a3b7e421161006f5780635a3b7e421461018c57806370a08231146101aa5780638da5cb5b146101da57806395d89b41146101f8578063a9059cbb14610216578063dd62ed3e14610246576100b2565b806306fdde03146100b6578063095ea7b3146100d457806318160ddd1461010457806323b872dd14610122578063313ce5671461015257806340c10f1914610170575b5f80fd5b6100be610276565b6040516100cb9190610d1e565b60405180910390f35b6100ee60048036038101906100e99190610dcf565b610301565b6040516100fb9190610e27565b60405180910390f35b61010c61045c565b6040516101199190610e4f565b60405180910390f35b61013c60048036038101906101379190610e68565b610462565b6040516101499190610e27565b60405180910390f35b61015a61070b565b6040516101679190610ed3565b60405180910390f35b61018a60048036038101906101859190610dcf565b61070f565b005b61019461089c565b6040516101a19190610d1e565b60405180910390f35b6101c460048036038101906101bf9190610eec565b610928565b6040516101d19190610e4f565b60405180910390f35b6101e261093d565b6040516101ef9190610f26565b60405180910390f35b610200610962565b60405161020d9190610d1e565b60405180910390f35b610230600480360381019061022b9190610dcf565b6109ee565b60405161023d9190610e27565b60405180910390f35b610260600480360381019061025b9190610f3f565b610b8d565b60405161026d9190610e4f565b60405180910390f35b5f805461028290610faa565b80601f01602080910402602001604051908101604052809291908181526020018280546102ae90610faa565b80156102f95780601f106102d0576101008083540402835291602001916102f9565b820191905f5260205f20905b8154815290600101906020018083116102dc57829003601f168201915b505050505081565b5f8073ffffffffffffffffffffffffffffffffffffffff168373ffffffffffffffffffffffffffffffffffffffff1603610370576040517f08c379a000000000000000000000000000000000000000000000000000000000815260040161036790611024565b60405180910390fd5b8160065f3373ffffffffffffffffffffffffffffffffffffffff1673ffffffffffffffffffffffffffffffffffffffff1681526020019081526020015f205f8573ffffffffffffffffffffffffffffffffffffffff1673ffffffffffffffffffffffffffffffffffffffff1681526020019081526020015f20819055508273ffffffffffffffffffffffffffffffffffffffff163373ffffffffffffffffffffffffffffffffffffffff167f8c5be1e5ebec7d5bd14f71427d1e84f3dd0314c0f7b2291e5b200ac8c7c3b9258460405161044a9190610e4f565b60405180910390a36001905092915050565b60035481565b5f60055f8573ffffffffffffffffffffffffffffffffffffffff1673ffffffffffffffffffffffffffffffffffffffff1681526020019081526020015f20548211156104ac575f80fd5b60065f8573ffffffffffffffffffffffffffffffffffffffff1673ffffffffffffffffffffffffffffffffffffffff1681526020019081526020015f205f3373ffffffffffffffffffffffffffffffffffffffff1673ffffffffffffffffffffffffffffffffffffffff1681526020019081526020015f2054821115610567576040517f08c379a000000000000000000000000000000000000000000000000000000000815260040161055e9061108c565b60405180910390fd5b8160055f8673ffffffffffffffffffffffffffffffffffffffff1673ffffffffffffffffffffffffffffffffffffffff1681526020019081526020015f205f8282546105b391906110d7565b925050819055508160055f8573ffffffffffffffffffffffffffffffffffffffff1673ffffffffffffffffffffffffffffffffffffffff1681526020019081526020015f205f828254610606919061110a565b925050819055508160065f8673ffffffffffffffffffffffffffffffffffffffff1673ffffffffffffffffffffffffffffffffffffffff1681526020019081526020015f205f3373ffffffffffffffffffffffffffffffffffffffff1673ffffffffffffffffffffffffffffffffffffffff1681526020019081526020015f205f82825461069491906110d7565b925050819055508273ffffffffffffffffffffffffffffffffffffffff168473ffffffffffffffffffffffffffffffffffffffff167fddf252ad1be2c89b69c2b068fc378daa952ba7f163c4a11628f55a4df523b3ef846040516106f89190610e4f565b60405180910390a3600190509392505050565b5f81565b60045f9054906101000a900473ffffffffffffffffffffffffffffffffffffffff1673ffffffffffffffffffffffffffffffffffffffff163373ffffffffffffffffffffffffffffffffffffffff161461079e576040517f08c379a000000000000000000000000000000000000000000000000000000000815260040161079590611187565b60405180910390fd5b5f81116107e0576040517f08c379a00000000000000000000000000000000000000000000000000000000081526004016107d790611215565b60405180910390fd5b8060055f8473ffffffffffffffffffffffffffffffffffffffff1673ffffffffffffffffffffffffffffffffffffffff1681526020019081526020015f205f82825461082c919061110a565b925050819055508173ffffffffffffffffffffffffffffffffffffffff165f73ffffffffffffffffffffffffffffffffffffffff167fddf252ad1be2c89b69c2b068fc378daa952ba7f163c4a11628f55a4df523b3ef836040516108909190610e4f565b60405180910390a35050565b600280546108a990610faa565b80601f01602080910402602001604051908101604052809291908181526020018280546108d590610faa565b80156109205780601f106108f757610100808354040283529160200191610920565b820191905f5260205f20905b81548152906001019060200180831161090357829003601f168201915b505050505081565b6005602052805f5260405f205f915090505481565b60045f9054906101000a900473ffffffffffffffffffffffffffffffffffffffff1681565b6001805461096f90610faa565b80601f016020809104026020016040519081016040528092919081815260200182805461099b90610faa565b80156109e65780601f106109bd576101008083540402835291602001916109e6565b820191905f5260205f20905b8154815290600101906020018083116109c957829003601f168201915b505050505081565b5f6109f882610bad565b8160055f3373ffffffffffffffffffffffffffffffffffffffff1673ffffffffffffffffffffffffffffffffffffffff1681526020019081526020015f20541015610a78576040517f08c379a0000000000000000000000000000000000000000000000000000000008152600401610a6f9061127d565b60405180910390fd5b8160055f3373ffffffffffffffffffffffffffffffffffffffff1673ffffffffffffffffffffffffffffffffffffffff1681526020019081526020015f205f828254610ac491906110d7565b925050819055508160055f8573ffffffffffffffffffffffffffffffffffffffff1673ffffffffffffffffffffffffffffffffffffffff1681526020019081526020015f205f828254610b17919061110a565b925050819055508273ffffffffffffffffffffffffffffffffffffffff163373ffffffffffffffffffffffffffffffffffffffff167fddf252ad1be2c89b69c2b068fc378daa952ba7f163c4a11628f55a4df523b3ef84604051610b7b9190610e4f565b60405180910390a36001905092915050565b6006602052815f5260405f20602052805f5260405f205f91509150505481565b610c4381604051602401610bc19190610e4f565b6040516020818303038152906040527ff82c50f1000000000000000000000000000000000000000000000000000000007bffffffffffffffffffffffffffffffffffffffffffffffffffffffff19166020820180517bffffffffffffffffffffffffffffffffffffffffffffffffffffffff8381831617835250505050610c46565b50565b610c5d81610c55610c60610c7f565b63ffffffff16565b50565b5f6a636f6e736f6c652e6c6f6790505f80835160208501845afa505050565b610c8a819050919050565b610c9261129b565b565b5f81519050919050565b5f82825260208201905092915050565b5f5b83811015610ccb578082015181840152602081019050610cb0565b5f8484015250505050565b5f601f19601f8301169050919050565b5f610cf082610c94565b610cfa8185610c9e565b9350610d0a818560208601610cae565b610d1381610cd6565b840191505092915050565b5f6020820190508181035f830152610d368184610ce6565b905092915050565b5f80fd5b5f73ffffffffffffffffffffffffffffffffffffffff82169050919050565b5f610d6b82610d42565b9050919050565b610d7b81610d61565b8114610d85575f80fd5b50565b5f81359050610d9681610d72565b92915050565b5f819050919050565b610dae81610d9c565b8114610db8575f80fd5b50565b5f81359050610dc981610da5565b92915050565b5f8060408385031215610de557610de4610d3e565b5b5f610df285828601610d88565b9250506020610e0385828601610dbb565b9150509250929050565b5f8115159050919050565b610e2181610e0d565b82525050565b5f602082019050610e3a5f830184610e18565b92915050565b610e4981610d9c565b82525050565b5f602082019050610e625f830184610e40565b92915050565b5f805f60608486031215610e7f57610e7e610d3e565b5b5f610e8c86828701610d88565b9350506020610e9d86828701610d88565b9250506040610eae86828701610dbb565b9150509250925092565b5f60ff82169050919050565b610ecd81610eb8565b82525050565b5f602082019050610ee65f830184610ec4565b92915050565b5f60208284031215610f0157610f00610d3e565b5b5f610f0e84828501610d88565b91505092915050565b610f2081610d61565b82525050565b5f602082019050610f395f830184610f17565b92915050565b5f8060408385031215610f5557610f54610d3e565b5b5f610f6285828601610d88565b9250506020610f7385828601610d88565b9150509250929050565b7f4e487b71000000000000000000000000000000000000000000000000000000005f52602260045260245ffd5b5f6002820490506001821680610fc157607f821691505b602082108103610fd457610fd3610f7d565b5b50919050565b7f496e76616c6964207370656e64657220616464726573730000000000000000005f82015250565b5f61100e601783610c9e565b915061101982610fda565b602082019050919050565b5f6020820190508181035f83015261103b81611002565b9050919050565b7f616c6c6f77616e6365206973206e6f742062696720656e6f75676874000000005f82015250565b5f611076601c83610c9e565b915061108182611042565b602082019050919050565b5f6020820190508181035f8301526110a38161106a565b9050919050565b7f4e487b71000000000000000000000000000000000000000000000000000000005f52601160045260245ffd5b5f6110e182610d9c565b91506110ec83610d9c565b9250828203905081811115611104576111036110aa565b5b92915050565b5f61111482610d9c565b915061111f83610d9c565b9250828201905080821115611137576111366110aa565b5b92915050565b7f4f6e6c79206f776e65722063616e206d696e74000000000000000000000000005f82015250565b5f611171601383610c9e565b915061117c8261113d565b602082019050919050565b5f6020820190508181035f83015261119e81611165565b9050919050565b7f4d696e7420616d6f756e74206d7573742062652067726561746572207468616e5f8201527f207a65726f000000000000000000000000000000000000000000000000000000602082015250565b5f6111ff602583610c9e565b915061120a826111a5565b604082019050919050565b5f6020820190508181035f83015261122c816111f3565b9050919050565b7f496e73756666696369656e742062616c616e63650000000000000000000000005f82015250565b5f611267601483610c9e565b915061127282611233565b602082019050919050565b5f6020820190508181035f8301526112948161125b565b9050919050565b7f4e487b71000000000000000000000000000000000000000000000000000000005f52605160045260245ffdfea2646970667358221220488bd5ca4abb7ed8b505e9322e7c2aeac77c0183cc61b768ceeee8df1726e96b64736f6c63430008160033",
  "linkReferences": {},
  "deployedLinkReferences": {}
}