{
  "_format": "hh-sol-artifact-1",
  "contractName": "DappToken",
  "sourceName": "contracts/DappToken.sol",
  "abi": [
    {
      "inputs": [
        {
          "internalType": "uint256",
          "name": "_initialSupply",
          "type": "uint256"
        }
      ],
      "stateMutability": "nonpayable",
      "type": "constructor"
    },
    {
      "anonymous": false,
      "inputs": [
        {
          "indexed": true,
          "internalType": "address",
          "name": "_owner",
          "type": "address"
        },
        {
          "indexed": true,
          "internalType": "address",
          "name": "_spender",
          "type": "address"
        },
        {
          "indexed": false,
          "internalType": "uint256",
          "name": "_value",
          "type": "uint256"
        }
      ],
      "name": "Approval",
      "type": "event"
    },
    {
      "anonymous": false,
      "inputs": [
        {
          "indexed": true,
          "internalType": "address",
          "name": "_from",
          "type": "address"
        },
        {
          "indexed": true,
          "internalType": "address",
          "name": "_to",
          "type": "address"
        },
        {
          "indexed": false,
          "internalType": "uint256",
          "name": "value",
          "type": "uint256"
        }
      ],
      "name": "Transfer",
      "type": "event"
    },
    {
      "inputs": [
        {
          "internalType": "address",
          "name": "",
          "type": "address"
        },
        {
          "internalType": "address",
          "name": "",
          "type": "address"
        }
      ],
      "name": "allowance",
      "outputs": [
        {
          "internalType": "uint256",
          "name": "",
          "type": "uint256"
        }
      ],
      "stateMutability": "view",
      "type": "function"
    },
    {
      "inputs": [
        {
          "internalType": "address",
          "name": "_spender",
          "type": "address"
        },
        {
          "internalType": "uint256",
          "name": "_value",
          "type": "uint256"
        }
      ],
      "name": "approve",
      "outputs": [
        {
          "internalType": "bool",
          "name": "",
          "type": "bool"
        }
      ],
      "stateMutability": "nonpayable",
      "type": "function"
    },
    {
      "inputs": [
        {
          "internalType": "address",
          "name": "",
          "type": "address"
        }
      ],
      "name": "balanceOf",
      "outputs": [
        {
          "internalType": "uint256",
          "name": "",
          "type": "uint256"
        }
      ],
      "stateMutability": "view",
      "type": "function"
    },
    {
      "inputs": [],
      "name": "decimals",
      "outputs": [
        {
          "internalType": "uint8",
          "name": "",
          "type": "uint8"
        }
      ],
      "stateMutability": "view",
      "type": "function"
    },
    {
      "inputs": [],
      "name": "name",
      "outputs": [
        {
          "internalType": "string",
          "name": "",
          "type": "string"
        }
      ],
      "stateMutability": "view",
      "type": "function"
    },
    {
      "inputs": [],
      "name": "owner",
      "outputs": [
        {
          "internalType": "address",
          "name": "",
          "type": "address"
        }
      ],
      "stateMutability": "view",
      "type": "function"
    },
    {
      "inputs": [],
      "name": "standard",
      "outputs": [
        {
          "internalType": "string",
          "name": "",
          "type": "string"
        }
      ],
      "stateMutability": "view",
      "type": "function"
    },
    {
      "inputs": [],
      "name": "symbol",
      "outputs": [
        {
          "internalType": "string",
          "name": "",
          "type": "string"
        }
      ],
      "stateMutability": "view",
      "type": "function"
    },
    {
      "inputs": [],
      "name": "totalSupply",
      "outputs": [
        {
          "internalType": "uint256",
          "name": "",
          "type": "uint256"
        }
      ],
      "stateMutability": "view",
      "type": "function"
    },
    {
      "inputs": [
        {
          "internalType": "address",
          "name": "_to",
          "type": "address"
        },
        {
          "internalType": "uint256",
          "name": "_value",
          "type": "uint256"
        }
      ],
      "name": "transfer",
      "outputs": [
        {
          "internalType": "bool",
          "name": "",
          "type": "bool"
        }
      ],
      "stateMutability": "nonpayable",
      "type": "function"
    },
    {
      "inputs": [
        {
          "internalType": "address",
          "name": "_from",
          "type": "address"
        },
        {
          "internalType": "address",
          "name": "_to",
          "type": "address"
        },
        {
          "internalType": "uint256",
          "name": "_value",
          "type": "uint256"
        }
      ],
      "name": "transferFrom",
      "outputs": [
        {
          "internalType": "bool",
          "name": "",
          "type": "bool"
        }
      ],
      "stateMutability": "nonpayable",
      "type": "function"
    }
  ],
  "bytecode": "0x60806040526040518060400160405280600a81526020017f466f737361546f6b656e000000000000000000000000000000000000000000008152505f9081620000499190620003c5565b506040518060400160405280600581526020017f464f53534100000000000000000000000000000000000000000000000000000081525060019081620000909190620003c5565b506040518060400160405280601081526020017f466f73736120546f6b656e2076312e300000000000000000000000000000000081525060029081620000d79190620003c5565b50620f4240600355348015620000eb575f80fd5b506040516200156e3803806200156e8339818101604052810190620001119190620004dc565b8060055f3373ffffffffffffffffffffffffffffffffffffffff1673ffffffffffffffffffffffffffffffffffffffff1681526020019081526020015f208190555080600381905550506200050c565b5f81519050919050565b7f4e487b71000000000000000000000000000000000000000000000000000000005f52604160045260245ffd5b7f4e487b71000000000000000000000000000000000000000000000000000000005f52602260045260245ffd5b5f6002820490506001821680620001dd57607f821691505b602082108103620001f357620001f262000198565b5b50919050565b5f819050815f5260205f209050919050565b5f6020601f8301049050919050565b5f82821b905092915050565b5f60088302620002577fffffffffffffffffffffffffffffffffffffffffffffffffffffffffffffffff826200021a565b6200026386836200021a565b95508019841693508086168417925050509392505050565b5f819050919050565b5f819050919050565b5f620002ad620002a7620002a1846200027b565b62000284565b6200027b565b9050919050565b5f819050919050565b620002c8836200028d565b620002e0620002d782620002b4565b84845462000226565b825550505050565b5f90565b620002f6620002e8565b62000303818484620002bd565b505050565b5b818110156200032a576200031e5f82620002ec565b60018101905062000309565b5050565b601f82111562000379576200034381620001f9565b6200034e846200020b565b810160208510156200035e578190505b620003766200036d856200020b565b83018262000308565b50505b505050565b5f82821c905092915050565b5f6200039b5f19846008026200037e565b1980831691505092915050565b5f620003b583836200038a565b9150826002028217905092915050565b620003d08262000161565b67ffffffffffffffff811115620003ec57620003eb6200016b565b5b620003f88254620001c5565b620004058282856200032e565b5f60209050601f8311600181146200043b575f841562000426578287015190505b620004328582620003a8565b865550620004a1565b601f1984166200044b86620001f9565b5f5b8281101562000474578489015182556001820191506020850194506020810190506200044d565b8683101562000494578489015162000490601f8916826200038a565b8355505b6001600288020188555050505b505050505050565b5f80fd5b620004b8816200027b565b8114620004c3575f80fd5b50565b5f81519050620004d681620004ad565b92915050565b5f60208284031215620004f457620004f3620004a9565b5b5f6200050384828501620004c6565b91505092915050565b611054806200051a5f395ff3fe608060405234801561000f575f80fd5b50600436106100a7575f3560e01c80635a3b7e421161006f5780635a3b7e421461016557806370a08231146101835780638da5cb5b146101b357806395d89b41146101d1578063a9059cbb146101ef578063dd62ed3e1461021f576100a7565b806306fdde03146100ab578063095ea7b3146100c957806318160ddd146100f957806323b872dd14610117578063313ce56714610147575b5f80fd5b6100b361024f565b6040516100c09190610b6a565b60405180910390f35b6100e360048036038101906100de9190610c1b565b6102da565b6040516100f09190610c73565b60405180910390f35b610101610435565b60405161010e9190610c9b565b60405180910390f35b610131600480360381019061012c9190610cb4565b61043b565b60405161013e9190610c73565b60405180910390f35b61014f6106e4565b60405161015c9190610d1f565b60405180910390f35b61016d6106e8565b60405161017a9190610b6a565b60405180910390f35b61019d60048036038101906101989190610d38565b610774565b6040516101aa9190610c9b565b60405180910390f35b6101bb610789565b6040516101c89190610d72565b60405180910390f35b6101d96107ae565b6040516101e69190610b6a565b60405180910390f35b61020960048036038101906102049190610c1b565b61083a565b6040516102169190610c73565b60405180910390f35b61023960048036038101906102349190610d8b565b6109d9565b6040516102469190610c9b565b60405180910390f35b5f805461025b90610df6565b80601f016020809104026020016040519081016040528092919081815260200182805461028790610df6565b80156102d25780601f106102a9576101008083540402835291602001916102d2565b820191905f5260205f20905b8154815290600101906020018083116102b557829003601f168201915b505050505081565b5f8073ffffffffffffffffffffffffffffffffffffffff168373ffffffffffffffffffffffffffffffffffffffff1603610349576040517f08c379a000000000000000000000000000000000000000000000000000000000815260040161034090610e70565b60405180910390fd5b8160065f3373ffffffffffffffffffffffffffffffffffffffff1673ffffffffffffffffffffffffffffffffffffffff1681526020019081526020015f205f8573ffffffffffffffffffffffffffffffffffffffff1673ffffffffffffffffffffffffffffffffffffffff1681526020019081526020015f20819055508273ffffffffffffffffffffffffffffffffffffffff163373ffffffffffffffffffffffffffffffffffffffff167f8c5be1e5ebec7d5bd14f71427d1e84f3dd0314c0f7b2291e5b200ac8c7c3b925846040516104239190610c9b565b60405180910390a36001905092915050565b60035481565b5f60055f8573ffffffffffffffffffffffffffffffffffffffff1673ffffffffffffffffffffffffffffffffffffffff1681526020019081526020015f2054821115610485575f80fd5b60065f8573ffffffffffffffffffffffffffffffffffffffff1673ffffffffffffffffffffffffffffffffffffffff1681526020019081526020015f205f3373ffffffffffffffffffffffffffffffffffffffff1673ffffffffffffffffffffffffffffffffffffffff1681526020019081526020015f2054821115610540576040517f08c379a000000000000000000000000000000000000000000000000000000000815260040161053790610ed8565b60405180910390fd5b8160055f8673ffffffffffffffffffffffffffffffffffffffff1673ffffffffffffffffffffffffffffffffffffffff1681526020019081526020015f205f82825461058c9190610f23565b925050819055508160055f8573ffffffffffffffffffffffffffffffffffffffff1673ffffffffffffffffffffffffffffffffffffffff1681526020019081526020015f205f8282546105df9190610f56565b925050819055508160065f8673ffffffffffffffffffffffffffffffffffffffff1673ffffffffffffffffffffffffffffffffffffffff1681526020019081526020015f205f3373ffffffffffffffffffffffffffffffffffffffff1673ffffffffffffffffffffffffffffffffffffffff1681526020019081526020015f205f82825461066d9190610f23565b925050819055508273ffffffffffffffffffffffffffffffffffffffff168473ffffffffffffffffffffffffffffffffffffffff167fddf252ad1be2c89b69c2b068fc378daa952ba7f163c4a11628f55a4df523b3ef846040516106d19190610c9b565b60405180910390a3600190509392505050565b5f81565b600280546106f590610df6565b80601f016020809104026020016040519081016040528092919081815260200182805461072190610df6565b801561076c5780601f106107435761010080835404028352916020019161076c565b820191905f5260205f20905b81548152906001019060200180831161074f57829003601f168201915b505050505081565b6005602052805f5260405f205f915090505481565b60045f9054906101000a900473ffffffffffffffffffffffffffffffffffffffff1681565b600180546107bb90610df6565b80601f01602080910402602001604051908101604052809291908181526020018280546107e790610df6565b80156108325780601f1061080957610100808354040283529160200191610832565b820191905f5260205f20905b81548152906001019060200180831161081557829003601f168201915b505050505081565b5f610844826109f9565b8160055f3373ffffffffffffffffffffffffffffffffffffffff1673ffffffffffffffffffffffffffffffffffffffff1681526020019081526020015f205410156108c4576040517f08c379a00000000000000000000000000000000000000000000000000000000081526004016108bb90610fd3565b60405180910390fd5b8160055f3373ffffffffffffffffffffffffffffffffffffffff1673ffffffffffffffffffffffffffffffffffffffff1681526020019081526020015f205f8282546109109190610f23565b925050819055508160055f8573ffffffffffffffffffffffffffffffffffffffff1673ffffffffffffffffffffffffffffffffffffffff1681526020019081526020015f205f8282546109639190610f56565b925050819055508273ffffffffffffffffffffffffffffffffffffffff163373ffffffffffffffffffffffffffffffffffffffff167fddf252ad1be2c89b69c2b068fc378daa952ba7f163c4a11628f55a4df523b3ef846040516109c79190610c9b565b60405180910390a36001905092915050565b6006602052815f5260405f20602052805f5260405f205f91509150505481565b610a8f81604051602401610a0d9190610c9b565b6040516020818303038152906040527ff82c50f1000000000000000000000000000000000000000000000000000000007bffffffffffffffffffffffffffffffffffffffffffffffffffffffff19166020820180517bffffffffffffffffffffffffffffffffffffffffffffffffffffffff8381831617835250505050610a92565b50565b610aa981610aa1610aac610acb565b63ffffffff16565b50565b5f6a636f6e736f6c652e6c6f6790505f80835160208501845afa505050565b610ad6819050919050565b610ade610ff1565b565b5f81519050919050565b5f82825260208201905092915050565b5f5b83811015610b17578082015181840152602081019050610afc565b5f8484015250505050565b5f601f19601f8301169050919050565b5f610b3c82610ae0565b610b468185610aea565b9350610b56818560208601610afa565b610b5f81610b22565b840191505092915050565b5f6020820190508181035f830152610b828184610b32565b905092915050565b5f80fd5b5f73ffffffffffffffffffffffffffffffffffffffff82169050919050565b5f610bb782610b8e565b9050919050565b610bc781610bad565b8114610bd1575f80fd5b50565b5f81359050610be281610bbe565b92915050565b5f819050919050565b610bfa81610be8565b8114610c04575f80fd5b50565b5f81359050610c1581610bf1565b92915050565b5f8060408385031215610c3157610c30610b8a565b5b5f610c3e85828601610bd4565b9250506020610c4f85828601610c07565b9150509250929050565b5f8115159050919050565b610c6d81610c59565b82525050565b5f602082019050610c865f830184610c64565b92915050565b610c9581610be8565b82525050565b5f602082019050610cae5f830184610c8c565b92915050565b5f805f60608486031215610ccb57610cca610b8a565b5b5f610cd886828701610bd4565b9350506020610ce986828701610bd4565b9250506040610cfa86828701610c07565b9150509250925092565b5f60ff82169050919050565b610d1981610d04565b82525050565b5f602082019050610d325f830184610d10565b92915050565b5f60208284031215610d4d57610d4c610b8a565b5b5f610d5a84828501610bd4565b91505092915050565b610d6c81610bad565b82525050565b5f602082019050610d855f830184610d63565b92915050565b5f8060408385031215610da157610da0610b8a565b5b5f610dae85828601610bd4565b9250506020610dbf85828601610bd4565b9150509250929050565b7f4e487b71000000000000000000000000000000000000000000000000000000005f52602260045260245ffd5b5f6002820490506001821680610e0d57607f821691505b602082108103610e2057610e1f610dc9565b5b50919050565b7f496e76616c6964207370656e64657220616464726573730000000000000000005f82015250565b5f610e5a601783610aea565b9150610e6582610e26565b602082019050919050565b5f6020820190508181035f830152610e8781610e4e565b9050919050565b7f616c6c6f77616e6365206973206e6f742062696720656e6f75676874000000005f82015250565b5f610ec2601c83610aea565b9150610ecd82610e8e565b602082019050919050565b5f6020820190508181035f830152610eef81610eb6565b9050919050565b7f4e487b71000000000000000000000000000000000000000000000000000000005f52601160045260245ffd5b5f610f2d82610be8565b9150610f3883610be8565b9250828203905081811115610f5057610f4f610ef6565b5b92915050565b5f610f6082610be8565b9150610f6b83610be8565b9250828201905080821115610f8357610f82610ef6565b5b92915050565b7f496e73756666696369656e742062616c616e63650000000000000000000000005f82015250565b5f610fbd601483610aea565b9150610fc882610f89565b602082019050919050565b5f6020820190508181035f830152610fea81610fb1565b9050919050565b7f4e487b71000000000000000000000000000000000000000000000000000000005f52605160045260245ffdfea264697066735822122081b2c4b9f66f6f75b6420d5a39292ba3c09653aa7de2976b651f222f2904eeb464736f6c63430008160033",
  "linkReferences": {},
  "deployedLinkReferences": {}
}