{
  "_format": "hh-sol-artifact-1",
  "contractName": "DappTokenSale",
  "sourceName": "contracts/DappTokenSale.sol",
  "abi": [
    {
      "inputs": [
        {
          "internalType": "address",
          "name": "_tokenAddress",
          "type": "address"
        },
        {
          "internalType": "uint256",
          "name": "_tokenPrice",
          "type": "uint256"
        }
      ],
      "stateMutability": "nonpayable",
      "type": "constructor"
    },
    {
      "anonymous": false,
      "inputs": [
        {
          "indexed": false,
          "internalType": "address",
          "name": "_buyer",
          "type": "address"
        },
        {
          "indexed": false,
          "internalType": "uint256",
          "name": "_amount",
          "type": "uint256"
        }
      ],
      "name": "Sell",
      "type": "event"
    },
    {
      "inputs": [],
      "name": "admin",
      "outputs": [
        {
          "internalType": "address payable",
          "name": "",
          "type": "address"
        }
      ],
      "stateMutability": "view",
      "type": "function"
    },
    {
      "inputs": [
        {
          "internalType": "uint256",
          "name": "_value",
          "type": "uint256"
        }
      ],
      "name": "approveSpending",
      "outputs": [],
      "stateMutability": "nonpayable",
      "type": "function"
    },
    {
      "inputs": [
        {
          "internalType": "uint256",
          "name": "_numberOfTokens",
          "type": "uint256"
        }
      ],
      "name": "buyTokens",
      "outputs": [],
      "stateMutability": "payable",
      "type": "function"
    },
    {
      "inputs": [],
      "name": "endSale",
      "outputs": [],
      "stateMutability": "payable",
      "type": "function"
    },
    {
      "inputs": [],
      "name": "tokenContract",
      "outputs": [
        {
          "internalType": "contract DappToken",
          "name": "",
          "type": "address"
        }
      ],
      "stateMutability": "view",
      "type": "function"
    },
    {
      "inputs": [],
      "name": "tokenPrice",
      "outputs": [
        {
          "internalType": "uint256",
          "name": "",
          "type": "uint256"
        }
      ],
      "stateMutability": "view",
      "type": "function"
    },
    {
      "inputs": [],
      "name": "tokensSold",
      "outputs": [
        {
          "internalType": "uint256",
          "name": "",
          "type": "uint256"
        }
      ],
      "stateMutability": "view",
      "type": "function"
    }
  ],
  "bytecode": "0x608060405234801561000f575f80fd5b50604051610b41380380610b418339818101604052810190610031919061014f565b335f806101000a81548173ffffffffffffffffffffffffffffffffffffffff021916908373ffffffffffffffffffffffffffffffffffffffff1602179055508160015f6101000a81548173ffffffffffffffffffffffffffffffffffffffff021916908373ffffffffffffffffffffffffffffffffffffffff16021790555080600281905550505061018d565b5f80fd5b5f73ffffffffffffffffffffffffffffffffffffffff82169050919050565b5f6100eb826100c2565b9050919050565b6100fb816100e1565b8114610105575f80fd5b50565b5f81519050610116816100f2565b92915050565b5f819050919050565b61012e8161011c565b8114610138575f80fd5b50565b5f8151905061014981610125565b92915050565b5f8060408385031215610165576101646100be565b5b5f61017285828601610108565b92505060206101838582860161013b565b9150509250929050565b6109a78061019a5f395ff3fe60806040526004361061006f575f3560e01c806355a373d61161004d57806355a373d6146100c35780637ff9b596146100ed57806395f8c33d14610117578063f851a4401461013f5761006f565b80633610724e14610073578063380d831b1461008f578063518ab2a814610099575b5f80fd5b61008d6004803603810190610088919061058b565b610169565b005b61009761020c565b005b3480156100a4575f80fd5b506100ad610422565b6040516100ba91906105c5565b60405180910390f35b3480156100ce575f80fd5b506100d7610428565b6040516100e49190610658565b60405180910390f35b3480156100f8575f80fd5b5061010161044d565b60405161010e91906105c5565b60405180910390f35b348015610122575f80fd5b5061013d6004803603810190610138919061058b565b610453565b005b34801561014a575f80fd5b50610153610531565b6040516101609190610691565b60405180910390f35b6002548161017791906106d7565b34146101b8576040517f08c379a00000000000000000000000000000000000000000000000000000000081526004016101af90610772565b60405180910390fd5b8060035f8282546101c99190610790565b925050819055507f5e5e995ce3133561afceaa51a9a154d5db228cd7525d34df5185582c18d3df0933826040516102019291906107e3565b60405180910390a150565b5f8054906101000a900473ffffffffffffffffffffffffffffffffffffffff1673ffffffffffffffffffffffffffffffffffffffff163373ffffffffffffffffffffffffffffffffffffffff1614610262575f80fd5b60015f9054906101000a900473ffffffffffffffffffffffffffffffffffffffff1673ffffffffffffffffffffffffffffffffffffffff1663a9059cbb5f8054906101000a900473ffffffffffffffffffffffffffffffffffffffff1660015f9054906101000a900473ffffffffffffffffffffffffffffffffffffffff1673ffffffffffffffffffffffffffffffffffffffff166370a08231306040518263ffffffff1660e01b8152600401610319919061080a565b602060405180830381865afa158015610334573d5f803e3d5ffd5b505050506040513d601f19601f820116820180604052508101906103589190610837565b6040518363ffffffff1660e01b8152600401610375929190610882565b6020604051808303815f875af1158015610391573d5f803e3d5ffd5b505050506040513d601f19601f820116820180604052508101906103b591906108de565b6103bd575f80fd5b5f8054906101000a900473ffffffffffffffffffffffffffffffffffffffff1673ffffffffffffffffffffffffffffffffffffffff166108fc4790811502906040515f60405180830381858888f1935050505015801561041f573d5f803e3d5ffd5b50565b60035481565b60015f9054906101000a900473ffffffffffffffffffffffffffffffffffffffff1681565b60025481565b60015f9054906101000a900473ffffffffffffffffffffffffffffffffffffffff1673ffffffffffffffffffffffffffffffffffffffff1663095ea7b330836040518363ffffffff1660e01b81526004016104af9291906107e3565b6020604051808303815f875af11580156104cb573d5f803e3d5ffd5b505050506040513d601f19601f820116820180604052508101906104ef91906108de565b61052e576040517f08c379a000000000000000000000000000000000000000000000000000000000815260040161052590610953565b60405180910390fd5b50565b5f8054906101000a900473ffffffffffffffffffffffffffffffffffffffff1681565b5f80fd5b5f819050919050565b61056a81610558565b8114610574575f80fd5b50565b5f8135905061058581610561565b92915050565b5f602082840312156105a05761059f610554565b5b5f6105ad84828501610577565b91505092915050565b6105bf81610558565b82525050565b5f6020820190506105d85f8301846105b6565b92915050565b5f73ffffffffffffffffffffffffffffffffffffffff82169050919050565b5f819050919050565b5f61062061061b610616846105de565b6105fd565b6105de565b9050919050565b5f61063182610606565b9050919050565b5f61064282610627565b9050919050565b61065281610638565b82525050565b5f60208201905061066b5f830184610649565b92915050565b5f61067b826105de565b9050919050565b61068b81610671565b82525050565b5f6020820190506106a45f830184610682565b92915050565b7f4e487b71000000000000000000000000000000000000000000000000000000005f52601160045260245ffd5b5f6106e182610558565b91506106ec83610558565b92508282026106fa81610558565b91508282048414831517610711576107106106aa565b5b5092915050565b5f82825260208201905092915050565b7f496e636f72726563742076616c75652073656e740000000000000000000000005f82015250565b5f61075c601483610718565b915061076782610728565b602082019050919050565b5f6020820190508181035f83015261078981610750565b9050919050565b5f61079a82610558565b91506107a583610558565b92508282019050808211156107bd576107bc6106aa565b5b92915050565b5f6107cd826105de565b9050919050565b6107dd816107c3565b82525050565b5f6040820190506107f65f8301856107d4565b61080360208301846105b6565b9392505050565b5f60208201905061081d5f8301846107d4565b92915050565b5f8151905061083181610561565b92915050565b5f6020828403121561084c5761084b610554565b5b5f61085984828501610823565b91505092915050565b5f61086c82610627565b9050919050565b61087c81610862565b82525050565b5f6040820190506108955f830185610873565b6108a260208301846105b6565b9392505050565b5f8115159050919050565b6108bd816108a9565b81146108c7575f80fd5b50565b5f815190506108d8816108b4565b92915050565b5f602082840312156108f3576108f2610554565b5b5f610900848285016108ca565b91505092915050565b7f417070726f76616c206661696c656400000000000000000000000000000000005f82015250565b5f61093d600f83610718565b915061094882610909565b602082019050919050565b5f6020820190508181035f83015261096a81610931565b905091905056fea2646970667358221220f76407b539a80fcf3e4383d111684288caa99326c37b62fa9e1667b17d8c467964736f6c63430008140033",
  "linkReferences": {},
  "deployedLinkReferences": {}
}