{
  "_format": "hh-sol-artifact-1",
  "contractName": "DappTokenSale",
  "sourceName": "contracts/DappTokenSale.sol",
  "abi": [
    {
      "inputs": [
        {
          "internalType": "contract DappToken",
          "name": "_tokenContract",
          "type": "address"
        },
        {
          "internalType": "uint256",
          "name": "_tokenPrice",
          "type": "uint256"
        }
      ],
      "stateMutability": "nonpayable",
      "type": "constructor"
    },
    {
      "anonymous": false,
      "inputs": [
        {
          "indexed": false,
          "internalType": "address",
          "name": "_buyer",
          "type": "address"
        },
        {
          "indexed": false,
          "internalType": "uint256",
          "name": "_amount",
          "type": "uint256"
        }
      ],
      "name": "Sell",
      "type": "event"
    },
    {
      "stateMutability": "payable",
      "type": "fallback"
    },
    {
      "inputs": [],
      "name": "admin",
      "outputs": [
        {
          "internalType": "address payable",
          "name": "",
          "type": "address"
        }
      ],
      "stateMutability": "view",
      "type": "function"
    },
    {
      "inputs": [
        {
          "internalType": "uint256",
          "name": "_numberOfTokens",
          "type": "uint256"
        }
      ],
      "name": "buyTokens",
      "outputs": [],
      "stateMutability": "payable",
      "type": "function"
    },
    {
      "inputs": [],
      "name": "endSale",
      "outputs": [],
      "stateMutability": "payable",
      "type": "function"
    },
    {
      "inputs": [],
      "name": "rate",
      "outputs": [
        {
          "internalType": "uint256",
          "name": "",
          "type": "uint256"
        }
      ],
      "stateMutability": "view",
      "type": "function"
    },
    {
      "inputs": [],
      "name": "tokenContract",
      "outputs": [
        {
          "internalType": "contract DappToken",
          "name": "",
          "type": "address"
        }
      ],
      "stateMutability": "view",
      "type": "function"
    },
    {
      "inputs": [],
      "name": "tokenPrice",
      "outputs": [
        {
          "internalType": "uint256",
          "name": "",
          "type": "uint256"
        }
      ],
      "stateMutability": "view",
      "type": "function"
    },
    {
      "inputs": [],
      "name": "tokensSold",
      "outputs": [
        {
          "internalType": "uint256",
          "name": "",
          "type": "uint256"
        }
      ],
      "stateMutability": "view",
      "type": "function"
    },
    {
      "stateMutability": "payable",
      "type": "receive"
    }
  ],
  "bytecode": "0x608060405266038d7ea4c68000600255606460045534801562000020575f80fd5b5060405162000fc238038062000fc2833981810160405281019062000046919062000184565b335f806101000a81548173ffffffffffffffffffffffffffffffffffffffff021916908373ffffffffffffffffffffffffffffffffffffffff1602179055508160015f6101000a81548173ffffffffffffffffffffffffffffffffffffffff021916908373ffffffffffffffffffffffffffffffffffffffff160217905550806002819055505050620001c9565b5f80fd5b5f73ffffffffffffffffffffffffffffffffffffffff82169050919050565b5f6200010382620000d8565b9050919050565b5f6200011682620000f7565b9050919050565b62000128816200010a565b811462000133575f80fd5b50565b5f8151905062000146816200011d565b92915050565b5f819050919050565b62000160816200014c565b81146200016b575f80fd5b50565b5f815190506200017e8162000155565b92915050565b5f80604083850312156200019d576200019c620000d4565b5b5f620001ac8582860162000136565b9250506020620001bf858286016200016e565b9150509250929050565b610deb80620001d75f395ff3fe608060405260043610610073575f3560e01c8063518ab2a81161004d578063518ab2a8146100cc57806355a373d6146100f65780637ff9b59614610120578063f851a4401461014a5761007a565b80632c4e722e1461007c5780633610724e146100a6578063380d831b146100c25761007a565b3661007a57005b005b348015610087575f80fd5b50610090610174565b60405161009d919061084b565b60405180910390f35b6100c060048036038101906100bb9190610892565b61017a565b005b6100ca610474565b005b3480156100d7575f80fd5b506100e06106f8565b6040516100ed919061084b565b60405180910390f35b348015610101575f80fd5b5061010a6106fe565b6040516101179190610937565b60405180910390f35b34801561012b575f80fd5b50610134610723565b604051610141919061084b565b60405180910390f35b348015610155575f80fd5b5061015e610729565b60405161016b9190610970565b60405180910390f35b60045481565b6002548161018891906109b6565b34146101c9576040517f08c379a00000000000000000000000000000000000000000000000000000000081526004016101c090610a51565b60405180910390fd5b61026a60015f9054906101000a900473ffffffffffffffffffffffffffffffffffffffff1673ffffffffffffffffffffffffffffffffffffffff166370a08231306040518263ffffffff1660e01b81526004016102269190610a8f565b602060405180830381865afa158015610241573d5f803e3d5ffd5b505050506040513d601f19601f820116820180604052508101906102659190610abc565b61074c565b8060015f9054906101000a900473ffffffffffffffffffffffffffffffffffffffff1673ffffffffffffffffffffffffffffffffffffffff166370a08231306040518263ffffffff1660e01b81526004016102c59190610a8f565b602060405180830381865afa1580156102e0573d5f803e3d5ffd5b505050506040513d601f19601f820116820180604052508101906103049190610abc565b1015610345576040517f08c379a000000000000000000000000000000000000000000000000000000000815260040161033c90610b31565b60405180910390fd5b60015f9054906101000a900473ffffffffffffffffffffffffffffffffffffffff1673ffffffffffffffffffffffffffffffffffffffff1663a9059cbb33836040518363ffffffff1660e01b81526004016103a1929190610b4f565b6020604051808303815f875af11580156103bd573d5f803e3d5ffd5b505050506040513d601f19601f820116820180604052508101906103e19190610bab565b610420576040517f08c379a000000000000000000000000000000000000000000000000000000000815260040161041790610c20565b60405180910390fd5b8060035f8282546104319190610c3e565b925050819055507f5e5e995ce3133561afceaa51a9a154d5db228cd7525d34df5185582c18d3df093382604051610469929190610b4f565b60405180910390a150565b5f8054906101000a900473ffffffffffffffffffffffffffffffffffffffff1673ffffffffffffffffffffffffffffffffffffffff163373ffffffffffffffffffffffffffffffffffffffff1614610501576040517f08c379a00000000000000000000000000000000000000000000000000000000081526004016104f890610cbb565b60405180910390fd5b60015f9054906101000a900473ffffffffffffffffffffffffffffffffffffffff1673ffffffffffffffffffffffffffffffffffffffff1663a9059cbb5f8054906101000a900473ffffffffffffffffffffffffffffffffffffffff1660015f9054906101000a900473ffffffffffffffffffffffffffffffffffffffff1673ffffffffffffffffffffffffffffffffffffffff166370a08231306040518263ffffffff1660e01b81526004016105b89190610a8f565b602060405180830381865afa1580156105d3573d5f803e3d5ffd5b505050506040513d601f19601f820116820180604052508101906105f79190610abc565b6040518363ffffffff1660e01b8152600401610614929190610cf9565b6020604051808303815f875af1158015610630573d5f803e3d5ffd5b505050506040513d601f19601f820116820180604052508101906106549190610bab565b610693576040517f08c379a000000000000000000000000000000000000000000000000000000000815260040161068a90610d6a565b60405180910390fd5b5f8054906101000a900473ffffffffffffffffffffffffffffffffffffffff1673ffffffffffffffffffffffffffffffffffffffff166108fc4790811502906040515f60405180830381858888f193505050501580156106f5573d5f803e3d5ffd5b50565b60035481565b60015f9054906101000a900473ffffffffffffffffffffffffffffffffffffffff1681565b60025481565b5f8054906101000a900473ffffffffffffffffffffffffffffffffffffffff1681565b6107e281604051602401610760919061084b565b6040516020818303038152906040527ff82c50f1000000000000000000000000000000000000000000000000000000007bffffffffffffffffffffffffffffffffffffffffffffffffffffffff19166020820180517bffffffffffffffffffffffffffffffffffffffffffffffffffffffff83818316178352505050506107e5565b50565b6107fc816107f46107ff61081e565b63ffffffff16565b50565b5f6a636f6e736f6c652e6c6f6790505f80835160208501845afa505050565b610829819050919050565b610831610d88565b565b5f819050919050565b61084581610833565b82525050565b5f60208201905061085e5f83018461083c565b92915050565b5f80fd5b61087181610833565b811461087b575f80fd5b50565b5f8135905061088c81610868565b92915050565b5f602082840312156108a7576108a6610864565b5b5f6108b48482850161087e565b91505092915050565b5f73ffffffffffffffffffffffffffffffffffffffff82169050919050565b5f819050919050565b5f6108ff6108fa6108f5846108bd565b6108dc565b6108bd565b9050919050565b5f610910826108e5565b9050919050565b5f61092182610906565b9050919050565b61093181610917565b82525050565b5f60208201905061094a5f830184610928565b92915050565b5f61095a826108bd565b9050919050565b61096a81610950565b82525050565b5f6020820190506109835f830184610961565b92915050565b7f4e487b71000000000000000000000000000000000000000000000000000000005f52601160045260245ffd5b5f6109c082610833565b91506109cb83610833565b92508282026109d981610833565b915082820484148315176109f0576109ef610989565b5b5092915050565b5f82825260208201905092915050565b7f496e636f72726563742076616c75652073656e740000000000000000000000005f82015250565b5f610a3b6014836109f7565b9150610a4682610a07565b602082019050919050565b5f6020820190508181035f830152610a6881610a2f565b9050919050565b5f610a79826108bd565b9050919050565b610a8981610a6f565b82525050565b5f602082019050610aa25f830184610a80565b92915050565b5f81519050610ab681610868565b92915050565b5f60208284031215610ad157610ad0610864565b5b5f610ade84828501610aa8565b91505092915050565b7f4e6f7420656e6f75676820746f6b656e7320617661696c61626c6500000000005f82015250565b5f610b1b601b836109f7565b9150610b2682610ae7565b602082019050919050565b5f6020820190508181035f830152610b4881610b0f565b9050919050565b5f604082019050610b625f830185610a80565b610b6f602083018461083c565b9392505050565b5f8115159050919050565b610b8a81610b76565b8114610b94575f80fd5b50565b5f81519050610ba581610b81565b92915050565b5f60208284031215610bc057610bbf610864565b5b5f610bcd84828501610b97565b91505092915050565b7f546f6b656e207472616e73666572206661696c656400000000000000000000005f82015250565b5f610c0a6015836109f7565b9150610c1582610bd6565b602082019050919050565b5f6020820190508181035f830152610c3781610bfe565b9050919050565b5f610c4882610833565b9150610c5383610833565b9250828201905080821115610c6b57610c6a610989565b5b92915050565b7f4f6e6c79207468652061646d696e2063616e20656e64207468652073616c65005f82015250565b5f610ca5601f836109f7565b9150610cb082610c71565b602082019050919050565b5f6020820190508181035f830152610cd281610c99565b9050919050565b5f610ce382610906565b9050919050565b610cf381610cd9565b82525050565b5f604082019050610d0c5f830185610cea565b610d19602083018461083c565b9392505050565b7f546f6b656e207472616e7366657220746f2061646d696e206661696c656400005f82015250565b5f610d54601e836109f7565b9150610d5f82610d20565b602082019050919050565b5f6020820190508181035f830152610d8181610d48565b9050919050565b7f4e487b71000000000000000000000000000000000000000000000000000000005f52605160045260245ffdfea26469706673582212200f5539180e0a511cba66db2346e028b21746e60a603003bba2a04d3e397914ee64736f6c63430008160033",
  "linkReferences": {},
  "deployedLinkReferences": {}
}