{
  "_format": "hh-sol-artifact-1",
  "contractName": "Exchange",
  "sourceName": "contracts/Exchange.sol",
  "abi": [
    {
      "anonymous": false,
      "inputs": [
        {
          "indexed": false,
          "internalType": "address",
          "name": "account",
          "type": "address"
        },
        {
          "indexed": false,
          "internalType": "address",
          "name": "tokenContract",
          "type": "address"
        },
        {
          "indexed": false,
          "internalType": "uint256",
          "name": "amount",
          "type": "uint256"
        },
        {
          "indexed": false,
          "internalType": "uint256",
          "name": "rate",
          "type": "uint256"
        }
      ],
      "name": "Sold",
      "type": "event"
    },
    {
      "inputs": [],
      "name": "name",
      "outputs": [
        {
          "internalType": "string",
          "name": "",
          "type": "string"
        }
      ],
      "stateMutability": "view",
      "type": "function"
    },
    {
      "inputs": [],
      "name": "rate",
      "outputs": [
        {
          "internalType": "uint256",
          "name": "",
          "type": "uint256"
        }
      ],
      "stateMutability": "view",
      "type": "function"
    },
    {
      "inputs": [],
      "name": "tokenContract",
      "outputs": [
        {
          "internalType": "contract DappToken",
          "name": "",
          "type": "address"
        }
      ],
      "stateMutability": "view",
      "type": "function"
    },
    {
      "inputs": [],
      "name": "tokenSale",
      "outputs": [
        {
          "internalType": "contract DappTokenSale",
          "name": "",
          "type": "address"
        }
      ],
      "stateMutability": "view",
      "type": "function"
    }
  ],
  "bytecode": "0x60806040526040518060400160405280600481526020017f53776170000000000000000000000000000000000000000000000000000000008152505f90816100479190610298565b506064600355348015610058575f80fd5b50610367565b5f81519050919050565b7f4e487b71000000000000000000000000000000000000000000000000000000005f52604160045260245ffd5b7f4e487b71000000000000000000000000000000000000000000000000000000005f52602260045260245ffd5b5f60028204905060018216806100d957607f821691505b6020821081036100ec576100eb610095565b5b50919050565b5f819050815f5260205f209050919050565b5f6020601f8301049050919050565b5f82821b905092915050565b5f6008830261014e7fffffffffffffffffffffffffffffffffffffffffffffffffffffffffffffffff82610113565b6101588683610113565b95508019841693508086168417925050509392505050565b5f819050919050565b5f819050919050565b5f61019c61019761019284610170565b610179565b610170565b9050919050565b5f819050919050565b6101b583610182565b6101c96101c1826101a3565b84845461011f565b825550505050565b5f90565b6101dd6101d1565b6101e88184846101ac565b505050565b5b8181101561020b576102005f826101d5565b6001810190506101ee565b5050565b601f82111561025057610221816100f2565b61022a84610104565b81016020851015610239578190505b61024d61024585610104565b8301826101ed565b50505b505050565b5f82821c905092915050565b5f6102705f1984600802610255565b1980831691505092915050565b5f6102888383610261565b9150826002028217905092915050565b6102a18261005e565b67ffffffffffffffff8111156102ba576102b9610068565b5b6102c482546100c2565b6102cf82828561020f565b5f60209050601f831160018114610300575f84156102ee578287015190505b6102f8858261027d565b86555061035f565b601f19841661030e866100f2565b5f5b8281101561033557848901518255600182019150602085019450602081019050610310565b86831015610352578489015161034e601f891682610261565b8355505b6001600288020188555050505b505050505050565b6103ec80620003755f395ff3fe608060405234801561000f575f80fd5b506004361061004a575f3560e01c806306fdde031461004e5780632c4e722e1461006c57806355a373d61461008a578063b9420310146100a8575b5f80fd5b6100566100c6565b604051610063919061022b565b60405180910390f35b610074610151565b6040516100819190610263565b60405180910390f35b610092610157565b60405161009f91906102f6565b60405180910390f35b6100b061017c565b6040516100bd9190610340565b60405180910390f35b5f80546100d290610386565b80601f01602080910402602001604051908101604052809291908181526020018280546100fe90610386565b80156101495780601f1061012057610100808354040283529160200191610149565b820191905f5260205f20905b81548152906001019060200180831161012c57829003601f168201915b505050505081565b60035481565b60015f9054906101000a900473ffffffffffffffffffffffffffffffffffffffff1681565b60025f9054906101000a900473ffffffffffffffffffffffffffffffffffffffff1681565b5f81519050919050565b5f82825260208201905092915050565b5f5b838110156101d85780820151818401526020810190506101bd565b5f8484015250505050565b5f601f19601f8301169050919050565b5f6101fd826101a1565b61020781856101ab565b93506102178185602086016101bb565b610220816101e3565b840191505092915050565b5f6020820190508181035f83015261024381846101f3565b905092915050565b5f819050919050565b61025d8161024b565b82525050565b5f6020820190506102765f830184610254565b92915050565b5f73ffffffffffffffffffffffffffffffffffffffff82169050919050565b5f819050919050565b5f6102be6102b96102b48461027c565b61029b565b61027c565b9050919050565b5f6102cf826102a4565b9050919050565b5f6102e0826102c5565b9050919050565b6102f0816102d6565b82525050565b5f6020820190506103095f8301846102e7565b92915050565b5f610319826102a4565b9050919050565b5f61032a8261030f565b9050919050565b61033a81610320565b82525050565b5f6020820190506103535f830184610331565b92915050565b7f4e487b71000000000000000000000000000000000000000000000000000000005f52602260045260245ffd5b5f600282049050600182168061039d57607f821691505b6020821081036103b0576103af610359565b5b5091905056fea2646970667358221220b0d69f2dbfa00a0874c50d932803ecb0fff13cec7b2748f65da97b385565b8ba64736f6c63430008160033",
  "linkReferences": {},
  "deployedLinkReferences": {}
}