{
  "_format": "hh-sol-artifact-1",
  "contractName": "Exchange",
  "sourceName": "contracts/Exchange.sol",
  "abi": [
    {
      "inputs": [
        {
          "internalType": "contract DappToken",
          "name": "_tokenContract",
          "type": "address"
        }
      ],
      "stateMutability": "nonpayable",
      "type": "constructor"
    },
    {
      "anonymous": false,
      "inputs": [
        {
          "indexed": false,
          "internalType": "address",
          "name": "account",
          "type": "address"
        },
        {
          "indexed": false,
          "internalType": "address",
          "name": "tokenContract",
          "type": "address"
        },
        {
          "indexed": false,
          "internalType": "uint256",
          "name": "amount",
          "type": "uint256"
        },
        {
          "indexed": false,
          "internalType": "uint256",
          "name": "rate",
          "type": "uint256"
        }
      ],
      "name": "Sold",
      "type": "event"
    },
    {
      "inputs": [],
      "name": "name",
      "outputs": [
        {
          "internalType": "string",
          "name": "",
          "type": "string"
        }
      ],
      "stateMutability": "view",
      "type": "function"
    },
    {
      "inputs": [],
      "name": "rate",
      "outputs": [
        {
          "internalType": "uint256",
          "name": "",
          "type": "uint256"
        }
      ],
      "stateMutability": "view",
      "type": "function"
    },
    {
      "inputs": [
        {
          "internalType": "uint256",
          "name": "_amount",
          "type": "uint256"
        }
      ],
      "name": "sellTokens",
      "outputs": [],
      "stateMutability": "payable",
      "type": "function"
    },
    {
      "inputs": [],
      "name": "tokenContract",
      "outputs": [
        {
          "internalType": "contract DappToken",
          "name": "",
          "type": "address"
        }
      ],
      "stateMutability": "view",
      "type": "function"
    },
    {
      "inputs": [],
      "name": "tokenSale",
      "outputs": [
        {
          "internalType": "contract DappTokenSale",
          "name": "",
          "type": "address"
        }
      ],
      "stateMutability": "view",
      "type": "function"
    }
  ],
  "bytecode": "0x60806040526040518060400160405280600481526020017f53776170000000000000000000000000000000000000000000000000000000008152505f90816200004991906200032c565b5060016003553480156200005b575f80fd5b5060405162000ca938038062000ca9833981810160405281019062000081919062000488565b8060015f6101000a81548173ffffffffffffffffffffffffffffffffffffffff021916908373ffffffffffffffffffffffffffffffffffffffff16021790555050620004b8565b5f81519050919050565b7f4e487b71000000000000000000000000000000000000000000000000000000005f52604160045260245ffd5b7f4e487b71000000000000000000000000000000000000000000000000000000005f52602260045260245ffd5b5f60028204905060018216806200014457607f821691505b6020821081036200015a5762000159620000ff565b5b50919050565b5f819050815f5260205f209050919050565b5f6020601f8301049050919050565b5f82821b905092915050565b5f60088302620001be7fffffffffffffffffffffffffffffffffffffffffffffffffffffffffffffffff8262000181565b620001ca868362000181565b95508019841693508086168417925050509392505050565b5f819050919050565b5f819050919050565b5f620002146200020e6200020884620001e2565b620001eb565b620001e2565b9050919050565b5f819050919050565b6200022f83620001f4565b620002476200023e826200021b565b8484546200018d565b825550505050565b5f90565b6200025d6200024f565b6200026a81848462000224565b505050565b5b818110156200029157620002855f8262000253565b60018101905062000270565b5050565b601f821115620002e057620002aa8162000160565b620002b58462000172565b81016020851015620002c5578190505b620002dd620002d48562000172565b8301826200026f565b50505b505050565b5f82821c905092915050565b5f620003025f1984600802620002e5565b1980831691505092915050565b5f6200031c8383620002f1565b9150826002028217905092915050565b6200033782620000c8565b67ffffffffffffffff811115620003535762000352620000d2565b5b6200035f82546200012c565b6200036c82828562000295565b5f60209050601f831160018114620003a2575f84156200038d578287015190505b6200039985826200030f565b86555062000408565b601f198416620003b28662000160565b5f5b82811015620003db57848901518255600182019150602085019450602081019050620003b4565b86831015620003fb5784890151620003f7601f891682620002f1565b8355505b6001600288020188555050505b505050505050565b5f80fd5b5f73ffffffffffffffffffffffffffffffffffffffff82169050919050565b5f6200043f8262000414565b9050919050565b5f620004528262000433565b9050919050565b620004648162000446565b81146200046f575f80fd5b50565b5f81519050620004828162000459565b92915050565b5f60208284031215620004a0576200049f62000410565b5b5f620004af8482850162000472565b91505092915050565b6107e380620004c65f395ff3fe608060405260043610610049575f3560e01c806306fdde031461004d5780632c4e722e1461007757806355a373d6146100a15780636c11bcd3146100cb578063b9420310146100e7575b5f80fd5b348015610058575f80fd5b50610061610111565b60405161006e919061040c565b60405180910390f35b348015610082575f80fd5b5061008b61019c565b6040516100989190610444565b60405180910390f35b3480156100ac575f80fd5b506100b56101a2565b6040516100c291906104d7565b60405180910390f35b6100e560048036038101906100e0919061051e565b6101c7565b005b3480156100f2575f80fd5b506100fb61035d565b604051610108919061057a565b60405180910390f35b5f805461011d906105c0565b80601f0160208091040260200160405190810160405280929190818152602001828054610149906105c0565b80156101945780601f1061016b57610100808354040283529160200191610194565b820191905f5260205f20905b81548152906001019060200180831161017757829003601f168201915b505050505081565b60035481565b60015f9054906101000a900473ffffffffffffffffffffffffffffffffffffffff1681565b5f600354826101d6919061061d565b905060015f9054906101000a900473ffffffffffffffffffffffffffffffffffffffff1673ffffffffffffffffffffffffffffffffffffffff166323b872dd3330856040518463ffffffff1660e01b81526004016102369392919061066d565b6020604051808303815f875af1158015610252573d5f803e3d5ffd5b505050506040513d601f19601f8201168201806040525081019061027691906106d7565b6102b5576040517f08c379a00000000000000000000000000000000000000000000000000000000081526004016102ac9061074c565b60405180910390fd5b3373ffffffffffffffffffffffffffffffffffffffff166108fc8290811502906040515f60405180830381858888f193505050501580156102f8573d5f803e3d5ffd5b507f16dd16959a056953a63cf14bf427881e762e54f03d86b864efea8238dd3b822f3360015f9054906101000a900473ffffffffffffffffffffffffffffffffffffffff1684600354604051610351949392919061076a565b60405180910390a15050565b60025f9054906101000a900473ffffffffffffffffffffffffffffffffffffffff1681565b5f81519050919050565b5f82825260208201905092915050565b5f5b838110156103b957808201518184015260208101905061039e565b5f8484015250505050565b5f601f19601f8301169050919050565b5f6103de82610382565b6103e8818561038c565b93506103f881856020860161039c565b610401816103c4565b840191505092915050565b5f6020820190508181035f83015261042481846103d4565b905092915050565b5f819050919050565b61043e8161042c565b82525050565b5f6020820190506104575f830184610435565b92915050565b5f73ffffffffffffffffffffffffffffffffffffffff82169050919050565b5f819050919050565b5f61049f61049a6104958461045d565b61047c565b61045d565b9050919050565b5f6104b082610485565b9050919050565b5f6104c1826104a6565b9050919050565b6104d1816104b7565b82525050565b5f6020820190506104ea5f8301846104c8565b92915050565b5f80fd5b6104fd8161042c565b8114610507575f80fd5b50565b5f81359050610518816104f4565b92915050565b5f60208284031215610533576105326104f0565b5b5f6105408482850161050a565b91505092915050565b5f61055382610485565b9050919050565b5f61056482610549565b9050919050565b6105748161055a565b82525050565b5f60208201905061058d5f83018461056b565b92915050565b7f4e487b71000000000000000000000000000000000000000000000000000000005f52602260045260245ffd5b5f60028204905060018216806105d757607f821691505b6020821081036105ea576105e9610593565b5b50919050565b7f4e487b71000000000000000000000000000000000000000000000000000000005f52601260045260245ffd5b5f6106278261042c565b91506106328361042c565b925082610642576106416105f0565b5b828204905092915050565b5f6106578261045d565b9050919050565b6106678161064d565b82525050565b5f6060820190506106805f83018661065e565b61068d602083018561065e565b61069a6040830184610435565b949350505050565b5f8115159050919050565b6106b6816106a2565b81146106c0575f80fd5b50565b5f815190506106d1816106ad565b92915050565b5f602082840312156106ec576106eb6104f0565b5b5f6106f9848285016106c3565b91505092915050565b7f546f6b656e207472616e73666572206661696c656400000000000000000000005f82015250565b5f61073660158361038c565b915061074182610702565b602082019050919050565b5f6020820190508181035f8301526107638161072a565b9050919050565b5f60808201905061077d5f83018761065e565b61078a602083018661065e565b6107976040830185610435565b6107a46060830184610435565b9594505050505056fea2646970667358221220de33476bea016d4c6885422cfa7d18cccd104d8dce94479df293fbb5be81c40364736f6c63430008160033",
  "linkReferences": {},
  "deployedLinkReferences": {}
}