{
  "_format": "hh-sol-artifact-1",
  "contractName": "Exchange",
  "sourceName": "contracts/Exchange.sol",
  "abi": [
    {
      "inputs": [
        {
          "internalType": "contract DappToken",
          "name": "_tokenContract",
          "type": "address"
        }
      ],
      "stateMutability": "nonpayable",
      "type": "constructor"
    },
    {
      "anonymous": false,
      "inputs": [
        {
          "indexed": false,
          "internalType": "address",
          "name": "account",
          "type": "address"
        },
        {
          "indexed": false,
          "internalType": "address",
          "name": "tokenContract",
          "type": "address"
        },
        {
          "indexed": false,
          "internalType": "uint256",
          "name": "amount",
          "type": "uint256"
        },
        {
          "indexed": false,
          "internalType": "uint256",
          "name": "rate",
          "type": "uint256"
        }
      ],
      "name": "Sold",
      "type": "event"
    },
    {
      "inputs": [],
      "name": "name",
      "outputs": [
        {
          "internalType": "string",
          "name": "",
          "type": "string"
        }
      ],
      "stateMutability": "view",
      "type": "function"
    },
    {
      "inputs": [],
      "name": "rate",
      "outputs": [
        {
          "internalType": "uint256",
          "name": "",
          "type": "uint256"
        }
      ],
      "stateMutability": "view",
      "type": "function"
    },
    {
      "inputs": [
        {
          "internalType": "uint256",
          "name": "_amount",
          "type": "uint256"
        }
      ],
      "name": "sellTokens",
      "outputs": [],
      "stateMutability": "payable",
      "type": "function"
    },
    {
      "inputs": [],
      "name": "tokenContract",
      "outputs": [
        {
          "internalType": "contract DappToken",
          "name": "",
          "type": "address"
        }
      ],
      "stateMutability": "view",
      "type": "function"
    },
    {
      "inputs": [],
      "name": "tokenSale",
      "outputs": [
        {
          "internalType": "contract DappTokenSale",
          "name": "",
          "type": "address"
        }
      ],
      "stateMutability": "view",
      "type": "function"
    }
  ],
  "bytecode": "0x60806040526040518060400160405280600481526020017f53776170000000000000000000000000000000000000000000000000000000008152505f90816200004991906200032c565b5060016003553480156200005b575f80fd5b5060405162000c3f38038062000c3f833981810160405281019062000081919062000488565b8060015f6101000a81548173ffffffffffffffffffffffffffffffffffffffff021916908373ffffffffffffffffffffffffffffffffffffffff16021790555050620004b8565b5f81519050919050565b7f4e487b71000000000000000000000000000000000000000000000000000000005f52604160045260245ffd5b7f4e487b71000000000000000000000000000000000000000000000000000000005f52602260045260245ffd5b5f60028204905060018216806200014457607f821691505b6020821081036200015a5762000159620000ff565b5b50919050565b5f819050815f5260205f209050919050565b5f6020601f8301049050919050565b5f82821b905092915050565b5f60088302620001be7fffffffffffffffffffffffffffffffffffffffffffffffffffffffffffffffff8262000181565b620001ca868362000181565b95508019841693508086168417925050509392505050565b5f819050919050565b5f819050919050565b5f620002146200020e6200020884620001e2565b620001eb565b620001e2565b9050919050565b5f819050919050565b6200022f83620001f4565b620002476200023e826200021b565b8484546200018d565b825550505050565b5f90565b6200025d6200024f565b6200026a81848462000224565b505050565b5b818110156200029157620002855f8262000253565b60018101905062000270565b5050565b601f821115620002e057620002aa8162000160565b620002b58462000172565b81016020851015620002c5578190505b620002dd620002d48562000172565b8301826200026f565b50505b505050565b5f82821c905092915050565b5f620003025f1984600802620002e5565b1980831691505092915050565b5f6200031c8383620002f1565b9150826002028217905092915050565b6200033782620000c8565b67ffffffffffffffff811115620003535762000352620000d2565b5b6200035f82546200012c565b6200036c82828562000295565b5f60209050601f831160018114620003a2575f84156200038d578287015190505b6200039985826200030f565b86555062000408565b601f198416620003b28662000160565b5f5b82811015620003db57848901518255600182019150602085019450602081019050620003b4565b86831015620003fb5784890151620003f7601f891682620002f1565b8355505b6001600288020188555050505b505050505050565b5f80fd5b5f73ffffffffffffffffffffffffffffffffffffffff82169050919050565b5f6200043f8262000414565b9050919050565b5f620004528262000433565b9050919050565b620004648162000446565b81146200046f575f80fd5b50565b5f81519050620004828162000459565b92915050565b5f60208284031215620004a0576200049f62000410565b5b5f620004af8482850162000472565b91505092915050565b61077980620004c65f395ff3fe608060405260043610610049575f3560e01c806306fdde031461004d5780632c4e722e1461007757806355a373d6146100a15780636c11bcd3146100cb578063b9420310146100e7575b5f80fd5b348015610058575f80fd5b50610061610111565b60405161006e91906103ff565b60405180910390f35b348015610082575f80fd5b5061008b61019c565b6040516100989190610437565b60405180910390f35b3480156100ac575f80fd5b506100b56101a2565b6040516100c291906104ca565b60405180910390f35b6100e560048036038101906100e09190610511565b6101c7565b005b3480156100f2575f80fd5b506100fb610350565b604051610108919061056d565b60405180910390f35b5f805461011d906105b3565b80601f0160208091040260200160405190810160405280929190818152602001828054610149906105b3565b80156101945780601f1061016b57610100808354040283529160200191610194565b820191905f5260205f20905b81548152906001019060200180831161017757829003601f168201915b505050505081565b60035481565b60015f9054906101000a900473ffffffffffffffffffffffffffffffffffffffff1681565b5f81905060015f9054906101000a900473ffffffffffffffffffffffffffffffffffffffff1673ffffffffffffffffffffffffffffffffffffffff166323b872dd3330856040518463ffffffff1660e01b815260040161022993929190610603565b6020604051808303815f875af1158015610245573d5f803e3d5ffd5b505050506040513d601f19601f82011682018060405250810190610269919061066d565b6102a8576040517f08c379a000000000000000000000000000000000000000000000000000000000815260040161029f906106e2565b60405180910390fd5b3373ffffffffffffffffffffffffffffffffffffffff166108fc8290811502906040515f60405180830381858888f193505050501580156102eb573d5f803e3d5ffd5b507f16dd16959a056953a63cf14bf427881e762e54f03d86b864efea8238dd3b822f3360015f9054906101000a900473ffffffffffffffffffffffffffffffffffffffff16846003546040516103449493929190610700565b60405180910390a15050565b60025f9054906101000a900473ffffffffffffffffffffffffffffffffffffffff1681565b5f81519050919050565b5f82825260208201905092915050565b5f5b838110156103ac578082015181840152602081019050610391565b5f8484015250505050565b5f601f19601f8301169050919050565b5f6103d182610375565b6103db818561037f565b93506103eb81856020860161038f565b6103f4816103b7565b840191505092915050565b5f6020820190508181035f83015261041781846103c7565b905092915050565b5f819050919050565b6104318161041f565b82525050565b5f60208201905061044a5f830184610428565b92915050565b5f73ffffffffffffffffffffffffffffffffffffffff82169050919050565b5f819050919050565b5f61049261048d61048884610450565b61046f565b610450565b9050919050565b5f6104a382610478565b9050919050565b5f6104b482610499565b9050919050565b6104c4816104aa565b82525050565b5f6020820190506104dd5f8301846104bb565b92915050565b5f80fd5b6104f08161041f565b81146104fa575f80fd5b50565b5f8135905061050b816104e7565b92915050565b5f60208284031215610526576105256104e3565b5b5f610533848285016104fd565b91505092915050565b5f61054682610478565b9050919050565b5f6105578261053c565b9050919050565b6105678161054d565b82525050565b5f6020820190506105805f83018461055e565b92915050565b7f4e487b71000000000000000000000000000000000000000000000000000000005f52602260045260245ffd5b5f60028204905060018216806105ca57607f821691505b6020821081036105dd576105dc610586565b5b50919050565b5f6105ed82610450565b9050919050565b6105fd816105e3565b82525050565b5f6060820190506106165f8301866105f4565b61062360208301856105f4565b6106306040830184610428565b949350505050565b5f8115159050919050565b61064c81610638565b8114610656575f80fd5b50565b5f8151905061066781610643565b92915050565b5f60208284031215610682576106816104e3565b5b5f61068f84828501610659565b91505092915050565b7f546f6b656e207472616e73666572206661696c656400000000000000000000005f82015250565b5f6106cc60158361037f565b91506106d782610698565b602082019050919050565b5f6020820190508181035f8301526106f9816106c0565b9050919050565b5f6080820190506107135f8301876105f4565b61072060208301866105f4565b61072d6040830185610428565b61073a6060830184610428565b9594505050505056fea2646970667358221220fed6361863acb37a9fa46296e01eee2a9b10a9b669cf96e04ee6b911bec405e764736f6c63430008160033",
  "linkReferences": {},
  "deployedLinkReferences": {}
}