{
  "_format": "hh-sol-artifact-1",
  "contractName": "Transactions",
  "sourceName": "contracts/Transactions.sol",
  "abi": [
    {
      "inputs": [
        {
          "internalType": "contract DappToken",
          "name": "_tokenContract",
          "type": "address"
        }
      ],
      "stateMutability": "nonpayable",
      "type": "constructor"
    },
    {
      "stateMutability": "payable",
      "type": "fallback"
    },
    {
      "inputs": [],
      "name": "getAllTransactions",
      "outputs": [
        {
          "components": [
            {
              "internalType": "address",
              "name": "sender",
              "type": "address"
            },
            {
              "internalType": "address",
              "name": "reciver",
              "type": "address"
            },
            {
              "internalType": "uint256",
              "name": "amount",
              "type": "uint256"
            },
            {
              "internalType": "string",
              "name": "message",
              "type": "string"
            },
            {
              "internalType": "uint256",
              "name": "timestamp",
              "type": "uint256"
            }
          ],
          "internalType": "struct Transactions.TransferStruct[]",
          "name": "",
          "type": "tuple[]"
        }
      ],
      "stateMutability": "view",
      "type": "function"
    },
    {
      "inputs": [],
      "name": "getTransactionsCount",
      "outputs": [
        {
          "internalType": "uint256",
          "name": "",
          "type": "uint256"
        }
      ],
      "stateMutability": "view",
      "type": "function"
    },
    {
      "inputs": [
        {
          "internalType": "address payable",
          "name": "reciver",
          "type": "address"
        },
        {
          "internalType": "uint256",
          "name": "amount",
          "type": "uint256"
        },
        {
          "internalType": "string",
          "name": "message",
          "type": "string"
        }
      ],
      "name": "sendTransaction",
      "outputs": [],
      "stateMutability": "payable",
      "type": "function"
    },
    {
      "inputs": [],
      "name": "tokenContract",
      "outputs": [
        {
          "internalType": "contract DappToken",
          "name": "",
          "type": "address"
        }
      ],
      "stateMutability": "view",
      "type": "function"
    },
    {
      "stateMutability": "payable",
      "type": "receive"
    }
  ],
  "bytecode": "0x608060405234801562000010575f80fd5b5060405162000f8438038062000f848339818101604052810190620000369190620000f5565b8060015f6101000a81548173ffffffffffffffffffffffffffffffffffffffff021916908373ffffffffffffffffffffffffffffffffffffffff1602179055505062000125565b5f80fd5b5f73ffffffffffffffffffffffffffffffffffffffff82169050919050565b5f620000ac8262000081565b9050919050565b5f620000bf82620000a0565b9050919050565b620000d181620000b3565b8114620000dc575f80fd5b50565b5f81519050620000ef81620000c6565b92915050565b5f602082840312156200010d576200010c6200007d565b5b5f6200011c84828501620000df565b91505092915050565b610e5180620001335f395ff3fe608060405260043610610042575f3560e01c806327506f531461004b57806355a373d614610075578063578cb8f91461009f578063928cb433146100c957610049565b3661004957005b005b348015610056575f80fd5b5061005f6100e5565b60405161006c91906106f5565b60405180910390f35b348015610080575f80fd5b5061008961028e565b6040516100969190610770565b60405180910390f35b3480156100aa575f80fd5b506100b36102b3565b6040516100c09190610798565b60405180910390f35b6100e360048036038101906100de9190610953565b6102bb565b005b60606002805480602002602001604051908101604052809291908181526020015f905b82821015610285578382905f5260205f2090600502016040518060a00160405290815f82015f9054906101000a900473ffffffffffffffffffffffffffffffffffffffff1673ffffffffffffffffffffffffffffffffffffffff1673ffffffffffffffffffffffffffffffffffffffff168152602001600182015f9054906101000a900473ffffffffffffffffffffffffffffffffffffffff1673ffffffffffffffffffffffffffffffffffffffff1673ffffffffffffffffffffffffffffffffffffffff168152602001600282015481526020016003820180546101ec906109ec565b80601f0160208091040260200160405190810160405280929190818152602001828054610218906109ec565b80156102635780601f1061023a57610100808354040283529160200191610263565b820191905f5260205f20905b81548152906001019060200180831161024657829003601f168201915b5050505050815260200160048201548152505081526020019060010190610108565b50505050905090565b60015f9054906101000a900473ffffffffffffffffffffffffffffffffffffffff1681565b5f8054905090565b60015f808282546102cc9190610a49565b9250508190555060026040518060a001604052803373ffffffffffffffffffffffffffffffffffffffff1681526020018573ffffffffffffffffffffffffffffffffffffffff16815260200184815260200183815260200142815250908060018154018082558091505060019003905f5260205f2090600502015f909190919091505f820151815f015f6101000a81548173ffffffffffffffffffffffffffffffffffffffff021916908373ffffffffffffffffffffffffffffffffffffffff1602179055506020820151816001015f6101000a81548173ffffffffffffffffffffffffffffffffffffffff021916908373ffffffffffffffffffffffffffffffffffffffff1602179055506040820151816002015560608201518160030190816103f79190610c10565b5060808201518160040155505060015f9054906101000a900473ffffffffffffffffffffffffffffffffffffffff1673ffffffffffffffffffffffffffffffffffffffff166323b872dd3385856040518463ffffffff1660e01b815260040161046293929190610d0e565b6020604051808303815f875af115801561047e573d5f803e3d5ffd5b505050506040513d601f19601f820116820180604052508101906104a29190610d78565b6104e1576040517f08c379a00000000000000000000000000000000000000000000000000000000081526004016104d890610dfd565b60405180910390fd5b505050565b5f81519050919050565b5f82825260208201905092915050565b5f819050602082019050919050565b5f73ffffffffffffffffffffffffffffffffffffffff82169050919050565b5f6105388261050f565b9050919050565b6105488161052e565b82525050565b5f819050919050565b6105608161054e565b82525050565b5f81519050919050565b5f82825260208201905092915050565b5f5b8381101561059d578082015181840152602081019050610582565b5f8484015250505050565b5f601f19601f8301169050919050565b5f6105c282610566565b6105cc8185610570565b93506105dc818560208601610580565b6105e5816105a8565b840191505092915050565b5f60a083015f8301516106055f86018261053f565b506020830151610618602086018261053f565b50604083015161062b6040860182610557565b506060830151848203606086015261064382826105b8565b91505060808301516106586080860182610557565b508091505092915050565b5f61066e83836105f0565b905092915050565b5f602082019050919050565b5f61068c826104e6565b61069681856104f0565b9350836020820285016106a885610500565b805f5b858110156106e357848403895281516106c48582610663565b94506106cf83610676565b925060208a019950506001810190506106ab565b50829750879550505050505092915050565b5f6020820190508181035f83015261070d8184610682565b905092915050565b5f819050919050565b5f61073861073361072e8461050f565b610715565b61050f565b9050919050565b5f6107498261071e565b9050919050565b5f61075a8261073f565b9050919050565b61076a81610750565b82525050565b5f6020820190506107835f830184610761565b92915050565b6107928161054e565b82525050565b5f6020820190506107ab5f830184610789565b92915050565b5f604051905090565b5f80fd5b5f80fd5b5f6107cc8261050f565b9050919050565b6107dc816107c2565b81146107e6575f80fd5b50565b5f813590506107f7816107d3565b92915050565b6108068161054e565b8114610810575f80fd5b50565b5f81359050610821816107fd565b92915050565b5f80fd5b5f80fd5b7f4e487b71000000000000000000000000000000000000000000000000000000005f52604160045260245ffd5b610865826105a8565b810181811067ffffffffffffffff821117156108845761088361082f565b5b80604052505050565b5f6108966107b1565b90506108a2828261085c565b919050565b5f67ffffffffffffffff8211156108c1576108c061082f565b5b6108ca826105a8565b9050602081019050919050565b828183375f83830152505050565b5f6108f76108f2846108a7565b61088d565b9050828152602081018484840111156109135761091261082b565b5b61091e8482856108d7565b509392505050565b5f82601f83011261093a57610939610827565b5b813561094a8482602086016108e5565b91505092915050565b5f805f6060848603121561096a576109696107ba565b5b5f610977868287016107e9565b935050602061098886828701610813565b925050604084013567ffffffffffffffff8111156109a9576109a86107be565b5b6109b586828701610926565b9150509250925092565b7f4e487b71000000000000000000000000000000000000000000000000000000005f52602260045260245ffd5b5f6002820490506001821680610a0357607f821691505b602082108103610a1657610a156109bf565b5b50919050565b7f4e487b71000000000000000000000000000000000000000000000000000000005f52601160045260245ffd5b5f610a538261054e565b9150610a5e8361054e565b9250828201905080821115610a7657610a75610a1c565b5b92915050565b5f819050815f5260205f209050919050565b5f6020601f8301049050919050565b5f82821b905092915050565b5f60088302610ad87fffffffffffffffffffffffffffffffffffffffffffffffffffffffffffffffff82610a9d565b610ae28683610a9d565b95508019841693508086168417925050509392505050565b5f610b14610b0f610b0a8461054e565b610715565b61054e565b9050919050565b5f819050919050565b610b2d83610afa565b610b41610b3982610b1b565b848454610aa9565b825550505050565b5f90565b610b55610b49565b610b60818484610b24565b505050565b5b81811015610b8357610b785f82610b4d565b600181019050610b66565b5050565b601f821115610bc857610b9981610a7c565b610ba284610a8e565b81016020851015610bb1578190505b610bc5610bbd85610a8e565b830182610b65565b50505b505050565b5f82821c905092915050565b5f610be85f1984600802610bcd565b1980831691505092915050565b5f610c008383610bd9565b9150826002028217905092915050565b610c1982610566565b67ffffffffffffffff811115610c3257610c3161082f565b5b610c3c82546109ec565b610c47828285610b87565b5f60209050601f831160018114610c78575f8415610c66578287015190505b610c708582610bf5565b865550610cd7565b601f198416610c8686610a7c565b5f5b82811015610cad57848901518255600182019150602085019450602081019050610c88565b86831015610cca5784890151610cc6601f891682610bd9565b8355505b6001600288020188555050505b505050505050565b610ce88161052e565b82525050565b5f610cf88261073f565b9050919050565b610d0881610cee565b82525050565b5f606082019050610d215f830186610cdf565b610d2e6020830185610cff565b610d3b6040830184610789565b949350505050565b5f8115159050919050565b610d5781610d43565b8114610d61575f80fd5b50565b5f81519050610d7281610d4e565b92915050565b5f60208284031215610d8d57610d8c6107ba565b5b5f610d9a84828501610d64565b91505092915050565b5f82825260208201905092915050565b7f546f6b656e207472616e73666572206661696c656400000000000000000000005f82015250565b5f610de7601583610da3565b9150610df282610db3565b602082019050919050565b5f6020820190508181035f830152610e1481610ddb565b905091905056fea264697066735822122015235a34311e2219e174ff90dc66db5507767b97bd5d2a6da8e82feeaa5da4ea64736f6c63430008160033",
  "linkReferences": {},
  "deployedLinkReferences": {}
}