{
  "_format": "hh-sol-artifact-1",
  "contractName": "Transfers",
  "sourceName": "contracts/Transfers.sol",
  "abi": [
    {
      "inputs": [
        {
          "internalType": "contract FossaToken",
          "name": "_tokenContract",
          "type": "address"
        }
      ],
      "stateMutability": "nonpayable",
      "type": "constructor"
    },
    {
      "stateMutability": "payable",
      "type": "fallback"
    },
    {
      "inputs": [],
      "name": "getAllTransactions",
      "outputs": [
        {
          "components": [
            {
              "internalType": "address",
              "name": "sender",
              "type": "address"
            },
            {
              "internalType": "address",
              "name": "reciver",
              "type": "address"
            },
            {
              "internalType": "uint256",
              "name": "amount",
              "type": "uint256"
            }
          ],
          "internalType": "struct Transfers.TransferStruct[]",
          "name": "",
          "type": "tuple[]"
        }
      ],
      "stateMutability": "view",
      "type": "function"
    },
    {
      "inputs": [],
      "name": "getTransactionsCount",
      "outputs": [
        {
          "internalType": "uint256",
          "name": "",
          "type": "uint256"
        }
      ],
      "stateMutability": "view",
      "type": "function"
    },
    {
      "inputs": [
        {
          "internalType": "address payable",
          "name": "reciver",
          "type": "address"
        },
        {
          "internalType": "uint256",
          "name": "amount",
          "type": "uint256"
        }
      ],
      "name": "sendTransaction",
      "outputs": [],
      "stateMutability": "payable",
      "type": "function"
    },
    {
      "inputs": [],
      "name": "tokenContract",
      "outputs": [
        {
          "internalType": "contract FossaToken",
          "name": "",
          "type": "address"
        }
      ],
      "stateMutability": "view",
      "type": "function"
    },
    {
      "stateMutability": "payable",
      "type": "receive"
    }
  ],
  "bytecode": "0x608060405234801561000f575f80fd5b506040516109b13803806109b1833981810160405281019061003191906100e6565b8060015f6101000a81548173ffffffffffffffffffffffffffffffffffffffff021916908373ffffffffffffffffffffffffffffffffffffffff16021790555050610111565b5f80fd5b5f73ffffffffffffffffffffffffffffffffffffffff82169050919050565b5f6100a48261007b565b9050919050565b5f6100b58261009a565b9050919050565b6100c5816100ab565b81146100cf575f80fd5b50565b5f815190506100e0816100bc565b92915050565b5f602082840312156100fb576100fa610077565b5b5f610108848285016100d2565b91505092915050565b6108938061011e5f395ff3fe608060405260043610610042575f3560e01c806327506f531461004b57806355a373d614610075578063578cb8f91461009f578063d709deb7146100c957610049565b3661004957005b005b348015610056575f80fd5b5061005f6100e5565b60405161006c919061055e565b60405180910390f35b348015610080575f80fd5b506100896101f4565b60405161009691906105d9565b60405180910390f35b3480156100aa575f80fd5b506100b3610219565b6040516100c09190610601565b60405180910390f35b6100e360048036038101906100de9190610683565b610221565b005b60606002805480602002602001604051908101604052809291908181526020015f905b828210156101eb578382905f5260205f2090600302016040518060600160405290815f82015f9054906101000a900473ffffffffffffffffffffffffffffffffffffffff1673ffffffffffffffffffffffffffffffffffffffff1673ffffffffffffffffffffffffffffffffffffffff168152602001600182015f9054906101000a900473ffffffffffffffffffffffffffffffffffffffff1673ffffffffffffffffffffffffffffffffffffffff1673ffffffffffffffffffffffffffffffffffffffff16815260200160028201548152505081526020019060010190610108565b50505050905090565b60015f9054906101000a900473ffffffffffffffffffffffffffffffffffffffff1681565b5f8054905090565b60015f8082825461023291906106ee565b92505081905550600260405180606001604052803373ffffffffffffffffffffffffffffffffffffffff1681526020018473ffffffffffffffffffffffffffffffffffffffff16815260200183815250908060018154018082558091505060019003905f5260205f2090600302015f909190919091505f820151815f015f6101000a81548173ffffffffffffffffffffffffffffffffffffffff021916908373ffffffffffffffffffffffffffffffffffffffff1602179055506020820151816001015f6101000a81548173ffffffffffffffffffffffffffffffffffffffff021916908373ffffffffffffffffffffffffffffffffffffffff16021790555060408201518160020155505060015f9054906101000a900473ffffffffffffffffffffffffffffffffffffffff1673ffffffffffffffffffffffffffffffffffffffff166323b872dd3384846040518463ffffffff1660e01b815260040161039c93929190610750565b6020604051808303815f875af11580156103b8573d5f803e3d5ffd5b505050506040513d601f19601f820116820180604052508101906103dc91906107ba565b61041b576040517f08c379a00000000000000000000000000000000000000000000000000000000081526004016104129061083f565b60405180910390fd5b5050565b5f81519050919050565b5f82825260208201905092915050565b5f819050602082019050919050565b5f73ffffffffffffffffffffffffffffffffffffffff82169050919050565b5f61047182610448565b9050919050565b61048181610467565b82525050565b5f819050919050565b61049981610487565b82525050565b606082015f8201516104b35f850182610478565b5060208201516104c66020850182610478565b5060408201516104d96040850182610490565b50505050565b5f6104ea838361049f565b60608301905092915050565b5f602082019050919050565b5f61050c8261041f565b6105168185610429565b935061052183610439565b805f5b8381101561055157815161053888826104df565b9750610543836104f6565b925050600181019050610524565b5085935050505092915050565b5f6020820190508181035f8301526105768184610502565b905092915050565b5f819050919050565b5f6105a161059c61059784610448565b61057e565b610448565b9050919050565b5f6105b282610587565b9050919050565b5f6105c3826105a8565b9050919050565b6105d3816105b9565b82525050565b5f6020820190506105ec5f8301846105ca565b92915050565b6105fb81610487565b82525050565b5f6020820190506106145f8301846105f2565b92915050565b5f80fd5b5f61062882610448565b9050919050565b6106388161061e565b8114610642575f80fd5b50565b5f813590506106538161062f565b92915050565b61066281610487565b811461066c575f80fd5b50565b5f8135905061067d81610659565b92915050565b5f80604083850312156106995761069861061a565b5b5f6106a685828601610645565b92505060206106b78582860161066f565b9150509250929050565b7f4e487b71000000000000000000000000000000000000000000000000000000005f52601160045260245ffd5b5f6106f882610487565b915061070383610487565b925082820190508082111561071b5761071a6106c1565b5b92915050565b61072a81610467565b82525050565b5f61073a826105a8565b9050919050565b61074a81610730565b82525050565b5f6060820190506107635f830186610721565b6107706020830185610741565b61077d60408301846105f2565b949350505050565b5f8115159050919050565b61079981610785565b81146107a3575f80fd5b50565b5f815190506107b481610790565b92915050565b5f602082840312156107cf576107ce61061a565b5b5f6107dc848285016107a6565b91505092915050565b5f82825260208201905092915050565b7f546f6b656e207472616e73666572206661696c656400000000000000000000005f82015250565b5f6108296015836107e5565b9150610834826107f5565b602082019050919050565b5f6020820190508181035f8301526108568161081d565b905091905056fea26469706673582212202c359d284d64d7c17bb5e9b22f2efb2be54e6795a476b95ce4c7c7cd10abbc2764736f6c63430008160033",
  "linkReferences": {},
  "deployedLinkReferences": {}
}