{
  "_format": "hh-sol-artifact-1",
  "contractName": "Transactions",
  "sourceName": "contracts/Transactions.sol",
  "abi": [
    {
      "anonymous": false,
      "inputs": [
        {
          "indexed": false,
          "internalType": "address",
          "name": "from",
          "type": "address"
        },
        {
          "indexed": false,
          "internalType": "address",
          "name": "reciver",
          "type": "address"
        },
        {
          "indexed": false,
          "internalType": "uint256",
          "name": "numberOfTokens",
          "type": "uint256"
        },
        {
          "indexed": false,
          "internalType": "string",
          "name": "message",
          "type": "string"
        },
        {
          "indexed": false,
          "internalType": "uint256",
          "name": "timestamp",
          "type": "uint256"
        }
      ],
      "name": "Transfer",
      "type": "event"
    },
    {
      "inputs": [],
      "name": "getAllTransactions",
      "outputs": [
        {
          "components": [
            {
              "internalType": "address",
              "name": "sender",
              "type": "address"
            },
            {
              "internalType": "address",
              "name": "reciver",
              "type": "address"
            },
            {
              "internalType": "uint256",
              "name": "numberOfTokens",
              "type": "uint256"
            },
            {
              "internalType": "string",
              "name": "message",
              "type": "string"
            },
            {
              "internalType": "uint256",
              "name": "timestamp",
              "type": "uint256"
            }
          ],
          "internalType": "struct Transactions.TransferStruct[]",
          "name": "",
          "type": "tuple[]"
        }
      ],
      "stateMutability": "view",
      "type": "function"
    },
    {
      "inputs": [],
      "name": "getTransactionsCount",
      "outputs": [
        {
          "internalType": "uint256",
          "name": "",
          "type": "uint256"
        }
      ],
      "stateMutability": "view",
      "type": "function"
    },
    {
      "inputs": [
        {
          "internalType": "address payable",
          "name": "reciver",
          "type": "address"
        },
        {
          "internalType": "uint256",
          "name": "numberOfTokens",
          "type": "uint256"
        },
        {
          "internalType": "string",
          "name": "message",
          "type": "string"
        }
      ],
      "name": "sendTransaction",
      "outputs": [],
      "stateMutability": "payable",
      "type": "function"
    },
    {
      "inputs": [],
      "name": "tokenContract",
      "outputs": [
        {
          "internalType": "contract DappToken",
          "name": "",
          "type": "address"
        }
      ],
      "stateMutability": "view",
      "type": "function"
    }
  ],
  "bytecode": "0x608060405234801561000f575f80fd5b50610d3c8061001d5f395ff3fe60806040526004361061003e575f3560e01c806327506f531461004257806355a373d61461006c578063578cb8f914610096578063928cb433146100c0575b5f80fd5b34801561004d575f80fd5b506100566100dc565b604051610063919061064d565b60405180910390f35b348015610077575f80fd5b50610080610285565b60405161008d91906106c8565b60405180910390f35b3480156100a1575f80fd5b506100aa6102a8565b6040516100b791906106f0565b60405180910390f35b6100da60048036038101906100d591906108ab565b6102b1565b005b60606002805480602002602001604051908101604052809291908181526020015f905b8282101561027c578382905f5260205f2090600502016040518060a00160405290815f82015f9054906101000a900473ffffffffffffffffffffffffffffffffffffffff1673ffffffffffffffffffffffffffffffffffffffff1673ffffffffffffffffffffffffffffffffffffffff168152602001600182015f9054906101000a900473ffffffffffffffffffffffffffffffffffffffff1673ffffffffffffffffffffffffffffffffffffffff1673ffffffffffffffffffffffffffffffffffffffff168152602001600282015481526020016003820180546101e390610944565b80601f016020809104026020016040519081016040528092919081815260200182805461020f90610944565b801561025a5780601f106102315761010080835404028352916020019161025a565b820191905f5260205f20905b81548152906001019060200180831161023d57829003601f168201915b50505050508152602001600482015481525050815260200190600101906100ff565b50505050905090565b5f8054906101000a900473ffffffffffffffffffffffffffffffffffffffff1681565b5f600154905090565b6001805f8282546102c291906109a1565b9250508190555060026040518060a001604052803373ffffffffffffffffffffffffffffffffffffffff1681526020018573ffffffffffffffffffffffffffffffffffffffff16815260200184815260200183815260200142815250908060018154018082558091505060019003905f5260205f2090600502015f909190919091505f820151815f015f6101000a81548173ffffffffffffffffffffffffffffffffffffffff021916908373ffffffffffffffffffffffffffffffffffffffff1602179055506020820151816001015f6101000a81548173ffffffffffffffffffffffffffffffffffffffff021916908373ffffffffffffffffffffffffffffffffffffffff1602179055506040820151816002015560608201518160030190816103ed9190610b68565b506080820151816004015550507fc4b32d7ff75a51e487f3cbb5d3202f2efecca1f4c2b987e0039c1d3220b48a833384848442604051610431959493929190610cae565b60405180910390a1505050565b5f81519050919050565b5f82825260208201905092915050565b5f819050602082019050919050565b5f73ffffffffffffffffffffffffffffffffffffffff82169050919050565b5f61049082610467565b9050919050565b6104a081610486565b82525050565b5f819050919050565b6104b8816104a6565b82525050565b5f81519050919050565b5f82825260208201905092915050565b5f5b838110156104f55780820151818401526020810190506104da565b5f8484015250505050565b5f601f19601f8301169050919050565b5f61051a826104be565b61052481856104c8565b93506105348185602086016104d8565b61053d81610500565b840191505092915050565b5f60a083015f83015161055d5f860182610497565b5060208301516105706020860182610497565b50604083015161058360408601826104af565b506060830151848203606086015261059b8282610510565b91505060808301516105b060808601826104af565b508091505092915050565b5f6105c68383610548565b905092915050565b5f602082019050919050565b5f6105e48261043e565b6105ee8185610448565b93508360208202850161060085610458565b805f5b8581101561063b578484038952815161061c85826105bb565b9450610627836105ce565b925060208a01995050600181019050610603565b50829750879550505050505092915050565b5f6020820190508181035f83015261066581846105da565b905092915050565b5f819050919050565b5f61069061068b61068684610467565b61066d565b610467565b9050919050565b5f6106a182610676565b9050919050565b5f6106b282610697565b9050919050565b6106c2816106a8565b82525050565b5f6020820190506106db5f8301846106b9565b92915050565b6106ea816104a6565b82525050565b5f6020820190506107035f8301846106e1565b92915050565b5f604051905090565b5f80fd5b5f80fd5b5f61072482610467565b9050919050565b6107348161071a565b811461073e575f80fd5b50565b5f8135905061074f8161072b565b92915050565b61075e816104a6565b8114610768575f80fd5b50565b5f8135905061077981610755565b92915050565b5f80fd5b5f80fd5b7f4e487b71000000000000000000000000000000000000000000000000000000005f52604160045260245ffd5b6107bd82610500565b810181811067ffffffffffffffff821117156107dc576107db610787565b5b80604052505050565b5f6107ee610709565b90506107fa82826107b4565b919050565b5f67ffffffffffffffff82111561081957610818610787565b5b61082282610500565b9050602081019050919050565b828183375f83830152505050565b5f61084f61084a846107ff565b6107e5565b90508281526020810184848401111561086b5761086a610783565b5b61087684828561082f565b509392505050565b5f82601f8301126108925761089161077f565b5b81356108a284826020860161083d565b91505092915050565b5f805f606084860312156108c2576108c1610712565b5b5f6108cf86828701610741565b93505060206108e08682870161076b565b925050604084013567ffffffffffffffff81111561090157610900610716565b5b61090d8682870161087e565b9150509250925092565b7f4e487b71000000000000000000000000000000000000000000000000000000005f52602260045260245ffd5b5f600282049050600182168061095b57607f821691505b60208210810361096e5761096d610917565b5b50919050565b7f4e487b71000000000000000000000000000000000000000000000000000000005f52601160045260245ffd5b5f6109ab826104a6565b91506109b6836104a6565b92508282019050808211156109ce576109cd610974565b5b92915050565b5f819050815f5260205f209050919050565b5f6020601f8301049050919050565b5f82821b905092915050565b5f60088302610a307fffffffffffffffffffffffffffffffffffffffffffffffffffffffffffffffff826109f5565b610a3a86836109f5565b95508019841693508086168417925050509392505050565b5f610a6c610a67610a62846104a6565b61066d565b6104a6565b9050919050565b5f819050919050565b610a8583610a52565b610a99610a9182610a73565b848454610a01565b825550505050565b5f90565b610aad610aa1565b610ab8818484610a7c565b505050565b5b81811015610adb57610ad05f82610aa5565b600181019050610abe565b5050565b601f821115610b2057610af1816109d4565b610afa846109e6565b81016020851015610b09578190505b610b1d610b15856109e6565b830182610abd565b50505b505050565b5f82821c905092915050565b5f610b405f1984600802610b25565b1980831691505092915050565b5f610b588383610b31565b9150826002028217905092915050565b610b71826104be565b67ffffffffffffffff811115610b8a57610b89610787565b5b610b948254610944565b610b9f828285610adf565b5f60209050601f831160018114610bd0575f8415610bbe578287015190505b610bc88582610b4d565b865550610c2f565b601f198416610bde866109d4565b5f5b82811015610c0557848901518255600182019150602085019450602081019050610be0565b86831015610c225784890151610c1e601f891682610b31565b8355505b6001600288020188555050505b505050505050565b610c4081610486565b82525050565b5f610c5082610697565b9050919050565b610c6081610c46565b82525050565b5f82825260208201905092915050565b5f610c80826104be565b610c8a8185610c66565b9350610c9a8185602086016104d8565b610ca381610500565b840191505092915050565b5f60a082019050610cc15f830188610c37565b610cce6020830187610c57565b610cdb60408301866106e1565b8181036060830152610ced8185610c76565b9050610cfc60808301846106e1565b969550505050505056fea2646970667358221220b6d6439ed519003c78b778407ab14d762b92923fac4cad3258b266033d9322fa64736f6c63430008150033",
  "linkReferences": {},
  "deployedLinkReferences": {}
}