{
  "_format": "hh-sol-artifact-1",
  "contractName": "Transactions",
  "sourceName": "contracts/Transactions.sol",
  "abi": [
    {
      "inputs": [
        {
          "internalType": "contract FossaToken",
          "name": "_tokenContract",
          "type": "address"
        },
        {
          "internalType": "uint256",
          "name": "_tokenPrice",
          "type": "uint256"
        }
      ],
      "stateMutability": "nonpayable",
      "type": "constructor"
    },
    {
      "anonymous": false,
      "inputs": [
        {
          "indexed": true,
          "internalType": "address",
          "name": "buyer",
          "type": "address"
        },
        {
          "indexed": false,
          "internalType": "uint256",
          "name": "amount",
          "type": "uint256"
        }
      ],
      "name": "Buy",
      "type": "event"
    },
    {
      "anonymous": false,
      "inputs": [],
      "name": "SaleEnded",
      "type": "event"
    },
    {
      "anonymous": false,
      "inputs": [
        {
          "indexed": true,
          "internalType": "address",
          "name": "account",
          "type": "address"
        },
        {
          "indexed": true,
          "internalType": "address",
          "name": "tokenContract",
          "type": "address"
        },
        {
          "indexed": false,
          "internalType": "uint256",
          "name": "amount",
          "type": "uint256"
        }
      ],
      "name": "Sold",
      "type": "event"
    },
    {
      "inputs": [],
      "name": "admin",
      "outputs": [
        {
          "internalType": "address payable",
          "name": "",
          "type": "address"
        }
      ],
      "stateMutability": "view",
      "type": "function"
    },
    {
      "inputs": [
        {
          "internalType": "uint256",
          "name": "_numberOfTokens",
          "type": "uint256"
        }
      ],
      "name": "buyTokens",
      "outputs": [],
      "stateMutability": "payable",
      "type": "function"
    },
    {
      "inputs": [],
      "name": "endSale",
      "outputs": [],
      "stateMutability": "nonpayable",
      "type": "function"
    },
    {
      "inputs": [],
      "name": "saleState",
      "outputs": [
        {
          "internalType": "enum Transactions.SaleState",
          "name": "",
          "type": "uint8"
        }
      ],
      "stateMutability": "view",
      "type": "function"
    },
    {
      "inputs": [
        {
          "internalType": "uint256",
          "name": "_amount",
          "type": "uint256"
        }
      ],
      "name": "sellTokens",
      "outputs": [],
      "stateMutability": "payable",
      "type": "function"
    },
    {
      "inputs": [],
      "name": "toggleSaleStatus",
      "outputs": [],
      "stateMutability": "nonpayable",
      "type": "function"
    },
    {
      "inputs": [],
      "name": "tokenContract",
      "outputs": [
        {
          "internalType": "contract FossaToken",
          "name": "",
          "type": "address"
        }
      ],
      "stateMutability": "view",
      "type": "function"
    },
    {
      "inputs": [],
      "name": "tokenPrice",
      "outputs": [
        {
          "internalType": "uint256",
          "name": "",
          "type": "uint256"
        }
      ],
      "stateMutability": "view",
      "type": "function"
    },
    {
      "inputs": [],
      "name": "tokensSold",
      "outputs": [
        {
          "internalType": "uint256",
          "name": "",
          "type": "uint256"
        }
      ],
      "stateMutability": "view",
      "type": "function"
    },
    {
      "inputs": [],
      "name": "tokensValue",
      "outputs": [
        {
          "internalType": "uint256",
          "name": "",
          "type": "uint256"
        }
      ],
      "stateMutability": "view",
      "type": "function"
    },
    {
      "inputs": [
        {
          "internalType": "uint256",
          "name": "_amount",
          "type": "uint256"
        }
      ],
      "name": "withdrawEther",
      "outputs": [],
      "stateMutability": "nonpayable",
      "type": "function"
    },
    {
      "stateMutability": "payable",
      "type": "receive"
    }
  ],
  "bytecode": "0x608060405266038d7ea4c680006002555f60055f6101000a81548160ff02191690836001811115620000365762000035620000fb565b5b021790555034801562000047575f80fd5b5060405162001a1238038062001a1283398181016040528101906200006d9190620001d8565b335f806101000a81548173ffffffffffffffffffffffffffffffffffffffff021916908373ffffffffffffffffffffffffffffffffffffffff1602179055508160015f6101000a81548173ffffffffffffffffffffffffffffffffffffffff021916908373ffffffffffffffffffffffffffffffffffffffff1602179055508060028190555050506200021d565b7f4e487b71000000000000000000000000000000000000000000000000000000005f52602160045260245ffd5b5f80fd5b5f73ffffffffffffffffffffffffffffffffffffffff82169050919050565b5f62000157826200012c565b9050919050565b5f6200016a826200014b565b9050919050565b6200017c816200015e565b811462000187575f80fd5b50565b5f815190506200019a8162000171565b92915050565b5f819050919050565b620001b481620001a0565b8114620001bf575f80fd5b50565b5f81519050620001d281620001a9565b92915050565b5f8060408385031215620001f157620001f062000128565b5b5f62000200858286016200018a565b92505060206200021385828601620001c2565b9150509250929050565b6117e7806200022b5f395ff3fe60806040526004361061009f575f3560e01c8063518ab2a811610063578063518ab2a81461014457806355a373d61461016e578063603f4d52146101985780636c11bcd3146101c25780637ff9b596146101de578063f851a44014610208576100a6565b8063049c5c49146100aa5780631e56e1f4146100c05780633610724e146100ea578063380d831b146101065780633bed33ce1461011c576100a6565b366100a657005b5f80fd5b3480156100b5575f80fd5b506100be610232565b005b3480156100cb575f80fd5b506100d4610391565b6040516100e19190610f2c565b60405180910390f35b61010460048036038101906100ff9190610f73565b610397565b005b348015610111575f80fd5b5061011a6106c4565b005b348015610127575f80fd5b50610142600480360381019061013d9190610f73565b610a12565b005b34801561014f575f80fd5b50610158610b48565b6040516101659190610f2c565b60405180910390f35b348015610179575f80fd5b50610182610b4e565b60405161018f9190611018565b60405180910390f35b3480156101a3575f80fd5b506101ac610b73565b6040516101b991906110a4565b60405180910390f35b6101dc60048036038101906101d79190610f73565b610b85565b005b3480156101e9575f80fd5b506101f2610eeb565b6040516101ff9190610f2c565b60405180910390f35b348015610213575f80fd5b5061021c610ef1565b60405161022991906110dd565b60405180910390f35b5f8054906101000a900473ffffffffffffffffffffffffffffffffffffffff1673ffffffffffffffffffffffffffffffffffffffff163373ffffffffffffffffffffffffffffffffffffffff16146102bf576040517f08c379a00000000000000000000000000000000000000000000000000000000081526004016102b690611176565b60405180910390fd5b5f60018111156102d2576102d1611031565b5b60055f9054906101000a900460ff1660018111156102f3576102f2611031565b5b146102fe575f610301565b60015b60055f6101000a81548160ff0219169083600181111561032457610323611031565b5b02179055505f600181111561033c5761033b611031565b5b60055f9054906101000a900460ff16600181111561035d5761035c611031565b5b0361038f577f0bd8a3eb532e5fbcd3f5b00335f0fb42fdc11969e9af0fab7c9e71a36ae0d31a60405160405180910390a15b565b60045481565b5f60018111156103aa576103a9611031565b5b60055f9054906101000a900460ff1660018111156103cb576103ca611031565b5b1461040b576040517f08c379a0000000000000000000000000000000000000000000000000000000008152600401610402906111de565b60405180910390fd5b600254816104199190611229565b6004819055506004543414610463576040517f08c379a000000000000000000000000000000000000000000000000000000000815260040161045a906112b4565b60405180910390fd5b5f81116104a5576040517f08c379a000000000000000000000000000000000000000000000000000000000815260040161049c90611342565b60405180910390fd5b8060015f9054906101000a900473ffffffffffffffffffffffffffffffffffffffff1673ffffffffffffffffffffffffffffffffffffffff166370a08231306040518263ffffffff1660e01b81526004016105009190611380565b602060405180830381865afa15801561051b573d5f803e3d5ffd5b505050506040513d601f19601f8201168201806040525081019061053f91906113ad565b1015610580576040517f08c379a000000000000000000000000000000000000000000000000000000000815260040161057790611422565b60405180910390fd5b60015f9054906101000a900473ffffffffffffffffffffffffffffffffffffffff1673ffffffffffffffffffffffffffffffffffffffff1663a9059cbb33836040518363ffffffff1660e01b81526004016105dc929190611440565b6020604051808303815f875af11580156105f8573d5f803e3d5ffd5b505050506040513d601f19601f8201168201806040525081019061061c919061149c565b61065b576040517f08c379a000000000000000000000000000000000000000000000000000000000815260040161065290611511565b60405180910390fd5b8060035f82825461066c919061152f565b925050819055503373ffffffffffffffffffffffffffffffffffffffff167fe3d4187f6ca4248660cc0ac8b8056515bac4a8132be2eca31d6d0cc170722a7e826040516106b99190610f2c565b60405180910390a250565b5f8054906101000a900473ffffffffffffffffffffffffffffffffffffffff1673ffffffffffffffffffffffffffffffffffffffff163373ffffffffffffffffffffffffffffffffffffffff1614610751576040517f08c379a000000000000000000000000000000000000000000000000000000000815260040161074890611176565b60405180910390fd5b5f600181111561076457610763611031565b5b60055f9054906101000a900460ff16600181111561078557610784611031565b5b146107c5576040517f08c379a00000000000000000000000000000000000000000000000000000000081526004016107bc906115ac565b60405180910390fd5b60015f9054906101000a900473ffffffffffffffffffffffffffffffffffffffff1673ffffffffffffffffffffffffffffffffffffffff1663a9059cbb5f8054906101000a900473ffffffffffffffffffffffffffffffffffffffff1660015f9054906101000a900473ffffffffffffffffffffffffffffffffffffffff1673ffffffffffffffffffffffffffffffffffffffff166370a08231306040518263ffffffff1660e01b815260040161087c9190611380565b602060405180830381865afa158015610897573d5f803e3d5ffd5b505050506040513d601f19601f820116820180604052508101906108bb91906113ad565b6040518363ffffffff1660e01b81526004016108d89291906115ea565b6020604051808303815f875af11580156108f4573d5f803e3d5ffd5b505050506040513d601f19601f82011682018060405250810190610918919061149c565b610957576040517f08c379a000000000000000000000000000000000000000000000000000000000815260040161094e9061165b565b60405180910390fd5b5f8054906101000a900473ffffffffffffffffffffffffffffffffffffffff1673ffffffffffffffffffffffffffffffffffffffff166108fc4790811502906040515f60405180830381858888f193505050501580156109b9573d5f803e3d5ffd5b50600160055f6101000a81548160ff021916908360018111156109df576109de611031565b5b02179055507f0bd8a3eb532e5fbcd3f5b00335f0fb42fdc11969e9af0fab7c9e71a36ae0d31a60405160405180910390a1565b5f8054906101000a900473ffffffffffffffffffffffffffffffffffffffff1673ffffffffffffffffffffffffffffffffffffffff163373ffffffffffffffffffffffffffffffffffffffff1614610a9f576040517f08c379a0000000000000000000000000000000000000000000000000000000008152600401610a9690611176565b60405180910390fd5b80471015610ae2576040517f08c379a0000000000000000000000000000000000000000000000000000000008152600401610ad9906116c3565b60405180910390fd5b5f8054906101000a900473ffffffffffffffffffffffffffffffffffffffff1673ffffffffffffffffffffffffffffffffffffffff166108fc8290811502906040515f60405180830381858888f19350505050158015610b44573d5f803e3d5ffd5b5050565b60035481565b60015f9054906101000a900473ffffffffffffffffffffffffffffffffffffffff1681565b60055f9054906101000a900460ff1681565b5f6001811115610b9857610b97611031565b5b60055f9054906101000a900460ff166001811115610bb957610bb8611031565b5b14610bf9576040517f08c379a0000000000000000000000000000000000000000000000000000000008152600401610bf0906111de565b60405180910390fd5b8060015f9054906101000a900473ffffffffffffffffffffffffffffffffffffffff1673ffffffffffffffffffffffffffffffffffffffff166370a08231336040518263ffffffff1660e01b8152600401610c549190611380565b602060405180830381865afa158015610c6f573d5f803e3d5ffd5b505050506040513d601f19601f82011682018060405250810190610c9391906113ad565b1015610cd4576040517f08c379a0000000000000000000000000000000000000000000000000000000008152600401610ccb9061172b565b60405180910390fd5b80471015610d17576040517f08c379a0000000000000000000000000000000000000000000000000000000008152600401610d0e906116c3565b60405180910390fd5b60015f9054906101000a900473ffffffffffffffffffffffffffffffffffffffff1673ffffffffffffffffffffffffffffffffffffffff166323b872dd3330846040518463ffffffff1660e01b8152600401610d7593929190611749565b6020604051808303815f875af1158015610d91573d5f803e3d5ffd5b505050506040513d601f19601f82011682018060405250810190610db5919061149c565b610df4576040517f08c379a0000000000000000000000000000000000000000000000000000000008152600401610deb90611511565b60405180910390fd5b5f60025482610e039190611229565b90503373ffffffffffffffffffffffffffffffffffffffff166108fc8290811502906040515f60405180830381858888f19350505050158015610e48573d5f803e3d5ffd5b508160035f828254610e5a919061177e565b9250508190555060015f9054906101000a900473ffffffffffffffffffffffffffffffffffffffff1673ffffffffffffffffffffffffffffffffffffffff163373ffffffffffffffffffffffffffffffffffffffff167ff3ecb4dab83f41da3035ff9cb3a2ef0c3027ebb89ae4e4b822d7c109e869a2fc84604051610edf9190610f2c565b60405180910390a35050565b60025481565b5f8054906101000a900473ffffffffffffffffffffffffffffffffffffffff1681565b5f819050919050565b610f2681610f14565b82525050565b5f602082019050610f3f5f830184610f1d565b92915050565b5f80fd5b610f5281610f14565b8114610f5c575f80fd5b50565b5f81359050610f6d81610f49565b92915050565b5f60208284031215610f8857610f87610f45565b5b5f610f9584828501610f5f565b91505092915050565b5f73ffffffffffffffffffffffffffffffffffffffff82169050919050565b5f819050919050565b5f610fe0610fdb610fd684610f9e565b610fbd565b610f9e565b9050919050565b5f610ff182610fc6565b9050919050565b5f61100282610fe7565b9050919050565b61101281610ff8565b82525050565b5f60208201905061102b5f830184611009565b92915050565b7f4e487b71000000000000000000000000000000000000000000000000000000005f52602160045260245ffd5b6002811061106f5761106e611031565b5b50565b5f81905061107f8261105e565b919050565b5f61108e82611072565b9050919050565b61109e81611084565b82525050565b5f6020820190506110b75f830184611095565b92915050565b5f6110c782610f9e565b9050919050565b6110d7816110bd565b82525050565b5f6020820190506110f05f8301846110ce565b92915050565b5f82825260208201905092915050565b7f4f6e6c79207468652061646d696e2063616e2063616c6c20746869732066756e5f8201527f6374696f6e000000000000000000000000000000000000000000000000000000602082015250565b5f6111606025836110f6565b915061116b82611106565b604082019050919050565b5f6020820190508181035f83015261118d81611154565b9050919050565b7f5468652073616c65206973206e6f7420616374697665000000000000000000005f82015250565b5f6111c86016836110f6565b91506111d382611194565b602082019050919050565b5f6020820190508181035f8301526111f5816111bc565b9050919050565b7f4e487b71000000000000000000000000000000000000000000000000000000005f52601160045260245ffd5b5f61123382610f14565b915061123e83610f14565b925082820261124c81610f14565b91508282048414831517611263576112626111fc565b5b5092915050565b7f496e636f72726563742076616c75652073656e740000000000000000000000005f82015250565b5f61129e6014836110f6565b91506112a98261126a565b602082019050919050565b5f6020820190508181035f8301526112cb81611292565b9050919050565b7f4e756d626572206f6620746f6b656e73206d75737420626520677265617465725f8201527f207468616e207a65726f00000000000000000000000000000000000000000000602082015250565b5f61132c602a836110f6565b9150611337826112d2565b604082019050919050565b5f6020820190508181035f83015261135981611320565b9050919050565b5f61136a82610f9e565b9050919050565b61137a81611360565b82525050565b5f6020820190506113935f830184611371565b92915050565b5f815190506113a781610f49565b92915050565b5f602082840312156113c2576113c1610f45565b5b5f6113cf84828501611399565b91505092915050565b7f4e6f7420656e6f75676820746f6b656e7320617661696c61626c6500000000005f82015250565b5f61140c601b836110f6565b9150611417826113d8565b602082019050919050565b5f6020820190508181035f83015261143981611400565b9050919050565b5f6040820190506114535f830185611371565b6114606020830184610f1d565b9392505050565b5f8115159050919050565b61147b81611467565b8114611485575f80fd5b50565b5f8151905061149681611472565b92915050565b5f602082840312156114b1576114b0610f45565b5b5f6114be84828501611488565b91505092915050565b7f546f6b656e207472616e73666572206661696c656400000000000000000000005f82015250565b5f6114fb6015836110f6565b9150611506826114c7565b602082019050919050565b5f6020820190508181035f830152611528816114ef565b9050919050565b5f61153982610f14565b915061154483610f14565b925082820190508082111561155c5761155b6111fc565b5b92915050565b7f5468652073616c6520697320616c726561647920656e646564000000000000005f82015250565b5f6115966019836110f6565b91506115a182611562565b602082019050919050565b5f6020820190508181035f8301526115c38161158a565b9050919050565b5f6115d482610fe7565b9050919050565b6115e4816115ca565b82525050565b5f6040820190506115fd5f8301856115db565b61160a6020830184610f1d565b9392505050565b7f546f6b656e207472616e7366657220746f2061646d696e206661696c656400005f82015250565b5f611645601e836110f6565b915061165082611611565b602082019050919050565b5f6020820190508181035f83015261167281611639565b9050919050565b7f496e73756666696369656e742045746865722062616c616e63650000000000005f82015250565b5f6116ad601a836110f6565b91506116b882611679565b602082019050919050565b5f6020820190508181035f8301526116da816116a1565b9050919050565b7f496e73756666696369656e7420746f6b656e2062616c616e63650000000000005f82015250565b5f611715601a836110f6565b9150611720826116e1565b602082019050919050565b5f6020820190508181035f83015261174281611709565b9050919050565b5f60608201905061175c5f830186611371565b6117696020830185611371565b6117766040830184610f1d565b949350505050565b5f61178882610f14565b915061179383610f14565b92508282039050818111156117ab576117aa6111fc565b5b9291505056fea264697066735822122045e587905ca33fa3be94be3f6ea0fda1a0c3cc59e50ccc86dc53601e9960241564736f6c63430008160033",
  "linkReferences": {},
  "deployedLinkReferences": {}
}