{
  "_format": "hh-sol-artifact-1",
  "contractName": "Transactions",
  "sourceName": "contracts/Transactions.sol",
  "abi": [
    {
      "anonymous": false,
      "inputs": [
        {
          "indexed": false,
          "internalType": "address",
          "name": "from",
          "type": "address"
        },
        {
          "indexed": false,
          "internalType": "address",
          "name": "reciver",
          "type": "address"
        },
        {
          "indexed": false,
          "internalType": "uint256",
          "name": "amount",
          "type": "uint256"
        },
        {
          "indexed": false,
          "internalType": "string",
          "name": "message",
          "type": "string"
        },
        {
          "indexed": false,
          "internalType": "uint256",
          "name": "timestamp",
          "type": "uint256"
        }
      ],
      "name": "Transfer",
      "type": "event"
    },
    {
      "inputs": [],
      "name": "getAllTransactions",
      "outputs": [
        {
          "components": [
            {
              "internalType": "address",
              "name": "sender",
              "type": "address"
            },
            {
              "internalType": "address",
              "name": "reciver",
              "type": "address"
            },
            {
              "internalType": "uint256",
              "name": "amount",
              "type": "uint256"
            },
            {
              "internalType": "string",
              "name": "message",
              "type": "string"
            },
            {
              "internalType": "uint256",
              "name": "timestamp",
              "type": "uint256"
            }
          ],
          "internalType": "struct Transactions.TransferStruct[]",
          "name": "",
          "type": "tuple[]"
        }
      ],
      "stateMutability": "view",
      "type": "function"
    },
    {
      "inputs": [],
      "name": "getTransactionsCount",
      "outputs": [
        {
          "internalType": "uint256",
          "name": "",
          "type": "uint256"
        }
      ],
      "stateMutability": "view",
      "type": "function"
    },
    {
      "inputs": [
        {
          "internalType": "address payable",
          "name": "reciver",
          "type": "address"
        },
        {
          "internalType": "uint256",
          "name": "amount",
          "type": "uint256"
        },
        {
          "internalType": "string",
          "name": "message",
          "type": "string"
        }
      ],
      "name": "sendTransaction",
      "outputs": [],
      "stateMutability": "payable",
      "type": "function"
    }
  ],
  "bytecode": "0x608060405234801561000f575f80fd5b50610caa8061001d5f395ff3fe608060405260043610610033575f3560e01c806327506f5314610037578063578cb8f914610061578063928cb4331461008b575b5f80fd5b348015610042575f80fd5b5061004b6100a7565b60405161005891906105f4565b60405180910390f35b34801561006c575f80fd5b50610075610250565b6040516100829190610623565b60405180910390f35b6100a560048036038101906100a091906107de565b610258565b005b60606001805480602002602001604051908101604052809291908181526020015f905b82821015610247578382905f5260205f2090600502016040518060a00160405290815f82015f9054906101000a900473ffffffffffffffffffffffffffffffffffffffff1673ffffffffffffffffffffffffffffffffffffffff1673ffffffffffffffffffffffffffffffffffffffff168152602001600182015f9054906101000a900473ffffffffffffffffffffffffffffffffffffffff1673ffffffffffffffffffffffffffffffffffffffff1673ffffffffffffffffffffffffffffffffffffffff168152602001600282015481526020016003820180546101ae90610877565b80601f01602080910402602001604051908101604052809291908181526020018280546101da90610877565b80156102255780601f106101fc57610100808354040283529160200191610225565b820191905f5260205f20905b81548152906001019060200180831161020857829003601f168201915b50505050508152602001600482015481525050815260200190600101906100ca565b50505050905090565b5f8054905090565b60015f8082825461026991906108d4565b9250508190555060016040518060a001604052803373ffffffffffffffffffffffffffffffffffffffff1681526020018573ffffffffffffffffffffffffffffffffffffffff16815260200184815260200183815260200142815250908060018154018082558091505060019003905f5260205f2090600502015f909190919091505f820151815f015f6101000a81548173ffffffffffffffffffffffffffffffffffffffff021916908373ffffffffffffffffffffffffffffffffffffffff1602179055506020820151816001015f6101000a81548173ffffffffffffffffffffffffffffffffffffffff021916908373ffffffffffffffffffffffffffffffffffffffff1602179055506040820151816002015560608201518160030190816103949190610aa4565b506080820151816004015550507fc4b32d7ff75a51e487f3cbb5d3202f2efecca1f4c2b987e0039c1d3220b48a8333848484426040516103d8959493929190610c1c565b60405180910390a1505050565b5f81519050919050565b5f82825260208201905092915050565b5f819050602082019050919050565b5f73ffffffffffffffffffffffffffffffffffffffff82169050919050565b5f6104378261040e565b9050919050565b6104478161042d565b82525050565b5f819050919050565b61045f8161044d565b82525050565b5f81519050919050565b5f82825260208201905092915050565b5f5b8381101561049c578082015181840152602081019050610481565b5f8484015250505050565b5f601f19601f8301169050919050565b5f6104c182610465565b6104cb818561046f565b93506104db81856020860161047f565b6104e4816104a7565b840191505092915050565b5f60a083015f8301516105045f86018261043e565b506020830151610517602086018261043e565b50604083015161052a6040860182610456565b506060830151848203606086015261054282826104b7565b91505060808301516105576080860182610456565b508091505092915050565b5f61056d83836104ef565b905092915050565b5f602082019050919050565b5f61058b826103e5565b61059581856103ef565b9350836020820285016105a7856103ff565b805f5b858110156105e257848403895281516105c38582610562565b94506105ce83610575565b925060208a019950506001810190506105aa565b50829750879550505050505092915050565b5f6020820190508181035f83015261060c8184610581565b905092915050565b61061d8161044d565b82525050565b5f6020820190506106365f830184610614565b92915050565b5f604051905090565b5f80fd5b5f80fd5b5f6106578261040e565b9050919050565b6106678161064d565b8114610671575f80fd5b50565b5f813590506106828161065e565b92915050565b6106918161044d565b811461069b575f80fd5b50565b5f813590506106ac81610688565b92915050565b5f80fd5b5f80fd5b7f4e487b71000000000000000000000000000000000000000000000000000000005f52604160045260245ffd5b6106f0826104a7565b810181811067ffffffffffffffff8211171561070f5761070e6106ba565b5b80604052505050565b5f61072161063c565b905061072d82826106e7565b919050565b5f67ffffffffffffffff82111561074c5761074b6106ba565b5b610755826104a7565b9050602081019050919050565b828183375f83830152505050565b5f61078261077d84610732565b610718565b90508281526020810184848401111561079e5761079d6106b6565b5b6107a9848285610762565b509392505050565b5f82601f8301126107c5576107c46106b2565b5b81356107d5848260208601610770565b91505092915050565b5f805f606084860312156107f5576107f4610645565b5b5f61080286828701610674565b93505060206108138682870161069e565b925050604084013567ffffffffffffffff81111561083457610833610649565b5b610840868287016107b1565b9150509250925092565b7f4e487b71000000000000000000000000000000000000000000000000000000005f52602260045260245ffd5b5f600282049050600182168061088e57607f821691505b6020821081036108a1576108a061084a565b5b50919050565b7f4e487b71000000000000000000000000000000000000000000000000000000005f52601160045260245ffd5b5f6108de8261044d565b91506108e98361044d565b9250828201905080821115610901576109006108a7565b5b92915050565b5f819050815f5260205f209050919050565b5f6020601f8301049050919050565b5f82821b905092915050565b5f600883026109637fffffffffffffffffffffffffffffffffffffffffffffffffffffffffffffffff82610928565b61096d8683610928565b95508019841693508086168417925050509392505050565b5f819050919050565b5f6109a86109a361099e8461044d565b610985565b61044d565b9050919050565b5f819050919050565b6109c18361098e565b6109d56109cd826109af565b848454610934565b825550505050565b5f90565b6109e96109dd565b6109f48184846109b8565b505050565b5b81811015610a1757610a0c5f826109e1565b6001810190506109fa565b5050565b601f821115610a5c57610a2d81610907565b610a3684610919565b81016020851015610a45578190505b610a59610a5185610919565b8301826109f9565b50505b505050565b5f82821c905092915050565b5f610a7c5f1984600802610a61565b1980831691505092915050565b5f610a948383610a6d565b9150826002028217905092915050565b610aad82610465565b67ffffffffffffffff811115610ac657610ac56106ba565b5b610ad08254610877565b610adb828285610a1b565b5f60209050601f831160018114610b0c575f8415610afa578287015190505b610b048582610a89565b865550610b6b565b601f198416610b1a86610907565b5f5b82811015610b4157848901518255600182019150602085019450602081019050610b1c565b86831015610b5e5784890151610b5a601f891682610a6d565b8355505b6001600288020188555050505b505050505050565b610b7c8161042d565b82525050565b5f610b9c610b97610b928461040e565b610985565b61040e565b9050919050565b5f610bad82610b82565b9050919050565b5f610bbe82610ba3565b9050919050565b610bce81610bb4565b82525050565b5f82825260208201905092915050565b5f610bee82610465565b610bf88185610bd4565b9350610c0881856020860161047f565b610c11816104a7565b840191505092915050565b5f60a082019050610c2f5f830188610b73565b610c3c6020830187610bc5565b610c496040830186610614565b8181036060830152610c5b8185610be4565b9050610c6a6080830184610614565b969550505050505056fea264697066735822122084fe7cede48445afb73b5a128e65b6f0f15994acab0e91c46006c9fa116306eb64736f6c63430008150033",
  "linkReferences": {},
  "deployedLinkReferences": {}
}