{
  "_format": "hh-sol-artifact-1",
  "contractName": "Transactions",
  "sourceName": "contracts/Transactions.sol",
  "abi": [
    {
      "inputs": [
        {
          "internalType": "contract FossaToken",
          "name": "_tokenContract",
          "type": "address"
        },
        {
          "internalType": "uint256",
          "name": "_tokenPrice",
          "type": "uint256"
        }
      ],
      "stateMutability": "nonpayable",
      "type": "constructor"
    },
    {
      "anonymous": false,
      "inputs": [
        {
          "indexed": false,
          "internalType": "address",
          "name": "_buyer",
          "type": "address"
        },
        {
          "indexed": false,
          "internalType": "uint256",
          "name": "_amount",
          "type": "uint256"
        }
      ],
      "name": "Buy",
      "type": "event"
    },
    {
      "anonymous": false,
      "inputs": [
        {
          "indexed": false,
          "internalType": "address",
          "name": "_account",
          "type": "address"
        },
        {
          "indexed": false,
          "internalType": "address",
          "name": "_tokenContract",
          "type": "address"
        },
        {
          "indexed": false,
          "internalType": "uint256",
          "name": "_amount",
          "type": "uint256"
        }
      ],
      "name": "Sold",
      "type": "event"
    },
    {
      "stateMutability": "payable",
      "type": "fallback"
    },
    {
      "inputs": [],
      "name": "admin",
      "outputs": [
        {
          "internalType": "address payable",
          "name": "",
          "type": "address"
        }
      ],
      "stateMutability": "view",
      "type": "function"
    },
    {
      "inputs": [
        {
          "internalType": "uint256",
          "name": "_numberOfTokens",
          "type": "uint256"
        }
      ],
      "name": "buyTokens",
      "outputs": [],
      "stateMutability": "payable",
      "type": "function"
    },
    {
      "inputs": [],
      "name": "endSale",
      "outputs": [],
      "stateMutability": "payable",
      "type": "function"
    },
    {
      "inputs": [
        {
          "internalType": "uint256",
          "name": "_amount",
          "type": "uint256"
        }
      ],
      "name": "sellTokens",
      "outputs": [],
      "stateMutability": "payable",
      "type": "function"
    },
    {
      "inputs": [],
      "name": "tokenContract",
      "outputs": [
        {
          "internalType": "contract FossaToken",
          "name": "",
          "type": "address"
        }
      ],
      "stateMutability": "view",
      "type": "function"
    },
    {
      "inputs": [],
      "name": "tokenPrice",
      "outputs": [
        {
          "internalType": "uint256",
          "name": "",
          "type": "uint256"
        }
      ],
      "stateMutability": "view",
      "type": "function"
    },
    {
      "inputs": [],
      "name": "tokensSold",
      "outputs": [
        {
          "internalType": "uint256",
          "name": "",
          "type": "uint256"
        }
      ],
      "stateMutability": "view",
      "type": "function"
    },
    {
      "stateMutability": "payable",
      "type": "receive"
    }
  ],
  "bytecode": "0x608060405266038d7ea4c680006002553480156200001b575f80fd5b50604051620011f4380380620011f483398181016040528101906200004191906200017f565b335f806101000a81548173ffffffffffffffffffffffffffffffffffffffff021916908373ffffffffffffffffffffffffffffffffffffffff1602179055508160015f6101000a81548173ffffffffffffffffffffffffffffffffffffffff021916908373ffffffffffffffffffffffffffffffffffffffff160217905550806002819055505050620001c4565b5f80fd5b5f73ffffffffffffffffffffffffffffffffffffffff82169050919050565b5f620000fe82620000d3565b9050919050565b5f6200011182620000f2565b9050919050565b620001238162000105565b81146200012e575f80fd5b50565b5f81519050620001418162000118565b92915050565b5f819050919050565b6200015b8162000147565b811462000166575f80fd5b50565b5f81519050620001798162000150565b92915050565b5f8060408385031215620001985762000197620000cf565b5b5f620001a78582860162000131565b9250506020620001ba8582860162000169565b9150509250929050565b61102280620001d25f395ff3fe608060405260043610610073575f3560e01c806355a373d61161004d57806355a373d6146100cc5780636c11bcd3146100f65780637ff9b59614610112578063f851a4401461013c5761007a565b80633610724e1461007c578063380d831b14610098578063518ab2a8146100a25761007a565b3661007a57005b005b61009660048036038101906100919190610996565b610166565b005b6100a06103bf565b005b3480156100ad575f80fd5b506100b6610643565b6040516100c391906109d0565b60405180910390f35b3480156100d7575f80fd5b506100e0610649565b6040516100ed9190610a63565b60405180910390f35b610110600480360381019061010b9190610996565b61066e565b005b34801561011d575f80fd5b50610126610936565b60405161013391906109d0565b60405180910390f35b348015610147575f80fd5b5061015061093c565b60405161015d9190610a9c565b60405180910390f35b600254816101749190610ae2565b34146101b5576040517f08c379a00000000000000000000000000000000000000000000000000000000081526004016101ac90610b7d565b60405180910390fd5b8060015f9054906101000a900473ffffffffffffffffffffffffffffffffffffffff1673ffffffffffffffffffffffffffffffffffffffff166370a08231306040518263ffffffff1660e01b81526004016102109190610bbb565b602060405180830381865afa15801561022b573d5f803e3d5ffd5b505050506040513d601f19601f8201168201806040525081019061024f9190610be8565b1015610290576040517f08c379a000000000000000000000000000000000000000000000000000000000815260040161028790610c5d565b60405180910390fd5b60015f9054906101000a900473ffffffffffffffffffffffffffffffffffffffff1673ffffffffffffffffffffffffffffffffffffffff1663a9059cbb33836040518363ffffffff1660e01b81526004016102ec929190610c7b565b6020604051808303815f875af1158015610308573d5f803e3d5ffd5b505050506040513d601f19601f8201168201806040525081019061032c9190610cd7565b61036b576040517f08c379a000000000000000000000000000000000000000000000000000000000815260040161036290610d4c565b60405180910390fd5b8060035f82825461037c9190610d6a565b925050819055507fe3d4187f6ca4248660cc0ac8b8056515bac4a8132be2eca31d6d0cc170722a7e33826040516103b4929190610c7b565b60405180910390a150565b5f8054906101000a900473ffffffffffffffffffffffffffffffffffffffff1673ffffffffffffffffffffffffffffffffffffffff163373ffffffffffffffffffffffffffffffffffffffff161461044c576040517f08c379a000000000000000000000000000000000000000000000000000000000815260040161044390610de7565b60405180910390fd5b60015f9054906101000a900473ffffffffffffffffffffffffffffffffffffffff1673ffffffffffffffffffffffffffffffffffffffff1663a9059cbb5f8054906101000a900473ffffffffffffffffffffffffffffffffffffffff1660015f9054906101000a900473ffffffffffffffffffffffffffffffffffffffff1673ffffffffffffffffffffffffffffffffffffffff166370a08231306040518263ffffffff1660e01b81526004016105039190610bbb565b602060405180830381865afa15801561051e573d5f803e3d5ffd5b505050506040513d601f19601f820116820180604052508101906105429190610be8565b6040518363ffffffff1660e01b815260040161055f929190610e25565b6020604051808303815f875af115801561057b573d5f803e3d5ffd5b505050506040513d601f19601f8201168201806040525081019061059f9190610cd7565b6105de576040517f08c379a00000000000000000000000000000000000000000000000000000000081526004016105d590610e96565b60405180910390fd5b5f8054906101000a900473ffffffffffffffffffffffffffffffffffffffff1673ffffffffffffffffffffffffffffffffffffffff166108fc4790811502906040515f60405180830381858888f19350505050158015610640573d5f803e3d5ffd5b50565b60035481565b60015f9054906101000a900473ffffffffffffffffffffffffffffffffffffffff1681565b8060015f9054906101000a900473ffffffffffffffffffffffffffffffffffffffff1673ffffffffffffffffffffffffffffffffffffffff166370a08231336040518263ffffffff1660e01b81526004016106c99190610bbb565b602060405180830381865afa1580156106e4573d5f803e3d5ffd5b505050506040513d601f19601f820116820180604052508101906107089190610be8565b1015610749576040517f08c379a000000000000000000000000000000000000000000000000000000000815260040161074090610efe565b60405180910390fd5b8047101561078c576040517f08c379a000000000000000000000000000000000000000000000000000000000815260040161078390610f66565b60405180910390fd5b60015f9054906101000a900473ffffffffffffffffffffffffffffffffffffffff1673ffffffffffffffffffffffffffffffffffffffff166323b872dd3330846040518463ffffffff1660e01b81526004016107ea93929190610f84565b6020604051808303815f875af1158015610806573d5f803e3d5ffd5b505050506040513d601f19601f8201168201806040525081019061082a9190610cd7565b610869576040517f08c379a000000000000000000000000000000000000000000000000000000000815260040161086090610d4c565b60405180910390fd5b5f600254826108789190610ae2565b90503373ffffffffffffffffffffffffffffffffffffffff166108fc8290811502906040515f60405180830381858888f193505050501580156108bd573d5f803e3d5ffd5b508160035f8282546108cf9190610fb9565b925050819055507ff3ecb4dab83f41da3035ff9cb3a2ef0c3027ebb89ae4e4b822d7c109e869a2fc3360015f9054906101000a900473ffffffffffffffffffffffffffffffffffffffff168460405161092a93929190610f84565b60405180910390a15050565b60025481565b5f8054906101000a900473ffffffffffffffffffffffffffffffffffffffff1681565b5f80fd5b5f819050919050565b61097581610963565b811461097f575f80fd5b50565b5f813590506109908161096c565b92915050565b5f602082840312156109ab576109aa61095f565b5b5f6109b884828501610982565b91505092915050565b6109ca81610963565b82525050565b5f6020820190506109e35f8301846109c1565b92915050565b5f73ffffffffffffffffffffffffffffffffffffffff82169050919050565b5f819050919050565b5f610a2b610a26610a21846109e9565b610a08565b6109e9565b9050919050565b5f610a3c82610a11565b9050919050565b5f610a4d82610a32565b9050919050565b610a5d81610a43565b82525050565b5f602082019050610a765f830184610a54565b92915050565b5f610a86826109e9565b9050919050565b610a9681610a7c565b82525050565b5f602082019050610aaf5f830184610a8d565b92915050565b7f4e487b71000000000000000000000000000000000000000000000000000000005f52601160045260245ffd5b5f610aec82610963565b9150610af783610963565b9250828202610b0581610963565b91508282048414831517610b1c57610b1b610ab5565b5b5092915050565b5f82825260208201905092915050565b7f496e636f72726563742076616c75652073656e740000000000000000000000005f82015250565b5f610b67601483610b23565b9150610b7282610b33565b602082019050919050565b5f6020820190508181035f830152610b9481610b5b565b9050919050565b5f610ba5826109e9565b9050919050565b610bb581610b9b565b82525050565b5f602082019050610bce5f830184610bac565b92915050565b5f81519050610be28161096c565b92915050565b5f60208284031215610bfd57610bfc61095f565b5b5f610c0a84828501610bd4565b91505092915050565b7f4e6f7420656e6f75676820746f6b656e7320617661696c61626c6500000000005f82015250565b5f610c47601b83610b23565b9150610c5282610c13565b602082019050919050565b5f6020820190508181035f830152610c7481610c3b565b9050919050565b5f604082019050610c8e5f830185610bac565b610c9b60208301846109c1565b9392505050565b5f8115159050919050565b610cb681610ca2565b8114610cc0575f80fd5b50565b5f81519050610cd181610cad565b92915050565b5f60208284031215610cec57610ceb61095f565b5b5f610cf984828501610cc3565b91505092915050565b7f546f6b656e207472616e73666572206661696c656400000000000000000000005f82015250565b5f610d36601583610b23565b9150610d4182610d02565b602082019050919050565b5f6020820190508181035f830152610d6381610d2a565b9050919050565b5f610d7482610963565b9150610d7f83610963565b9250828201905080821115610d9757610d96610ab5565b5b92915050565b7f4f6e6c79207468652061646d696e2063616e20656e64207468652073616c65005f82015250565b5f610dd1601f83610b23565b9150610ddc82610d9d565b602082019050919050565b5f6020820190508181035f830152610dfe81610dc5565b9050919050565b5f610e0f82610a32565b9050919050565b610e1f81610e05565b82525050565b5f604082019050610e385f830185610e16565b610e4560208301846109c1565b9392505050565b7f546f6b656e207472616e7366657220746f2061646d696e206661696c656400005f82015250565b5f610e80601e83610b23565b9150610e8b82610e4c565b602082019050919050565b5f6020820190508181035f830152610ead81610e74565b9050919050565b7f496e73756666696369656e7420746f6b656e2062616c616e63650000000000005f82015250565b5f610ee8601a83610b23565b9150610ef382610eb4565b602082019050919050565b5f6020820190508181035f830152610f1581610edc565b9050919050565b7f496e73756666696369656e742045746865722062616c616e63650000000000005f82015250565b5f610f50601a83610b23565b9150610f5b82610f1c565b602082019050919050565b5f6020820190508181035f830152610f7d81610f44565b9050919050565b5f606082019050610f975f830186610bac565b610fa46020830185610bac565b610fb160408301846109c1565b949350505050565b5f610fc382610963565b9150610fce83610963565b9250828203905081811115610fe657610fe5610ab5565b5b9291505056fea2646970667358221220f0dfdb2fd12def9b80b5bafe7799f84252453cdc6faf8b7a6b720c556db5d2cc64736f6c63430008160033",
  "linkReferences": {},
  "deployedLinkReferences": {}
}